{
	"contracts/EntityContract.sol": {
		"EntityContract": {
			"abi": [
				{
					"anonymous": false,
					"inputs": [
						{
							"indexed": true,
							"internalType": "address",
							"name": "entityAddress",
							"type": "address"
						},
						{
							"indexed": false,
							"internalType": "string",
							"name": "name",
							"type": "string"
						},
						{
							"indexed": false,
							"internalType": "string",
							"name": "role",
							"type": "string"
						},
						{
							"indexed": false,
							"internalType": "string",
							"name": "licenseNumber",
							"type": "string"
						}
					],
					"name": "EntityRegistered",
					"type": "event"
				},
				{
					"anonymous": false,
					"inputs": [
						{
							"indexed": false,
							"internalType": "string",
							"name": "name",
							"type": "string"
						},
						{
							"indexed": false,
							"internalType": "string",
							"name": "location",
							"type": "string"
						},
						{
							"indexed": false,
							"internalType": "string",
							"name": "reason",
							"type": "string"
						}
					],
					"name": "RegistrationRejected",
					"type": "event"
				},
				{
					"anonymous": false,
					"inputs": [
						{
							"indexed": false,
							"internalType": "address",
							"name": "from",
							"type": "address"
						},
						{
							"indexed": false,
							"internalType": "address",
							"name": "to",
							"type": "address"
						},
						{
							"indexed": false,
							"internalType": "bool",
							"name": "isValid",
							"type": "bool"
						},
						{
							"indexed": false,
							"internalType": "string",
							"name": "message",
							"type": "string"
						}
					],
					"name": "TransferValidation",
					"type": "event"
				},
				{
					"inputs": [
						{
							"internalType": "string",
							"name": "_role",
							"type": "string"
						}
					],
					"name": "getEntitiesByRole",
					"outputs": [
						{
							"internalType": "address[]",
							"name": "",
							"type": "address[]"
						}
					],
					"stateMutability": "view",
					"type": "function"
				},
				{
					"inputs": [
						{
							"internalType": "address",
							"name": "_entityAddress",
							"type": "address"
						}
					],
					"name": "getEntityInfo",
					"outputs": [
						{
							"internalType": "string",
							"name": "name",
							"type": "string"
						},
						{
							"internalType": "string",
							"name": "location",
							"type": "string"
						},
						{
							"internalType": "bool",
							"name": "isRegistered",
							"type": "bool"
						},
						{
							"internalType": "string",
							"name": "licenseNumber",
							"type": "string"
						},
						{
							"internalType": "string",
							"name": "role",
							"type": "string"
						}
					],
					"stateMutability": "view",
					"type": "function"
				},
				{
					"inputs": [
						{
							"internalType": "address",
							"name": "_from",
							"type": "address"
						},
						{
							"internalType": "address",
							"name": "_to",
							"type": "address"
						}
					],
					"name": "isValidTransfer",
					"outputs": [
						{
							"internalType": "bool",
							"name": "",
							"type": "bool"
						}
					],
					"stateMutability": "nonpayable",
					"type": "function"
				},
				{
					"inputs": [
						{
							"internalType": "string",
							"name": "_name",
							"type": "string"
						},
						{
							"internalType": "string",
							"name": "_location",
							"type": "string"
						},
						{
							"internalType": "string",
							"name": "_role",
							"type": "string"
						},
						{
							"internalType": "string",
							"name": "_licenseNumber",
							"type": "string"
						}
					],
					"name": "registerEntity",
					"outputs": [],
					"stateMutability": "nonpayable",
					"type": "function"
				},
				{
					"inputs": [
						{
							"internalType": "address",
							"name": "_from",
							"type": "address"
						},
						{
							"internalType": "address",
							"name": "_to",
							"type": "address"
						}
					],
					"name": "validateTransfer",
					"outputs": [
						{
							"internalType": "bool",
							"name": "",
							"type": "bool"
						}
					],
					"stateMutability": "view",
					"type": "function"
				}
			],
			"devdoc": {
				"kind": "dev",
				"methods": {},
				"version": 1
			},
			"evm": {
				"assembly": "    /* \"contracts/EntityContract.sol\":60:9208  contract EntityContract {... */\n  mstore(0x40, 0x80)\n    /* \"contracts/EntityContract.sol\":409:594  string[] private blacklistedLocations = [... */\n  mload(0x40)\n  dup1\n  0xc0\n  add\n  0x40\n  mstore\n  dup1\n  mload(0x40)\n  dup1\n  0x40\n  add\n  0x40\n  mstore\n  dup1\n  0x06\n  dup2\n  mstore\n  0x20\n  add\n  0x616e676f6c610000000000000000000000000000000000000000000000000000\n  dup2\n  mstore\n  pop\n  dup2\n  mstore\n  0x20\n  add\n  mload(0x40)\n  dup1\n  0x40\n  add\n  0x40\n  mstore\n  dup1\n  0x18\n  dup2\n  mstore\n  0x20\n  add\n  0x63656e7472616c206166726963616e2072657075626c69630000000000000000\n  dup2\n  mstore\n  pop\n  dup2\n  mstore\n  0x20\n  add\n  mload(0x40)\n  dup1\n  0x40\n  add\n  0x40\n  mstore\n  dup1\n  0x05\n  dup2\n  mstore\n  0x20\n  add\n  0x636f6e676f000000000000000000000000000000000000000000000000000000\n  dup2\n  mstore\n  pop\n  dup2\n  mstore\n  0x20\n  add\n  mload(0x40)\n  dup1\n  0x40\n  add\n  0x40\n  mstore\n  dup1\n  0x06\n  dup2\n  mstore\n  0x20\n  add\n  0x6775696e65610000000000000000000000000000000000000000000000000000\n  dup2\n  mstore\n  pop\n  dup2\n  mstore\n  0x20\n  add\n  mload(0x40)\n  dup1\n  0x40\n  add\n  0x40\n  mstore\n  dup1\n  0x07\n  dup2\n  mstore\n  0x20\n  add\n  0x6c69626572696100000000000000000000000000000000000000000000000000\n  dup2\n  mstore\n  pop\n  dup2\n  mstore\n  0x20\n  add\n  mload(0x40)\n  dup1\n  0x40\n  add\n  0x40\n  mstore\n  dup1\n  0x0c\n  dup2\n  mstore\n  0x20\n  add\n  0x736965727261206c656f6e650000000000000000000000000000000000000000\n  dup2\n  mstore\n  pop\n  dup2\n  mstore\n  pop\n  0x00\n  swap1\n  0x06\n  tag_1\n  swap3\n  swap2\n  swap1\n  tag_2\n  jump\t// in\ntag_1:\n  pop\n    /* \"contracts/EntityContract.sol\":60:9208  contract EntityContract {... */\n  callvalue\n  dup1\n  iszero\n  tag_3\n  jumpi\n  0x00\n  dup1\n  revert\ntag_3:\n  pop\n  jump(tag_4)\ntag_2:\n  dup3\n  dup1\n  sload\n  dup3\n  dup3\n  sstore\n  swap1\n  0x00\n  mstore\n  keccak256(0x00, 0x20)\n  swap1\n  dup2\n  add\n  swap3\n  dup3\n  iszero\n  tag_5\n  jumpi\n  swap2\n  0x20\n  mul\n  dup3\n  add\ntag_6:\n  dup3\n  dup2\n  gt\n  iszero\n  tag_7\n  jumpi\n  dup3\n  mload\n  dup3\n  swap1\n  dup2\n  tag_8\n  swap2\n  swap1\n  tag_9\n  jump\t// in\ntag_8:\n  pop\n  swap2\n  0x20\n  add\n  swap2\n  swap1\n  0x01\n  add\n  swap1\n  jump(tag_6)\ntag_7:\ntag_5:\n  pop\n  swap1\n  pop\n  tag_10\n  swap2\n  swap1\n  tag_11\n  jump\t// in\ntag_10:\n  pop\n  swap1\n  jump\t// out\ntag_11:\ntag_12:\n  dup1\n  dup3\n  gt\n  iszero\n  tag_13\n  jumpi\n  0x00\n  dup2\n  dup2\n  tag_14\n  swap2\n  swap1\n  tag_15\n  jump\t// in\ntag_14:\n  pop\n  0x01\n  add\n  jump(tag_12)\ntag_13:\n  pop\n  swap1\n  jump\t// out\ntag_15:\n  pop\n  dup1\n  sload\n  tag_16\n  swap1\n  tag_17\n  jump\t// in\ntag_16:\n  0x00\n  dup3\n  sstore\n  dup1\n  0x1f\n  lt\n  tag_19\n  jumpi\n  pop\n  jump(tag_18)\ntag_19:\n  0x1f\n  add\n  0x20\n  swap1\n  div\n  swap1\n  0x00\n  mstore\n  keccak256(0x00, 0x20)\n  swap1\n  dup2\n  add\n  swap1\n  tag_20\n  swap2\n  swap1\n  tag_21\n  jump\t// in\ntag_20:\ntag_18:\n  pop\n  jump\t// out\ntag_21:\ntag_22:\n  dup1\n  dup3\n  gt\n  iszero\n  tag_23\n  jumpi\n  0x00\n  dup2\n  0x00\n  swap1\n  sstore\n  pop\n  0x01\n  add\n  jump(tag_22)\ntag_23:\n  pop\n  swap1\n  jump\t// out\n    /* \"#utility.yul\":7:106   */\ntag_24:\n    /* \"#utility.yul\":59:65   */\n  0x00\n    /* \"#utility.yul\":93:98   */\n  dup2\n    /* \"#utility.yul\":87:99   */\n  mload\n    /* \"#utility.yul\":77:99   */\n  swap1\n  pop\n    /* \"#utility.yul\":7:106   */\n  swap2\n  swap1\n  pop\n  jump\t// out\n    /* \"#utility.yul\":112:292   */\ntag_25:\n    /* \"#utility.yul\":160:237   */\n  0x4e487b7100000000000000000000000000000000000000000000000000000000\n    /* \"#utility.yul\":157:158   */\n  0x00\n    /* \"#utility.yul\":150:238   */\n  mstore\n    /* \"#utility.yul\":257:261   */\n  0x41\n    /* \"#utility.yul\":254:255   */\n  0x04\n    /* \"#utility.yul\":247:262   */\n  mstore\n    /* \"#utility.yul\":281:285   */\n  0x24\n    /* \"#utility.yul\":278:279   */\n  0x00\n    /* \"#utility.yul\":271:286   */\n  revert\n    /* \"#utility.yul\":298:478   */\ntag_26:\n    /* \"#utility.yul\":346:423   */\n  0x4e487b7100000000000000000000000000000000000000000000000000000000\n    /* \"#utility.yul\":343:344   */\n  0x00\n    /* \"#utility.yul\":336:424   */\n  mstore\n    /* \"#utility.yul\":443:447   */\n  0x22\n    /* \"#utility.yul\":440:441   */\n  0x04\n    /* \"#utility.yul\":433:448   */\n  mstore\n    /* \"#utility.yul\":467:471   */\n  0x24\n    /* \"#utility.yul\":464:465   */\n  0x00\n    /* \"#utility.yul\":457:472   */\n  revert\n    /* \"#utility.yul\":484:804   */\ntag_17:\n    /* \"#utility.yul\":528:534   */\n  0x00\n    /* \"#utility.yul\":565:566   */\n  0x02\n    /* \"#utility.yul\":559:563   */\n  dup3\n    /* \"#utility.yul\":555:567   */\n  div\n    /* \"#utility.yul\":545:567   */\n  swap1\n  pop\n    /* \"#utility.yul\":612:613   */\n  0x01\n    /* \"#utility.yul\":606:610   */\n  dup3\n    /* \"#utility.yul\":602:614   */\n  and\n    /* \"#utility.yul\":633:651   */\n  dup1\n    /* \"#utility.yul\":623:704   */\n  tag_48\n  jumpi\n    /* \"#utility.yul\":689:693   */\n  0x7f\n    /* \"#utility.yul\":681:687   */\n  dup3\n    /* \"#utility.yul\":677:694   */\n  and\n    /* \"#utility.yul\":667:694   */\n  swap2\n  pop\n    /* \"#utility.yul\":623:704   */\ntag_48:\n    /* \"#utility.yul\":751:753   */\n  0x20\n    /* \"#utility.yul\":743:749   */\n  dup3\n    /* \"#utility.yul\":740:754   */\n  lt\n    /* \"#utility.yul\":720:738   */\n  dup2\n    /* \"#utility.yul\":717:755   */\n  sub\n    /* \"#utility.yul\":714:798   */\n  tag_49\n  jumpi\n    /* \"#utility.yul\":770:788   */\n  tag_50\n  tag_26\n  jump\t// in\ntag_50:\n    /* \"#utility.yul\":714:798   */\ntag_49:\n    /* \"#utility.yul\":535:804   */\n  pop\n    /* \"#utility.yul\":484:804   */\n  swap2\n  swap1\n  pop\n  jump\t// out\n    /* \"#utility.yul\":810:951   */\ntag_27:\n    /* \"#utility.yul\":859:863   */\n  0x00\n    /* \"#utility.yul\":882:885   */\n  dup2\n    /* \"#utility.yul\":874:885   */\n  swap1\n  pop\n    /* \"#utility.yul\":905:908   */\n  dup2\n    /* \"#utility.yul\":902:903   */\n  0x00\n    /* \"#utility.yul\":895:909   */\n  mstore\n    /* \"#utility.yul\":939:943   */\n  0x20\n    /* \"#utility.yul\":936:937   */\n  0x00\n    /* \"#utility.yul\":926:944   */\n  keccak256\n    /* \"#utility.yul\":918:944   */\n  swap1\n  pop\n    /* \"#utility.yul\":810:951   */\n  swap2\n  swap1\n  pop\n  jump\t// out\n    /* \"#utility.yul\":957:1050   */\ntag_28:\n    /* \"#utility.yul\":994:1000   */\n  0x00\n    /* \"#utility.yul\":1041:1043   */\n  0x20\n    /* \"#utility.yul\":1036:1038   */\n  0x1f\n    /* \"#utility.yul\":1029:1034   */\n  dup4\n    /* \"#utility.yul\":1025:1039   */\n  add\n    /* \"#utility.yul\":1021:1044   */\n  div\n    /* \"#utility.yul\":1011:1044   */\n  swap1\n  pop\n    /* \"#utility.yul\":957:1050   */\n  swap2\n  swap1\n  pop\n  jump\t// out\n    /* \"#utility.yul\":1056:1163   */\ntag_29:\n    /* \"#utility.yul\":1100:1108   */\n  0x00\n    /* \"#utility.yul\":1150:1155   */\n  dup3\n    /* \"#utility.yul\":1144:1148   */\n  dup3\n    /* \"#utility.yul\":1140:1156   */\n  shl\n    /* \"#utility.yul\":1119:1156   */\n  swap1\n  pop\n    /* \"#utility.yul\":1056:1163   */\n  swap3\n  swap2\n  pop\n  pop\n  jump\t// out\n    /* \"#utility.yul\":1169:1562   */\ntag_30:\n    /* \"#utility.yul\":1238:1244   */\n  0x00\n    /* \"#utility.yul\":1288:1289   */\n  0x08\n    /* \"#utility.yul\":1276:1286   */\n  dup4\n    /* \"#utility.yul\":1272:1290   */\n  mul\n    /* \"#utility.yul\":1311:1408   */\n  tag_55\n    /* \"#utility.yul\":1341:1407   */\n  0xffffffffffffffffffffffffffffffffffffffffffffffffffffffffffffffff\n    /* \"#utility.yul\":1330:1339   */\n  dup3\n    /* \"#utility.yul\":1311:1408   */\n  tag_29\n  jump\t// in\ntag_55:\n    /* \"#utility.yul\":1429:1468   */\n  tag_56\n    /* \"#utility.yul\":1459:1467   */\n  dup7\n    /* \"#utility.yul\":1448:1457   */\n  dup4\n    /* \"#utility.yul\":1429:1468   */\n  tag_29\n  jump\t// in\ntag_56:\n    /* \"#utility.yul\":1417:1468   */\n  swap6\n  pop\n    /* \"#utility.yul\":1501:1505   */\n  dup1\n    /* \"#utility.yul\":1497:1506   */\n  not\n    /* \"#utility.yul\":1490:1495   */\n  dup5\n    /* \"#utility.yul\":1486:1507   */\n  and\n    /* \"#utility.yul\":1477:1507   */\n  swap4\n  pop\n    /* \"#utility.yul\":1550:1554   */\n  dup1\n    /* \"#utility.yul\":1540:1548   */\n  dup7\n    /* \"#utility.yul\":1536:1555   */\n  and\n    /* \"#utility.yul\":1529:1534   */\n  dup5\n    /* \"#utility.yul\":1526:1556   */\n  or\n    /* \"#utility.yul\":1516:1556   */\n  swap3\n  pop\n    /* \"#utility.yul\":1245:1562   */\n  pop\n  pop\n    /* \"#utility.yul\":1169:1562   */\n  swap4\n  swap3\n  pop\n  pop\n  pop\n  jump\t// out\n    /* \"#utility.yul\":1568:1645   */\ntag_31:\n    /* \"#utility.yul\":1605:1612   */\n  0x00\n    /* \"#utility.yul\":1634:1639   */\n  dup2\n    /* \"#utility.yul\":1623:1639   */\n  swap1\n  pop\n    /* \"#utility.yul\":1568:1645   */\n  swap2\n  swap1\n  pop\n  jump\t// out\n    /* \"#utility.yul\":1651:1711   */\ntag_32:\n    /* \"#utility.yul\":1679:1682   */\n  0x00\n    /* \"#utility.yul\":1700:1705   */\n  dup2\n    /* \"#utility.yul\":1693:1705   */\n  swap1\n  pop\n    /* \"#utility.yul\":1651:1711   */\n  swap2\n  swap1\n  pop\n  jump\t// out\n    /* \"#utility.yul\":1717:1859   */\ntag_33:\n    /* \"#utility.yul\":1767:1776   */\n  0x00\n    /* \"#utility.yul\":1800:1853   */\n  tag_60\n    /* \"#utility.yul\":1818:1852   */\n  tag_61\n    /* \"#utility.yul\":1827:1851   */\n  tag_62\n    /* \"#utility.yul\":1845:1850   */\n  dup5\n    /* \"#utility.yul\":1827:1851   */\n  tag_31\n  jump\t// in\ntag_62:\n    /* \"#utility.yul\":1818:1852   */\n  tag_32\n  jump\t// in\ntag_61:\n    /* \"#utility.yul\":1800:1853   */\n  tag_31\n  jump\t// in\ntag_60:\n    /* \"#utility.yul\":1787:1853   */\n  swap1\n  pop\n    /* \"#utility.yul\":1717:1859   */\n  swap2\n  swap1\n  pop\n  jump\t// out\n    /* \"#utility.yul\":1865:1940   */\ntag_34:\n    /* \"#utility.yul\":1908:1911   */\n  0x00\n    /* \"#utility.yul\":1929:1934   */\n  dup2\n    /* \"#utility.yul\":1922:1934   */\n  swap1\n  pop\n    /* \"#utility.yul\":1865:1940   */\n  swap2\n  swap1\n  pop\n  jump\t// out\n    /* \"#utility.yul\":1946:2215   */\ntag_35:\n    /* \"#utility.yul\":2056:2095   */\n  tag_65\n    /* \"#utility.yul\":2087:2094   */\n  dup4\n    /* \"#utility.yul\":2056:2095   */\n  tag_33\n  jump\t// in\ntag_65:\n    /* \"#utility.yul\":2117:2208   */\n  tag_66\n    /* \"#utility.yul\":2166:2207   */\n  tag_67\n    /* \"#utility.yul\":2190:2206   */\n  dup3\n    /* \"#utility.yul\":2166:2207   */\n  tag_34\n  jump\t// in\ntag_67:\n    /* \"#utility.yul\":2158:2164   */\n  dup5\n    /* \"#utility.yul\":2151:2155   */\n  dup5\n    /* \"#utility.yul\":2145:2156   */\n  sload\n    /* \"#utility.yul\":2117:2208   */\n  tag_30\n  jump\t// in\ntag_66:\n    /* \"#utility.yul\":2111:2115   */\n  dup3\n    /* \"#utility.yul\":2104:2209   */\n  sstore\n    /* \"#utility.yul\":2022:2215   */\n  pop\n    /* \"#utility.yul\":1946:2215   */\n  pop\n  pop\n  pop\n  jump\t// out\n    /* \"#utility.yul\":2221:2294   */\ntag_36:\n    /* \"#utility.yul\":2266:2269   */\n  0x00\n    /* \"#utility.yul\":2221:2294   */\n  swap1\n  jump\t// out\n    /* \"#utility.yul\":2300:2489   */\ntag_37:\n    /* \"#utility.yul\":2377:2409   */\n  tag_70\n  tag_36\n  jump\t// in\ntag_70:\n    /* \"#utility.yul\":2418:2483   */\n  tag_71\n    /* \"#utility.yul\":2476:2482   */\n  dup2\n    /* \"#utility.yul\":2468:2474   */\n  dup5\n    /* \"#utility.yul\":2462:2466   */\n  dup5\n    /* \"#utility.yul\":2418:2483   */\n  tag_35\n  jump\t// in\ntag_71:\n    /* \"#utility.yul\":2353:2489   */\n  pop\n    /* \"#utility.yul\":2300:2489   */\n  pop\n  pop\n  jump\t// out\n    /* \"#utility.yul\":2495:2681   */\ntag_38:\n    /* \"#utility.yul\":2555:2675   */\ntag_73:\n    /* \"#utility.yul\":2572:2575   */\n  dup2\n    /* \"#utility.yul\":2565:2570   */\n  dup2\n    /* \"#utility.yul\":2562:2576   */\n  lt\n    /* \"#utility.yul\":2555:2675   */\n  iszero\n  tag_75\n  jumpi\n    /* \"#utility.yul\":2626:2665   */\n  tag_76\n    /* \"#utility.yul\":2663:2664   */\n  0x00\n    /* \"#utility.yul\":2656:2661   */\n  dup3\n    /* \"#utility.yul\":2626:2665   */\n  tag_37\n  jump\t// in\ntag_76:\n    /* \"#utility.yul\":2599:2600   */\n  0x01\n    /* \"#utility.yul\":2592:2597   */\n  dup2\n    /* \"#utility.yul\":2588:2601   */\n  add\n    /* \"#utility.yul\":2579:2601   */\n  swap1\n  pop\n    /* \"#utility.yul\":2555:2675   */\n  jump(tag_73)\ntag_75:\n    /* \"#utility.yul\":2495:2681   */\n  pop\n  pop\n  jump\t// out\n    /* \"#utility.yul\":2687:3230   */\ntag_39:\n    /* \"#utility.yul\":2788:2790   */\n  0x1f\n    /* \"#utility.yul\":2783:2786   */\n  dup3\n    /* \"#utility.yul\":2780:2791   */\n  gt\n    /* \"#utility.yul\":2777:3223   */\n  iszero\n  tag_78\n  jumpi\n    /* \"#utility.yul\":2822:2860   */\n  tag_79\n    /* \"#utility.yul\":2854:2859   */\n  dup2\n    /* \"#utility.yul\":2822:2860   */\n  tag_27\n  jump\t// in\ntag_79:\n    /* \"#utility.yul\":2906:2935   */\n  tag_80\n    /* \"#utility.yul\":2924:2934   */\n  dup5\n    /* \"#utility.yul\":2906:2935   */\n  tag_28\n  jump\t// in\ntag_80:\n    /* \"#utility.yul\":2896:2904   */\n  dup2\n    /* \"#utility.yul\":2892:2936   */\n  add\n    /* \"#utility.yul\":3089:3091   */\n  0x20\n    /* \"#utility.yul\":3077:3087   */\n  dup6\n    /* \"#utility.yul\":3074:3092   */\n  lt\n    /* \"#utility.yul\":3071:3120   */\n  iszero\n  tag_81\n  jumpi\n    /* \"#utility.yul\":3110:3118   */\n  dup2\n    /* \"#utility.yul\":3095:3118   */\n  swap1\n  pop\n    /* \"#utility.yul\":3071:3120   */\ntag_81:\n    /* \"#utility.yul\":3133:3213   */\n  tag_82\n    /* \"#utility.yul\":3189:3211   */\n  tag_83\n    /* \"#utility.yul\":3207:3210   */\n  dup6\n    /* \"#utility.yul\":3189:3211   */\n  tag_28\n  jump\t// in\ntag_83:\n    /* \"#utility.yul\":3179:3187   */\n  dup4\n    /* \"#utility.yul\":3175:3212   */\n  add\n    /* \"#utility.yul\":3162:3173   */\n  dup3\n    /* \"#utility.yul\":3133:3213   */\n  tag_38\n  jump\t// in\ntag_82:\n    /* \"#utility.yul\":2792:3223   */\n  pop\n  pop\n    /* \"#utility.yul\":2777:3223   */\ntag_78:\n    /* \"#utility.yul\":2687:3230   */\n  pop\n  pop\n  pop\n  jump\t// out\n    /* \"#utility.yul\":3236:3353   */\ntag_40:\n    /* \"#utility.yul\":3290:3298   */\n  0x00\n    /* \"#utility.yul\":3340:3345   */\n  dup3\n    /* \"#utility.yul\":3334:3338   */\n  dup3\n    /* \"#utility.yul\":3330:3346   */\n  shr\n    /* \"#utility.yul\":3309:3346   */\n  swap1\n  pop\n    /* \"#utility.yul\":3236:3353   */\n  swap3\n  swap2\n  pop\n  pop\n  jump\t// out\n    /* \"#utility.yul\":3359:3528   */\ntag_41:\n    /* \"#utility.yul\":3403:3409   */\n  0x00\n    /* \"#utility.yul\":3436:3487   */\n  tag_86\n    /* \"#utility.yul\":3484:3485   */\n  0x00\n    /* \"#utility.yul\":3480:3486   */\n  not\n    /* \"#utility.yul\":3472:3477   */\n  dup5\n    /* \"#utility.yul\":3469:3470   */\n  0x08\n    /* \"#utility.yul\":3465:3478   */\n  mul\n    /* \"#utility.yul\":3436:3487   */\n  tag_40\n  jump\t// in\ntag_86:\n    /* \"#utility.yul\":3432:3488   */\n  not\n    /* \"#utility.yul\":3517:3521   */\n  dup1\n    /* \"#utility.yul\":3511:3515   */\n  dup4\n    /* \"#utility.yul\":3507:3522   */\n  and\n    /* \"#utility.yul\":3497:3522   */\n  swap2\n  pop\n    /* \"#utility.yul\":3410:3528   */\n  pop\n    /* \"#utility.yul\":3359:3528   */\n  swap3\n  swap2\n  pop\n  pop\n  jump\t// out\n    /* \"#utility.yul\":3533:3828   */\ntag_42:\n    /* \"#utility.yul\":3609:3613   */\n  0x00\n    /* \"#utility.yul\":3755:3784   */\n  tag_88\n    /* \"#utility.yul\":3780:3783   */\n  dup4\n    /* \"#utility.yul\":3774:3778   */\n  dup4\n    /* \"#utility.yul\":3755:3784   */\n  tag_41\n  jump\t// in\ntag_88:\n    /* \"#utility.yul\":3747:3784   */\n  swap2\n  pop\n    /* \"#utility.yul\":3817:3820   */\n  dup3\n    /* \"#utility.yul\":3814:3815   */\n  0x02\n    /* \"#utility.yul\":3810:3821   */\n  mul\n    /* \"#utility.yul\":3804:3808   */\n  dup3\n    /* \"#utility.yul\":3801:3822   */\n  or\n    /* \"#utility.yul\":3793:3822   */\n  swap1\n  pop\n    /* \"#utility.yul\":3533:3828   */\n  swap3\n  swap2\n  pop\n  pop\n  jump\t// out\n    /* \"#utility.yul\":3833:5228   */\ntag_9:\n    /* \"#utility.yul\":3950:3987   */\n  tag_90\n    /* \"#utility.yul\":3983:3986   */\n  dup3\n    /* \"#utility.yul\":3950:3987   */\n  tag_24\n  jump\t// in\ntag_90:\n    /* \"#utility.yul\":4052:4070   */\n  0xffffffffffffffff\n    /* \"#utility.yul\":4044:4050   */\n  dup2\n    /* \"#utility.yul\":4041:4071   */\n  gt\n    /* \"#utility.yul\":4038:4094   */\n  iszero\n  tag_91\n  jumpi\n    /* \"#utility.yul\":4074:4092   */\n  tag_92\n  tag_25\n  jump\t// in\ntag_92:\n    /* \"#utility.yul\":4038:4094   */\ntag_91:\n    /* \"#utility.yul\":4118:4156   */\n  tag_93\n    /* \"#utility.yul\":4150:4154   */\n  dup3\n    /* \"#utility.yul\":4144:4155   */\n  sload\n    /* \"#utility.yul\":4118:4156   */\n  tag_17\n  jump\t// in\ntag_93:\n    /* \"#utility.yul\":4203:4270   */\n  tag_94\n    /* \"#utility.yul\":4263:4269   */\n  dup3\n    /* \"#utility.yul\":4255:4261   */\n  dup3\n    /* \"#utility.yul\":4249:4253   */\n  dup6\n    /* \"#utility.yul\":4203:4270   */\n  tag_39\n  jump\t// in\ntag_94:\n    /* \"#utility.yul\":4297:4298   */\n  0x00\n    /* \"#utility.yul\":4321:4325   */\n  0x20\n    /* \"#utility.yul\":4308:4325   */\n  swap1\n  pop\n    /* \"#utility.yul\":4353:4355   */\n  0x1f\n    /* \"#utility.yul\":4345:4351   */\n  dup4\n    /* \"#utility.yul\":4342:4356   */\n  gt\n    /* \"#utility.yul\":4370:4371   */\n  0x01\n    /* \"#utility.yul\":4365:4983   */\n  dup2\n  eq\n  tag_96\n  jumpi\n    /* \"#utility.yul\":5027:5028   */\n  0x00\n    /* \"#utility.yul\":5044:5050   */\n  dup5\n    /* \"#utility.yul\":5041:5118   */\n  iszero\n  tag_97\n  jumpi\n    /* \"#utility.yul\":5093:5102   */\n  dup3\n    /* \"#utility.yul\":5088:5091   */\n  dup8\n    /* \"#utility.yul\":5084:5103   */\n  add\n    /* \"#utility.yul\":5078:5104   */\n  mload\n    /* \"#utility.yul\":5069:5104   */\n  swap1\n  pop\n    /* \"#utility.yul\":5041:5118   */\ntag_97:\n    /* \"#utility.yul\":5144:5211   */\n  tag_98\n    /* \"#utility.yul\":5204:5210   */\n  dup6\n    /* \"#utility.yul\":5197:5202   */\n  dup3\n    /* \"#utility.yul\":5144:5211   */\n  tag_42\n  jump\t// in\ntag_98:\n    /* \"#utility.yul\":5138:5142   */\n  dup7\n    /* \"#utility.yul\":5131:5212   */\n  sstore\n    /* \"#utility.yul\":5000:5222   */\n  pop\n    /* \"#utility.yul\":4335:5222   */\n  jump(tag_95)\n    /* \"#utility.yul\":4365:4983   */\ntag_96:\n    /* \"#utility.yul\":4417:4421   */\n  0x1f\n    /* \"#utility.yul\":4413:4422   */\n  not\n    /* \"#utility.yul\":4405:4411   */\n  dup5\n    /* \"#utility.yul\":4401:4423   */\n  and\n    /* \"#utility.yul\":4451:4488   */\n  tag_99\n    /* \"#utility.yul\":4483:4487   */\n  dup7\n    /* \"#utility.yul\":4451:4488   */\n  tag_27\n  jump\t// in\ntag_99:\n    /* \"#utility.yul\":4510:4511   */\n  0x00\n    /* \"#utility.yul\":4524:4732   */\ntag_100:\n    /* \"#utility.yul\":4538:4545   */\n  dup3\n    /* \"#utility.yul\":4535:4536   */\n  dup2\n    /* \"#utility.yul\":4532:4546   */\n  lt\n    /* \"#utility.yul\":4524:4732   */\n  iszero\n  tag_102\n  jumpi\n    /* \"#utility.yul\":4617:4626   */\n  dup5\n    /* \"#utility.yul\":4612:4615   */\n  dup10\n    /* \"#utility.yul\":4608:4627   */\n  add\n    /* \"#utility.yul\":4602:4628   */\n  mload\n    /* \"#utility.yul\":4594:4600   */\n  dup3\n    /* \"#utility.yul\":4587:4629   */\n  sstore\n    /* \"#utility.yul\":4668:4669   */\n  0x01\n    /* \"#utility.yul\":4660:4666   */\n  dup3\n    /* \"#utility.yul\":4656:4670   */\n  add\n    /* \"#utility.yul\":4646:4670   */\n  swap2\n  pop\n    /* \"#utility.yul\":4715:4717   */\n  0x20\n    /* \"#utility.yul\":4704:4713   */\n  dup6\n    /* \"#utility.yul\":4700:4718   */\n  add\n    /* \"#utility.yul\":4687:4718   */\n  swap5\n  pop\n    /* \"#utility.yul\":4561:4565   */\n  0x20\n    /* \"#utility.yul\":4558:4559   */\n  dup2\n    /* \"#utility.yul\":4554:4566   */\n  add\n    /* \"#utility.yul\":4549:4566   */\n  swap1\n  pop\n    /* \"#utility.yul\":4524:4732   */\n  jump(tag_100)\ntag_102:\n    /* \"#utility.yul\":4760:4766   */\n  dup7\n    /* \"#utility.yul\":4751:4758   */\n  dup4\n    /* \"#utility.yul\":4748:4767   */\n  lt\n    /* \"#utility.yul\":4745:4924   */\n  iszero\n  tag_103\n  jumpi\n    /* \"#utility.yul\":4818:4827   */\n  dup5\n    /* \"#utility.yul\":4813:4816   */\n  dup10\n    /* \"#utility.yul\":4809:4828   */\n  add\n    /* \"#utility.yul\":4803:4829   */\n  mload\n    /* \"#utility.yul\":4861:4909   */\n  tag_104\n    /* \"#utility.yul\":4903:4907   */\n  0x1f\n    /* \"#utility.yul\":4895:4901   */\n  dup10\n    /* \"#utility.yul\":4891:4908   */\n  and\n    /* \"#utility.yul\":4880:4889   */\n  dup3\n    /* \"#utility.yul\":4861:4909   */\n  tag_41\n  jump\t// in\ntag_104:\n    /* \"#utility.yul\":4853:4859   */\n  dup4\n    /* \"#utility.yul\":4846:4910   */\n  sstore\n    /* \"#utility.yul\":4768:4924   */\n  pop\n    /* \"#utility.yul\":4745:4924   */\ntag_103:\n    /* \"#utility.yul\":4970:4971   */\n  0x01\n    /* \"#utility.yul\":4966:4967   */\n  0x02\n    /* \"#utility.yul\":4958:4964   */\n  dup9\n    /* \"#utility.yul\":4954:4968   */\n  mul\n    /* \"#utility.yul\":4950:4972   */\n  add\n    /* \"#utility.yul\":4944:4948   */\n  dup9\n    /* \"#utility.yul\":4937:4973   */\n  sstore\n    /* \"#utility.yul\":4372:4983   */\n  pop\n  pop\n  pop\n    /* \"#utility.yul\":4335:5222   */\ntag_95:\n  pop\n    /* \"#utility.yul\":3925:5228   */\n  pop\n  pop\n  pop\n    /* \"#utility.yul\":3833:5228   */\n  pop\n  pop\n  jump\t// out\n    /* \"contracts/EntityContract.sol\":60:9208  contract EntityContract {... */\ntag_4:\n  dataSize(sub_0)\n  dup1\n  dataOffset(sub_0)\n  0x00\n  codecopy\n  0x00\n  return\nstop\n\nsub_0: assembly {\n        /* \"contracts/EntityContract.sol\":60:9208  contract EntityContract {... */\n      mstore(0x40, 0x80)\n      callvalue\n      dup1\n      iszero\n      tag_1\n      jumpi\n      0x00\n      dup1\n      revert\n    tag_1:\n      pop\n      jumpi(tag_2, lt(calldatasize, 0x04))\n      shr(0xe0, calldataload(0x00))\n      dup1\n      0x36335ae2\n      eq\n      tag_3\n      jumpi\n      dup1\n      0x3bd18a9e\n      eq\n      tag_4\n      jumpi\n      dup1\n      0x40f385ff\n      eq\n      tag_5\n      jumpi\n      dup1\n      0x6f475e7f\n      eq\n      tag_6\n      jumpi\n      dup1\n      0x8579ea9b\n      eq\n      tag_7\n      jumpi\n    tag_2:\n      0x00\n      dup1\n      revert\n        /* \"contracts/EntityContract.sol\":6096:6301  function getEntitiesByRole(string memory _role) public view returns (address[] memory) {... */\n    tag_3:\n      tag_8\n      0x04\n      dup1\n      calldatasize\n      sub\n      dup2\n      add\n      swap1\n      tag_9\n      swap2\n      swap1\n      tag_10\n      jump\t// in\n    tag_9:\n      tag_11\n      jump\t// in\n    tag_8:\n      mload(0x40)\n      tag_12\n      swap2\n      swap1\n      tag_13\n      jump\t// in\n    tag_12:\n      mload(0x40)\n      dup1\n      swap2\n      sub\n      swap1\n      return\n        /* \"contracts/EntityContract.sol\":1284:2873  function registerEntity(... */\n    tag_4:\n      tag_14\n      0x04\n      dup1\n      calldatasize\n      sub\n      dup2\n      add\n      swap1\n      tag_15\n      swap2\n      swap1\n      tag_16\n      jump\t// in\n    tag_15:\n      tag_17\n      jump\t// in\n    tag_14:\n      stop\n        /* \"contracts/EntityContract.sol\":6333:6812  function getEntityInfo(address _entityAddress) public view returns (... */\n    tag_5:\n      tag_18\n      0x04\n      dup1\n      calldatasize\n      sub\n      dup2\n      add\n      swap1\n      tag_19\n      swap2\n      swap1\n      tag_20\n      jump\t// in\n    tag_19:\n      tag_21\n      jump\t// in\n    tag_18:\n      mload(0x40)\n      tag_22\n      swap6\n      swap5\n      swap4\n      swap3\n      swap2\n      swap1\n      tag_23\n      jump\t// in\n    tag_22:\n      mload(0x40)\n      dup1\n      swap2\n      sub\n      swap1\n      return\n        /* \"contracts/EntityContract.sol\":4177:4342  function validateTransfer(address _from, address _to) public view returns (bool) {... */\n    tag_6:\n      tag_24\n      0x04\n      dup1\n      calldatasize\n      sub\n      dup2\n      add\n      swap1\n      tag_25\n      swap2\n      swap1\n      tag_26\n      jump\t// in\n    tag_25:\n      tag_27\n      jump\t// in\n    tag_24:\n      mload(0x40)\n      tag_28\n      swap2\n      swap1\n      tag_29\n      jump\t// in\n    tag_28:\n      mload(0x40)\n      dup1\n      swap2\n      sub\n      swap1\n      return\n        /* \"contracts/EntityContract.sol\":2963:4084  function isValidTransfer(address _from, address _to) public returns (bool) {... */\n    tag_7:\n      tag_30\n      0x04\n      dup1\n      calldatasize\n      sub\n      dup2\n      add\n      swap1\n      tag_31\n      swap2\n      swap1\n      tag_26\n      jump\t// in\n    tag_31:\n      tag_32\n      jump\t// in\n    tag_30:\n      mload(0x40)\n      tag_33\n      swap2\n      swap1\n      tag_29\n      jump\t// in\n    tag_33:\n      mload(0x40)\n      dup1\n      swap2\n      sub\n      swap1\n      return\n        /* \"contracts/EntityContract.sol\":6096:6301  function getEntitiesByRole(string memory _role) public view returns (address[] memory) {... */\n    tag_11:\n        /* \"contracts/EntityContract.sol\":6165:6181  address[] memory */\n      0x60\n        /* \"contracts/EntityContract.sol\":6194:6222  string memory normalisedRole */\n      0x00\n        /* \"contracts/EntityContract.sol\":6225:6245  normaliseRole(_role) */\n      tag_35\n        /* \"contracts/EntityContract.sol\":6239:6244  _role */\n      dup4\n        /* \"contracts/EntityContract.sol\":6225:6238  normaliseRole */\n      tag_36\n        /* \"contracts/EntityContract.sol\":6225:6245  normaliseRole(_role) */\n      jump\t// in\n    tag_35:\n        /* \"contracts/EntityContract.sol\":6194:6245  string memory normalisedRole = normaliseRole(_role) */\n      swap1\n      pop\n        /* \"contracts/EntityContract.sol\":6263:6277  entitiesByRole */\n      0x02\n        /* \"contracts/EntityContract.sol\":6278:6292  normalisedRole */\n      dup2\n        /* \"contracts/EntityContract.sol\":6263:6293  entitiesByRole[normalisedRole] */\n      mload(0x40)\n      tag_37\n      swap2\n      swap1\n      tag_38\n      jump\t// in\n    tag_37:\n      swap1\n      dup2\n      mstore\n      0x20\n      add\n      mload(0x40)\n      dup1\n      swap2\n      sub\n      swap1\n      keccak256\n        /* \"contracts/EntityContract.sol\":6256:6293  return entitiesByRole[normalisedRole] */\n      dup1\n      sload\n      dup1\n      0x20\n      mul\n      0x20\n      add\n      mload(0x40)\n      swap1\n      dup2\n      add\n      0x40\n      mstore\n      dup1\n      swap3\n      swap2\n      swap1\n      dup2\n      dup2\n      mstore\n      0x20\n      add\n      dup3\n      dup1\n      sload\n      dup1\n      iszero\n      tag_39\n      jumpi\n      0x20\n      mul\n      dup3\n      add\n      swap2\n      swap1\n      0x00\n      mstore\n      keccak256(0x00, 0x20)\n      swap1\n    tag_40:\n      dup2\n      0x00\n      swap1\n      sload\n      swap1\n      0x0100\n      exp\n      swap1\n      div\n      0xffffffffffffffffffffffffffffffffffffffff\n      and\n      0xffffffffffffffffffffffffffffffffffffffff\n      and\n      dup2\n      mstore\n      0x20\n      add\n      swap1\n      0x01\n      add\n      swap1\n      dup1\n      dup4\n      gt\n      tag_40\n      jumpi\n    tag_39:\n      pop\n      pop\n      pop\n      pop\n      pop\n      swap2\n      pop\n      pop\n        /* \"contracts/EntityContract.sol\":6096:6301  function getEntitiesByRole(string memory _role) public view returns (address[] memory) {... */\n      swap2\n      swap1\n      pop\n      jump\t// out\n        /* \"contracts/EntityContract.sol\":1284:2873  function registerEntity(... */\n    tag_17:\n        /* \"contracts/EntityContract.sol\":1466:1494  string memory normalisedRole */\n      0x00\n        /* \"contracts/EntityContract.sol\":1497:1517  normaliseRole(_role) */\n      tag_42\n        /* \"contracts/EntityContract.sol\":1511:1516  _role */\n      dup4\n        /* \"contracts/EntityContract.sol\":1497:1510  normaliseRole */\n      tag_36\n        /* \"contracts/EntityContract.sol\":1497:1517  normaliseRole(_role) */\n      jump\t// in\n    tag_42:\n        /* \"contracts/EntityContract.sol\":1466:1517  string memory normalisedRole = normaliseRole(_role) */\n      swap1\n      pop\n        /* \"contracts/EntityContract.sol\":1602:1629  isValidRole(normalisedRole) */\n      tag_43\n        /* \"contracts/EntityContract.sol\":1614:1628  normalisedRole */\n      dup2\n        /* \"contracts/EntityContract.sol\":1602:1613  isValidRole */\n      tag_44\n        /* \"contracts/EntityContract.sol\":1602:1629  isValidRole(normalisedRole) */\n      jump\t// in\n    tag_43:\n        /* \"contracts/EntityContract.sol\":1580:1722  require(... */\n      tag_45\n      jumpi\n      mload(0x40)\n      0x08c379a000000000000000000000000000000000000000000000000000000000\n      dup2\n      mstore\n      0x04\n      add\n      tag_46\n      swap1\n      tag_47\n      jump\t// in\n    tag_46:\n      mload(0x40)\n      dup1\n      swap2\n      sub\n      swap1\n      revert\n    tag_45:\n        /* \"contracts/EntityContract.sol\":1773:1805  string memory normalisedLocation */\n      0x00\n        /* \"contracts/EntityContract.sol\":1808:1831  _toLowerCase(_location) */\n      tag_48\n        /* \"contracts/EntityContract.sol\":1821:1830  _location */\n      dup6\n        /* \"contracts/EntityContract.sol\":1808:1820  _toLowerCase */\n      tag_49\n        /* \"contracts/EntityContract.sol\":1808:1831  _toLowerCase(_location) */\n      jump\t// in\n    tag_48:\n        /* \"contracts/EntityContract.sol\":1773:1831  string memory normalisedLocation = _toLowerCase(_location) */\n      swap1\n      pop\n        /* \"contracts/EntityContract.sol\":1851:1892  isLocationBlacklisted(normalisedLocation) */\n      tag_50\n        /* \"contracts/EntityContract.sol\":1873:1891  normalisedLocation */\n      dup2\n        /* \"contracts/EntityContract.sol\":1851:1872  isLocationBlacklisted */\n      tag_51\n        /* \"contracts/EntityContract.sol\":1851:1892  isLocationBlacklisted(normalisedLocation) */\n      jump\t// in\n    tag_50:\n        /* \"contracts/EntityContract.sol\":1850:1892  !isLocationBlacklisted(normalisedLocation) */\n      iszero\n        /* \"contracts/EntityContract.sol\":1842:1996  require(!isLocationBlacklisted(normalisedLocation), ... */\n      tag_52\n      jumpi\n      mload(0x40)\n      0x08c379a000000000000000000000000000000000000000000000000000000000\n      dup2\n      mstore\n      0x04\n      add\n      tag_53\n      swap1\n      tag_54\n      jump\t// in\n    tag_53:\n      mload(0x40)\n      dup1\n      swap2\n      sub\n      swap1\n      revert\n    tag_52:\n        /* \"contracts/EntityContract.sol\":2018:2026  entities */\n      0x01\n        /* \"contracts/EntityContract.sol\":2018:2038  entities[msg.sender] */\n      0x00\n        /* \"contracts/EntityContract.sol\":2027:2037  msg.sender */\n      caller\n        /* \"contracts/EntityContract.sol\":2018:2038  entities[msg.sender] */\n      0xffffffffffffffffffffffffffffffffffffffff\n      and\n      0xffffffffffffffffffffffffffffffffffffffff\n      and\n      dup2\n      mstore\n      0x20\n      add\n      swap1\n      dup2\n      mstore\n      0x20\n      add\n      0x00\n      keccak256\n        /* \"contracts/EntityContract.sol\":2018:2051  entities[msg.sender].isRegistered */\n      0x02\n      add\n      0x00\n      swap1\n      sload\n      swap1\n      0x0100\n      exp\n      swap1\n      div\n      0xff\n      and\n        /* \"contracts/EntityContract.sol\":2017:2051  !entities[msg.sender].isRegistered */\n      iszero\n        /* \"contracts/EntityContract.sol\":2009:2081  require(!entities[msg.sender].isRegistered, \"Entity already registered\") */\n      tag_55\n      jumpi\n      mload(0x40)\n      0x08c379a000000000000000000000000000000000000000000000000000000000\n      dup2\n      mstore\n      0x04\n      add\n      tag_56\n      swap1\n      tag_57\n      jump\t// in\n    tag_56:\n      mload(0x40)\n      dup1\n      swap2\n      sub\n      swap1\n      revert\n    tag_55:\n        /* \"contracts/EntityContract.sol\":2094:2119  bytes memory licenseBytes */\n      0x00\n        /* \"contracts/EntityContract.sol\":2128:2142  _licenseNumber */\n      dup4\n        /* \"contracts/EntityContract.sol\":2094:2143  bytes memory licenseBytes = bytes(_licenseNumber) */\n      swap1\n      pop\n        /* \"contracts/EntityContract.sol\":2184:2185  0 */\n      0x00\n        /* \"contracts/EntityContract.sol\":2162:2174  licenseBytes */\n      dup2\n        /* \"contracts/EntityContract.sol\":2162:2181  licenseBytes.length */\n      mload\n        /* \"contracts/EntityContract.sol\":2162:2185  licenseBytes.length > 0 */\n      gt\n        /* \"contracts/EntityContract.sol\":2154:2220  require(licenseBytes.length > 0, \"License number cannot be empty\") */\n      tag_58\n      jumpi\n      mload(0x40)\n      0x08c379a000000000000000000000000000000000000000000000000000000000\n      dup2\n      mstore\n      0x04\n      add\n      tag_59\n      swap1\n      tag_60\n      jump\t// in\n    tag_59:\n      mload(0x40)\n      dup1\n      swap2\n      sub\n      swap1\n      revert\n    tag_58:\n        /* \"contracts/EntityContract.sol\":2233:2254  bytes1 expectedPrefix */\n      0x00\n        /* \"contracts/EntityContract.sol\":2257:2296  getLicensePrefixForRole(normalisedRole) */\n      tag_61\n        /* \"contracts/EntityContract.sol\":2281:2295  normalisedRole */\n      dup5\n        /* \"contracts/EntityContract.sol\":2257:2280  getLicensePrefixForRole */\n      tag_62\n        /* \"contracts/EntityContract.sol\":2257:2296  getLicensePrefixForRole(normalisedRole) */\n      jump\t// in\n    tag_61:\n        /* \"contracts/EntityContract.sol\":2233:2296  bytes1 expectedPrefix = getLicensePrefixForRole(normalisedRole) */\n      swap1\n      pop\n        /* \"contracts/EntityContract.sol\":2334:2348  expectedPrefix */\n      dup1\n        /* \"contracts/EntityContract.sol\":2315:2348  licenseBytes[0] == expectedPrefix */\n      not(0xffffffffffffffffffffffffffffffffffffffffffffffffffffffffffffff)\n      and\n        /* \"contracts/EntityContract.sol\":2315:2327  licenseBytes */\n      dup3\n        /* \"contracts/EntityContract.sol\":2328:2329  0 */\n      0x00\n        /* \"contracts/EntityContract.sol\":2315:2330  licenseBytes[0] */\n      dup2\n      mload\n      dup2\n      lt\n      tag_63\n      jumpi\n      tag_64\n      tag_65\n      jump\t// in\n    tag_64:\n    tag_63:\n      0x20\n      add\n      add\n      mload\n      0xf8\n      shr\n      0xf8\n      shl\n        /* \"contracts/EntityContract.sol\":2315:2348  licenseBytes[0] == expectedPrefix */\n      not(0xffffffffffffffffffffffffffffffffffffffffffffffffffffffffffffff)\n      and\n      eq\n        /* \"contracts/EntityContract.sol\":2417:2431  expectedPrefix */\n      dup2\n        /* \"contracts/EntityContract.sol\":2443:2457  normalisedRole */\n      dup6\n        /* \"contracts/EntityContract.sol\":2371:2458  abi.encodePacked(\"License must start with '\", expectedPrefix, \"' for \", normalisedRole) */\n      add(0x20, mload(0x40))\n      tag_66\n      swap3\n      swap2\n      swap1\n      tag_67\n      jump\t// in\n    tag_66:\n      mload(0x40)\n      0x20\n      dup2\n      dup4\n      sub\n      sub\n      dup2\n      mstore\n      swap1\n      0x40\n      mstore\n        /* \"contracts/EntityContract.sol\":2307:2460  require(licenseBytes[0] == expectedPrefix, ... */\n      swap1\n      tag_68\n      jumpi\n      mload(0x40)\n      0x08c379a000000000000000000000000000000000000000000000000000000000\n      dup2\n      mstore\n      0x04\n      add\n      tag_69\n      swap2\n      swap1\n      tag_70\n      jump\t// in\n    tag_69:\n      mload(0x40)\n      dup1\n      swap2\n      sub\n      swap1\n      revert\n    tag_68:\n      pop\n        /* \"contracts/EntityContract.sol\":2529:2720  Entity({... */\n      mload(0x40)\n      dup1\n      0xa0\n      add\n      0x40\n      mstore\n      dup1\n        /* \"contracts/EntityContract.sol\":2557:2562  _name */\n      dup10\n        /* \"contracts/EntityContract.sol\":2529:2720  Entity({... */\n      dup2\n      mstore\n      0x20\n      add\n        /* \"contracts/EntityContract.sol\":2587:2596  _location */\n      dup9\n        /* \"contracts/EntityContract.sol\":2529:2720  Entity({... */\n      dup2\n      mstore\n      0x20\n      add\n        /* \"contracts/EntityContract.sol\":2625:2629  true */\n      0x01\n        /* \"contracts/EntityContract.sol\":2529:2720  Entity({... */\n      iszero\n      iszero\n      dup2\n      mstore\n      0x20\n      add\n        /* \"contracts/EntityContract.sol\":2659:2673  _licenseNumber */\n      dup7\n        /* \"contracts/EntityContract.sol\":2529:2720  Entity({... */\n      dup2\n      mstore\n      0x20\n      add\n        /* \"contracts/EntityContract.sol\":2694:2708  normalisedRole */\n      dup6\n        /* \"contracts/EntityContract.sol\":2529:2720  Entity({... */\n      dup2\n      mstore\n      pop\n        /* \"contracts/EntityContract.sol\":2506:2514  entities */\n      0x01\n        /* \"contracts/EntityContract.sol\":2506:2526  entities[msg.sender] */\n      0x00\n        /* \"contracts/EntityContract.sol\":2515:2525  msg.sender */\n      caller\n        /* \"contracts/EntityContract.sol\":2506:2526  entities[msg.sender] */\n      0xffffffffffffffffffffffffffffffffffffffff\n      and\n      0xffffffffffffffffffffffffffffffffffffffff\n      and\n      dup2\n      mstore\n      0x20\n      add\n      swap1\n      dup2\n      mstore\n      0x20\n      add\n      0x00\n      keccak256\n        /* \"contracts/EntityContract.sol\":2506:2720  entities[msg.sender] = Entity({... */\n      0x00\n      dup3\n      add\n      mload\n      dup2\n      0x00\n      add\n      swap1\n      dup2\n      tag_71\n      swap2\n      swap1\n      tag_72\n      jump\t// in\n    tag_71:\n      pop\n      0x20\n      dup3\n      add\n      mload\n      dup2\n      0x01\n      add\n      swap1\n      dup2\n      tag_73\n      swap2\n      swap1\n      tag_72\n      jump\t// in\n    tag_73:\n      pop\n      0x40\n      dup3\n      add\n      mload\n      dup2\n      0x02\n      add\n      exp(0x0100, 0x00)\n      dup2\n      sload\n      dup2\n      0xff\n      mul\n      not\n      and\n      swap1\n      dup4\n      iszero\n      iszero\n      mul\n      or\n      swap1\n      sstore\n      pop\n      0x60\n      dup3\n      add\n      mload\n      dup2\n      0x03\n      add\n      swap1\n      dup2\n      tag_74\n      swap2\n      swap1\n      tag_72\n      jump\t// in\n    tag_74:\n      pop\n      0x80\n      dup3\n      add\n      mload\n      dup2\n      0x04\n      add\n      swap1\n      dup2\n      tag_75\n      swap2\n      swap1\n      tag_72\n      jump\t// in\n    tag_75:\n      pop\n      swap1\n      pop\n      pop\n        /* \"contracts/EntityContract.sol\":2733:2747  entitiesByRole */\n      0x02\n        /* \"contracts/EntityContract.sol\":2748:2762  normalisedRole */\n      dup5\n        /* \"contracts/EntityContract.sol\":2733:2763  entitiesByRole[normalisedRole] */\n      mload(0x40)\n      tag_76\n      swap2\n      swap1\n      tag_38\n      jump\t// in\n    tag_76:\n      swap1\n      dup2\n      mstore\n      0x20\n      add\n      mload(0x40)\n      dup1\n      swap2\n      sub\n      swap1\n      keccak256\n        /* \"contracts/EntityContract.sol\":2769:2779  msg.sender */\n      caller\n        /* \"contracts/EntityContract.sol\":2733:2780  entitiesByRole[normalisedRole].push(msg.sender) */\n      swap1\n      dup1\n      0x01\n      dup2\n      sload\n      add\n      dup1\n      dup3\n      sstore\n      dup1\n      swap2\n      pop\n      pop\n      0x01\n      swap1\n      sub\n      swap1\n      0x00\n      mstore\n      keccak256(0x00, 0x20)\n      add\n      0x00\n      swap1\n      swap2\n      swap1\n      swap2\n      swap1\n      swap2\n      0x0100\n      exp\n      dup2\n      sload\n      dup2\n      0xffffffffffffffffffffffffffffffffffffffff\n      mul\n      not\n      and\n      swap1\n      dup4\n      0xffffffffffffffffffffffffffffffffffffffff\n      and\n      mul\n      or\n      swap1\n      sstore\n      pop\n        /* \"contracts/EntityContract.sol\":2815:2825  msg.sender */\n      caller\n        /* \"contracts/EntityContract.sol\":2798:2865  EntityRegistered(msg.sender, _name, normalisedRole, _licenseNumber) */\n      0xffffffffffffffffffffffffffffffffffffffff\n      and\n      0xca394e3b41e2aa37469125c136278e21cebaf3ca7e3fdfc9d07c64740a292ff5\n        /* \"contracts/EntityContract.sol\":2827:2832  _name */\n      dup10\n        /* \"contracts/EntityContract.sol\":2834:2848  normalisedRole */\n      dup7\n        /* \"contracts/EntityContract.sol\":2850:2864  _licenseNumber */\n      dup9\n        /* \"contracts/EntityContract.sol\":2798:2865  EntityRegistered(msg.sender, _name, normalisedRole, _licenseNumber) */\n      mload(0x40)\n      tag_78\n      swap4\n      swap3\n      swap2\n      swap1\n      tag_79\n      jump\t// in\n    tag_78:\n      mload(0x40)\n      dup1\n      swap2\n      sub\n      swap1\n      log2\n        /* \"contracts/EntityContract.sol\":1455:2873  {... */\n      pop\n      pop\n      pop\n      pop\n        /* \"contracts/EntityContract.sol\":1284:2873  function registerEntity(... */\n      pop\n      pop\n      pop\n      pop\n      jump\t// out\n        /* \"contracts/EntityContract.sol\":6333:6812  function getEntityInfo(address _entityAddress) public view returns (... */\n    tag_21:\n        /* \"contracts/EntityContract.sol\":6411:6429  string memory name */\n      0x60\n        /* \"contracts/EntityContract.sol\":6440:6462  string memory location */\n      dup1\n        /* \"contracts/EntityContract.sol\":6473:6490  bool isRegistered */\n      0x00\n        /* \"contracts/EntityContract.sol\":6501:6528  string memory licenseNumber */\n      0x60\n        /* \"contracts/EntityContract.sol\":6539:6557  string memory role */\n      dup1\n        /* \"contracts/EntityContract.sol\":6576:6597  Entity storage entity */\n      0x00\n        /* \"contracts/EntityContract.sol\":6600:6608  entities */\n      0x01\n        /* \"contracts/EntityContract.sol\":6600:6624  entities[_entityAddress] */\n      0x00\n        /* \"contracts/EntityContract.sol\":6609:6623  _entityAddress */\n      dup9\n        /* \"contracts/EntityContract.sol\":6600:6624  entities[_entityAddress] */\n      0xffffffffffffffffffffffffffffffffffffffff\n      and\n      0xffffffffffffffffffffffffffffffffffffffff\n      and\n      dup2\n      mstore\n      0x20\n      add\n      swap1\n      dup2\n      mstore\n      0x20\n      add\n      0x00\n      keccak256\n        /* \"contracts/EntityContract.sol\":6576:6624  Entity storage entity = entities[_entityAddress] */\n      swap1\n      pop\n        /* \"contracts/EntityContract.sol\":6657:6663  entity */\n      dup1\n        /* \"contracts/EntityContract.sol\":6657:6668  entity.name */\n      0x00\n      add\n        /* \"contracts/EntityContract.sol\":6683:6689  entity */\n      dup2\n        /* \"contracts/EntityContract.sol\":6683:6698  entity.location */\n      0x01\n      add\n        /* \"contracts/EntityContract.sol\":6713:6719  entity */\n      dup3\n        /* \"contracts/EntityContract.sol\":6713:6732  entity.isRegistered */\n      0x02\n      add\n      0x00\n      swap1\n      sload\n      swap1\n      0x0100\n      exp\n      swap1\n      div\n      0xff\n      and\n        /* \"contracts/EntityContract.sol\":6747:6753  entity */\n      dup4\n        /* \"contracts/EntityContract.sol\":6747:6767  entity.licenseNumber */\n      0x03\n      add\n        /* \"contracts/EntityContract.sol\":6782:6788  entity */\n      dup5\n        /* \"contracts/EntityContract.sol\":6782:6793  entity.role */\n      0x04\n      add\n        /* \"contracts/EntityContract.sol\":6635:6804  return (... */\n      dup5\n      dup1\n      sload\n      tag_81\n      swap1\n      tag_82\n      jump\t// in\n    tag_81:\n      dup1\n      0x1f\n      add\n      0x20\n      dup1\n      swap2\n      div\n      mul\n      0x20\n      add\n      mload(0x40)\n      swap1\n      dup2\n      add\n      0x40\n      mstore\n      dup1\n      swap3\n      swap2\n      swap1\n      dup2\n      dup2\n      mstore\n      0x20\n      add\n      dup3\n      dup1\n      sload\n      tag_83\n      swap1\n      tag_82\n      jump\t// in\n    tag_83:\n      dup1\n      iszero\n      tag_84\n      jumpi\n      dup1\n      0x1f\n      lt\n      tag_85\n      jumpi\n      0x0100\n      dup1\n      dup4\n      sload\n      div\n      mul\n      dup4\n      mstore\n      swap2\n      0x20\n      add\n      swap2\n      jump(tag_84)\n    tag_85:\n      dup3\n      add\n      swap2\n      swap1\n      0x00\n      mstore\n      keccak256(0x00, 0x20)\n      swap1\n    tag_86:\n      dup2\n      sload\n      dup2\n      mstore\n      swap1\n      0x01\n      add\n      swap1\n      0x20\n      add\n      dup1\n      dup4\n      gt\n      tag_86\n      jumpi\n      dup3\n      swap1\n      sub\n      0x1f\n      and\n      dup3\n      add\n      swap2\n    tag_84:\n      pop\n      pop\n      pop\n      pop\n      pop\n      swap5\n      pop\n      dup4\n      dup1\n      sload\n      tag_87\n      swap1\n      tag_82\n      jump\t// in\n    tag_87:\n      dup1\n      0x1f\n      add\n      0x20\n      dup1\n      swap2\n      div\n      mul\n      0x20\n      add\n      mload(0x40)\n      swap1\n      dup2\n      add\n      0x40\n      mstore\n      dup1\n      swap3\n      swap2\n      swap1\n      dup2\n      dup2\n      mstore\n      0x20\n      add\n      dup3\n      dup1\n      sload\n      tag_88\n      swap1\n      tag_82\n      jump\t// in\n    tag_88:\n      dup1\n      iszero\n      tag_89\n      jumpi\n      dup1\n      0x1f\n      lt\n      tag_90\n      jumpi\n      0x0100\n      dup1\n      dup4\n      sload\n      div\n      mul\n      dup4\n      mstore\n      swap2\n      0x20\n      add\n      swap2\n      jump(tag_89)\n    tag_90:\n      dup3\n      add\n      swap2\n      swap1\n      0x00\n      mstore\n      keccak256(0x00, 0x20)\n      swap1\n    tag_91:\n      dup2\n      sload\n      dup2\n      mstore\n      swap1\n      0x01\n      add\n      swap1\n      0x20\n      add\n      dup1\n      dup4\n      gt\n      tag_91\n      jumpi\n      dup3\n      swap1\n      sub\n      0x1f\n      and\n      dup3\n      add\n      swap2\n    tag_89:\n      pop\n      pop\n      pop\n      pop\n      pop\n      swap4\n      pop\n      dup2\n      dup1\n      sload\n      tag_92\n      swap1\n      tag_82\n      jump\t// in\n    tag_92:\n      dup1\n      0x1f\n      add\n      0x20\n      dup1\n      swap2\n      div\n      mul\n      0x20\n      add\n      mload(0x40)\n      swap1\n      dup2\n      add\n      0x40\n      mstore\n      dup1\n      swap3\n      swap2\n      swap1\n      dup2\n      dup2\n      mstore\n      0x20\n      add\n      dup3\n      dup1\n      sload\n      tag_93\n      swap1\n      tag_82\n      jump\t// in\n    tag_93:\n      dup1\n      iszero\n      tag_94\n      jumpi\n      dup1\n      0x1f\n      lt\n      tag_95\n      jumpi\n      0x0100\n      dup1\n      dup4\n      sload\n      div\n      mul\n      dup4\n      mstore\n      swap2\n      0x20\n      add\n      swap2\n      jump(tag_94)\n    tag_95:\n      dup3\n      add\n      swap2\n      swap1\n      0x00\n      mstore\n      keccak256(0x00, 0x20)\n      swap1\n    tag_96:\n      dup2\n      sload\n      dup2\n      mstore\n      swap1\n      0x01\n      add\n      swap1\n      0x20\n      add\n      dup1\n      dup4\n      gt\n      tag_96\n      jumpi\n      dup3\n      swap1\n      sub\n      0x1f\n      and\n      dup3\n      add\n      swap2\n    tag_94:\n      pop\n      pop\n      pop\n      pop\n      pop\n      swap2\n      pop\n      dup1\n      dup1\n      sload\n      tag_97\n      swap1\n      tag_82\n      jump\t// in\n    tag_97:\n      dup1\n      0x1f\n      add\n      0x20\n      dup1\n      swap2\n      div\n      mul\n      0x20\n      add\n      mload(0x40)\n      swap1\n      dup2\n      add\n      0x40\n      mstore\n      dup1\n      swap3\n      swap2\n      swap1\n      dup2\n      dup2\n      mstore\n      0x20\n      add\n      dup3\n      dup1\n      sload\n      tag_98\n      swap1\n      tag_82\n      jump\t// in\n    tag_98:\n      dup1\n      iszero\n      tag_99\n      jumpi\n      dup1\n      0x1f\n      lt\n      tag_100\n      jumpi\n      0x0100\n      dup1\n      dup4\n      sload\n      div\n      mul\n      dup4\n      mstore\n      swap2\n      0x20\n      add\n      swap2\n      jump(tag_99)\n    tag_100:\n      dup3\n      add\n      swap2\n      swap1\n      0x00\n      mstore\n      keccak256(0x00, 0x20)\n      swap1\n    tag_101:\n      dup2\n      sload\n      dup2\n      mstore\n      swap1\n      0x01\n      add\n      swap1\n      0x20\n      add\n      dup1\n      dup4\n      gt\n      tag_101\n      jumpi\n      dup3\n      swap1\n      sub\n      0x1f\n      and\n      dup3\n      add\n      swap2\n    tag_99:\n      pop\n      pop\n      pop\n      pop\n      pop\n      swap1\n      pop\n      swap6\n      pop\n      swap6\n      pop\n      swap6\n      pop\n      swap6\n      pop\n      swap6\n      pop\n      pop\n        /* \"contracts/EntityContract.sol\":6333:6812  function getEntityInfo(address _entityAddress) public view returns (... */\n      swap2\n      swap4\n      swap6\n      swap1\n      swap3\n      swap5\n      pop\n      jump\t// out\n        /* \"contracts/EntityContract.sol\":4177:4342  function validateTransfer(address _from, address _to) public view returns (bool) {... */\n    tag_27:\n        /* \"contracts/EntityContract.sol\":4252:4256  bool */\n      0x00\n        /* \"contracts/EntityContract.sol\":4276:4284  entities */\n      0x01\n        /* \"contracts/EntityContract.sol\":4276:4291  entities[_from] */\n      0x00\n        /* \"contracts/EntityContract.sol\":4285:4290  _from */\n      dup5\n        /* \"contracts/EntityContract.sol\":4276:4291  entities[_from] */\n      0xffffffffffffffffffffffffffffffffffffffff\n      and\n      0xffffffffffffffffffffffffffffffffffffffff\n      and\n      dup2\n      mstore\n      0x20\n      add\n      swap1\n      dup2\n      mstore\n      0x20\n      add\n      0x00\n      keccak256\n        /* \"contracts/EntityContract.sol\":4276:4304  entities[_from].isRegistered */\n      0x02\n      add\n      0x00\n      swap1\n      sload\n      swap1\n      0x0100\n      exp\n      swap1\n      div\n      0xff\n      and\n        /* \"contracts/EntityContract.sol\":4276:4334  entities[_from].isRegistered && entities[_to].isRegistered */\n      dup1\n      iszero\n      tag_103\n      jumpi\n      pop\n        /* \"contracts/EntityContract.sol\":4308:4316  entities */\n      0x01\n        /* \"contracts/EntityContract.sol\":4308:4321  entities[_to] */\n      0x00\n        /* \"contracts/EntityContract.sol\":4317:4320  _to */\n      dup4\n        /* \"contracts/EntityContract.sol\":4308:4321  entities[_to] */\n      0xffffffffffffffffffffffffffffffffffffffff\n      and\n      0xffffffffffffffffffffffffffffffffffffffff\n      and\n      dup2\n      mstore\n      0x20\n      add\n      swap1\n      dup2\n      mstore\n      0x20\n      add\n      0x00\n      keccak256\n        /* \"contracts/EntityContract.sol\":4308:4334  entities[_to].isRegistered */\n      0x02\n      add\n      0x00\n      swap1\n      sload\n      swap1\n      0x0100\n      exp\n      swap1\n      div\n      0xff\n      and\n        /* \"contracts/EntityContract.sol\":4276:4334  entities[_from].isRegistered && entities[_to].isRegistered */\n    tag_103:\n        /* \"contracts/EntityContract.sol\":4269:4334  return entities[_from].isRegistered && entities[_to].isRegistered */\n      swap1\n      pop\n        /* \"contracts/EntityContract.sol\":4177:4342  function validateTransfer(address _from, address _to) public view returns (bool) {... */\n      swap3\n      swap2\n      pop\n      pop\n      jump\t// out\n        /* \"contracts/EntityContract.sol\":2963:4084  function isValidTransfer(address _from, address _to) public returns (bool) {... */\n    tag_32:\n        /* \"contracts/EntityContract.sol\":3032:3036  bool */\n      0x00\n        /* \"contracts/EntityContract.sol\":3049:3068  bool fromRegistered */\n      dup1\n        /* \"contracts/EntityContract.sol\":3071:3079  entities */\n      0x01\n        /* \"contracts/EntityContract.sol\":3071:3086  entities[_from] */\n      0x00\n        /* \"contracts/EntityContract.sol\":3080:3085  _from */\n      dup6\n        /* \"contracts/EntityContract.sol\":3071:3086  entities[_from] */\n      0xffffffffffffffffffffffffffffffffffffffff\n      and\n      0xffffffffffffffffffffffffffffffffffffffff\n      and\n      dup2\n      mstore\n      0x20\n      add\n      swap1\n      dup2\n      mstore\n      0x20\n      add\n      0x00\n      keccak256\n        /* \"contracts/EntityContract.sol\":3071:3099  entities[_from].isRegistered */\n      0x02\n      add\n      0x00\n      swap1\n      sload\n      swap1\n      0x0100\n      exp\n      swap1\n      div\n      0xff\n      and\n        /* \"contracts/EntityContract.sol\":3049:3099  bool fromRegistered = entities[_from].isRegistered */\n      swap1\n      pop\n        /* \"contracts/EntityContract.sol\":3110:3127  bool toRegistered */\n      0x00\n        /* \"contracts/EntityContract.sol\":3130:3138  entities */\n      0x01\n        /* \"contracts/EntityContract.sol\":3130:3143  entities[_to] */\n      0x00\n        /* \"contracts/EntityContract.sol\":3139:3142  _to */\n      dup6\n        /* \"contracts/EntityContract.sol\":3130:3143  entities[_to] */\n      0xffffffffffffffffffffffffffffffffffffffff\n      and\n      0xffffffffffffffffffffffffffffffffffffffff\n      and\n      dup2\n      mstore\n      0x20\n      add\n      swap1\n      dup2\n      mstore\n      0x20\n      add\n      0x00\n      keccak256\n        /* \"contracts/EntityContract.sol\":3130:3156  entities[_to].isRegistered */\n      0x02\n      add\n      0x00\n      swap1\n      sload\n      swap1\n      0x0100\n      exp\n      swap1\n      div\n      0xff\n      and\n        /* \"contracts/EntityContract.sol\":3110:3156  bool toRegistered = entities[_to].isRegistered */\n      swap1\n      pop\n        /* \"contracts/EntityContract.sol\":3177:3198  string memory message */\n      0x60\n        /* \"contracts/EntityContract.sol\":3209:3221  bool isValid */\n      0x00\n        /* \"contracts/EntityContract.sol\":3254:3268  fromRegistered */\n      dup4\n        /* \"contracts/EntityContract.sol\":3254:3284  fromRegistered && toRegistered */\n      dup1\n      iszero\n      tag_105\n      jumpi\n      pop\n        /* \"contracts/EntityContract.sol\":3272:3284  toRegistered */\n      dup3\n        /* \"contracts/EntityContract.sol\":3254:3284  fromRegistered && toRegistered */\n    tag_105:\n        /* \"contracts/EntityContract.sol\":3250:3978  if (fromRegistered && toRegistered) {... */\n      iszero\n      tag_106\n      jumpi\n        /* \"contracts/EntityContract.sol\":3311:3315  true */\n      0x01\n        /* \"contracts/EntityContract.sol\":3301:3315  isValid = true */\n      swap1\n      pop\n        /* \"contracts/EntityContract.sol\":3448:3456  entities */\n      0x01\n        /* \"contracts/EntityContract.sol\":3448:3463  entities[_from] */\n      0x00\n        /* \"contracts/EntityContract.sol\":3457:3462  _from */\n      dup9\n        /* \"contracts/EntityContract.sol\":3448:3463  entities[_from] */\n      0xffffffffffffffffffffffffffffffffffffffff\n      and\n      0xffffffffffffffffffffffffffffffffffffffff\n      and\n      dup2\n      mstore\n      0x20\n      add\n      swap1\n      dup2\n      mstore\n      0x20\n      add\n      0x00\n      keccak256\n        /* \"contracts/EntityContract.sol\":3448:3468  entities[_from].role */\n      0x04\n      add\n        /* \"contracts/EntityContract.sol\":3514:3522  entities */\n      0x01\n        /* \"contracts/EntityContract.sol\":3514:3527  entities[_to] */\n      0x00\n        /* \"contracts/EntityContract.sol\":3523:3526  _to */\n      dup9\n        /* \"contracts/EntityContract.sol\":3514:3527  entities[_to] */\n      0xffffffffffffffffffffffffffffffffffffffff\n      and\n      0xffffffffffffffffffffffffffffffffffffffff\n      and\n      dup2\n      mstore\n      0x20\n      add\n      swap1\n      dup2\n      mstore\n      0x20\n      add\n      0x00\n      keccak256\n        /* \"contracts/EntityContract.sol\":3514:3532  entities[_to].role */\n      0x04\n      add\n        /* \"contracts/EntityContract.sol\":3347:3547  abi.encodePacked(... */\n      add(0x20, mload(0x40))\n      tag_107\n      swap3\n      swap2\n      swap1\n      tag_108\n      jump\t// in\n    tag_107:\n      mload(0x40)\n      0x20\n      dup2\n      dup4\n      sub\n      sub\n      dup2\n      mstore\n      swap1\n      0x40\n      mstore\n        /* \"contracts/EntityContract.sol\":3330:3548  message = string(abi.encodePacked(... */\n      swap2\n      pop\n        /* \"contracts/EntityContract.sol\":3250:3978  if (fromRegistered && toRegistered) {... */\n      jump(tag_109)\n    tag_106:\n        /* \"contracts/EntityContract.sol\":3586:3600  fromRegistered */\n      dup4\n        /* \"contracts/EntityContract.sol\":3585:3600  !fromRegistered */\n      iszero\n        /* \"contracts/EntityContract.sol\":3585:3617  !fromRegistered && !toRegistered */\n      dup1\n      iszero\n      tag_110\n      jumpi\n      pop\n        /* \"contracts/EntityContract.sol\":3605:3617  toRegistered */\n      dup3\n        /* \"contracts/EntityContract.sol\":3604:3617  !toRegistered */\n      iszero\n        /* \"contracts/EntityContract.sol\":3585:3617  !fromRegistered && !toRegistered */\n    tag_110:\n        /* \"contracts/EntityContract.sol\":3581:3967  if (!fromRegistered && !toRegistered) {... */\n      iszero\n      tag_111\n      jumpi\n        /* \"contracts/EntityContract.sol\":3638:3720  message = \"Invalid transfer: Both sender and receiver are not registered entities\" */\n      mload(0x40)\n      dup1\n      0x80\n      add\n      0x40\n      mstore\n      dup1\n      0x46\n      dup2\n      mstore\n      0x20\n      add\n      data_80f5648544ad854f91793f2c72972f2cffcf24435ac9b3c25a17a49813066691\n      0x46\n      swap2\n      codecopy\n      swap2\n      pop\n        /* \"contracts/EntityContract.sol\":3581:3967  if (!fromRegistered && !toRegistered) {... */\n      jump(tag_112)\n    tag_111:\n        /* \"contracts/EntityContract.sol\":3747:3761  fromRegistered */\n      dup4\n        /* \"contracts/EntityContract.sol\":3742:3967  if (!fromRegistered) {... */\n      tag_113\n      jumpi\n        /* \"contracts/EntityContract.sol\":3782:3845  message = \"Invalid transfer: Sender is not a registered entity\" */\n      mload(0x40)\n      dup1\n      0x60\n      add\n      0x40\n      mstore\n      dup1\n      0x33\n      dup2\n      mstore\n      0x20\n      add\n      data_07ff0ded478beb10aaed377354358189bd4d367c3be67eef0f91006f56be62c8\n      0x33\n      swap2\n      codecopy\n      swap2\n      pop\n        /* \"contracts/EntityContract.sol\":3742:3967  if (!fromRegistered) {... */\n      jump(tag_114)\n    tag_113:\n        /* \"contracts/EntityContract.sol\":3886:3951  message = \"Invalid transfer: Receiver is not a registered entity\" */\n      mload(0x40)\n      dup1\n      0x60\n      add\n      0x40\n      mstore\n      dup1\n      0x35\n      dup2\n      mstore\n      0x20\n      add\n      data_b89408f4d1ac2c0fd0438d7cb7a312f36569b72991e611afa8ff497cecc6bd52\n      0x35\n      swap2\n      codecopy\n      swap2\n      pop\n        /* \"contracts/EntityContract.sol\":3742:3967  if (!fromRegistered) {... */\n    tag_114:\n        /* \"contracts/EntityContract.sol\":3581:3967  if (!fromRegistered && !toRegistered) {... */\n    tag_112:\n        /* \"contracts/EntityContract.sol\":3250:3978  if (fromRegistered && toRegistered) {... */\n    tag_109:\n        /* \"contracts/EntityContract.sol\":4003:4051  TransferValidation(_from, _to, isValid, message) */\n      0xb895a9794919be34af98df51f4a6dcaad7ee6b342aa6d6ae5d0db8daf23c0859\n        /* \"contracts/EntityContract.sol\":4022:4027  _from */\n      dup8\n        /* \"contracts/EntityContract.sol\":4029:4032  _to */\n      dup8\n        /* \"contracts/EntityContract.sol\":4034:4041  isValid */\n      dup4\n        /* \"contracts/EntityContract.sol\":4043:4050  message */\n      dup6\n        /* \"contracts/EntityContract.sol\":4003:4051  TransferValidation(_from, _to, isValid, message) */\n      mload(0x40)\n      tag_115\n      swap5\n      swap4\n      swap3\n      swap2\n      swap1\n      tag_116\n      jump\t// in\n    tag_115:\n      mload(0x40)\n      dup1\n      swap2\n      sub\n      swap1\n      log1\n        /* \"contracts/EntityContract.sol\":4069:4076  isValid */\n      dup1\n        /* \"contracts/EntityContract.sol\":4062:4076  return isValid */\n      swap5\n      pop\n      pop\n      pop\n      pop\n      pop\n        /* \"contracts/EntityContract.sol\":2963:4084  function isValidTransfer(address _from, address _to) public returns (bool) {... */\n      swap3\n      swap2\n      pop\n      pop\n      jump\t// out\n        /* \"contracts/EntityContract.sol\":6821:7559  function normaliseRole(string memory _role) private pure returns (string memory) {... */\n    tag_36:\n        /* \"contracts/EntityContract.sol\":6887:6900  string memory */\n      0x60\n        /* \"contracts/EntityContract.sol\":6913:6929  bytes32 roleHash */\n      0x00\n        /* \"contracts/EntityContract.sol\":6959:6978  _toLowerCase(_role) */\n      tag_118\n        /* \"contracts/EntityContract.sol\":6972:6977  _role */\n      dup4\n        /* \"contracts/EntityContract.sol\":6959:6971  _toLowerCase */\n      tag_49\n        /* \"contracts/EntityContract.sol\":6959:6978  _toLowerCase(_role) */\n      jump\t// in\n    tag_118:\n        /* \"contracts/EntityContract.sol\":6942:6979  abi.encodePacked(_toLowerCase(_role)) */\n      add(0x20, mload(0x40))\n      tag_119\n      swap2\n      swap1\n      tag_38\n      jump\t// in\n    tag_119:\n      mload(0x40)\n      0x20\n      dup2\n      dup4\n      sub\n      sub\n      dup2\n      mstore\n      swap1\n      0x40\n      mstore\n        /* \"contracts/EntityContract.sol\":6932:6980  keccak256(abi.encodePacked(_toLowerCase(_role))) */\n      dup1\n      mload\n      swap1\n      0x20\n      add\n      keccak256\n        /* \"contracts/EntityContract.sol\":6913:6980  bytes32 roleHash = keccak256(abi.encodePacked(_toLowerCase(_role))) */\n      swap1\n      pop\n        /* \"contracts/EntityContract.sol\":7044:7068  _toLowerCase(ROLE_MINER) */\n      tag_120\n        /* \"contracts/EntityContract.sol\":7057:7067  ROLE_MINER */\n      mload(0x40)\n      dup1\n      0x40\n      add\n      0x40\n      mstore\n      dup1\n      0x05\n      dup2\n      mstore\n      0x20\n      add\n      0x4d696e6572000000000000000000000000000000000000000000000000000000\n      dup2\n      mstore\n      pop\n        /* \"contracts/EntityContract.sol\":7044:7056  _toLowerCase */\n      tag_49\n        /* \"contracts/EntityContract.sol\":7044:7068  _toLowerCase(ROLE_MINER) */\n      jump\t// in\n    tag_120:\n        /* \"contracts/EntityContract.sol\":7027:7069  abi.encodePacked(_toLowerCase(ROLE_MINER)) */\n      add(0x20, mload(0x40))\n      tag_121\n      swap2\n      swap1\n      tag_38\n      jump\t// in\n    tag_121:\n      mload(0x40)\n      0x20\n      dup2\n      dup4\n      sub\n      sub\n      dup2\n      mstore\n      swap1\n      0x40\n      mstore\n        /* \"contracts/EntityContract.sol\":7017:7070  keccak256(abi.encodePacked(_toLowerCase(ROLE_MINER))) */\n      dup1\n      mload\n      swap1\n      0x20\n      add\n      keccak256\n        /* \"contracts/EntityContract.sol\":7005:7013  roleHash */\n      dup2\n        /* \"contracts/EntityContract.sol\":7005:7070  roleHash == keccak256(abi.encodePacked(_toLowerCase(ROLE_MINER))) */\n      sub\n        /* \"contracts/EntityContract.sol\":7001:7552  if (roleHash == keccak256(abi.encodePacked(_toLowerCase(ROLE_MINER)))) {... */\n      tag_122\n      jumpi\n        /* \"contracts/EntityContract.sol\":7094:7104  ROLE_MINER */\n      mload(0x40)\n      dup1\n      0x40\n      add\n      0x40\n      mstore\n      dup1\n      0x05\n      dup2\n      mstore\n      0x20\n      add\n      0x4d696e6572000000000000000000000000000000000000000000000000000000\n      dup2\n      mstore\n      pop\n        /* \"contracts/EntityContract.sol\":7087:7104  return ROLE_MINER */\n      swap2\n      pop\n      pop\n      jump(tag_117)\n        /* \"contracts/EntityContract.sol\":7001:7552  if (roleHash == keccak256(abi.encodePacked(_toLowerCase(ROLE_MINER)))) {... */\n    tag_122:\n        /* \"contracts/EntityContract.sol\":7165:7196  _toLowerCase(ROLE_MANUFACTURER) */\n      tag_124\n        /* \"contracts/EntityContract.sol\":7178:7195  ROLE_MANUFACTURER */\n      mload(0x40)\n      dup1\n      0x40\n      add\n      0x40\n      mstore\n      dup1\n      0x0c\n      dup2\n      mstore\n      0x20\n      add\n      0x4d616e7566616374757265720000000000000000000000000000000000000000\n      dup2\n      mstore\n      pop\n        /* \"contracts/EntityContract.sol\":7165:7177  _toLowerCase */\n      tag_49\n        /* \"contracts/EntityContract.sol\":7165:7196  _toLowerCase(ROLE_MANUFACTURER) */\n      jump\t// in\n    tag_124:\n        /* \"contracts/EntityContract.sol\":7148:7197  abi.encodePacked(_toLowerCase(ROLE_MANUFACTURER)) */\n      add(0x20, mload(0x40))\n      tag_125\n      swap2\n      swap1\n      tag_38\n      jump\t// in\n    tag_125:\n      mload(0x40)\n      0x20\n      dup2\n      dup4\n      sub\n      sub\n      dup2\n      mstore\n      swap1\n      0x40\n      mstore\n        /* \"contracts/EntityContract.sol\":7138:7198  keccak256(abi.encodePacked(_toLowerCase(ROLE_MANUFACTURER))) */\n      dup1\n      mload\n      swap1\n      0x20\n      add\n      keccak256\n        /* \"contracts/EntityContract.sol\":7126:7134  roleHash */\n      dup2\n        /* \"contracts/EntityContract.sol\":7126:7198  roleHash == keccak256(abi.encodePacked(_toLowerCase(ROLE_MANUFACTURER))) */\n      sub\n        /* \"contracts/EntityContract.sol\":7122:7552  if (roleHash == keccak256(abi.encodePacked(_toLowerCase(ROLE_MANUFACTURER)))) {... */\n      tag_126\n      jumpi\n        /* \"contracts/EntityContract.sol\":7222:7239  ROLE_MANUFACTURER */\n      mload(0x40)\n      dup1\n      0x40\n      add\n      0x40\n      mstore\n      dup1\n      0x0c\n      dup2\n      mstore\n      0x20\n      add\n      0x4d616e7566616374757265720000000000000000000000000000000000000000\n      dup2\n      mstore\n      pop\n        /* \"contracts/EntityContract.sol\":7215:7239  return ROLE_MANUFACTURER */\n      swap2\n      pop\n      pop\n      jump(tag_117)\n        /* \"contracts/EntityContract.sol\":7122:7552  if (roleHash == keccak256(abi.encodePacked(_toLowerCase(ROLE_MANUFACTURER)))) {... */\n    tag_126:\n        /* \"contracts/EntityContract.sol\":7300:7328  _toLowerCase(ROLE_CERTIFIER) */\n      tag_128\n        /* \"contracts/EntityContract.sol\":7313:7327  ROLE_CERTIFIER */\n      mload(0x40)\n      dup1\n      0x40\n      add\n      0x40\n      mstore\n      dup1\n      0x09\n      dup2\n      mstore\n      0x20\n      add\n      0x4365727469666965720000000000000000000000000000000000000000000000\n      dup2\n      mstore\n      pop\n        /* \"contracts/EntityContract.sol\":7300:7312  _toLowerCase */\n      tag_49\n        /* \"contracts/EntityContract.sol\":7300:7328  _toLowerCase(ROLE_CERTIFIER) */\n      jump\t// in\n    tag_128:\n        /* \"contracts/EntityContract.sol\":7283:7329  abi.encodePacked(_toLowerCase(ROLE_CERTIFIER)) */\n      add(0x20, mload(0x40))\n      tag_129\n      swap2\n      swap1\n      tag_38\n      jump\t// in\n    tag_129:\n      mload(0x40)\n      0x20\n      dup2\n      dup4\n      sub\n      sub\n      dup2\n      mstore\n      swap1\n      0x40\n      mstore\n        /* \"contracts/EntityContract.sol\":7273:7330  keccak256(abi.encodePacked(_toLowerCase(ROLE_CERTIFIER))) */\n      dup1\n      mload\n      swap1\n      0x20\n      add\n      keccak256\n        /* \"contracts/EntityContract.sol\":7261:7269  roleHash */\n      dup2\n        /* \"contracts/EntityContract.sol\":7261:7330  roleHash == keccak256(abi.encodePacked(_toLowerCase(ROLE_CERTIFIER))) */\n      sub\n        /* \"contracts/EntityContract.sol\":7257:7552  if (roleHash == keccak256(abi.encodePacked(_toLowerCase(ROLE_CERTIFIER)))) {... */\n      tag_130\n      jumpi\n        /* \"contracts/EntityContract.sol\":7354:7368  ROLE_CERTIFIER */\n      mload(0x40)\n      dup1\n      0x40\n      add\n      0x40\n      mstore\n      dup1\n      0x09\n      dup2\n      mstore\n      0x20\n      add\n      0x4365727469666965720000000000000000000000000000000000000000000000\n      dup2\n      mstore\n      pop\n        /* \"contracts/EntityContract.sol\":7347:7368  return ROLE_CERTIFIER */\n      swap2\n      pop\n      pop\n      jump(tag_117)\n        /* \"contracts/EntityContract.sol\":7257:7552  if (roleHash == keccak256(abi.encodePacked(_toLowerCase(ROLE_CERTIFIER)))) {... */\n    tag_130:\n        /* \"contracts/EntityContract.sol\":7429:7456  _toLowerCase(ROLE_RETAILER) */\n      tag_132\n        /* \"contracts/EntityContract.sol\":7442:7455  ROLE_RETAILER */\n      mload(0x40)\n      dup1\n      0x40\n      add\n      0x40\n      mstore\n      dup1\n      0x08\n      dup2\n      mstore\n      0x20\n      add\n      0x52657461696c6572000000000000000000000000000000000000000000000000\n      dup2\n      mstore\n      pop\n        /* \"contracts/EntityContract.sol\":7429:7441  _toLowerCase */\n      tag_49\n        /* \"contracts/EntityContract.sol\":7429:7456  _toLowerCase(ROLE_RETAILER) */\n      jump\t// in\n    tag_132:\n        /* \"contracts/EntityContract.sol\":7412:7457  abi.encodePacked(_toLowerCase(ROLE_RETAILER)) */\n      add(0x20, mload(0x40))\n      tag_133\n      swap2\n      swap1\n      tag_38\n      jump\t// in\n    tag_133:\n      mload(0x40)\n      0x20\n      dup2\n      dup4\n      sub\n      sub\n      dup2\n      mstore\n      swap1\n      0x40\n      mstore\n        /* \"contracts/EntityContract.sol\":7402:7458  keccak256(abi.encodePacked(_toLowerCase(ROLE_RETAILER))) */\n      dup1\n      mload\n      swap1\n      0x20\n      add\n      keccak256\n        /* \"contracts/EntityContract.sol\":7390:7398  roleHash */\n      dup2\n        /* \"contracts/EntityContract.sol\":7390:7458  roleHash == keccak256(abi.encodePacked(_toLowerCase(ROLE_RETAILER))) */\n      sub\n        /* \"contracts/EntityContract.sol\":7386:7552  if (roleHash == keccak256(abi.encodePacked(_toLowerCase(ROLE_RETAILER)))) {... */\n      tag_134\n      jumpi\n        /* \"contracts/EntityContract.sol\":7482:7495  ROLE_RETAILER */\n      mload(0x40)\n      dup1\n      0x40\n      add\n      0x40\n      mstore\n      dup1\n      0x08\n      dup2\n      mstore\n      0x20\n      add\n      0x52657461696c6572000000000000000000000000000000000000000000000000\n      dup2\n      mstore\n      pop\n        /* \"contracts/EntityContract.sol\":7475:7495  return ROLE_RETAILER */\n      swap2\n      pop\n      pop\n      jump(tag_117)\n        /* \"contracts/EntityContract.sol\":7386:7552  if (roleHash == keccak256(abi.encodePacked(_toLowerCase(ROLE_RETAILER)))) {... */\n    tag_134:\n        /* \"contracts/EntityContract.sol\":7535:7540  _role */\n      dup3\n        /* \"contracts/EntityContract.sol\":7528:7540  return _role */\n      swap2\n      pop\n      pop\n        /* \"contracts/EntityContract.sol\":6821:7559  function normaliseRole(string memory _role) private pure returns (string memory) {... */\n    tag_117:\n      swap2\n      swap1\n      pop\n      jump\t// out\n        /* \"contracts/EntityContract.sol\":8074:8552  function isValidRole(string memory _role) private pure returns (bool) {... */\n    tag_44:\n        /* \"contracts/EntityContract.sol\":8138:8142  bool */\n      0x00\n        /* \"contracts/EntityContract.sol\":8227:8237  ROLE_MINER */\n      mload(0x40)\n      dup1\n      0x40\n      add\n      0x40\n      mstore\n      dup1\n      0x05\n      dup2\n      mstore\n      0x20\n      add\n      0x4d696e6572000000000000000000000000000000000000000000000000000000\n      dup2\n      mstore\n      pop\n        /* \"contracts/EntityContract.sol\":8210:8238  abi.encodePacked(ROLE_MINER) */\n      add(0x20, mload(0x40))\n      tag_137\n      swap2\n      swap1\n      tag_38\n      jump\t// in\n    tag_137:\n      mload(0x40)\n      0x20\n      dup2\n      dup4\n      sub\n      sub\n      dup2\n      mstore\n      swap1\n      0x40\n      mstore\n        /* \"contracts/EntityContract.sol\":8200:8239  keccak256(abi.encodePacked(ROLE_MINER)) */\n      dup1\n      mload\n      swap1\n      0x20\n      add\n      keccak256\n        /* \"contracts/EntityContract.sol\":8189:8194  _role */\n      dup3\n        /* \"contracts/EntityContract.sol\":8172:8195  abi.encodePacked(_role) */\n      add(0x20, mload(0x40))\n      tag_138\n      swap2\n      swap1\n      tag_38\n      jump\t// in\n    tag_138:\n      mload(0x40)\n      0x20\n      dup2\n      dup4\n      sub\n      sub\n      dup2\n      mstore\n      swap1\n      0x40\n      mstore\n        /* \"contracts/EntityContract.sol\":8162:8196  keccak256(abi.encodePacked(_role)) */\n      dup1\n      mload\n      swap1\n      0x20\n      add\n      keccak256\n        /* \"contracts/EntityContract.sol\":8162:8239  keccak256(abi.encodePacked(_role)) == keccak256(abi.encodePacked(ROLE_MINER)) */\n      eq\n        /* \"contracts/EntityContract.sol\":8162:8343  keccak256(abi.encodePacked(_role)) == keccak256(abi.encodePacked(ROLE_MINER)) ||... */\n      dup1\n      tag_139\n      jumpi\n      pop\n        /* \"contracts/EntityContract.sol\":8324:8341  ROLE_MANUFACTURER */\n      mload(0x40)\n      dup1\n      0x40\n      add\n      0x40\n      mstore\n      dup1\n      0x0c\n      dup2\n      mstore\n      0x20\n      add\n      0x4d616e7566616374757265720000000000000000000000000000000000000000\n      dup2\n      mstore\n      pop\n        /* \"contracts/EntityContract.sol\":8307:8342  abi.encodePacked(ROLE_MANUFACTURER) */\n      add(0x20, mload(0x40))\n      tag_140\n      swap2\n      swap1\n      tag_38\n      jump\t// in\n    tag_140:\n      mload(0x40)\n      0x20\n      dup2\n      dup4\n      sub\n      sub\n      dup2\n      mstore\n      swap1\n      0x40\n      mstore\n        /* \"contracts/EntityContract.sol\":8297:8343  keccak256(abi.encodePacked(ROLE_MANUFACTURER)) */\n      dup1\n      mload\n      swap1\n      0x20\n      add\n      keccak256\n        /* \"contracts/EntityContract.sol\":8286:8291  _role */\n      dup3\n        /* \"contracts/EntityContract.sol\":8269:8292  abi.encodePacked(_role) */\n      add(0x20, mload(0x40))\n      tag_141\n      swap2\n      swap1\n      tag_38\n      jump\t// in\n    tag_141:\n      mload(0x40)\n      0x20\n      dup2\n      dup4\n      sub\n      sub\n      dup2\n      mstore\n      swap1\n      0x40\n      mstore\n        /* \"contracts/EntityContract.sol\":8259:8293  keccak256(abi.encodePacked(_role)) */\n      dup1\n      mload\n      swap1\n      0x20\n      add\n      keccak256\n        /* \"contracts/EntityContract.sol\":8259:8343  keccak256(abi.encodePacked(_role)) == keccak256(abi.encodePacked(ROLE_MANUFACTURER)) */\n      eq\n        /* \"contracts/EntityContract.sol\":8162:8343  keccak256(abi.encodePacked(_role)) == keccak256(abi.encodePacked(ROLE_MINER)) ||... */\n    tag_139:\n        /* \"contracts/EntityContract.sol\":8162:8444  keccak256(abi.encodePacked(_role)) == keccak256(abi.encodePacked(ROLE_MINER)) ||... */\n      dup1\n      tag_142\n      jumpi\n      pop\n        /* \"contracts/EntityContract.sol\":8428:8442  ROLE_CERTIFIER */\n      mload(0x40)\n      dup1\n      0x40\n      add\n      0x40\n      mstore\n      dup1\n      0x09\n      dup2\n      mstore\n      0x20\n      add\n      0x4365727469666965720000000000000000000000000000000000000000000000\n      dup2\n      mstore\n      pop\n        /* \"contracts/EntityContract.sol\":8411:8443  abi.encodePacked(ROLE_CERTIFIER) */\n      add(0x20, mload(0x40))\n      tag_143\n      swap2\n      swap1\n      tag_38\n      jump\t// in\n    tag_143:\n      mload(0x40)\n      0x20\n      dup2\n      dup4\n      sub\n      sub\n      dup2\n      mstore\n      swap1\n      0x40\n      mstore\n        /* \"contracts/EntityContract.sol\":8401:8444  keccak256(abi.encodePacked(ROLE_CERTIFIER)) */\n      dup1\n      mload\n      swap1\n      0x20\n      add\n      keccak256\n        /* \"contracts/EntityContract.sol\":8390:8395  _role */\n      dup3\n        /* \"contracts/EntityContract.sol\":8373:8396  abi.encodePacked(_role) */\n      add(0x20, mload(0x40))\n      tag_144\n      swap2\n      swap1\n      tag_38\n      jump\t// in\n    tag_144:\n      mload(0x40)\n      0x20\n      dup2\n      dup4\n      sub\n      sub\n      dup2\n      mstore\n      swap1\n      0x40\n      mstore\n        /* \"contracts/EntityContract.sol\":8363:8397  keccak256(abi.encodePacked(_role)) */\n      dup1\n      mload\n      swap1\n      0x20\n      add\n      keccak256\n        /* \"contracts/EntityContract.sol\":8363:8444  keccak256(abi.encodePacked(_role)) == keccak256(abi.encodePacked(ROLE_CERTIFIER)) */\n      eq\n        /* \"contracts/EntityContract.sol\":8162:8444  keccak256(abi.encodePacked(_role)) == keccak256(abi.encodePacked(ROLE_MINER)) ||... */\n    tag_142:\n        /* \"contracts/EntityContract.sol\":8162:8544  keccak256(abi.encodePacked(_role)) == keccak256(abi.encodePacked(ROLE_MINER)) ||... */\n      dup1\n      tag_145\n      jumpi\n      pop\n        /* \"contracts/EntityContract.sol\":8529:8542  ROLE_RETAILER */\n      mload(0x40)\n      dup1\n      0x40\n      add\n      0x40\n      mstore\n      dup1\n      0x08\n      dup2\n      mstore\n      0x20\n      add\n      0x52657461696c6572000000000000000000000000000000000000000000000000\n      dup2\n      mstore\n      pop\n        /* \"contracts/EntityContract.sol\":8512:8543  abi.encodePacked(ROLE_RETAILER) */\n      add(0x20, mload(0x40))\n      tag_146\n      swap2\n      swap1\n      tag_38\n      jump\t// in\n    tag_146:\n      mload(0x40)\n      0x20\n      dup2\n      dup4\n      sub\n      sub\n      dup2\n      mstore\n      swap1\n      0x40\n      mstore\n        /* \"contracts/EntityContract.sol\":8502:8544  keccak256(abi.encodePacked(ROLE_RETAILER)) */\n      dup1\n      mload\n      swap1\n      0x20\n      add\n      keccak256\n        /* \"contracts/EntityContract.sol\":8491:8496  _role */\n      dup3\n        /* \"contracts/EntityContract.sol\":8474:8497  abi.encodePacked(_role) */\n      add(0x20, mload(0x40))\n      tag_147\n      swap2\n      swap1\n      tag_38\n      jump\t// in\n    tag_147:\n      mload(0x40)\n      0x20\n      dup2\n      dup4\n      sub\n      sub\n      dup2\n      mstore\n      swap1\n      0x40\n      mstore\n        /* \"contracts/EntityContract.sol\":8464:8498  keccak256(abi.encodePacked(_role)) */\n      dup1\n      mload\n      swap1\n      0x20\n      add\n      keccak256\n        /* \"contracts/EntityContract.sol\":8464:8544  keccak256(abi.encodePacked(_role)) == keccak256(abi.encodePacked(ROLE_RETAILER)) */\n      eq\n        /* \"contracts/EntityContract.sol\":8162:8544  keccak256(abi.encodePacked(_role)) == keccak256(abi.encodePacked(ROLE_MINER)) ||... */\n    tag_145:\n        /* \"contracts/EntityContract.sol\":8155:8544  return keccak256(abi.encodePacked(_role)) == keccak256(abi.encodePacked(ROLE_MINER)) ||... */\n      swap1\n      pop\n        /* \"contracts/EntityContract.sol\":8074:8552  function isValidRole(string memory _role) private pure returns (bool) {... */\n      swap2\n      swap1\n      pop\n      jump\t// out\n        /* \"contracts/EntityContract.sol\":7567:8066  function _toLowerCase(string memory _str) private pure returns (string memory) {... */\n    tag_49:\n        /* \"contracts/EntityContract.sol\":7631:7644  string memory */\n      0x60\n        /* \"contracts/EntityContract.sol\":7657:7674  bytes memory bStr */\n      0x00\n        /* \"contracts/EntityContract.sol\":7683:7687  _str */\n      dup3\n        /* \"contracts/EntityContract.sol\":7657:7688  bytes memory bStr = bytes(_str) */\n      swap1\n      pop\n        /* \"contracts/EntityContract.sol\":7699:7718  bytes memory bLower */\n      0x00\n        /* \"contracts/EntityContract.sol\":7731:7735  bStr */\n      dup2\n        /* \"contracts/EntityContract.sol\":7731:7742  bStr.length */\n      mload\n        /* \"contracts/EntityContract.sol\":7721:7743  new bytes(bStr.length) */\n      0xffffffffffffffff\n      dup2\n      gt\n      iszero\n      tag_149\n      jumpi\n      tag_150\n      tag_151\n      jump\t// in\n    tag_150:\n    tag_149:\n      mload(0x40)\n      swap1\n      dup1\n      dup3\n      mstore\n      dup1\n      0x1f\n      add\n      not(0x1f)\n      and\n      0x20\n      add\n      dup3\n      add\n      0x40\n      mstore\n      dup1\n      iszero\n      tag_152\n      jumpi\n      dup2\n      0x20\n      add\n      0x01\n      dup3\n      mul\n      dup1\n      calldatasize\n      dup4\n      calldatacopy\n      dup1\n      dup3\n      add\n      swap2\n      pop\n      pop\n      swap1\n      pop\n    tag_152:\n      pop\n        /* \"contracts/EntityContract.sol\":7699:7743  bytes memory bLower = new bytes(bStr.length) */\n      swap1\n      pop\n        /* \"contracts/EntityContract.sol\":7769:7775  uint i */\n      0x00\n        /* \"contracts/EntityContract.sol\":7764:8017  for (uint i = 0; i < bStr.length; i++) {... */\n    tag_153:\n        /* \"contracts/EntityContract.sol\":7785:7789  bStr */\n      dup3\n        /* \"contracts/EntityContract.sol\":7785:7796  bStr.length */\n      mload\n        /* \"contracts/EntityContract.sol\":7781:7782  i */\n      dup2\n        /* \"contracts/EntityContract.sol\":7781:7796  i < bStr.length */\n      lt\n        /* \"contracts/EntityContract.sol\":7764:8017  for (uint i = 0; i < bStr.length; i++) {... */\n      iszero\n      tag_154\n      jumpi\n        /* \"contracts/EntityContract.sol\":7841:7843  65 */\n      0x41\n        /* \"contracts/EntityContract.sol\":7829:7833  bStr */\n      dup4\n        /* \"contracts/EntityContract.sol\":7834:7835  i */\n      dup3\n        /* \"contracts/EntityContract.sol\":7829:7836  bStr[i] */\n      dup2\n      mload\n      dup2\n      lt\n      tag_156\n      jumpi\n      tag_157\n      tag_65\n      jump\t// in\n    tag_157:\n    tag_156:\n      0x20\n      add\n      add\n      mload\n      0xf8\n      shr\n      0xf8\n      shl\n        /* \"contracts/EntityContract.sol\":7823:7837  uint8(bStr[i]) */\n      0xf8\n      shr\n        /* \"contracts/EntityContract.sol\":7823:7843  uint8(bStr[i]) >= 65 */\n      0xff\n      and\n      lt\n      iszero\n        /* \"contracts/EntityContract.sol\":7822:7870  (uint8(bStr[i]) >= 65) && (uint8(bStr[i]) <= 90) */\n      dup1\n      iszero\n      tag_158\n      jumpi\n      pop\n        /* \"contracts/EntityContract.sol\":7867:7869  90 */\n      0x5a\n        /* \"contracts/EntityContract.sol\":7855:7859  bStr */\n      dup4\n        /* \"contracts/EntityContract.sol\":7860:7861  i */\n      dup3\n        /* \"contracts/EntityContract.sol\":7855:7862  bStr[i] */\n      dup2\n      mload\n      dup2\n      lt\n      tag_159\n      jumpi\n      tag_160\n      tag_65\n      jump\t// in\n    tag_160:\n    tag_159:\n      0x20\n      add\n      add\n      mload\n      0xf8\n      shr\n      0xf8\n      shl\n        /* \"contracts/EntityContract.sol\":7849:7863  uint8(bStr[i]) */\n      0xf8\n      shr\n        /* \"contracts/EntityContract.sol\":7849:7869  uint8(bStr[i]) <= 90 */\n      0xff\n      and\n      gt\n      iszero\n        /* \"contracts/EntityContract.sol\":7822:7870  (uint8(bStr[i]) >= 65) && (uint8(bStr[i]) <= 90) */\n    tag_158:\n        /* \"contracts/EntityContract.sol\":7818:8006  if ((uint8(bStr[i]) >= 65) && (uint8(bStr[i]) <= 90)) {... */\n      iszero\n      tag_161\n      jumpi\n        /* \"contracts/EntityContract.sol\":7927:7929  32 */\n      0x20\n        /* \"contracts/EntityContract.sol\":7916:7920  bStr */\n      dup4\n        /* \"contracts/EntityContract.sol\":7921:7922  i */\n      dup3\n        /* \"contracts/EntityContract.sol\":7916:7923  bStr[i] */\n      dup2\n      mload\n      dup2\n      lt\n      tag_162\n      jumpi\n      tag_163\n      tag_65\n      jump\t// in\n    tag_163:\n    tag_162:\n      0x20\n      add\n      add\n      mload\n      0xf8\n      shr\n      0xf8\n      shl\n        /* \"contracts/EntityContract.sol\":7910:7924  uint8(bStr[i]) */\n      0xf8\n      shr\n        /* \"contracts/EntityContract.sol\":7910:7929  uint8(bStr[i]) + 32 */\n      tag_164\n      swap2\n      swap1\n      tag_165\n      jump\t// in\n    tag_164:\n        /* \"contracts/EntityContract.sol\":7903:7930  bytes1(uint8(bStr[i]) + 32) */\n      0xf8\n      shl\n        /* \"contracts/EntityContract.sol\":7891:7897  bLower */\n      dup3\n        /* \"contracts/EntityContract.sol\":7898:7899  i */\n      dup3\n        /* \"contracts/EntityContract.sol\":7891:7900  bLower[i] */\n      dup2\n      mload\n      dup2\n      lt\n      tag_166\n      jumpi\n      tag_167\n      tag_65\n      jump\t// in\n    tag_167:\n    tag_166:\n      0x20\n      add\n      add\n        /* \"contracts/EntityContract.sol\":7891:7930  bLower[i] = bytes1(uint8(bStr[i]) + 32) */\n      swap1\n      not(0xffffffffffffffffffffffffffffffffffffffffffffffffffffffffffffff)\n      and\n      swap1\n      dup2\n      0x00\n      byte\n      swap1\n      mstore8\n      pop\n        /* \"contracts/EntityContract.sol\":7818:8006  if ((uint8(bStr[i]) >= 65) && (uint8(bStr[i]) <= 90)) {... */\n      jump(tag_168)\n    tag_161:\n        /* \"contracts/EntityContract.sol\":7983:7987  bStr */\n      dup3\n        /* \"contracts/EntityContract.sol\":7988:7989  i */\n      dup2\n        /* \"contracts/EntityContract.sol\":7983:7990  bStr[i] */\n      dup2\n      mload\n      dup2\n      lt\n      tag_169\n      jumpi\n      tag_170\n      tag_65\n      jump\t// in\n    tag_170:\n    tag_169:\n      0x20\n      add\n      add\n      mload\n      0xf8\n      shr\n      0xf8\n      shl\n        /* \"contracts/EntityContract.sol\":7971:7977  bLower */\n      dup3\n        /* \"contracts/EntityContract.sol\":7978:7979  i */\n      dup3\n        /* \"contracts/EntityContract.sol\":7971:7980  bLower[i] */\n      dup2\n      mload\n      dup2\n      lt\n      tag_171\n      jumpi\n      tag_172\n      tag_65\n      jump\t// in\n    tag_172:\n    tag_171:\n      0x20\n      add\n      add\n        /* \"contracts/EntityContract.sol\":7971:7990  bLower[i] = bStr[i] */\n      swap1\n      not(0xffffffffffffffffffffffffffffffffffffffffffffffffffffffffffffff)\n      and\n      swap1\n      dup2\n      0x00\n      byte\n      swap1\n      mstore8\n      pop\n        /* \"contracts/EntityContract.sol\":7818:8006  if ((uint8(bStr[i]) >= 65) && (uint8(bStr[i]) <= 90)) {... */\n    tag_168:\n        /* \"contracts/EntityContract.sol\":7798:7801  i++ */\n      dup1\n      dup1\n      0x01\n      add\n      swap2\n      pop\n      pop\n        /* \"contracts/EntityContract.sol\":7764:8017  for (uint i = 0; i < bStr.length; i++) {... */\n      jump(tag_153)\n    tag_154:\n      pop\n        /* \"contracts/EntityContract.sol\":8051:8057  bLower */\n      dup1\n        /* \"contracts/EntityContract.sol\":8037:8058  return string(bLower) */\n      swap3\n      pop\n      pop\n      pop\n        /* \"contracts/EntityContract.sol\":7567:8066  function _toLowerCase(string memory _str) private pure returns (string memory) {... */\n      swap2\n      swap1\n      pop\n      jump\t// out\n        /* \"contracts/EntityContract.sol\":4392:4778  function isLocationBlacklisted(string memory _location) private view returns (bool) {... */\n    tag_51:\n        /* \"contracts/EntityContract.sol\":4470:4474  bool */\n      0x00\n        /* \"contracts/EntityContract.sol\":4487:4514  string memory lowerLocation */\n      dup1\n        /* \"contracts/EntityContract.sol\":4517:4540  _toLowerCase(_location) */\n      tag_174\n        /* \"contracts/EntityContract.sol\":4530:4539  _location */\n      dup4\n        /* \"contracts/EntityContract.sol\":4517:4529  _toLowerCase */\n      tag_49\n        /* \"contracts/EntityContract.sol\":4517:4540  _toLowerCase(_location) */\n      jump\t// in\n    tag_174:\n        /* \"contracts/EntityContract.sol\":4487:4540  string memory lowerLocation = _toLowerCase(_location) */\n      swap1\n      pop\n        /* \"contracts/EntityContract.sol\":4566:4572  uint i */\n      0x00\n        /* \"contracts/EntityContract.sol\":4561:4748  for (uint i = 0; i < blacklistedLocations.length; i++) {... */\n    tag_175:\n        /* \"contracts/EntityContract.sol\":4582:4602  blacklistedLocations */\n      0x00\n        /* \"contracts/EntityContract.sol\":4582:4609  blacklistedLocations.length */\n      dup1\n      sload\n      swap1\n      pop\n        /* \"contracts/EntityContract.sol\":4578:4579  i */\n      dup2\n        /* \"contracts/EntityContract.sol\":4578:4609  i < blacklistedLocations.length */\n      lt\n        /* \"contracts/EntityContract.sol\":4561:4748  for (uint i = 0; i < blacklistedLocations.length; i++) {... */\n      iszero\n      tag_176\n      jumpi\n        /* \"contracts/EntityContract.sol\":4635:4689  containsString(lowerLocation, blacklistedLocations[i]) */\n      tag_178\n        /* \"contracts/EntityContract.sol\":4650:4663  lowerLocation */\n      dup3\n        /* \"contracts/EntityContract.sol\":4665:4685  blacklistedLocations */\n      0x00\n        /* \"contracts/EntityContract.sol\":4686:4687  i */\n      dup4\n        /* \"contracts/EntityContract.sol\":4665:4688  blacklistedLocations[i] */\n      dup2\n      sload\n      dup2\n      lt\n      tag_179\n      jumpi\n      tag_180\n      tag_65\n      jump\t// in\n    tag_180:\n    tag_179:\n      swap1\n      0x00\n      mstore\n      keccak256(0x00, 0x20)\n      add\n        /* \"contracts/EntityContract.sol\":4635:4689  containsString(lowerLocation, blacklistedLocations[i]) */\n      dup1\n      sload\n      tag_182\n      swap1\n      tag_82\n      jump\t// in\n    tag_182:\n      dup1\n      0x1f\n      add\n      0x20\n      dup1\n      swap2\n      div\n      mul\n      0x20\n      add\n      mload(0x40)\n      swap1\n      dup2\n      add\n      0x40\n      mstore\n      dup1\n      swap3\n      swap2\n      swap1\n      dup2\n      dup2\n      mstore\n      0x20\n      add\n      dup3\n      dup1\n      sload\n      tag_183\n      swap1\n      tag_82\n      jump\t// in\n    tag_183:\n      dup1\n      iszero\n      tag_184\n      jumpi\n      dup1\n      0x1f\n      lt\n      tag_185\n      jumpi\n      0x0100\n      dup1\n      dup4\n      sload\n      div\n      mul\n      dup4\n      mstore\n      swap2\n      0x20\n      add\n      swap2\n      jump(tag_184)\n    tag_185:\n      dup3\n      add\n      swap2\n      swap1\n      0x00\n      mstore\n      keccak256(0x00, 0x20)\n      swap1\n    tag_186:\n      dup2\n      sload\n      dup2\n      mstore\n      swap1\n      0x01\n      add\n      swap1\n      0x20\n      add\n      dup1\n      dup4\n      gt\n      tag_186\n      jumpi\n      dup3\n      swap1\n      sub\n      0x1f\n      and\n      dup3\n      add\n      swap2\n    tag_184:\n      pop\n      pop\n      pop\n      pop\n      pop\n        /* \"contracts/EntityContract.sol\":4635:4649  containsString */\n      tag_187\n        /* \"contracts/EntityContract.sol\":4635:4689  containsString(lowerLocation, blacklistedLocations[i]) */\n      jump\t// in\n    tag_178:\n        /* \"contracts/EntityContract.sol\":4631:4737  if (containsString(lowerLocation, blacklistedLocations[i])) {... */\n      iszero\n      tag_188\n      jumpi\n        /* \"contracts/EntityContract.sol\":4717:4721  true */\n      0x01\n        /* \"contracts/EntityContract.sol\":4710:4721  return true */\n      swap3\n      pop\n      pop\n      pop\n      jump(tag_173)\n        /* \"contracts/EntityContract.sol\":4631:4737  if (containsString(lowerLocation, blacklistedLocations[i])) {... */\n    tag_188:\n        /* \"contracts/EntityContract.sol\":4611:4614  i++ */\n      dup1\n      dup1\n      0x01\n      add\n      swap2\n      pop\n      pop\n        /* \"contracts/EntityContract.sol\":4561:4748  for (uint i = 0; i < blacklistedLocations.length; i++) {... */\n      jump(tag_175)\n    tag_176:\n      pop\n        /* \"contracts/EntityContract.sol\":4765:4770  false */\n      0x00\n        /* \"contracts/EntityContract.sol\":4758:4770  return false */\n      swap2\n      pop\n      pop\n        /* \"contracts/EntityContract.sol\":4392:4778  function isLocationBlacklisted(string memory _location) private view returns (bool) {... */\n    tag_173:\n      swap2\n      swap1\n      pop\n      jump\t// out\n        /* \"contracts/EntityContract.sol\":8560:9199  function getLicensePrefixForRole(string memory _role) private pure returns (bytes1) {... */\n    tag_62:\n        /* \"contracts/EntityContract.sol\":8636:8642  bytes1 */\n      0x00\n        /* \"contracts/EntityContract.sol\":8655:8671  bytes32 roleHash */\n      dup1\n        /* \"contracts/EntityContract.sol\":8701:8706  _role */\n      dup3\n        /* \"contracts/EntityContract.sol\":8684:8707  abi.encodePacked(_role) */\n      add(0x20, mload(0x40))\n      tag_190\n      swap2\n      swap1\n      tag_38\n      jump\t// in\n    tag_190:\n      mload(0x40)\n      0x20\n      dup2\n      dup4\n      sub\n      sub\n      dup2\n      mstore\n      swap1\n      0x40\n      mstore\n        /* \"contracts/EntityContract.sol\":8674:8708  keccak256(abi.encodePacked(_role)) */\n      dup1\n      mload\n      swap1\n      0x20\n      add\n      keccak256\n        /* \"contracts/EntityContract.sol\":8655:8708  bytes32 roleHash = keccak256(abi.encodePacked(_role)) */\n      swap1\n      pop\n        /* \"contracts/EntityContract.sol\":8772:8782  ROLE_MINER */\n      mload(0x40)\n      dup1\n      0x40\n      add\n      0x40\n      mstore\n      dup1\n      0x05\n      dup2\n      mstore\n      0x20\n      add\n      0x4d696e6572000000000000000000000000000000000000000000000000000000\n      dup2\n      mstore\n      pop\n        /* \"contracts/EntityContract.sol\":8755:8783  abi.encodePacked(ROLE_MINER) */\n      add(0x20, mload(0x40))\n      tag_191\n      swap2\n      swap1\n      tag_38\n      jump\t// in\n    tag_191:\n      mload(0x40)\n      0x20\n      dup2\n      dup4\n      sub\n      sub\n      dup2\n      mstore\n      swap1\n      0x40\n      mstore\n        /* \"contracts/EntityContract.sol\":8745:8784  keccak256(abi.encodePacked(ROLE_MINER)) */\n      dup1\n      mload\n      swap1\n      0x20\n      add\n      keccak256\n        /* \"contracts/EntityContract.sol\":8733:8741  roleHash */\n      dup2\n        /* \"contracts/EntityContract.sol\":8733:8784  roleHash == keccak256(abi.encodePacked(ROLE_MINER)) */\n      sub\n        /* \"contracts/EntityContract.sol\":8729:9192  if (roleHash == keccak256(abi.encodePacked(ROLE_MINER))) {... */\n      tag_192\n      jumpi\n        /* \"contracts/EntityContract.sol\":8801:8811  return 'a' */\n      0x6100000000000000000000000000000000000000000000000000000000000000\n      swap2\n      pop\n      pop\n      jump(tag_189)\n        /* \"contracts/EntityContract.sol\":8729:9192  if (roleHash == keccak256(abi.encodePacked(ROLE_MINER))) {... */\n    tag_192:\n        /* \"contracts/EntityContract.sol\":8872:8889  ROLE_MANUFACTURER */\n      mload(0x40)\n      dup1\n      0x40\n      add\n      0x40\n      mstore\n      dup1\n      0x0c\n      dup2\n      mstore\n      0x20\n      add\n      0x4d616e7566616374757265720000000000000000000000000000000000000000\n      dup2\n      mstore\n      pop\n        /* \"contracts/EntityContract.sol\":8855:8890  abi.encodePacked(ROLE_MANUFACTURER) */\n      add(0x20, mload(0x40))\n      tag_194\n      swap2\n      swap1\n      tag_38\n      jump\t// in\n    tag_194:\n      mload(0x40)\n      0x20\n      dup2\n      dup4\n      sub\n      sub\n      dup2\n      mstore\n      swap1\n      0x40\n      mstore\n        /* \"contracts/EntityContract.sol\":8845:8891  keccak256(abi.encodePacked(ROLE_MANUFACTURER)) */\n      dup1\n      mload\n      swap1\n      0x20\n      add\n      keccak256\n        /* \"contracts/EntityContract.sol\":8833:8841  roleHash */\n      dup2\n        /* \"contracts/EntityContract.sol\":8833:8891  roleHash == keccak256(abi.encodePacked(ROLE_MANUFACTURER)) */\n      sub\n        /* \"contracts/EntityContract.sol\":8829:9192  if (roleHash == keccak256(abi.encodePacked(ROLE_MANUFACTURER))) {... */\n      tag_195\n      jumpi\n        /* \"contracts/EntityContract.sol\":8908:8918  return 'b' */\n      0x6200000000000000000000000000000000000000000000000000000000000000\n      swap2\n      pop\n      pop\n      jump(tag_189)\n        /* \"contracts/EntityContract.sol\":8829:9192  if (roleHash == keccak256(abi.encodePacked(ROLE_MANUFACTURER))) {... */\n    tag_195:\n        /* \"contracts/EntityContract.sol\":8979:8993  ROLE_CERTIFIER */\n      mload(0x40)\n      dup1\n      0x40\n      add\n      0x40\n      mstore\n      dup1\n      0x09\n      dup2\n      mstore\n      0x20\n      add\n      0x4365727469666965720000000000000000000000000000000000000000000000\n      dup2\n      mstore\n      pop\n        /* \"contracts/EntityContract.sol\":8962:8994  abi.encodePacked(ROLE_CERTIFIER) */\n      add(0x20, mload(0x40))\n      tag_197\n      swap2\n      swap1\n      tag_38\n      jump\t// in\n    tag_197:\n      mload(0x40)\n      0x20\n      dup2\n      dup4\n      sub\n      sub\n      dup2\n      mstore\n      swap1\n      0x40\n      mstore\n        /* \"contracts/EntityContract.sol\":8952:8995  keccak256(abi.encodePacked(ROLE_CERTIFIER)) */\n      dup1\n      mload\n      swap1\n      0x20\n      add\n      keccak256\n        /* \"contracts/EntityContract.sol\":8940:8948  roleHash */\n      dup2\n        /* \"contracts/EntityContract.sol\":8940:8995  roleHash == keccak256(abi.encodePacked(ROLE_CERTIFIER)) */\n      sub\n        /* \"contracts/EntityContract.sol\":8936:9192  if (roleHash == keccak256(abi.encodePacked(ROLE_CERTIFIER))) {... */\n      tag_198\n      jumpi\n        /* \"contracts/EntityContract.sol\":9012:9022  return 'c' */\n      0x6300000000000000000000000000000000000000000000000000000000000000\n      swap2\n      pop\n      pop\n      jump(tag_189)\n        /* \"contracts/EntityContract.sol\":8936:9192  if (roleHash == keccak256(abi.encodePacked(ROLE_CERTIFIER))) {... */\n    tag_198:\n        /* \"contracts/EntityContract.sol\":9083:9096  ROLE_RETAILER */\n      mload(0x40)\n      dup1\n      0x40\n      add\n      0x40\n      mstore\n      dup1\n      0x08\n      dup2\n      mstore\n      0x20\n      add\n      0x52657461696c6572000000000000000000000000000000000000000000000000\n      dup2\n      mstore\n      pop\n        /* \"contracts/EntityContract.sol\":9066:9097  abi.encodePacked(ROLE_RETAILER) */\n      add(0x20, mload(0x40))\n      tag_200\n      swap2\n      swap1\n      tag_38\n      jump\t// in\n    tag_200:\n      mload(0x40)\n      0x20\n      dup2\n      dup4\n      sub\n      sub\n      dup2\n      mstore\n      swap1\n      0x40\n      mstore\n        /* \"contracts/EntityContract.sol\":9056:9098  keccak256(abi.encodePacked(ROLE_RETAILER)) */\n      dup1\n      mload\n      swap1\n      0x20\n      add\n      keccak256\n        /* \"contracts/EntityContract.sol\":9044:9052  roleHash */\n      dup2\n        /* \"contracts/EntityContract.sol\":9044:9098  roleHash == keccak256(abi.encodePacked(ROLE_RETAILER)) */\n      sub\n        /* \"contracts/EntityContract.sol\":9040:9192  if (roleHash == keccak256(abi.encodePacked(ROLE_RETAILER))) {... */\n      tag_201\n      jumpi\n        /* \"contracts/EntityContract.sol\":9115:9125  return 'd' */\n      0x6400000000000000000000000000000000000000000000000000000000000000\n      swap2\n      pop\n      pop\n      jump(tag_189)\n        /* \"contracts/EntityContract.sol\":9040:9192  if (roleHash == keccak256(abi.encodePacked(ROLE_RETAILER))) {... */\n    tag_201:\n        /* \"contracts/EntityContract.sol\":9158:9180  revert(\"Invalid role\") */\n      mload(0x40)\n      0x08c379a000000000000000000000000000000000000000000000000000000000\n      dup2\n      mstore\n      0x04\n      add\n      tag_203\n      swap1\n      tag_204\n      jump\t// in\n    tag_203:\n      mload(0x40)\n      dup1\n      swap2\n      sub\n      swap1\n      revert\n        /* \"contracts/EntityContract.sol\":8560:9199  function getLicensePrefixForRole(string memory _role) private pure returns (bytes1) {... */\n    tag_189:\n      swap2\n      swap1\n      pop\n      jump\t// out\n        /* \"contracts/EntityContract.sol\":4825:5623  function containsString(string memory _source, string memory _search) private pure returns (bool) {... */\n    tag_187:\n        /* \"contracts/EntityContract.sol\":4917:4921  bool */\n      0x00\n        /* \"contracts/EntityContract.sol\":4934:4958  bytes memory sourceBytes */\n      dup1\n        /* \"contracts/EntityContract.sol\":4967:4974  _source */\n      dup4\n        /* \"contracts/EntityContract.sol\":4934:4975  bytes memory sourceBytes = bytes(_source) */\n      swap1\n      pop\n        /* \"contracts/EntityContract.sol\":4986:5010  bytes memory searchBytes */\n      0x00\n        /* \"contracts/EntityContract.sol\":5019:5026  _search */\n      dup4\n        /* \"contracts/EntityContract.sol\":4986:5027  bytes memory searchBytes = bytes(_search) */\n      swap1\n      pop\n        /* \"contracts/EntityContract.sol\":5073:5084  sourceBytes */\n      dup2\n        /* \"contracts/EntityContract.sol\":5073:5091  sourceBytes.length */\n      mload\n        /* \"contracts/EntityContract.sol\":5052:5063  searchBytes */\n      dup2\n        /* \"contracts/EntityContract.sol\":5052:5070  searchBytes.length */\n      mload\n        /* \"contracts/EntityContract.sol\":5052:5091  searchBytes.length > sourceBytes.length */\n      gt\n        /* \"contracts/EntityContract.sol\":5048:5132  if (searchBytes.length > sourceBytes.length) {... */\n      iszero\n      tag_206\n      jumpi\n        /* \"contracts/EntityContract.sol\":5115:5120  false */\n      0x00\n        /* \"contracts/EntityContract.sol\":5108:5120  return false */\n      swap3\n      pop\n      pop\n      pop\n      jump(tag_205)\n        /* \"contracts/EntityContract.sol\":5048:5132  if (searchBytes.length > sourceBytes.length) {... */\n    tag_206:\n        /* \"contracts/EntityContract.sol\":5185:5191  uint i */\n      0x00\n        /* \"contracts/EntityContract.sol\":5180:5583  for (uint i = 0; i <= sourceBytes.length - searchBytes.length; i++) {... */\n    tag_207:\n        /* \"contracts/EntityContract.sol\":5223:5234  searchBytes */\n      dup2\n        /* \"contracts/EntityContract.sol\":5223:5241  searchBytes.length */\n      mload\n        /* \"contracts/EntityContract.sol\":5202:5213  sourceBytes */\n      dup4\n        /* \"contracts/EntityContract.sol\":5202:5220  sourceBytes.length */\n      mload\n        /* \"contracts/EntityContract.sol\":5202:5241  sourceBytes.length - searchBytes.length */\n      tag_210\n      swap2\n      swap1\n      tag_211\n      jump\t// in\n    tag_210:\n        /* \"contracts/EntityContract.sol\":5197:5198  i */\n      dup2\n        /* \"contracts/EntityContract.sol\":5197:5241  i <= sourceBytes.length - searchBytes.length */\n      gt\n        /* \"contracts/EntityContract.sol\":5180:5583  for (uint i = 0; i <= sourceBytes.length - searchBytes.length; i++) {... */\n      tag_208\n      jumpi\n        /* \"contracts/EntityContract.sol\":5263:5273  bool found */\n      0x00\n        /* \"contracts/EntityContract.sol\":5276:5280  true */\n      0x01\n        /* \"contracts/EntityContract.sol\":5263:5280  bool found = true */\n      swap1\n      pop\n        /* \"contracts/EntityContract.sol\":5300:5306  uint j */\n      0x00\n        /* \"contracts/EntityContract.sol\":5295:5501  for (uint j = 0; j < searchBytes.length; j++) {... */\n    tag_212:\n        /* \"contracts/EntityContract.sol\":5316:5327  searchBytes */\n      dup4\n        /* \"contracts/EntityContract.sol\":5316:5334  searchBytes.length */\n      mload\n        /* \"contracts/EntityContract.sol\":5312:5313  j */\n      dup2\n        /* \"contracts/EntityContract.sol\":5312:5334  j < searchBytes.length */\n      lt\n        /* \"contracts/EntityContract.sol\":5295:5501  for (uint j = 0; j < searchBytes.length; j++) {... */\n      iszero\n      tag_213\n      jumpi\n        /* \"contracts/EntityContract.sol\":5386:5397  searchBytes */\n      dup4\n        /* \"contracts/EntityContract.sol\":5398:5399  j */\n      dup2\n        /* \"contracts/EntityContract.sol\":5386:5400  searchBytes[j] */\n      dup2\n      mload\n      dup2\n      lt\n      tag_215\n      jumpi\n      tag_216\n      tag_65\n      jump\t// in\n    tag_216:\n    tag_215:\n      0x20\n      add\n      add\n      mload\n      0xf8\n      shr\n      0xf8\n      shl\n        /* \"contracts/EntityContract.sol\":5364:5400  sourceBytes[i + j] != searchBytes[j] */\n      not(0xffffffffffffffffffffffffffffffffffffffffffffffffffffffffffffff)\n      and\n        /* \"contracts/EntityContract.sol\":5364:5375  sourceBytes */\n      dup6\n        /* \"contracts/EntityContract.sol\":5380:5381  j */\n      dup3\n        /* \"contracts/EntityContract.sol\":5376:5377  i */\n      dup6\n        /* \"contracts/EntityContract.sol\":5376:5381  i + j */\n      tag_217\n      swap2\n      swap1\n      tag_218\n      jump\t// in\n    tag_217:\n        /* \"contracts/EntityContract.sol\":5364:5382  sourceBytes[i + j] */\n      dup2\n      mload\n      dup2\n      lt\n      tag_219\n      jumpi\n      tag_220\n      tag_65\n      jump\t// in\n    tag_220:\n    tag_219:\n      0x20\n      add\n      add\n      mload\n      0xf8\n      shr\n      0xf8\n      shl\n        /* \"contracts/EntityContract.sol\":5364:5400  sourceBytes[i + j] != searchBytes[j] */\n      not(0xffffffffffffffffffffffffffffffffffffffffffffffffffffffffffffff)\n      and\n      eq\n        /* \"contracts/EntityContract.sol\":5360:5486  if (sourceBytes[i + j] != searchBytes[j]) {... */\n      tag_221\n      jumpi\n        /* \"contracts/EntityContract.sol\":5433:5438  false */\n      0x00\n        /* \"contracts/EntityContract.sol\":5425:5438  found = false */\n      swap2\n      pop\n        /* \"contracts/EntityContract.sol\":5461:5466  break */\n      jump(tag_213)\n        /* \"contracts/EntityContract.sol\":5360:5486  if (sourceBytes[i + j] != searchBytes[j]) {... */\n    tag_221:\n        /* \"contracts/EntityContract.sol\":5336:5339  j++ */\n      dup1\n      dup1\n      0x01\n      add\n      swap2\n      pop\n      pop\n        /* \"contracts/EntityContract.sol\":5295:5501  for (uint j = 0; j < searchBytes.length; j++) {... */\n      jump(tag_212)\n    tag_213:\n      pop\n        /* \"contracts/EntityContract.sol\":5519:5524  found */\n      dup1\n        /* \"contracts/EntityContract.sol\":5515:5572  if (found) {... */\n      iszero\n      tag_222\n      jumpi\n        /* \"contracts/EntityContract.sol\":5552:5556  true */\n      0x01\n        /* \"contracts/EntityContract.sol\":5545:5556  return true */\n      swap5\n      pop\n      pop\n      pop\n      pop\n      pop\n      jump(tag_205)\n        /* \"contracts/EntityContract.sol\":5515:5572  if (found) {... */\n    tag_222:\n        /* \"contracts/EntityContract.sol\":5248:5583  {... */\n      pop\n        /* \"contracts/EntityContract.sol\":5243:5246  i++ */\n      dup1\n      dup1\n      tag_223\n      swap1\n      tag_224\n      jump\t// in\n    tag_223:\n      swap2\n      pop\n      pop\n        /* \"contracts/EntityContract.sol\":5180:5583  for (uint i = 0; i <= sourceBytes.length - searchBytes.length; i++) {... */\n      jump(tag_207)\n    tag_208:\n      pop\n        /* \"contracts/EntityContract.sol\":5610:5615  false */\n      0x00\n        /* \"contracts/EntityContract.sol\":5603:5615  return false */\n      swap3\n      pop\n      pop\n      pop\n        /* \"contracts/EntityContract.sol\":4825:5623  function containsString(string memory _source, string memory _search) private pure returns (bool) {... */\n    tag_205:\n      swap3\n      swap2\n      pop\n      pop\n      jump\t// out\n        /* \"#utility.yul\":7:82   */\n    tag_225:\n        /* \"#utility.yul\":40:46   */\n      0x00\n        /* \"#utility.yul\":73:75   */\n      0x40\n        /* \"#utility.yul\":67:76   */\n      mload\n        /* \"#utility.yul\":57:76   */\n      swap1\n      pop\n        /* \"#utility.yul\":7:82   */\n      swap1\n      jump\t// out\n        /* \"#utility.yul\":88:205   */\n    tag_226:\n        /* \"#utility.yul\":197:198   */\n      0x00\n        /* \"#utility.yul\":194:195   */\n      dup1\n        /* \"#utility.yul\":187:199   */\n      revert\n        /* \"#utility.yul\":211:328   */\n    tag_227:\n        /* \"#utility.yul\":320:321   */\n      0x00\n        /* \"#utility.yul\":317:318   */\n      dup1\n        /* \"#utility.yul\":310:322   */\n      revert\n        /* \"#utility.yul\":334:451   */\n    tag_228:\n        /* \"#utility.yul\":443:444   */\n      0x00\n        /* \"#utility.yul\":440:441   */\n      dup1\n        /* \"#utility.yul\":433:445   */\n      revert\n        /* \"#utility.yul\":457:574   */\n    tag_229:\n        /* \"#utility.yul\":566:567   */\n      0x00\n        /* \"#utility.yul\":563:564   */\n      dup1\n        /* \"#utility.yul\":556:568   */\n      revert\n        /* \"#utility.yul\":580:682   */\n    tag_230:\n        /* \"#utility.yul\":621:627   */\n      0x00\n        /* \"#utility.yul\":672:674   */\n      0x1f\n        /* \"#utility.yul\":668:675   */\n      not\n        /* \"#utility.yul\":663:665   */\n      0x1f\n        /* \"#utility.yul\":656:661   */\n      dup4\n        /* \"#utility.yul\":652:666   */\n      add\n        /* \"#utility.yul\":648:676   */\n      and\n        /* \"#utility.yul\":638:676   */\n      swap1\n      pop\n        /* \"#utility.yul\":580:682   */\n      swap2\n      swap1\n      pop\n      jump\t// out\n        /* \"#utility.yul\":688:868   */\n    tag_151:\n        /* \"#utility.yul\":736:813   */\n      0x4e487b7100000000000000000000000000000000000000000000000000000000\n        /* \"#utility.yul\":733:734   */\n      0x00\n        /* \"#utility.yul\":726:814   */\n      mstore\n        /* \"#utility.yul\":833:837   */\n      0x41\n        /* \"#utility.yul\":830:831   */\n      0x04\n        /* \"#utility.yul\":823:838   */\n      mstore\n        /* \"#utility.yul\":857:861   */\n      0x24\n        /* \"#utility.yul\":854:855   */\n      0x00\n        /* \"#utility.yul\":847:862   */\n      revert\n        /* \"#utility.yul\":874:1155   */\n    tag_231:\n        /* \"#utility.yul\":957:984   */\n      tag_307\n        /* \"#utility.yul\":979:983   */\n      dup3\n        /* \"#utility.yul\":957:984   */\n      tag_230\n      jump\t// in\n    tag_307:\n        /* \"#utility.yul\":949:955   */\n      dup2\n        /* \"#utility.yul\":945:985   */\n      add\n        /* \"#utility.yul\":1087:1093   */\n      dup2\n        /* \"#utility.yul\":1075:1085   */\n      dup2\n        /* \"#utility.yul\":1072:1094   */\n      lt\n        /* \"#utility.yul\":1051:1069   */\n      0xffffffffffffffff\n        /* \"#utility.yul\":1039:1049   */\n      dup3\n        /* \"#utility.yul\":1036:1070   */\n      gt\n        /* \"#utility.yul\":1033:1095   */\n      or\n        /* \"#utility.yul\":1030:1118   */\n      iszero\n      tag_308\n      jumpi\n        /* \"#utility.yul\":1098:1116   */\n      tag_309\n      tag_151\n      jump\t// in\n    tag_309:\n        /* \"#utility.yul\":1030:1118   */\n    tag_308:\n        /* \"#utility.yul\":1138:1148   */\n      dup1\n        /* \"#utility.yul\":1134:1136   */\n      0x40\n        /* \"#utility.yul\":1127:1149   */\n      mstore\n        /* \"#utility.yul\":917:1155   */\n      pop\n        /* \"#utility.yul\":874:1155   */\n      pop\n      pop\n      jump\t// out\n        /* \"#utility.yul\":1161:1290   */\n    tag_232:\n        /* \"#utility.yul\":1195:1201   */\n      0x00\n        /* \"#utility.yul\":1222:1242   */\n      tag_311\n      tag_225\n      jump\t// in\n    tag_311:\n        /* \"#utility.yul\":1212:1242   */\n      swap1\n      pop\n        /* \"#utility.yul\":1251:1284   */\n      tag_312\n        /* \"#utility.yul\":1279:1283   */\n      dup3\n        /* \"#utility.yul\":1271:1277   */\n      dup3\n        /* \"#utility.yul\":1251:1284   */\n      tag_231\n      jump\t// in\n    tag_312:\n        /* \"#utility.yul\":1161:1290   */\n      swap2\n      swap1\n      pop\n      jump\t// out\n        /* \"#utility.yul\":1296:1604   */\n    tag_233:\n        /* \"#utility.yul\":1358:1362   */\n      0x00\n        /* \"#utility.yul\":1448:1466   */\n      0xffffffffffffffff\n        /* \"#utility.yul\":1440:1446   */\n      dup3\n        /* \"#utility.yul\":1437:1467   */\n      gt\n        /* \"#utility.yul\":1434:1490   */\n      iszero\n      tag_314\n      jumpi\n        /* \"#utility.yul\":1470:1488   */\n      tag_315\n      tag_151\n      jump\t// in\n    tag_315:\n        /* \"#utility.yul\":1434:1490   */\n    tag_314:\n        /* \"#utility.yul\":1508:1537   */\n      tag_316\n        /* \"#utility.yul\":1530:1536   */\n      dup3\n        /* \"#utility.yul\":1508:1537   */\n      tag_230\n      jump\t// in\n    tag_316:\n        /* \"#utility.yul\":1500:1537   */\n      swap1\n      pop\n        /* \"#utility.yul\":1592:1596   */\n      0x20\n        /* \"#utility.yul\":1586:1590   */\n      dup2\n        /* \"#utility.yul\":1582:1597   */\n      add\n        /* \"#utility.yul\":1574:1597   */\n      swap1\n      pop\n        /* \"#utility.yul\":1296:1604   */\n      swap2\n      swap1\n      pop\n      jump\t// out\n        /* \"#utility.yul\":1610:1758   */\n    tag_234:\n        /* \"#utility.yul\":1708:1714   */\n      dup3\n        /* \"#utility.yul\":1703:1706   */\n      dup2\n        /* \"#utility.yul\":1698:1701   */\n      dup4\n        /* \"#utility.yul\":1685:1715   */\n      calldatacopy\n        /* \"#utility.yul\":1749:1750   */\n      0x00\n        /* \"#utility.yul\":1740:1746   */\n      dup4\n        /* \"#utility.yul\":1735:1738   */\n      dup4\n        /* \"#utility.yul\":1731:1747   */\n      add\n        /* \"#utility.yul\":1724:1751   */\n      mstore\n        /* \"#utility.yul\":1610:1758   */\n      pop\n      pop\n      pop\n      jump\t// out\n        /* \"#utility.yul\":1764:2189   */\n    tag_235:\n        /* \"#utility.yul\":1842:1847   */\n      0x00\n        /* \"#utility.yul\":1867:1933   */\n      tag_319\n        /* \"#utility.yul\":1883:1932   */\n      tag_320\n        /* \"#utility.yul\":1925:1931   */\n      dup5\n        /* \"#utility.yul\":1883:1932   */\n      tag_233\n      jump\t// in\n    tag_320:\n        /* \"#utility.yul\":1867:1933   */\n      tag_232\n      jump\t// in\n    tag_319:\n        /* \"#utility.yul\":1858:1933   */\n      swap1\n      pop\n        /* \"#utility.yul\":1956:1962   */\n      dup3\n        /* \"#utility.yul\":1949:1954   */\n      dup2\n        /* \"#utility.yul\":1942:1963   */\n      mstore\n        /* \"#utility.yul\":1994:1998   */\n      0x20\n        /* \"#utility.yul\":1987:1992   */\n      dup2\n        /* \"#utility.yul\":1983:1999   */\n      add\n        /* \"#utility.yul\":2032:2035   */\n      dup5\n        /* \"#utility.yul\":2023:2029   */\n      dup5\n        /* \"#utility.yul\":2018:2021   */\n      dup5\n        /* \"#utility.yul\":2014:2030   */\n      add\n        /* \"#utility.yul\":2011:2036   */\n      gt\n        /* \"#utility.yul\":2008:2120   */\n      iszero\n      tag_321\n      jumpi\n        /* \"#utility.yul\":2039:2118   */\n      tag_322\n      tag_229\n      jump\t// in\n    tag_322:\n        /* \"#utility.yul\":2008:2120   */\n    tag_321:\n        /* \"#utility.yul\":2129:2183   */\n      tag_323\n        /* \"#utility.yul\":2176:2182   */\n      dup5\n        /* \"#utility.yul\":2171:2174   */\n      dup3\n        /* \"#utility.yul\":2166:2169   */\n      dup6\n        /* \"#utility.yul\":2129:2183   */\n      tag_234\n      jump\t// in\n    tag_323:\n        /* \"#utility.yul\":1848:2189   */\n      pop\n        /* \"#utility.yul\":1764:2189   */\n      swap4\n      swap3\n      pop\n      pop\n      pop\n      jump\t// out\n        /* \"#utility.yul\":2209:2549   */\n    tag_236:\n        /* \"#utility.yul\":2265:2270   */\n      0x00\n        /* \"#utility.yul\":2314:2317   */\n      dup3\n        /* \"#utility.yul\":2307:2311   */\n      0x1f\n        /* \"#utility.yul\":2299:2305   */\n      dup4\n        /* \"#utility.yul\":2295:2312   */\n      add\n        /* \"#utility.yul\":2291:2318   */\n      slt\n        /* \"#utility.yul\":2281:2403   */\n      tag_325\n      jumpi\n        /* \"#utility.yul\":2322:2401   */\n      tag_326\n      tag_228\n      jump\t// in\n    tag_326:\n        /* \"#utility.yul\":2281:2403   */\n    tag_325:\n        /* \"#utility.yul\":2439:2445   */\n      dup2\n        /* \"#utility.yul\":2426:2446   */\n      calldataload\n        /* \"#utility.yul\":2464:2543   */\n      tag_327\n        /* \"#utility.yul\":2539:2542   */\n      dup5\n        /* \"#utility.yul\":2531:2537   */\n      dup3\n        /* \"#utility.yul\":2524:2528   */\n      0x20\n        /* \"#utility.yul\":2516:2522   */\n      dup7\n        /* \"#utility.yul\":2512:2529   */\n      add\n        /* \"#utility.yul\":2464:2543   */\n      tag_235\n      jump\t// in\n    tag_327:\n        /* \"#utility.yul\":2455:2543   */\n      swap2\n      pop\n        /* \"#utility.yul\":2271:2549   */\n      pop\n        /* \"#utility.yul\":2209:2549   */\n      swap3\n      swap2\n      pop\n      pop\n      jump\t// out\n        /* \"#utility.yul\":2555:3064   */\n    tag_10:\n        /* \"#utility.yul\":2624:2630   */\n      0x00\n        /* \"#utility.yul\":2673:2675   */\n      0x20\n        /* \"#utility.yul\":2661:2670   */\n      dup3\n        /* \"#utility.yul\":2652:2659   */\n      dup5\n        /* \"#utility.yul\":2648:2671   */\n      sub\n        /* \"#utility.yul\":2644:2676   */\n      slt\n        /* \"#utility.yul\":2641:2760   */\n      iszero\n      tag_329\n      jumpi\n        /* \"#utility.yul\":2679:2758   */\n      tag_330\n      tag_226\n      jump\t// in\n    tag_330:\n        /* \"#utility.yul\":2641:2760   */\n    tag_329:\n        /* \"#utility.yul\":2827:2828   */\n      0x00\n        /* \"#utility.yul\":2816:2825   */\n      dup3\n        /* \"#utility.yul\":2812:2829   */\n      add\n        /* \"#utility.yul\":2799:2830   */\n      calldataload\n        /* \"#utility.yul\":2857:2875   */\n      0xffffffffffffffff\n        /* \"#utility.yul\":2849:2855   */\n      dup2\n        /* \"#utility.yul\":2846:2876   */\n      gt\n        /* \"#utility.yul\":2843:2960   */\n      iszero\n      tag_331\n      jumpi\n        /* \"#utility.yul\":2879:2958   */\n      tag_332\n      tag_227\n      jump\t// in\n    tag_332:\n        /* \"#utility.yul\":2843:2960   */\n    tag_331:\n        /* \"#utility.yul\":2984:3047   */\n      tag_333\n        /* \"#utility.yul\":3039:3046   */\n      dup5\n        /* \"#utility.yul\":3030:3036   */\n      dup3\n        /* \"#utility.yul\":3019:3028   */\n      dup6\n        /* \"#utility.yul\":3015:3037   */\n      add\n        /* \"#utility.yul\":2984:3047   */\n      tag_236\n      jump\t// in\n    tag_333:\n        /* \"#utility.yul\":2974:3047   */\n      swap2\n      pop\n        /* \"#utility.yul\":2770:3057   */\n      pop\n        /* \"#utility.yul\":2555:3064   */\n      swap3\n      swap2\n      pop\n      pop\n      jump\t// out\n        /* \"#utility.yul\":3070:3184   */\n    tag_237:\n        /* \"#utility.yul\":3137:3143   */\n      0x00\n        /* \"#utility.yul\":3171:3176   */\n      dup2\n        /* \"#utility.yul\":3165:3177   */\n      mload\n        /* \"#utility.yul\":3155:3177   */\n      swap1\n      pop\n        /* \"#utility.yul\":3070:3184   */\n      swap2\n      swap1\n      pop\n      jump\t// out\n        /* \"#utility.yul\":3190:3374   */\n    tag_238:\n        /* \"#utility.yul\":3289:3300   */\n      0x00\n        /* \"#utility.yul\":3323:3329   */\n      dup3\n        /* \"#utility.yul\":3318:3321   */\n      dup3\n        /* \"#utility.yul\":3311:3330   */\n      mstore\n        /* \"#utility.yul\":3363:3367   */\n      0x20\n        /* \"#utility.yul\":3358:3361   */\n      dup3\n        /* \"#utility.yul\":3354:3368   */\n      add\n        /* \"#utility.yul\":3339:3368   */\n      swap1\n      pop\n        /* \"#utility.yul\":3190:3374   */\n      swap3\n      swap2\n      pop\n      pop\n      jump\t// out\n        /* \"#utility.yul\":3380:3512   */\n    tag_239:\n        /* \"#utility.yul\":3447:3451   */\n      0x00\n        /* \"#utility.yul\":3470:3473   */\n      dup2\n        /* \"#utility.yul\":3462:3473   */\n      swap1\n      pop\n        /* \"#utility.yul\":3500:3504   */\n      0x20\n        /* \"#utility.yul\":3495:3498   */\n      dup3\n        /* \"#utility.yul\":3491:3505   */\n      add\n        /* \"#utility.yul\":3483:3505   */\n      swap1\n      pop\n        /* \"#utility.yul\":3380:3512   */\n      swap2\n      swap1\n      pop\n      jump\t// out\n        /* \"#utility.yul\":3518:3644   */\n    tag_240:\n        /* \"#utility.yul\":3555:3562   */\n      0x00\n        /* \"#utility.yul\":3595:3637   */\n      0xffffffffffffffffffffffffffffffffffffffff\n        /* \"#utility.yul\":3588:3593   */\n      dup3\n        /* \"#utility.yul\":3584:3638   */\n      and\n        /* \"#utility.yul\":3573:3638   */\n      swap1\n      pop\n        /* \"#utility.yul\":3518:3644   */\n      swap2\n      swap1\n      pop\n      jump\t// out\n        /* \"#utility.yul\":3650:3746   */\n    tag_241:\n        /* \"#utility.yul\":3687:3694   */\n      0x00\n        /* \"#utility.yul\":3716:3740   */\n      tag_339\n        /* \"#utility.yul\":3734:3739   */\n      dup3\n        /* \"#utility.yul\":3716:3740   */\n      tag_240\n      jump\t// in\n    tag_339:\n        /* \"#utility.yul\":3705:3740   */\n      swap1\n      pop\n        /* \"#utility.yul\":3650:3746   */\n      swap2\n      swap1\n      pop\n      jump\t// out\n        /* \"#utility.yul\":3752:3860   */\n    tag_242:\n        /* \"#utility.yul\":3829:3853   */\n      tag_341\n        /* \"#utility.yul\":3847:3852   */\n      dup2\n        /* \"#utility.yul\":3829:3853   */\n      tag_241\n      jump\t// in\n    tag_341:\n        /* \"#utility.yul\":3824:3827   */\n      dup3\n        /* \"#utility.yul\":3817:3854   */\n      mstore\n        /* \"#utility.yul\":3752:3860   */\n      pop\n      pop\n      jump\t// out\n        /* \"#utility.yul\":3866:4045   */\n    tag_243:\n        /* \"#utility.yul\":3935:3945   */\n      0x00\n        /* \"#utility.yul\":3956:4002   */\n      tag_343\n        /* \"#utility.yul\":3998:4001   */\n      dup4\n        /* \"#utility.yul\":3990:3996   */\n      dup4\n        /* \"#utility.yul\":3956:4002   */\n      tag_242\n      jump\t// in\n    tag_343:\n        /* \"#utility.yul\":4034:4038   */\n      0x20\n        /* \"#utility.yul\":4029:4032   */\n      dup4\n        /* \"#utility.yul\":4025:4039   */\n      add\n        /* \"#utility.yul\":4011:4039   */\n      swap1\n      pop\n        /* \"#utility.yul\":3866:4045   */\n      swap3\n      swap2\n      pop\n      pop\n      jump\t// out\n        /* \"#utility.yul\":4051:4164   */\n    tag_244:\n        /* \"#utility.yul\":4121:4125   */\n      0x00\n        /* \"#utility.yul\":4153:4157   */\n      0x20\n        /* \"#utility.yul\":4148:4151   */\n      dup3\n        /* \"#utility.yul\":4144:4158   */\n      add\n        /* \"#utility.yul\":4136:4158   */\n      swap1\n      pop\n        /* \"#utility.yul\":4051:4164   */\n      swap2\n      swap1\n      pop\n      jump\t// out\n        /* \"#utility.yul\":4200:4932   */\n    tag_245:\n        /* \"#utility.yul\":4319:4322   */\n      0x00\n        /* \"#utility.yul\":4348:4402   */\n      tag_346\n        /* \"#utility.yul\":4396:4401   */\n      dup3\n        /* \"#utility.yul\":4348:4402   */\n      tag_237\n      jump\t// in\n    tag_346:\n        /* \"#utility.yul\":4418:4504   */\n      tag_347\n        /* \"#utility.yul\":4497:4503   */\n      dup2\n        /* \"#utility.yul\":4492:4495   */\n      dup6\n        /* \"#utility.yul\":4418:4504   */\n      tag_238\n      jump\t// in\n    tag_347:\n        /* \"#utility.yul\":4411:4504   */\n      swap4\n      pop\n        /* \"#utility.yul\":4528:4584   */\n      tag_348\n        /* \"#utility.yul\":4578:4583   */\n      dup4\n        /* \"#utility.yul\":4528:4584   */\n      tag_239\n      jump\t// in\n    tag_348:\n        /* \"#utility.yul\":4607:4614   */\n      dup1\n        /* \"#utility.yul\":4638:4639   */\n      0x00\n        /* \"#utility.yul\":4623:4907   */\n    tag_349:\n        /* \"#utility.yul\":4648:4654   */\n      dup4\n        /* \"#utility.yul\":4645:4646   */\n      dup2\n        /* \"#utility.yul\":4642:4655   */\n      lt\n        /* \"#utility.yul\":4623:4907   */\n      iszero\n      tag_351\n      jumpi\n        /* \"#utility.yul\":4724:4730   */\n      dup2\n        /* \"#utility.yul\":4718:4731   */\n      mload\n        /* \"#utility.yul\":4751:4814   */\n      tag_352\n        /* \"#utility.yul\":4810:4813   */\n      dup9\n        /* \"#utility.yul\":4795:4808   */\n      dup3\n        /* \"#utility.yul\":4751:4814   */\n      tag_243\n      jump\t// in\n    tag_352:\n        /* \"#utility.yul\":4744:4814   */\n      swap8\n      pop\n        /* \"#utility.yul\":4837:4897   */\n      tag_353\n        /* \"#utility.yul\":4890:4896   */\n      dup4\n        /* \"#utility.yul\":4837:4897   */\n      tag_244\n      jump\t// in\n    tag_353:\n        /* \"#utility.yul\":4827:4897   */\n      swap3\n      pop\n        /* \"#utility.yul\":4683:4907   */\n      pop\n        /* \"#utility.yul\":4670:4671   */\n      0x01\n        /* \"#utility.yul\":4667:4668   */\n      dup2\n        /* \"#utility.yul\":4663:4672   */\n      add\n        /* \"#utility.yul\":4658:4672   */\n      swap1\n      pop\n        /* \"#utility.yul\":4623:4907   */\n      jump(tag_349)\n    tag_351:\n        /* \"#utility.yul\":4627:4641   */\n      pop\n        /* \"#utility.yul\":4923:4926   */\n      dup6\n        /* \"#utility.yul\":4916:4926   */\n      swap4\n      pop\n        /* \"#utility.yul\":4324:4932   */\n      pop\n      pop\n      pop\n        /* \"#utility.yul\":4200:4932   */\n      swap3\n      swap2\n      pop\n      pop\n      jump\t// out\n        /* \"#utility.yul\":4938:5311   */\n    tag_13:\n        /* \"#utility.yul\":5081:5085   */\n      0x00\n        /* \"#utility.yul\":5119:5121   */\n      0x20\n        /* \"#utility.yul\":5108:5117   */\n      dup3\n        /* \"#utility.yul\":5104:5122   */\n      add\n        /* \"#utility.yul\":5096:5122   */\n      swap1\n      pop\n        /* \"#utility.yul\":5168:5177   */\n      dup2\n        /* \"#utility.yul\":5162:5166   */\n      dup2\n        /* \"#utility.yul\":5158:5178   */\n      sub\n        /* \"#utility.yul\":5154:5155   */\n      0x00\n        /* \"#utility.yul\":5143:5152   */\n      dup4\n        /* \"#utility.yul\":5139:5156   */\n      add\n        /* \"#utility.yul\":5132:5179   */\n      mstore\n        /* \"#utility.yul\":5196:5304   */\n      tag_355\n        /* \"#utility.yul\":5299:5303   */\n      dup2\n        /* \"#utility.yul\":5290:5296   */\n      dup5\n        /* \"#utility.yul\":5196:5304   */\n      tag_245\n      jump\t// in\n    tag_355:\n        /* \"#utility.yul\":5188:5304   */\n      swap1\n      pop\n        /* \"#utility.yul\":4938:5311   */\n      swap3\n      swap2\n      pop\n      pop\n      jump\t// out\n        /* \"#utility.yul\":5317:6802   */\n    tag_16:\n        /* \"#utility.yul\":5443:5449   */\n      0x00\n        /* \"#utility.yul\":5451:5457   */\n      dup1\n        /* \"#utility.yul\":5459:5465   */\n      0x00\n        /* \"#utility.yul\":5467:5473   */\n      dup1\n        /* \"#utility.yul\":5516:5519   */\n      0x80\n        /* \"#utility.yul\":5504:5513   */\n      dup6\n        /* \"#utility.yul\":5495:5502   */\n      dup8\n        /* \"#utility.yul\":5491:5514   */\n      sub\n        /* \"#utility.yul\":5487:5520   */\n      slt\n        /* \"#utility.yul\":5484:5604   */\n      iszero\n      tag_357\n      jumpi\n        /* \"#utility.yul\":5523:5602   */\n      tag_358\n      tag_226\n      jump\t// in\n    tag_358:\n        /* \"#utility.yul\":5484:5604   */\n    tag_357:\n        /* \"#utility.yul\":5671:5672   */\n      0x00\n        /* \"#utility.yul\":5660:5669   */\n      dup6\n        /* \"#utility.yul\":5656:5673   */\n      add\n        /* \"#utility.yul\":5643:5674   */\n      calldataload\n        /* \"#utility.yul\":5701:5719   */\n      0xffffffffffffffff\n        /* \"#utility.yul\":5693:5699   */\n      dup2\n        /* \"#utility.yul\":5690:5720   */\n      gt\n        /* \"#utility.yul\":5687:5804   */\n      iszero\n      tag_359\n      jumpi\n        /* \"#utility.yul\":5723:5802   */\n      tag_360\n      tag_227\n      jump\t// in\n    tag_360:\n        /* \"#utility.yul\":5687:5804   */\n    tag_359:\n        /* \"#utility.yul\":5828:5891   */\n      tag_361\n        /* \"#utility.yul\":5883:5890   */\n      dup8\n        /* \"#utility.yul\":5874:5880   */\n      dup3\n        /* \"#utility.yul\":5863:5872   */\n      dup9\n        /* \"#utility.yul\":5859:5881   */\n      add\n        /* \"#utility.yul\":5828:5891   */\n      tag_236\n      jump\t// in\n    tag_361:\n        /* \"#utility.yul\":5818:5891   */\n      swap5\n      pop\n        /* \"#utility.yul\":5614:5901   */\n      pop\n        /* \"#utility.yul\":5968:5970   */\n      0x20\n        /* \"#utility.yul\":5957:5966   */\n      dup6\n        /* \"#utility.yul\":5953:5971   */\n      add\n        /* \"#utility.yul\":5940:5972   */\n      calldataload\n        /* \"#utility.yul\":5999:6017   */\n      0xffffffffffffffff\n        /* \"#utility.yul\":5991:5997   */\n      dup2\n        /* \"#utility.yul\":5988:6018   */\n      gt\n        /* \"#utility.yul\":5985:6102   */\n      iszero\n      tag_362\n      jumpi\n        /* \"#utility.yul\":6021:6100   */\n      tag_363\n      tag_227\n      jump\t// in\n    tag_363:\n        /* \"#utility.yul\":5985:6102   */\n    tag_362:\n        /* \"#utility.yul\":6126:6189   */\n      tag_364\n        /* \"#utility.yul\":6181:6188   */\n      dup8\n        /* \"#utility.yul\":6172:6178   */\n      dup3\n        /* \"#utility.yul\":6161:6170   */\n      dup9\n        /* \"#utility.yul\":6157:6179   */\n      add\n        /* \"#utility.yul\":6126:6189   */\n      tag_236\n      jump\t// in\n    tag_364:\n        /* \"#utility.yul\":6116:6189   */\n      swap4\n      pop\n        /* \"#utility.yul\":5911:6199   */\n      pop\n        /* \"#utility.yul\":6266:6268   */\n      0x40\n        /* \"#utility.yul\":6255:6264   */\n      dup6\n        /* \"#utility.yul\":6251:6269   */\n      add\n        /* \"#utility.yul\":6238:6270   */\n      calldataload\n        /* \"#utility.yul\":6297:6315   */\n      0xffffffffffffffff\n        /* \"#utility.yul\":6289:6295   */\n      dup2\n        /* \"#utility.yul\":6286:6316   */\n      gt\n        /* \"#utility.yul\":6283:6400   */\n      iszero\n      tag_365\n      jumpi\n        /* \"#utility.yul\":6319:6398   */\n      tag_366\n      tag_227\n      jump\t// in\n    tag_366:\n        /* \"#utility.yul\":6283:6400   */\n    tag_365:\n        /* \"#utility.yul\":6424:6487   */\n      tag_367\n        /* \"#utility.yul\":6479:6486   */\n      dup8\n        /* \"#utility.yul\":6470:6476   */\n      dup3\n        /* \"#utility.yul\":6459:6468   */\n      dup9\n        /* \"#utility.yul\":6455:6477   */\n      add\n        /* \"#utility.yul\":6424:6487   */\n      tag_236\n      jump\t// in\n    tag_367:\n        /* \"#utility.yul\":6414:6487   */\n      swap3\n      pop\n        /* \"#utility.yul\":6209:6497   */\n      pop\n        /* \"#utility.yul\":6564:6566   */\n      0x60\n        /* \"#utility.yul\":6553:6562   */\n      dup6\n        /* \"#utility.yul\":6549:6567   */\n      add\n        /* \"#utility.yul\":6536:6568   */\n      calldataload\n        /* \"#utility.yul\":6595:6613   */\n      0xffffffffffffffff\n        /* \"#utility.yul\":6587:6593   */\n      dup2\n        /* \"#utility.yul\":6584:6614   */\n      gt\n        /* \"#utility.yul\":6581:6698   */\n      iszero\n      tag_368\n      jumpi\n        /* \"#utility.yul\":6617:6696   */\n      tag_369\n      tag_227\n      jump\t// in\n    tag_369:\n        /* \"#utility.yul\":6581:6698   */\n    tag_368:\n        /* \"#utility.yul\":6722:6785   */\n      tag_370\n        /* \"#utility.yul\":6777:6784   */\n      dup8\n        /* \"#utility.yul\":6768:6774   */\n      dup3\n        /* \"#utility.yul\":6757:6766   */\n      dup9\n        /* \"#utility.yul\":6753:6775   */\n      add\n        /* \"#utility.yul\":6722:6785   */\n      tag_236\n      jump\t// in\n    tag_370:\n        /* \"#utility.yul\":6712:6785   */\n      swap2\n      pop\n        /* \"#utility.yul\":6507:6795   */\n      pop\n        /* \"#utility.yul\":5317:6802   */\n      swap3\n      swap6\n      swap2\n      swap5\n      pop\n      swap3\n      pop\n      jump\t// out\n        /* \"#utility.yul\":6808:6930   */\n    tag_246:\n        /* \"#utility.yul\":6881:6905   */\n      tag_372\n        /* \"#utility.yul\":6899:6904   */\n      dup2\n        /* \"#utility.yul\":6881:6905   */\n      tag_241\n      jump\t// in\n    tag_372:\n        /* \"#utility.yul\":6874:6879   */\n      dup2\n        /* \"#utility.yul\":6871:6906   */\n      eq\n        /* \"#utility.yul\":6861:6924   */\n      tag_373\n      jumpi\n        /* \"#utility.yul\":6920:6921   */\n      0x00\n        /* \"#utility.yul\":6917:6918   */\n      dup1\n        /* \"#utility.yul\":6910:6922   */\n      revert\n        /* \"#utility.yul\":6861:6924   */\n    tag_373:\n        /* \"#utility.yul\":6808:6930   */\n      pop\n      jump\t// out\n        /* \"#utility.yul\":6936:7075   */\n    tag_247:\n        /* \"#utility.yul\":6982:6987   */\n      0x00\n        /* \"#utility.yul\":7020:7026   */\n      dup2\n        /* \"#utility.yul\":7007:7027   */\n      calldataload\n        /* \"#utility.yul\":6998:7027   */\n      swap1\n      pop\n        /* \"#utility.yul\":7036:7069   */\n      tag_375\n        /* \"#utility.yul\":7063:7068   */\n      dup2\n        /* \"#utility.yul\":7036:7069   */\n      tag_246\n      jump\t// in\n    tag_375:\n        /* \"#utility.yul\":6936:7075   */\n      swap3\n      swap2\n      pop\n      pop\n      jump\t// out\n        /* \"#utility.yul\":7081:7410   */\n    tag_20:\n        /* \"#utility.yul\":7140:7146   */\n      0x00\n        /* \"#utility.yul\":7189:7191   */\n      0x20\n        /* \"#utility.yul\":7177:7186   */\n      dup3\n        /* \"#utility.yul\":7168:7175   */\n      dup5\n        /* \"#utility.yul\":7164:7187   */\n      sub\n        /* \"#utility.yul\":7160:7192   */\n      slt\n        /* \"#utility.yul\":7157:7276   */\n      iszero\n      tag_377\n      jumpi\n        /* \"#utility.yul\":7195:7274   */\n      tag_378\n      tag_226\n      jump\t// in\n    tag_378:\n        /* \"#utility.yul\":7157:7276   */\n    tag_377:\n        /* \"#utility.yul\":7315:7316   */\n      0x00\n        /* \"#utility.yul\":7340:7393   */\n      tag_379\n        /* \"#utility.yul\":7385:7392   */\n      dup5\n        /* \"#utility.yul\":7376:7382   */\n      dup3\n        /* \"#utility.yul\":7365:7374   */\n      dup6\n        /* \"#utility.yul\":7361:7383   */\n      add\n        /* \"#utility.yul\":7340:7393   */\n      tag_247\n      jump\t// in\n    tag_379:\n        /* \"#utility.yul\":7330:7393   */\n      swap2\n      pop\n        /* \"#utility.yul\":7286:7403   */\n      pop\n        /* \"#utility.yul\":7081:7410   */\n      swap3\n      swap2\n      pop\n      pop\n      jump\t// out\n        /* \"#utility.yul\":7416:7515   */\n    tag_248:\n        /* \"#utility.yul\":7468:7474   */\n      0x00\n        /* \"#utility.yul\":7502:7507   */\n      dup2\n        /* \"#utility.yul\":7496:7508   */\n      mload\n        /* \"#utility.yul\":7486:7508   */\n      swap1\n      pop\n        /* \"#utility.yul\":7416:7515   */\n      swap2\n      swap1\n      pop\n      jump\t// out\n        /* \"#utility.yul\":7521:7690   */\n    tag_249:\n        /* \"#utility.yul\":7605:7616   */\n      0x00\n        /* \"#utility.yul\":7639:7645   */\n      dup3\n        /* \"#utility.yul\":7634:7637   */\n      dup3\n        /* \"#utility.yul\":7627:7646   */\n      mstore\n        /* \"#utility.yul\":7679:7683   */\n      0x20\n        /* \"#utility.yul\":7674:7677   */\n      dup3\n        /* \"#utility.yul\":7670:7684   */\n      add\n        /* \"#utility.yul\":7655:7684   */\n      swap1\n      pop\n        /* \"#utility.yul\":7521:7690   */\n      swap3\n      swap2\n      pop\n      pop\n      jump\t// out\n        /* \"#utility.yul\":7696:7835   */\n    tag_250:\n        /* \"#utility.yul\":7785:7791   */\n      dup3\n        /* \"#utility.yul\":7780:7783   */\n      dup2\n        /* \"#utility.yul\":7775:7778   */\n      dup4\n        /* \"#utility.yul\":7769:7792   */\n      mcopy\n        /* \"#utility.yul\":7826:7827   */\n      0x00\n        /* \"#utility.yul\":7817:7823   */\n      dup4\n        /* \"#utility.yul\":7812:7815   */\n      dup4\n        /* \"#utility.yul\":7808:7824   */\n      add\n        /* \"#utility.yul\":7801:7828   */\n      mstore\n        /* \"#utility.yul\":7696:7835   */\n      pop\n      pop\n      pop\n      jump\t// out\n        /* \"#utility.yul\":7841:8218   */\n    tag_251:\n        /* \"#utility.yul\":7929:7932   */\n      0x00\n        /* \"#utility.yul\":7957:7996   */\n      tag_384\n        /* \"#utility.yul\":7990:7995   */\n      dup3\n        /* \"#utility.yul\":7957:7996   */\n      tag_248\n      jump\t// in\n    tag_384:\n        /* \"#utility.yul\":8012:8083   */\n      tag_385\n        /* \"#utility.yul\":8076:8082   */\n      dup2\n        /* \"#utility.yul\":8071:8074   */\n      dup6\n        /* \"#utility.yul\":8012:8083   */\n      tag_249\n      jump\t// in\n    tag_385:\n        /* \"#utility.yul\":8005:8083   */\n      swap4\n      pop\n        /* \"#utility.yul\":8092:8157   */\n      tag_386\n        /* \"#utility.yul\":8150:8156   */\n      dup2\n        /* \"#utility.yul\":8145:8148   */\n      dup6\n        /* \"#utility.yul\":8138:8142   */\n      0x20\n        /* \"#utility.yul\":8131:8136   */\n      dup7\n        /* \"#utility.yul\":8127:8143   */\n      add\n        /* \"#utility.yul\":8092:8157   */\n      tag_250\n      jump\t// in\n    tag_386:\n        /* \"#utility.yul\":8182:8211   */\n      tag_387\n        /* \"#utility.yul\":8204:8210   */\n      dup2\n        /* \"#utility.yul\":8182:8211   */\n      tag_230\n      jump\t// in\n    tag_387:\n        /* \"#utility.yul\":8177:8180   */\n      dup5\n        /* \"#utility.yul\":8173:8212   */\n      add\n        /* \"#utility.yul\":8166:8212   */\n      swap2\n      pop\n        /* \"#utility.yul\":7933:8218   */\n      pop\n        /* \"#utility.yul\":7841:8218   */\n      swap3\n      swap2\n      pop\n      pop\n      jump\t// out\n        /* \"#utility.yul\":8224:8314   */\n    tag_252:\n        /* \"#utility.yul\":8258:8265   */\n      0x00\n        /* \"#utility.yul\":8301:8306   */\n      dup2\n        /* \"#utility.yul\":8294:8307   */\n      iszero\n        /* \"#utility.yul\":8287:8308   */\n      iszero\n        /* \"#utility.yul\":8276:8308   */\n      swap1\n      pop\n        /* \"#utility.yul\":8224:8314   */\n      swap2\n      swap1\n      pop\n      jump\t// out\n        /* \"#utility.yul\":8320:8429   */\n    tag_253:\n        /* \"#utility.yul\":8401:8422   */\n      tag_390\n        /* \"#utility.yul\":8416:8421   */\n      dup2\n        /* \"#utility.yul\":8401:8422   */\n      tag_252\n      jump\t// in\n    tag_390:\n        /* \"#utility.yul\":8396:8399   */\n      dup3\n        /* \"#utility.yul\":8389:8423   */\n      mstore\n        /* \"#utility.yul\":8320:8429   */\n      pop\n      pop\n      jump\t// out\n        /* \"#utility.yul\":8435:9451   */\n    tag_23:\n        /* \"#utility.yul\":8714:8718   */\n      0x00\n        /* \"#utility.yul\":8752:8755   */\n      0xa0\n        /* \"#utility.yul\":8741:8750   */\n      dup3\n        /* \"#utility.yul\":8737:8756   */\n      add\n        /* \"#utility.yul\":8729:8756   */\n      swap1\n      pop\n        /* \"#utility.yul\":8802:8811   */\n      dup2\n        /* \"#utility.yul\":8796:8800   */\n      dup2\n        /* \"#utility.yul\":8792:8812   */\n      sub\n        /* \"#utility.yul\":8788:8789   */\n      0x00\n        /* \"#utility.yul\":8777:8786   */\n      dup4\n        /* \"#utility.yul\":8773:8790   */\n      add\n        /* \"#utility.yul\":8766:8813   */\n      mstore\n        /* \"#utility.yul\":8830:8908   */\n      tag_392\n        /* \"#utility.yul\":8903:8907   */\n      dup2\n        /* \"#utility.yul\":8894:8900   */\n      dup9\n        /* \"#utility.yul\":8830:8908   */\n      tag_251\n      jump\t// in\n    tag_392:\n        /* \"#utility.yul\":8822:8908   */\n      swap1\n      pop\n        /* \"#utility.yul\":8955:8964   */\n      dup2\n        /* \"#utility.yul\":8949:8953   */\n      dup2\n        /* \"#utility.yul\":8945:8965   */\n      sub\n        /* \"#utility.yul\":8940:8942   */\n      0x20\n        /* \"#utility.yul\":8929:8938   */\n      dup4\n        /* \"#utility.yul\":8925:8943   */\n      add\n        /* \"#utility.yul\":8918:8966   */\n      mstore\n        /* \"#utility.yul\":8983:9061   */\n      tag_393\n        /* \"#utility.yul\":9056:9060   */\n      dup2\n        /* \"#utility.yul\":9047:9053   */\n      dup8\n        /* \"#utility.yul\":8983:9061   */\n      tag_251\n      jump\t// in\n    tag_393:\n        /* \"#utility.yul\":8975:9061   */\n      swap1\n      pop\n        /* \"#utility.yul\":9071:9137   */\n      tag_394\n        /* \"#utility.yul\":9133:9135   */\n      0x40\n        /* \"#utility.yul\":9122:9131   */\n      dup4\n        /* \"#utility.yul\":9118:9136   */\n      add\n        /* \"#utility.yul\":9109:9115   */\n      dup7\n        /* \"#utility.yul\":9071:9137   */\n      tag_253\n      jump\t// in\n    tag_394:\n        /* \"#utility.yul\":9184:9193   */\n      dup2\n        /* \"#utility.yul\":9178:9182   */\n      dup2\n        /* \"#utility.yul\":9174:9194   */\n      sub\n        /* \"#utility.yul\":9169:9171   */\n      0x60\n        /* \"#utility.yul\":9158:9167   */\n      dup4\n        /* \"#utility.yul\":9154:9172   */\n      add\n        /* \"#utility.yul\":9147:9195   */\n      mstore\n        /* \"#utility.yul\":9212:9290   */\n      tag_395\n        /* \"#utility.yul\":9285:9289   */\n      dup2\n        /* \"#utility.yul\":9276:9282   */\n      dup6\n        /* \"#utility.yul\":9212:9290   */\n      tag_251\n      jump\t// in\n    tag_395:\n        /* \"#utility.yul\":9204:9290   */\n      swap1\n      pop\n        /* \"#utility.yul\":9338:9347   */\n      dup2\n        /* \"#utility.yul\":9332:9336   */\n      dup2\n        /* \"#utility.yul\":9328:9348   */\n      sub\n        /* \"#utility.yul\":9322:9325   */\n      0x80\n        /* \"#utility.yul\":9311:9320   */\n      dup4\n        /* \"#utility.yul\":9307:9326   */\n      add\n        /* \"#utility.yul\":9300:9349   */\n      mstore\n        /* \"#utility.yul\":9366:9444   */\n      tag_396\n        /* \"#utility.yul\":9439:9443   */\n      dup2\n        /* \"#utility.yul\":9430:9436   */\n      dup5\n        /* \"#utility.yul\":9366:9444   */\n      tag_251\n      jump\t// in\n    tag_396:\n        /* \"#utility.yul\":9358:9444   */\n      swap1\n      pop\n        /* \"#utility.yul\":8435:9451   */\n      swap7\n      swap6\n      pop\n      pop\n      pop\n      pop\n      pop\n      pop\n      jump\t// out\n        /* \"#utility.yul\":9457:9931   */\n    tag_26:\n        /* \"#utility.yul\":9525:9531   */\n      0x00\n        /* \"#utility.yul\":9533:9539   */\n      dup1\n        /* \"#utility.yul\":9582:9584   */\n      0x40\n        /* \"#utility.yul\":9570:9579   */\n      dup4\n        /* \"#utility.yul\":9561:9568   */\n      dup6\n        /* \"#utility.yul\":9557:9580   */\n      sub\n        /* \"#utility.yul\":9553:9585   */\n      slt\n        /* \"#utility.yul\":9550:9669   */\n      iszero\n      tag_398\n      jumpi\n        /* \"#utility.yul\":9588:9667   */\n      tag_399\n      tag_226\n      jump\t// in\n    tag_399:\n        /* \"#utility.yul\":9550:9669   */\n    tag_398:\n        /* \"#utility.yul\":9708:9709   */\n      0x00\n        /* \"#utility.yul\":9733:9786   */\n      tag_400\n        /* \"#utility.yul\":9778:9785   */\n      dup6\n        /* \"#utility.yul\":9769:9775   */\n      dup3\n        /* \"#utility.yul\":9758:9767   */\n      dup7\n        /* \"#utility.yul\":9754:9776   */\n      add\n        /* \"#utility.yul\":9733:9786   */\n      tag_247\n      jump\t// in\n    tag_400:\n        /* \"#utility.yul\":9723:9786   */\n      swap3\n      pop\n        /* \"#utility.yul\":9679:9796   */\n      pop\n        /* \"#utility.yul\":9835:9837   */\n      0x20\n        /* \"#utility.yul\":9861:9914   */\n      tag_401\n        /* \"#utility.yul\":9906:9913   */\n      dup6\n        /* \"#utility.yul\":9897:9903   */\n      dup3\n        /* \"#utility.yul\":9886:9895   */\n      dup7\n        /* \"#utility.yul\":9882:9904   */\n      add\n        /* \"#utility.yul\":9861:9914   */\n      tag_247\n      jump\t// in\n    tag_401:\n        /* \"#utility.yul\":9851:9914   */\n      swap2\n      pop\n        /* \"#utility.yul\":9806:9924   */\n      pop\n        /* \"#utility.yul\":9457:9931   */\n      swap3\n      pop\n      swap3\n      swap1\n      pop\n      jump\t// out\n        /* \"#utility.yul\":9937:10147   */\n    tag_29:\n        /* \"#utility.yul\":10024:10028   */\n      0x00\n        /* \"#utility.yul\":10062:10064   */\n      0x20\n        /* \"#utility.yul\":10051:10060   */\n      dup3\n        /* \"#utility.yul\":10047:10065   */\n      add\n        /* \"#utility.yul\":10039:10065   */\n      swap1\n      pop\n        /* \"#utility.yul\":10075:10140   */\n      tag_403\n        /* \"#utility.yul\":10137:10138   */\n      0x00\n        /* \"#utility.yul\":10126:10135   */\n      dup4\n        /* \"#utility.yul\":10122:10139   */\n      add\n        /* \"#utility.yul\":10113:10119   */\n      dup5\n        /* \"#utility.yul\":10075:10140   */\n      tag_253\n      jump\t// in\n    tag_403:\n        /* \"#utility.yul\":9937:10147   */\n      swap3\n      swap2\n      pop\n      pop\n      jump\t// out\n        /* \"#utility.yul\":10153:10301   */\n    tag_254:\n        /* \"#utility.yul\":10255:10266   */\n      0x00\n        /* \"#utility.yul\":10292:10295   */\n      dup2\n        /* \"#utility.yul\":10277:10295   */\n      swap1\n      pop\n        /* \"#utility.yul\":10153:10301   */\n      swap3\n      swap2\n      pop\n      pop\n      jump\t// out\n        /* \"#utility.yul\":10307:10697   */\n    tag_255:\n        /* \"#utility.yul\":10413:10416   */\n      0x00\n        /* \"#utility.yul\":10441:10480   */\n      tag_406\n        /* \"#utility.yul\":10474:10479   */\n      dup3\n        /* \"#utility.yul\":10441:10480   */\n      tag_248\n      jump\t// in\n    tag_406:\n        /* \"#utility.yul\":10496:10585   */\n      tag_407\n        /* \"#utility.yul\":10578:10584   */\n      dup2\n        /* \"#utility.yul\":10573:10576   */\n      dup6\n        /* \"#utility.yul\":10496:10585   */\n      tag_254\n      jump\t// in\n    tag_407:\n        /* \"#utility.yul\":10489:10585   */\n      swap4\n      pop\n        /* \"#utility.yul\":10594:10659   */\n      tag_408\n        /* \"#utility.yul\":10652:10658   */\n      dup2\n        /* \"#utility.yul\":10647:10650   */\n      dup6\n        /* \"#utility.yul\":10640:10644   */\n      0x20\n        /* \"#utility.yul\":10633:10638   */\n      dup7\n        /* \"#utility.yul\":10629:10645   */\n      add\n        /* \"#utility.yul\":10594:10659   */\n      tag_250\n      jump\t// in\n    tag_408:\n        /* \"#utility.yul\":10684:10690   */\n      dup1\n        /* \"#utility.yul\":10679:10682   */\n      dup5\n        /* \"#utility.yul\":10675:10691   */\n      add\n        /* \"#utility.yul\":10668:10691   */\n      swap2\n      pop\n        /* \"#utility.yul\":10417:10697   */\n      pop\n        /* \"#utility.yul\":10307:10697   */\n      swap3\n      swap2\n      pop\n      pop\n      jump\t// out\n        /* \"#utility.yul\":10703:10978   */\n    tag_38:\n        /* \"#utility.yul\":10835:10838   */\n      0x00\n        /* \"#utility.yul\":10857:10952   */\n      tag_410\n        /* \"#utility.yul\":10948:10951   */\n      dup3\n        /* \"#utility.yul\":10939:10945   */\n      dup5\n        /* \"#utility.yul\":10857:10952   */\n      tag_255\n      jump\t// in\n    tag_410:\n        /* \"#utility.yul\":10850:10952   */\n      swap2\n      pop\n        /* \"#utility.yul\":10969:10972   */\n      dup2\n        /* \"#utility.yul\":10962:10972   */\n      swap1\n      pop\n        /* \"#utility.yul\":10703:10978   */\n      swap3\n      swap2\n      pop\n      pop\n      jump\t// out\n        /* \"#utility.yul\":10984:11273   */\n    tag_256:\n        /* \"#utility.yul\":11124:11158   */\n      0x496e76616c696420726f6c652e204d757374206265204d696e65722c204d616e\n        /* \"#utility.yul\":11120:11121   */\n      0x00\n        /* \"#utility.yul\":11112:11118   */\n      dup3\n        /* \"#utility.yul\":11108:11122   */\n      add\n        /* \"#utility.yul\":11101:11159   */\n      mstore\n        /* \"#utility.yul\":11193:11227   */\n      0x7566616374757265722c204365727469666965722c206f722052657461696c65\n        /* \"#utility.yul\":11188:11190   */\n      0x20\n        /* \"#utility.yul\":11180:11186   */\n      dup3\n        /* \"#utility.yul\":11176:11191   */\n      add\n        /* \"#utility.yul\":11169:11228   */\n      mstore\n        /* \"#utility.yul\":11262:11265   */\n      0x7200000000000000000000000000000000000000000000000000000000000000\n        /* \"#utility.yul\":11257:11259   */\n      0x40\n        /* \"#utility.yul\":11249:11255   */\n      dup3\n        /* \"#utility.yul\":11245:11260   */\n      add\n        /* \"#utility.yul\":11238:11266   */\n      mstore\n        /* \"#utility.yul\":10984:11273   */\n      pop\n      jump\t// out\n        /* \"#utility.yul\":11279:11645   */\n    tag_257:\n        /* \"#utility.yul\":11421:11424   */\n      0x00\n        /* \"#utility.yul\":11442:11509   */\n      tag_413\n        /* \"#utility.yul\":11506:11508   */\n      0x41\n        /* \"#utility.yul\":11501:11504   */\n      dup4\n        /* \"#utility.yul\":11442:11509   */\n      tag_249\n      jump\t// in\n    tag_413:\n        /* \"#utility.yul\":11435:11509   */\n      swap2\n      pop\n        /* \"#utility.yul\":11518:11611   */\n      tag_414\n        /* \"#utility.yul\":11607:11610   */\n      dup3\n        /* \"#utility.yul\":11518:11611   */\n      tag_256\n      jump\t// in\n    tag_414:\n        /* \"#utility.yul\":11636:11638   */\n      0x60\n        /* \"#utility.yul\":11631:11634   */\n      dup3\n        /* \"#utility.yul\":11627:11639   */\n      add\n        /* \"#utility.yul\":11620:11639   */\n      swap1\n      pop\n        /* \"#utility.yul\":11279:11645   */\n      swap2\n      swap1\n      pop\n      jump\t// out\n        /* \"#utility.yul\":11651:12070   */\n    tag_47:\n        /* \"#utility.yul\":11817:11821   */\n      0x00\n        /* \"#utility.yul\":11855:11857   */\n      0x20\n        /* \"#utility.yul\":11844:11853   */\n      dup3\n        /* \"#utility.yul\":11840:11858   */\n      add\n        /* \"#utility.yul\":11832:11858   */\n      swap1\n      pop\n        /* \"#utility.yul\":11904:11913   */\n      dup2\n        /* \"#utility.yul\":11898:11902   */\n      dup2\n        /* \"#utility.yul\":11894:11914   */\n      sub\n        /* \"#utility.yul\":11890:11891   */\n      0x00\n        /* \"#utility.yul\":11879:11888   */\n      dup4\n        /* \"#utility.yul\":11875:11892   */\n      add\n        /* \"#utility.yul\":11868:11915   */\n      mstore\n        /* \"#utility.yul\":11932:12063   */\n      tag_416\n        /* \"#utility.yul\":12058:12062   */\n      dup2\n        /* \"#utility.yul\":11932:12063   */\n      tag_257\n      jump\t// in\n    tag_416:\n        /* \"#utility.yul\":11924:12063   */\n      swap1\n      pop\n        /* \"#utility.yul\":11651:12070   */\n      swap2\n      swap1\n      pop\n      jump\t// out\n        /* \"#utility.yul\":12076:12385   */\n    tag_258:\n        /* \"#utility.yul\":12216:12250   */\n      0x526567697374726174696f6e2072656a65637465643a204c6f636174696f6e20\n        /* \"#utility.yul\":12212:12213   */\n      0x00\n        /* \"#utility.yul\":12204:12210   */\n      dup3\n        /* \"#utility.yul\":12200:12214   */\n      add\n        /* \"#utility.yul\":12193:12251   */\n      mstore\n        /* \"#utility.yul\":12285:12319   */\n      0x697320696e206120636f6e666c696374207a6f6e652062616e6e656420627920\n        /* \"#utility.yul\":12280:12282   */\n      0x20\n        /* \"#utility.yul\":12272:12278   */\n      dup3\n        /* \"#utility.yul\":12268:12283   */\n      add\n        /* \"#utility.yul\":12261:12320   */\n      mstore\n        /* \"#utility.yul\":12354:12377   */\n      0x746865204b696d6265726c65792050726f636573730000000000000000000000\n        /* \"#utility.yul\":12349:12351   */\n      0x40\n        /* \"#utility.yul\":12341:12347   */\n      dup3\n        /* \"#utility.yul\":12337:12352   */\n      add\n        /* \"#utility.yul\":12330:12378   */\n      mstore\n        /* \"#utility.yul\":12076:12385   */\n      pop\n      jump\t// out\n        /* \"#utility.yul\":12391:12757   */\n    tag_259:\n        /* \"#utility.yul\":12533:12536   */\n      0x00\n        /* \"#utility.yul\":12554:12621   */\n      tag_419\n        /* \"#utility.yul\":12618:12620   */\n      0x55\n        /* \"#utility.yul\":12613:12616   */\n      dup4\n        /* \"#utility.yul\":12554:12621   */\n      tag_249\n      jump\t// in\n    tag_419:\n        /* \"#utility.yul\":12547:12621   */\n      swap2\n      pop\n        /* \"#utility.yul\":12630:12723   */\n      tag_420\n        /* \"#utility.yul\":12719:12722   */\n      dup3\n        /* \"#utility.yul\":12630:12723   */\n      tag_258\n      jump\t// in\n    tag_420:\n        /* \"#utility.yul\":12748:12750   */\n      0x60\n        /* \"#utility.yul\":12743:12746   */\n      dup3\n        /* \"#utility.yul\":12739:12751   */\n      add\n        /* \"#utility.yul\":12732:12751   */\n      swap1\n      pop\n        /* \"#utility.yul\":12391:12757   */\n      swap2\n      swap1\n      pop\n      jump\t// out\n        /* \"#utility.yul\":12763:13182   */\n    tag_54:\n        /* \"#utility.yul\":12929:12933   */\n      0x00\n        /* \"#utility.yul\":12967:12969   */\n      0x20\n        /* \"#utility.yul\":12956:12965   */\n      dup3\n        /* \"#utility.yul\":12952:12970   */\n      add\n        /* \"#utility.yul\":12944:12970   */\n      swap1\n      pop\n        /* \"#utility.yul\":13016:13025   */\n      dup2\n        /* \"#utility.yul\":13010:13014   */\n      dup2\n        /* \"#utility.yul\":13006:13026   */\n      sub\n        /* \"#utility.yul\":13002:13003   */\n      0x00\n        /* \"#utility.yul\":12991:13000   */\n      dup4\n        /* \"#utility.yul\":12987:13004   */\n      add\n        /* \"#utility.yul\":12980:13027   */\n      mstore\n        /* \"#utility.yul\":13044:13175   */\n      tag_422\n        /* \"#utility.yul\":13170:13174   */\n      dup2\n        /* \"#utility.yul\":13044:13175   */\n      tag_259\n      jump\t// in\n    tag_422:\n        /* \"#utility.yul\":13036:13175   */\n      swap1\n      pop\n        /* \"#utility.yul\":12763:13182   */\n      swap2\n      swap1\n      pop\n      jump\t// out\n        /* \"#utility.yul\":13188:13363   */\n    tag_260:\n        /* \"#utility.yul\":13328:13355   */\n      0x456e7469747920616c7265616479207265676973746572656400000000000000\n        /* \"#utility.yul\":13324:13325   */\n      0x00\n        /* \"#utility.yul\":13316:13322   */\n      dup3\n        /* \"#utility.yul\":13312:13326   */\n      add\n        /* \"#utility.yul\":13305:13356   */\n      mstore\n        /* \"#utility.yul\":13188:13363   */\n      pop\n      jump\t// out\n        /* \"#utility.yul\":13369:13735   */\n    tag_261:\n        /* \"#utility.yul\":13511:13514   */\n      0x00\n        /* \"#utility.yul\":13532:13599   */\n      tag_425\n        /* \"#utility.yul\":13596:13598   */\n      0x19\n        /* \"#utility.yul\":13591:13594   */\n      dup4\n        /* \"#utility.yul\":13532:13599   */\n      tag_249\n      jump\t// in\n    tag_425:\n        /* \"#utility.yul\":13525:13599   */\n      swap2\n      pop\n        /* \"#utility.yul\":13608:13701   */\n      tag_426\n        /* \"#utility.yul\":13697:13700   */\n      dup3\n        /* \"#utility.yul\":13608:13701   */\n      tag_260\n      jump\t// in\n    tag_426:\n        /* \"#utility.yul\":13726:13728   */\n      0x20\n        /* \"#utility.yul\":13721:13724   */\n      dup3\n        /* \"#utility.yul\":13717:13729   */\n      add\n        /* \"#utility.yul\":13710:13729   */\n      swap1\n      pop\n        /* \"#utility.yul\":13369:13735   */\n      swap2\n      swap1\n      pop\n      jump\t// out\n        /* \"#utility.yul\":13741:14160   */\n    tag_57:\n        /* \"#utility.yul\":13907:13911   */\n      0x00\n        /* \"#utility.yul\":13945:13947   */\n      0x20\n        /* \"#utility.yul\":13934:13943   */\n      dup3\n        /* \"#utility.yul\":13930:13948   */\n      add\n        /* \"#utility.yul\":13922:13948   */\n      swap1\n      pop\n        /* \"#utility.yul\":13994:14003   */\n      dup2\n        /* \"#utility.yul\":13988:13992   */\n      dup2\n        /* \"#utility.yul\":13984:14004   */\n      sub\n        /* \"#utility.yul\":13980:13981   */\n      0x00\n        /* \"#utility.yul\":13969:13978   */\n      dup4\n        /* \"#utility.yul\":13965:13982   */\n      add\n        /* \"#utility.yul\":13958:14005   */\n      mstore\n        /* \"#utility.yul\":14022:14153   */\n      tag_428\n        /* \"#utility.yul\":14148:14152   */\n      dup2\n        /* \"#utility.yul\":14022:14153   */\n      tag_261\n      jump\t// in\n    tag_428:\n        /* \"#utility.yul\":14014:14153   */\n      swap1\n      pop\n        /* \"#utility.yul\":13741:14160   */\n      swap2\n      swap1\n      pop\n      jump\t// out\n        /* \"#utility.yul\":14166:14346   */\n    tag_262:\n        /* \"#utility.yul\":14306:14338   */\n      0x4c6963656e7365206e756d6265722063616e6e6f7420626520656d7074790000\n        /* \"#utility.yul\":14302:14303   */\n      0x00\n        /* \"#utility.yul\":14294:14300   */\n      dup3\n        /* \"#utility.yul\":14290:14304   */\n      add\n        /* \"#utility.yul\":14283:14339   */\n      mstore\n        /* \"#utility.yul\":14166:14346   */\n      pop\n      jump\t// out\n        /* \"#utility.yul\":14352:14718   */\n    tag_263:\n        /* \"#utility.yul\":14494:14497   */\n      0x00\n        /* \"#utility.yul\":14515:14582   */\n      tag_431\n        /* \"#utility.yul\":14579:14581   */\n      0x1e\n        /* \"#utility.yul\":14574:14577   */\n      dup4\n        /* \"#utility.yul\":14515:14582   */\n      tag_249\n      jump\t// in\n    tag_431:\n        /* \"#utility.yul\":14508:14582   */\n      swap2\n      pop\n        /* \"#utility.yul\":14591:14684   */\n      tag_432\n        /* \"#utility.yul\":14680:14683   */\n      dup3\n        /* \"#utility.yul\":14591:14684   */\n      tag_262\n      jump\t// in\n    tag_432:\n        /* \"#utility.yul\":14709:14711   */\n      0x20\n        /* \"#utility.yul\":14704:14707   */\n      dup3\n        /* \"#utility.yul\":14700:14712   */\n      add\n        /* \"#utility.yul\":14693:14712   */\n      swap1\n      pop\n        /* \"#utility.yul\":14352:14718   */\n      swap2\n      swap1\n      pop\n      jump\t// out\n        /* \"#utility.yul\":14724:15143   */\n    tag_60:\n        /* \"#utility.yul\":14890:14894   */\n      0x00\n        /* \"#utility.yul\":14928:14930   */\n      0x20\n        /* \"#utility.yul\":14917:14926   */\n      dup3\n        /* \"#utility.yul\":14913:14931   */\n      add\n        /* \"#utility.yul\":14905:14931   */\n      swap1\n      pop\n        /* \"#utility.yul\":14977:14986   */\n      dup2\n        /* \"#utility.yul\":14971:14975   */\n      dup2\n        /* \"#utility.yul\":14967:14987   */\n      sub\n        /* \"#utility.yul\":14963:14964   */\n      0x00\n        /* \"#utility.yul\":14952:14961   */\n      dup4\n        /* \"#utility.yul\":14948:14965   */\n      add\n        /* \"#utility.yul\":14941:14988   */\n      mstore\n        /* \"#utility.yul\":15005:15136   */\n      tag_434\n        /* \"#utility.yul\":15131:15135   */\n      dup2\n        /* \"#utility.yul\":15005:15136   */\n      tag_263\n      jump\t// in\n    tag_434:\n        /* \"#utility.yul\":14997:15136   */\n      swap1\n      pop\n        /* \"#utility.yul\":14724:15143   */\n      swap2\n      swap1\n      pop\n      jump\t// out\n        /* \"#utility.yul\":15149:15329   */\n    tag_65:\n        /* \"#utility.yul\":15197:15274   */\n      0x4e487b7100000000000000000000000000000000000000000000000000000000\n        /* \"#utility.yul\":15194:15195   */\n      0x00\n        /* \"#utility.yul\":15187:15275   */\n      mstore\n        /* \"#utility.yul\":15294:15298   */\n      0x32\n        /* \"#utility.yul\":15291:15292   */\n      0x04\n        /* \"#utility.yul\":15284:15299   */\n      mstore\n        /* \"#utility.yul\":15318:15322   */\n      0x24\n        /* \"#utility.yul\":15315:15316   */\n      0x00\n        /* \"#utility.yul\":15308:15323   */\n      revert\n        /* \"#utility.yul\":15335:15510   */\n    tag_264:\n        /* \"#utility.yul\":15475:15502   */\n      0x4c6963656e7365206d7573742073746172742077697468202700000000000000\n        /* \"#utility.yul\":15471:15472   */\n      0x00\n        /* \"#utility.yul\":15463:15469   */\n      dup3\n        /* \"#utility.yul\":15459:15473   */\n      add\n        /* \"#utility.yul\":15452:15503   */\n      mstore\n        /* \"#utility.yul\":15335:15510   */\n      pop\n      jump\t// out\n        /* \"#utility.yul\":15516:15918   */\n    tag_265:\n        /* \"#utility.yul\":15676:15679   */\n      0x00\n        /* \"#utility.yul\":15697:15782   */\n      tag_438\n        /* \"#utility.yul\":15779:15781   */\n      0x19\n        /* \"#utility.yul\":15774:15777   */\n      dup4\n        /* \"#utility.yul\":15697:15782   */\n      tag_254\n      jump\t// in\n    tag_438:\n        /* \"#utility.yul\":15690:15782   */\n      swap2\n      pop\n        /* \"#utility.yul\":15791:15884   */\n      tag_439\n        /* \"#utility.yul\":15880:15883   */\n      dup3\n        /* \"#utility.yul\":15791:15884   */\n      tag_264\n      jump\t// in\n    tag_439:\n        /* \"#utility.yul\":15909:15911   */\n      0x19\n        /* \"#utility.yul\":15904:15907   */\n      dup3\n        /* \"#utility.yul\":15900:15912   */\n      add\n        /* \"#utility.yul\":15893:15912   */\n      swap1\n      pop\n        /* \"#utility.yul\":15516:15918   */\n      swap2\n      swap1\n      pop\n      jump\t// out\n        /* \"#utility.yul\":15924:16073   */\n    tag_266:\n        /* \"#utility.yul\":15960:15967   */\n      0x00\n        /* \"#utility.yul\":16000:16066   */\n      0xff00000000000000000000000000000000000000000000000000000000000000\n        /* \"#utility.yul\":15993:15998   */\n      dup3\n        /* \"#utility.yul\":15989:16067   */\n      and\n        /* \"#utility.yul\":15978:16067   */\n      swap1\n      pop\n        /* \"#utility.yul\":15924:16073   */\n      swap2\n      swap1\n      pop\n      jump\t// out\n        /* \"#utility.yul\":16079:16157   */\n    tag_267:\n        /* \"#utility.yul\":16117:16124   */\n      0x00\n        /* \"#utility.yul\":16146:16151   */\n      dup2\n        /* \"#utility.yul\":16135:16151   */\n      swap1\n      pop\n        /* \"#utility.yul\":16079:16157   */\n      swap2\n      swap1\n      pop\n      jump\t// out\n        /* \"#utility.yul\":16163:16316   */\n    tag_268:\n        /* \"#utility.yul\":16266:16309   */\n      tag_443\n        /* \"#utility.yul\":16285:16308   */\n      tag_444\n        /* \"#utility.yul\":16302:16307   */\n      dup3\n        /* \"#utility.yul\":16285:16308   */\n      tag_266\n      jump\t// in\n    tag_444:\n        /* \"#utility.yul\":16266:16309   */\n      tag_267\n      jump\t// in\n    tag_443:\n        /* \"#utility.yul\":16261:16264   */\n      dup3\n        /* \"#utility.yul\":16254:16310   */\n      mstore\n        /* \"#utility.yul\":16163:16316   */\n      pop\n      pop\n      jump\t// out\n        /* \"#utility.yul\":16322:16478   */\n    tag_269:\n        /* \"#utility.yul\":16462:16470   */\n      0x2720666f72200000000000000000000000000000000000000000000000000000\n        /* \"#utility.yul\":16458:16459   */\n      0x00\n        /* \"#utility.yul\":16450:16456   */\n      dup3\n        /* \"#utility.yul\":16446:16460   */\n      add\n        /* \"#utility.yul\":16439:16471   */\n      mstore\n        /* \"#utility.yul\":16322:16478   */\n      pop\n      jump\t// out\n        /* \"#utility.yul\":16484:16884   */\n    tag_270:\n        /* \"#utility.yul\":16644:16647   */\n      0x00\n        /* \"#utility.yul\":16665:16749   */\n      tag_447\n        /* \"#utility.yul\":16747:16748   */\n      0x06\n        /* \"#utility.yul\":16742:16745   */\n      dup4\n        /* \"#utility.yul\":16665:16749   */\n      tag_254\n      jump\t// in\n    tag_447:\n        /* \"#utility.yul\":16658:16749   */\n      swap2\n      pop\n        /* \"#utility.yul\":16758:16851   */\n      tag_448\n        /* \"#utility.yul\":16847:16850   */\n      dup3\n        /* \"#utility.yul\":16758:16851   */\n      tag_269\n      jump\t// in\n    tag_448:\n        /* \"#utility.yul\":16876:16877   */\n      0x06\n        /* \"#utility.yul\":16871:16874   */\n      dup3\n        /* \"#utility.yul\":16867:16878   */\n      add\n        /* \"#utility.yul\":16860:16878   */\n      swap1\n      pop\n        /* \"#utility.yul\":16484:16884   */\n      swap2\n      swap1\n      pop\n      jump\t// out\n        /* \"#utility.yul\":16890:17833   */\n    tag_67:\n        /* \"#utility.yul\":17250:17253   */\n      0x00\n        /* \"#utility.yul\":17272:17420   */\n      tag_450\n        /* \"#utility.yul\":17416:17419   */\n      dup3\n        /* \"#utility.yul\":17272:17420   */\n      tag_265\n      jump\t// in\n    tag_450:\n        /* \"#utility.yul\":17265:17420   */\n      swap2\n      pop\n        /* \"#utility.yul\":17430:17503   */\n      tag_451\n        /* \"#utility.yul\":17499:17502   */\n      dup3\n        /* \"#utility.yul\":17490:17496   */\n      dup6\n        /* \"#utility.yul\":17430:17503   */\n      tag_268\n      jump\t// in\n    tag_451:\n        /* \"#utility.yul\":17528:17529   */\n      0x01\n        /* \"#utility.yul\":17523:17526   */\n      dup3\n        /* \"#utility.yul\":17519:17530   */\n      add\n        /* \"#utility.yul\":17512:17530   */\n      swap2\n      pop\n        /* \"#utility.yul\":17547:17695   */\n      tag_452\n        /* \"#utility.yul\":17691:17694   */\n      dup3\n        /* \"#utility.yul\":17547:17695   */\n      tag_270\n      jump\t// in\n    tag_452:\n        /* \"#utility.yul\":17540:17695   */\n      swap2\n      pop\n        /* \"#utility.yul\":17712:17807   */\n      tag_453\n        /* \"#utility.yul\":17803:17806   */\n      dup3\n        /* \"#utility.yul\":17794:17800   */\n      dup5\n        /* \"#utility.yul\":17712:17807   */\n      tag_255\n      jump\t// in\n    tag_453:\n        /* \"#utility.yul\":17705:17807   */\n      swap2\n      pop\n        /* \"#utility.yul\":17824:17827   */\n      dup2\n        /* \"#utility.yul\":17817:17827   */\n      swap1\n      pop\n        /* \"#utility.yul\":16890:17833   */\n      swap4\n      swap3\n      pop\n      pop\n      pop\n      jump\t// out\n        /* \"#utility.yul\":17839:18152   */\n    tag_70:\n        /* \"#utility.yul\":17952:17956   */\n      0x00\n        /* \"#utility.yul\":17990:17992   */\n      0x20\n        /* \"#utility.yul\":17979:17988   */\n      dup3\n        /* \"#utility.yul\":17975:17993   */\n      add\n        /* \"#utility.yul\":17967:17993   */\n      swap1\n      pop\n        /* \"#utility.yul\":18039:18048   */\n      dup2\n        /* \"#utility.yul\":18033:18037   */\n      dup2\n        /* \"#utility.yul\":18029:18049   */\n      sub\n        /* \"#utility.yul\":18025:18026   */\n      0x00\n        /* \"#utility.yul\":18014:18023   */\n      dup4\n        /* \"#utility.yul\":18010:18027   */\n      add\n        /* \"#utility.yul\":18003:18050   */\n      mstore\n        /* \"#utility.yul\":18067:18145   */\n      tag_455\n        /* \"#utility.yul\":18140:18144   */\n      dup2\n        /* \"#utility.yul\":18131:18137   */\n      dup5\n        /* \"#utility.yul\":18067:18145   */\n      tag_251\n      jump\t// in\n    tag_455:\n        /* \"#utility.yul\":18059:18145   */\n      swap1\n      pop\n        /* \"#utility.yul\":17839:18152   */\n      swap3\n      swap2\n      pop\n      pop\n      jump\t// out\n        /* \"#utility.yul\":18158:18338   */\n    tag_271:\n        /* \"#utility.yul\":18206:18283   */\n      0x4e487b7100000000000000000000000000000000000000000000000000000000\n        /* \"#utility.yul\":18203:18204   */\n      0x00\n        /* \"#utility.yul\":18196:18284   */\n      mstore\n        /* \"#utility.yul\":18303:18307   */\n      0x22\n        /* \"#utility.yul\":18300:18301   */\n      0x04\n        /* \"#utility.yul\":18293:18308   */\n      mstore\n        /* \"#utility.yul\":18327:18331   */\n      0x24\n        /* \"#utility.yul\":18324:18325   */\n      0x00\n        /* \"#utility.yul\":18317:18332   */\n      revert\n        /* \"#utility.yul\":18344:18664   */\n    tag_82:\n        /* \"#utility.yul\":18388:18394   */\n      0x00\n        /* \"#utility.yul\":18425:18426   */\n      0x02\n        /* \"#utility.yul\":18419:18423   */\n      dup3\n        /* \"#utility.yul\":18415:18427   */\n      div\n        /* \"#utility.yul\":18405:18427   */\n      swap1\n      pop\n        /* \"#utility.yul\":18472:18473   */\n      0x01\n        /* \"#utility.yul\":18466:18470   */\n      dup3\n        /* \"#utility.yul\":18462:18474   */\n      and\n        /* \"#utility.yul\":18493:18511   */\n      dup1\n        /* \"#utility.yul\":18483:18564   */\n      tag_458\n      jumpi\n        /* \"#utility.yul\":18549:18553   */\n      0x7f\n        /* \"#utility.yul\":18541:18547   */\n      dup3\n        /* \"#utility.yul\":18537:18554   */\n      and\n        /* \"#utility.yul\":18527:18554   */\n      swap2\n      pop\n        /* \"#utility.yul\":18483:18564   */\n    tag_458:\n        /* \"#utility.yul\":18611:18613   */\n      0x20\n        /* \"#utility.yul\":18603:18609   */\n      dup3\n        /* \"#utility.yul\":18600:18614   */\n      lt\n        /* \"#utility.yul\":18580:18598   */\n      dup2\n        /* \"#utility.yul\":18577:18615   */\n      sub\n        /* \"#utility.yul\":18574:18658   */\n      tag_459\n      jumpi\n        /* \"#utility.yul\":18630:18648   */\n      tag_460\n      tag_271\n      jump\t// in\n    tag_460:\n        /* \"#utility.yul\":18574:18658   */\n    tag_459:\n        /* \"#utility.yul\":18395:18664   */\n      pop\n        /* \"#utility.yul\":18344:18664   */\n      swap2\n      swap1\n      pop\n      jump\t// out\n        /* \"#utility.yul\":18670:18811   */\n    tag_272:\n        /* \"#utility.yul\":18719:18723   */\n      0x00\n        /* \"#utility.yul\":18742:18745   */\n      dup2\n        /* \"#utility.yul\":18734:18745   */\n      swap1\n      pop\n        /* \"#utility.yul\":18765:18768   */\n      dup2\n        /* \"#utility.yul\":18762:18763   */\n      0x00\n        /* \"#utility.yul\":18755:18769   */\n      mstore\n        /* \"#utility.yul\":18799:18803   */\n      0x20\n        /* \"#utility.yul\":18796:18797   */\n      0x00\n        /* \"#utility.yul\":18786:18804   */\n      keccak256\n        /* \"#utility.yul\":18778:18804   */\n      swap1\n      pop\n        /* \"#utility.yul\":18670:18811   */\n      swap2\n      swap1\n      pop\n      jump\t// out\n        /* \"#utility.yul\":18817:18910   */\n    tag_273:\n        /* \"#utility.yul\":18854:18860   */\n      0x00\n        /* \"#utility.yul\":18901:18903   */\n      0x20\n        /* \"#utility.yul\":18896:18898   */\n      0x1f\n        /* \"#utility.yul\":18889:18894   */\n      dup4\n        /* \"#utility.yul\":18885:18899   */\n      add\n        /* \"#utility.yul\":18881:18904   */\n      div\n        /* \"#utility.yul\":18871:18904   */\n      swap1\n      pop\n        /* \"#utility.yul\":18817:18910   */\n      swap2\n      swap1\n      pop\n      jump\t// out\n        /* \"#utility.yul\":18916:19023   */\n    tag_274:\n        /* \"#utility.yul\":18960:18968   */\n      0x00\n        /* \"#utility.yul\":19010:19015   */\n      dup3\n        /* \"#utility.yul\":19004:19008   */\n      dup3\n        /* \"#utility.yul\":19000:19016   */\n      shl\n        /* \"#utility.yul\":18979:19016   */\n      swap1\n      pop\n        /* \"#utility.yul\":18916:19023   */\n      swap3\n      swap2\n      pop\n      pop\n      jump\t// out\n        /* \"#utility.yul\":19029:19422   */\n    tag_275:\n        /* \"#utility.yul\":19098:19104   */\n      0x00\n        /* \"#utility.yul\":19148:19149   */\n      0x08\n        /* \"#utility.yul\":19136:19146   */\n      dup4\n        /* \"#utility.yul\":19132:19150   */\n      mul\n        /* \"#utility.yul\":19171:19268   */\n      tag_465\n        /* \"#utility.yul\":19201:19267   */\n      0xffffffffffffffffffffffffffffffffffffffffffffffffffffffffffffffff\n        /* \"#utility.yul\":19190:19199   */\n      dup3\n        /* \"#utility.yul\":19171:19268   */\n      tag_274\n      jump\t// in\n    tag_465:\n        /* \"#utility.yul\":19289:19328   */\n      tag_466\n        /* \"#utility.yul\":19319:19327   */\n      dup7\n        /* \"#utility.yul\":19308:19317   */\n      dup4\n        /* \"#utility.yul\":19289:19328   */\n      tag_274\n      jump\t// in\n    tag_466:\n        /* \"#utility.yul\":19277:19328   */\n      swap6\n      pop\n        /* \"#utility.yul\":19361:19365   */\n      dup1\n        /* \"#utility.yul\":19357:19366   */\n      not\n        /* \"#utility.yul\":19350:19355   */\n      dup5\n        /* \"#utility.yul\":19346:19367   */\n      and\n        /* \"#utility.yul\":19337:19367   */\n      swap4\n      pop\n        /* \"#utility.yul\":19410:19414   */\n      dup1\n        /* \"#utility.yul\":19400:19408   */\n      dup7\n        /* \"#utility.yul\":19396:19415   */\n      and\n        /* \"#utility.yul\":19389:19394   */\n      dup5\n        /* \"#utility.yul\":19386:19416   */\n      or\n        /* \"#utility.yul\":19376:19416   */\n      swap3\n      pop\n        /* \"#utility.yul\":19105:19422   */\n      pop\n      pop\n        /* \"#utility.yul\":19029:19422   */\n      swap4\n      swap3\n      pop\n      pop\n      pop\n      jump\t// out\n        /* \"#utility.yul\":19428:19505   */\n    tag_276:\n        /* \"#utility.yul\":19465:19472   */\n      0x00\n        /* \"#utility.yul\":19494:19499   */\n      dup2\n        /* \"#utility.yul\":19483:19499   */\n      swap1\n      pop\n        /* \"#utility.yul\":19428:19505   */\n      swap2\n      swap1\n      pop\n      jump\t// out\n        /* \"#utility.yul\":19511:19571   */\n    tag_277:\n        /* \"#utility.yul\":19539:19542   */\n      0x00\n        /* \"#utility.yul\":19560:19565   */\n      dup2\n        /* \"#utility.yul\":19553:19565   */\n      swap1\n      pop\n        /* \"#utility.yul\":19511:19571   */\n      swap2\n      swap1\n      pop\n      jump\t// out\n        /* \"#utility.yul\":19577:19719   */\n    tag_278:\n        /* \"#utility.yul\":19627:19636   */\n      0x00\n        /* \"#utility.yul\":19660:19713   */\n      tag_470\n        /* \"#utility.yul\":19678:19712   */\n      tag_471\n        /* \"#utility.yul\":19687:19711   */\n      tag_472\n        /* \"#utility.yul\":19705:19710   */\n      dup5\n        /* \"#utility.yul\":19687:19711   */\n      tag_276\n      jump\t// in\n    tag_472:\n        /* \"#utility.yul\":19678:19712   */\n      tag_277\n      jump\t// in\n    tag_471:\n        /* \"#utility.yul\":19660:19713   */\n      tag_276\n      jump\t// in\n    tag_470:\n        /* \"#utility.yul\":19647:19713   */\n      swap1\n      pop\n        /* \"#utility.yul\":19577:19719   */\n      swap2\n      swap1\n      pop\n      jump\t// out\n        /* \"#utility.yul\":19725:19800   */\n    tag_279:\n        /* \"#utility.yul\":19768:19771   */\n      0x00\n        /* \"#utility.yul\":19789:19794   */\n      dup2\n        /* \"#utility.yul\":19782:19794   */\n      swap1\n      pop\n        /* \"#utility.yul\":19725:19800   */\n      swap2\n      swap1\n      pop\n      jump\t// out\n        /* \"#utility.yul\":19806:20075   */\n    tag_280:\n        /* \"#utility.yul\":19916:19955   */\n      tag_475\n        /* \"#utility.yul\":19947:19954   */\n      dup4\n        /* \"#utility.yul\":19916:19955   */\n      tag_278\n      jump\t// in\n    tag_475:\n        /* \"#utility.yul\":19977:20068   */\n      tag_476\n        /* \"#utility.yul\":20026:20067   */\n      tag_477\n        /* \"#utility.yul\":20050:20066   */\n      dup3\n        /* \"#utility.yul\":20026:20067   */\n      tag_279\n      jump\t// in\n    tag_477:\n        /* \"#utility.yul\":20018:20024   */\n      dup5\n        /* \"#utility.yul\":20011:20015   */\n      dup5\n        /* \"#utility.yul\":20005:20016   */\n      sload\n        /* \"#utility.yul\":19977:20068   */\n      tag_275\n      jump\t// in\n    tag_476:\n        /* \"#utility.yul\":19971:19975   */\n      dup3\n        /* \"#utility.yul\":19964:20069   */\n      sstore\n        /* \"#utility.yul\":19882:20075   */\n      pop\n        /* \"#utility.yul\":19806:20075   */\n      pop\n      pop\n      pop\n      jump\t// out\n        /* \"#utility.yul\":20081:20154   */\n    tag_281:\n        /* \"#utility.yul\":20126:20129   */\n      0x00\n        /* \"#utility.yul\":20081:20154   */\n      swap1\n      jump\t// out\n        /* \"#utility.yul\":20160:20349   */\n    tag_282:\n        /* \"#utility.yul\":20237:20269   */\n      tag_480\n      tag_281\n      jump\t// in\n    tag_480:\n        /* \"#utility.yul\":20278:20343   */\n      tag_481\n        /* \"#utility.yul\":20336:20342   */\n      dup2\n        /* \"#utility.yul\":20328:20334   */\n      dup5\n        /* \"#utility.yul\":20322:20326   */\n      dup5\n        /* \"#utility.yul\":20278:20343   */\n      tag_280\n      jump\t// in\n    tag_481:\n        /* \"#utility.yul\":20213:20349   */\n      pop\n        /* \"#utility.yul\":20160:20349   */\n      pop\n      pop\n      jump\t// out\n        /* \"#utility.yul\":20355:20541   */\n    tag_283:\n        /* \"#utility.yul\":20415:20535   */\n    tag_483:\n        /* \"#utility.yul\":20432:20435   */\n      dup2\n        /* \"#utility.yul\":20425:20430   */\n      dup2\n        /* \"#utility.yul\":20422:20436   */\n      lt\n        /* \"#utility.yul\":20415:20535   */\n      iszero\n      tag_485\n      jumpi\n        /* \"#utility.yul\":20486:20525   */\n      tag_486\n        /* \"#utility.yul\":20523:20524   */\n      0x00\n        /* \"#utility.yul\":20516:20521   */\n      dup3\n        /* \"#utility.yul\":20486:20525   */\n      tag_282\n      jump\t// in\n    tag_486:\n        /* \"#utility.yul\":20459:20460   */\n      0x01\n        /* \"#utility.yul\":20452:20457   */\n      dup2\n        /* \"#utility.yul\":20448:20461   */\n      add\n        /* \"#utility.yul\":20439:20461   */\n      swap1\n      pop\n        /* \"#utility.yul\":20415:20535   */\n      jump(tag_483)\n    tag_485:\n        /* \"#utility.yul\":20355:20541   */\n      pop\n      pop\n      jump\t// out\n        /* \"#utility.yul\":20547:21090   */\n    tag_284:\n        /* \"#utility.yul\":20648:20650   */\n      0x1f\n        /* \"#utility.yul\":20643:20646   */\n      dup3\n        /* \"#utility.yul\":20640:20651   */\n      gt\n        /* \"#utility.yul\":20637:21083   */\n      iszero\n      tag_488\n      jumpi\n        /* \"#utility.yul\":20682:20720   */\n      tag_489\n        /* \"#utility.yul\":20714:20719   */\n      dup2\n        /* \"#utility.yul\":20682:20720   */\n      tag_272\n      jump\t// in\n    tag_489:\n        /* \"#utility.yul\":20766:20795   */\n      tag_490\n        /* \"#utility.yul\":20784:20794   */\n      dup5\n        /* \"#utility.yul\":20766:20795   */\n      tag_273\n      jump\t// in\n    tag_490:\n        /* \"#utility.yul\":20756:20764   */\n      dup2\n        /* \"#utility.yul\":20752:20796   */\n      add\n        /* \"#utility.yul\":20949:20951   */\n      0x20\n        /* \"#utility.yul\":20937:20947   */\n      dup6\n        /* \"#utility.yul\":20934:20952   */\n      lt\n        /* \"#utility.yul\":20931:20980   */\n      iszero\n      tag_491\n      jumpi\n        /* \"#utility.yul\":20970:20978   */\n      dup2\n        /* \"#utility.yul\":20955:20978   */\n      swap1\n      pop\n        /* \"#utility.yul\":20931:20980   */\n    tag_491:\n        /* \"#utility.yul\":20993:21073   */\n      tag_492\n        /* \"#utility.yul\":21049:21071   */\n      tag_493\n        /* \"#utility.yul\":21067:21070   */\n      dup6\n        /* \"#utility.yul\":21049:21071   */\n      tag_273\n      jump\t// in\n    tag_493:\n        /* \"#utility.yul\":21039:21047   */\n      dup4\n        /* \"#utility.yul\":21035:21072   */\n      add\n        /* \"#utility.yul\":21022:21033   */\n      dup3\n        /* \"#utility.yul\":20993:21073   */\n      tag_283\n      jump\t// in\n    tag_492:\n        /* \"#utility.yul\":20652:21083   */\n      pop\n      pop\n        /* \"#utility.yul\":20637:21083   */\n    tag_488:\n        /* \"#utility.yul\":20547:21090   */\n      pop\n      pop\n      pop\n      jump\t// out\n        /* \"#utility.yul\":21096:21213   */\n    tag_285:\n        /* \"#utility.yul\":21150:21158   */\n      0x00\n        /* \"#utility.yul\":21200:21205   */\n      dup3\n        /* \"#utility.yul\":21194:21198   */\n      dup3\n        /* \"#utility.yul\":21190:21206   */\n      shr\n        /* \"#utility.yul\":21169:21206   */\n      swap1\n      pop\n        /* \"#utility.yul\":21096:21213   */\n      swap3\n      swap2\n      pop\n      pop\n      jump\t// out\n        /* \"#utility.yul\":21219:21388   */\n    tag_286:\n        /* \"#utility.yul\":21263:21269   */\n      0x00\n        /* \"#utility.yul\":21296:21347   */\n      tag_496\n        /* \"#utility.yul\":21344:21345   */\n      0x00\n        /* \"#utility.yul\":21340:21346   */\n      not\n        /* \"#utility.yul\":21332:21337   */\n      dup5\n        /* \"#utility.yul\":21329:21330   */\n      0x08\n        /* \"#utility.yul\":21325:21338   */\n      mul\n        /* \"#utility.yul\":21296:21347   */\n      tag_285\n      jump\t// in\n    tag_496:\n        /* \"#utility.yul\":21292:21348   */\n      not\n        /* \"#utility.yul\":21377:21381   */\n      dup1\n        /* \"#utility.yul\":21371:21375   */\n      dup4\n        /* \"#utility.yul\":21367:21382   */\n      and\n        /* \"#utility.yul\":21357:21382   */\n      swap2\n      pop\n        /* \"#utility.yul\":21270:21388   */\n      pop\n        /* \"#utility.yul\":21219:21388   */\n      swap3\n      swap2\n      pop\n      pop\n      jump\t// out\n        /* \"#utility.yul\":21393:21688   */\n    tag_287:\n        /* \"#utility.yul\":21469:21473   */\n      0x00\n        /* \"#utility.yul\":21615:21644   */\n      tag_498\n        /* \"#utility.yul\":21640:21643   */\n      dup4\n        /* \"#utility.yul\":21634:21638   */\n      dup4\n        /* \"#utility.yul\":21615:21644   */\n      tag_286\n      jump\t// in\n    tag_498:\n        /* \"#utility.yul\":21607:21644   */\n      swap2\n      pop\n        /* \"#utility.yul\":21677:21680   */\n      dup3\n        /* \"#utility.yul\":21674:21675   */\n      0x02\n        /* \"#utility.yul\":21670:21681   */\n      mul\n        /* \"#utility.yul\":21664:21668   */\n      dup3\n        /* \"#utility.yul\":21661:21682   */\n      or\n        /* \"#utility.yul\":21653:21682   */\n      swap1\n      pop\n        /* \"#utility.yul\":21393:21688   */\n      swap3\n      swap2\n      pop\n      pop\n      jump\t// out\n        /* \"#utility.yul\":21693:23088   */\n    tag_72:\n        /* \"#utility.yul\":21810:21847   */\n      tag_500\n        /* \"#utility.yul\":21843:21846   */\n      dup3\n        /* \"#utility.yul\":21810:21847   */\n      tag_248\n      jump\t// in\n    tag_500:\n        /* \"#utility.yul\":21912:21930   */\n      0xffffffffffffffff\n        /* \"#utility.yul\":21904:21910   */\n      dup2\n        /* \"#utility.yul\":21901:21931   */\n      gt\n        /* \"#utility.yul\":21898:21954   */\n      iszero\n      tag_501\n      jumpi\n        /* \"#utility.yul\":21934:21952   */\n      tag_502\n      tag_151\n      jump\t// in\n    tag_502:\n        /* \"#utility.yul\":21898:21954   */\n    tag_501:\n        /* \"#utility.yul\":21978:22016   */\n      tag_503\n        /* \"#utility.yul\":22010:22014   */\n      dup3\n        /* \"#utility.yul\":22004:22015   */\n      sload\n        /* \"#utility.yul\":21978:22016   */\n      tag_82\n      jump\t// in\n    tag_503:\n        /* \"#utility.yul\":22063:22130   */\n      tag_504\n        /* \"#utility.yul\":22123:22129   */\n      dup3\n        /* \"#utility.yul\":22115:22121   */\n      dup3\n        /* \"#utility.yul\":22109:22113   */\n      dup6\n        /* \"#utility.yul\":22063:22130   */\n      tag_284\n      jump\t// in\n    tag_504:\n        /* \"#utility.yul\":22157:22158   */\n      0x00\n        /* \"#utility.yul\":22181:22185   */\n      0x20\n        /* \"#utility.yul\":22168:22185   */\n      swap1\n      pop\n        /* \"#utility.yul\":22213:22215   */\n      0x1f\n        /* \"#utility.yul\":22205:22211   */\n      dup4\n        /* \"#utility.yul\":22202:22216   */\n      gt\n        /* \"#utility.yul\":22230:22231   */\n      0x01\n        /* \"#utility.yul\":22225:22843   */\n      dup2\n      eq\n      tag_506\n      jumpi\n        /* \"#utility.yul\":22887:22888   */\n      0x00\n        /* \"#utility.yul\":22904:22910   */\n      dup5\n        /* \"#utility.yul\":22901:22978   */\n      iszero\n      tag_507\n      jumpi\n        /* \"#utility.yul\":22953:22962   */\n      dup3\n        /* \"#utility.yul\":22948:22951   */\n      dup8\n        /* \"#utility.yul\":22944:22963   */\n      add\n        /* \"#utility.yul\":22938:22964   */\n      mload\n        /* \"#utility.yul\":22929:22964   */\n      swap1\n      pop\n        /* \"#utility.yul\":22901:22978   */\n    tag_507:\n        /* \"#utility.yul\":23004:23071   */\n      tag_508\n        /* \"#utility.yul\":23064:23070   */\n      dup6\n        /* \"#utility.yul\":23057:23062   */\n      dup3\n        /* \"#utility.yul\":23004:23071   */\n      tag_287\n      jump\t// in\n    tag_508:\n        /* \"#utility.yul\":22998:23002   */\n      dup7\n        /* \"#utility.yul\":22991:23072   */\n      sstore\n        /* \"#utility.yul\":22860:23082   */\n      pop\n        /* \"#utility.yul\":22195:23082   */\n      jump(tag_505)\n        /* \"#utility.yul\":22225:22843   */\n    tag_506:\n        /* \"#utility.yul\":22277:22281   */\n      0x1f\n        /* \"#utility.yul\":22273:22282   */\n      not\n        /* \"#utility.yul\":22265:22271   */\n      dup5\n        /* \"#utility.yul\":22261:22283   */\n      and\n        /* \"#utility.yul\":22311:22348   */\n      tag_509\n        /* \"#utility.yul\":22343:22347   */\n      dup7\n        /* \"#utility.yul\":22311:22348   */\n      tag_272\n      jump\t// in\n    tag_509:\n        /* \"#utility.yul\":22370:22371   */\n      0x00\n        /* \"#utility.yul\":22384:22592   */\n    tag_510:\n        /* \"#utility.yul\":22398:22405   */\n      dup3\n        /* \"#utility.yul\":22395:22396   */\n      dup2\n        /* \"#utility.yul\":22392:22406   */\n      lt\n        /* \"#utility.yul\":22384:22592   */\n      iszero\n      tag_512\n      jumpi\n        /* \"#utility.yul\":22477:22486   */\n      dup5\n        /* \"#utility.yul\":22472:22475   */\n      dup10\n        /* \"#utility.yul\":22468:22487   */\n      add\n        /* \"#utility.yul\":22462:22488   */\n      mload\n        /* \"#utility.yul\":22454:22460   */\n      dup3\n        /* \"#utility.yul\":22447:22489   */\n      sstore\n        /* \"#utility.yul\":22528:22529   */\n      0x01\n        /* \"#utility.yul\":22520:22526   */\n      dup3\n        /* \"#utility.yul\":22516:22530   */\n      add\n        /* \"#utility.yul\":22506:22530   */\n      swap2\n      pop\n        /* \"#utility.yul\":22575:22577   */\n      0x20\n        /* \"#utility.yul\":22564:22573   */\n      dup6\n        /* \"#utility.yul\":22560:22578   */\n      add\n        /* \"#utility.yul\":22547:22578   */\n      swap5\n      pop\n        /* \"#utility.yul\":22421:22425   */\n      0x20\n        /* \"#utility.yul\":22418:22419   */\n      dup2\n        /* \"#utility.yul\":22414:22426   */\n      add\n        /* \"#utility.yul\":22409:22426   */\n      swap1\n      pop\n        /* \"#utility.yul\":22384:22592   */\n      jump(tag_510)\n    tag_512:\n        /* \"#utility.yul\":22620:22626   */\n      dup7\n        /* \"#utility.yul\":22611:22618   */\n      dup4\n        /* \"#utility.yul\":22608:22627   */\n      lt\n        /* \"#utility.yul\":22605:22784   */\n      iszero\n      tag_513\n      jumpi\n        /* \"#utility.yul\":22678:22687   */\n      dup5\n        /* \"#utility.yul\":22673:22676   */\n      dup10\n        /* \"#utility.yul\":22669:22688   */\n      add\n        /* \"#utility.yul\":22663:22689   */\n      mload\n        /* \"#utility.yul\":22721:22769   */\n      tag_514\n        /* \"#utility.yul\":22763:22767   */\n      0x1f\n        /* \"#utility.yul\":22755:22761   */\n      dup10\n        /* \"#utility.yul\":22751:22768   */\n      and\n        /* \"#utility.yul\":22740:22749   */\n      dup3\n        /* \"#utility.yul\":22721:22769   */\n      tag_286\n      jump\t// in\n    tag_514:\n        /* \"#utility.yul\":22713:22719   */\n      dup4\n        /* \"#utility.yul\":22706:22770   */\n      sstore\n        /* \"#utility.yul\":22628:22784   */\n      pop\n        /* \"#utility.yul\":22605:22784   */\n    tag_513:\n        /* \"#utility.yul\":22830:22831   */\n      0x01\n        /* \"#utility.yul\":22826:22827   */\n      0x02\n        /* \"#utility.yul\":22818:22824   */\n      dup9\n        /* \"#utility.yul\":22814:22828   */\n      mul\n        /* \"#utility.yul\":22810:22832   */\n      add\n        /* \"#utility.yul\":22804:22808   */\n      dup9\n        /* \"#utility.yul\":22797:22833   */\n      sstore\n        /* \"#utility.yul\":22232:22843   */\n      pop\n      pop\n      pop\n        /* \"#utility.yul\":22195:23082   */\n    tag_505:\n      pop\n        /* \"#utility.yul\":21785:23088   */\n      pop\n      pop\n      pop\n        /* \"#utility.yul\":21693:23088   */\n      pop\n      pop\n      jump\t// out\n        /* \"#utility.yul\":23094:23809   */\n    tag_79:\n        /* \"#utility.yul\":23303:23307   */\n      0x00\n        /* \"#utility.yul\":23341:23343   */\n      0x60\n        /* \"#utility.yul\":23330:23339   */\n      dup3\n        /* \"#utility.yul\":23326:23344   */\n      add\n        /* \"#utility.yul\":23318:23344   */\n      swap1\n      pop\n        /* \"#utility.yul\":23390:23399   */\n      dup2\n        /* \"#utility.yul\":23384:23388   */\n      dup2\n        /* \"#utility.yul\":23380:23400   */\n      sub\n        /* \"#utility.yul\":23376:23377   */\n      0x00\n        /* \"#utility.yul\":23365:23374   */\n      dup4\n        /* \"#utility.yul\":23361:23378   */\n      add\n        /* \"#utility.yul\":23354:23401   */\n      mstore\n        /* \"#utility.yul\":23418:23496   */\n      tag_516\n        /* \"#utility.yul\":23491:23495   */\n      dup2\n        /* \"#utility.yul\":23482:23488   */\n      dup7\n        /* \"#utility.yul\":23418:23496   */\n      tag_251\n      jump\t// in\n    tag_516:\n        /* \"#utility.yul\":23410:23496   */\n      swap1\n      pop\n        /* \"#utility.yul\":23543:23552   */\n      dup2\n        /* \"#utility.yul\":23537:23541   */\n      dup2\n        /* \"#utility.yul\":23533:23553   */\n      sub\n        /* \"#utility.yul\":23528:23530   */\n      0x20\n        /* \"#utility.yul\":23517:23526   */\n      dup4\n        /* \"#utility.yul\":23513:23531   */\n      add\n        /* \"#utility.yul\":23506:23554   */\n      mstore\n        /* \"#utility.yul\":23571:23649   */\n      tag_517\n        /* \"#utility.yul\":23644:23648   */\n      dup2\n        /* \"#utility.yul\":23635:23641   */\n      dup6\n        /* \"#utility.yul\":23571:23649   */\n      tag_251\n      jump\t// in\n    tag_517:\n        /* \"#utility.yul\":23563:23649   */\n      swap1\n      pop\n        /* \"#utility.yul\":23696:23705   */\n      dup2\n        /* \"#utility.yul\":23690:23694   */\n      dup2\n        /* \"#utility.yul\":23686:23706   */\n      sub\n        /* \"#utility.yul\":23681:23683   */\n      0x40\n        /* \"#utility.yul\":23670:23679   */\n      dup4\n        /* \"#utility.yul\":23666:23684   */\n      add\n        /* \"#utility.yul\":23659:23707   */\n      mstore\n        /* \"#utility.yul\":23724:23802   */\n      tag_518\n        /* \"#utility.yul\":23797:23801   */\n      dup2\n        /* \"#utility.yul\":23788:23794   */\n      dup5\n        /* \"#utility.yul\":23724:23802   */\n      tag_251\n      jump\t// in\n    tag_518:\n        /* \"#utility.yul\":23716:23802   */\n      swap1\n      pop\n        /* \"#utility.yul\":23094:23809   */\n      swap5\n      swap4\n      pop\n      pop\n      pop\n      pop\n      jump\t// out\n        /* \"#utility.yul\":23815:24046   */\n    tag_288:\n        /* \"#utility.yul\":23955:23989   */\n      0x56616c6964207472616e73666572206265747765656e20726567697374657265\n        /* \"#utility.yul\":23951:23952   */\n      0x00\n        /* \"#utility.yul\":23943:23949   */\n      dup3\n        /* \"#utility.yul\":23939:23953   */\n      add\n        /* \"#utility.yul\":23932:23990   */\n      mstore\n        /* \"#utility.yul\":24024:24038   */\n      0x6420656e7469746965733a200000000000000000000000000000000000000000\n        /* \"#utility.yul\":24019:24021   */\n      0x20\n        /* \"#utility.yul\":24011:24017   */\n      dup3\n        /* \"#utility.yul\":24007:24022   */\n      add\n        /* \"#utility.yul\":24000:24039   */\n      mstore\n        /* \"#utility.yul\":23815:24046   */\n      pop\n      jump\t// out\n        /* \"#utility.yul\":24052:24454   */\n    tag_289:\n        /* \"#utility.yul\":24212:24215   */\n      0x00\n        /* \"#utility.yul\":24233:24318   */\n      tag_521\n        /* \"#utility.yul\":24315:24317   */\n      0x2c\n        /* \"#utility.yul\":24310:24313   */\n      dup4\n        /* \"#utility.yul\":24233:24318   */\n      tag_254\n      jump\t// in\n    tag_521:\n        /* \"#utility.yul\":24226:24318   */\n      swap2\n      pop\n        /* \"#utility.yul\":24327:24420   */\n      tag_522\n        /* \"#utility.yul\":24416:24419   */\n      dup3\n        /* \"#utility.yul\":24327:24420   */\n      tag_288\n      jump\t// in\n    tag_522:\n        /* \"#utility.yul\":24445:24447   */\n      0x2c\n        /* \"#utility.yul\":24440:24443   */\n      dup3\n        /* \"#utility.yul\":24436:24448   */\n      add\n        /* \"#utility.yul\":24429:24448   */\n      swap1\n      pop\n        /* \"#utility.yul\":24052:24454   */\n      swap2\n      swap1\n      pop\n      jump\t// out\n        /* \"#utility.yul\":24484:25358   */\n    tag_290:\n        /* \"#utility.yul\":24587:24590   */\n      0x00\n        /* \"#utility.yul\":24624:24629   */\n      dup2\n        /* \"#utility.yul\":24618:24630   */\n      sload\n        /* \"#utility.yul\":24653:24689   */\n      tag_524\n        /* \"#utility.yul\":24679:24688   */\n      dup2\n        /* \"#utility.yul\":24653:24689   */\n      tag_82\n      jump\t// in\n    tag_524:\n        /* \"#utility.yul\":24705:24794   */\n      tag_525\n        /* \"#utility.yul\":24787:24793   */\n      dup2\n        /* \"#utility.yul\":24782:24785   */\n      dup7\n        /* \"#utility.yul\":24705:24794   */\n      tag_254\n      jump\t// in\n    tag_525:\n        /* \"#utility.yul\":24698:24794   */\n      swap5\n      pop\n        /* \"#utility.yul\":24825:24826   */\n      0x01\n        /* \"#utility.yul\":24814:24823   */\n      dup3\n        /* \"#utility.yul\":24810:24827   */\n      and\n        /* \"#utility.yul\":24841:24842   */\n      0x00\n        /* \"#utility.yul\":24836:25002   */\n      dup2\n      eq\n      tag_527\n      jumpi\n        /* \"#utility.yul\":25016:25017   */\n      0x01\n        /* \"#utility.yul\":25011:25352   */\n      dup2\n      eq\n      tag_528\n      jumpi\n        /* \"#utility.yul\":24803:25352   */\n      jump(tag_526)\n        /* \"#utility.yul\":24836:25002   */\n    tag_527:\n        /* \"#utility.yul\":24920:24924   */\n      0xff\n        /* \"#utility.yul\":24916:24925   */\n      not\n        /* \"#utility.yul\":24905:24914   */\n      dup4\n        /* \"#utility.yul\":24901:24926   */\n      and\n        /* \"#utility.yul\":24896:24899   */\n      dup7\n        /* \"#utility.yul\":24889:24927   */\n      mstore\n        /* \"#utility.yul\":24982:24988   */\n      dup2\n        /* \"#utility.yul\":24975:24989   */\n      iszero\n        /* \"#utility.yul\":24968:24990   */\n      iszero\n        /* \"#utility.yul\":24960:24966   */\n      dup3\n        /* \"#utility.yul\":24956:24991   */\n      mul\n        /* \"#utility.yul\":24951:24954   */\n      dup7\n        /* \"#utility.yul\":24947:24992   */\n      add\n        /* \"#utility.yul\":24940:24992   */\n      swap4\n      pop\n        /* \"#utility.yul\":24836:25002   */\n      jump(tag_526)\n        /* \"#utility.yul\":25011:25352   */\n    tag_528:\n        /* \"#utility.yul\":25078:25116   */\n      tag_529\n        /* \"#utility.yul\":25110:25115   */\n      dup6\n        /* \"#utility.yul\":25078:25116   */\n      tag_272\n      jump\t// in\n    tag_529:\n        /* \"#utility.yul\":25138:25139   */\n      0x00\n        /* \"#utility.yul\":25152:25306   */\n    tag_530:\n        /* \"#utility.yul\":25166:25172   */\n      dup4\n        /* \"#utility.yul\":25163:25164   */\n      dup2\n        /* \"#utility.yul\":25160:25173   */\n      lt\n        /* \"#utility.yul\":25152:25306   */\n      iszero\n      tag_532\n      jumpi\n        /* \"#utility.yul\":25240:25247   */\n      dup2\n        /* \"#utility.yul\":25234:25248   */\n      sload\n        /* \"#utility.yul\":25230:25231   */\n      dup2\n        /* \"#utility.yul\":25225:25228   */\n      dup10\n        /* \"#utility.yul\":25221:25232   */\n      add\n        /* \"#utility.yul\":25214:25249   */\n      mstore\n        /* \"#utility.yul\":25290:25291   */\n      0x01\n        /* \"#utility.yul\":25281:25288   */\n      dup3\n        /* \"#utility.yul\":25277:25292   */\n      add\n        /* \"#utility.yul\":25266:25292   */\n      swap2\n      pop\n        /* \"#utility.yul\":25188:25192   */\n      0x20\n        /* \"#utility.yul\":25185:25186   */\n      dup2\n        /* \"#utility.yul\":25181:25193   */\n      add\n        /* \"#utility.yul\":25176:25193   */\n      swap1\n      pop\n        /* \"#utility.yul\":25152:25306   */\n      jump(tag_530)\n    tag_532:\n        /* \"#utility.yul\":25335:25341   */\n      dup4\n        /* \"#utility.yul\":25330:25333   */\n      dup9\n        /* \"#utility.yul\":25326:25342   */\n      add\n        /* \"#utility.yul\":25319:25342   */\n      swap6\n      pop\n        /* \"#utility.yul\":25018:25352   */\n      pop\n      pop\n        /* \"#utility.yul\":24803:25352   */\n    tag_526:\n      pop\n        /* \"#utility.yul\":24591:25358   */\n      pop\n      pop\n        /* \"#utility.yul\":24484:25358   */\n      swap3\n      swap2\n      pop\n      pop\n      jump\t// out\n        /* \"#utility.yul\":25364:25518   */\n    tag_291:\n        /* \"#utility.yul\":25504:25510   */\n      0x20746f2000000000000000000000000000000000000000000000000000000000\n        /* \"#utility.yul\":25500:25501   */\n      0x00\n        /* \"#utility.yul\":25492:25498   */\n      dup3\n        /* \"#utility.yul\":25488:25502   */\n      add\n        /* \"#utility.yul\":25481:25511   */\n      mstore\n        /* \"#utility.yul\":25364:25518   */\n      pop\n      jump\t// out\n        /* \"#utility.yul\":25524:25924   */\n    tag_292:\n        /* \"#utility.yul\":25684:25687   */\n      0x00\n        /* \"#utility.yul\":25705:25789   */\n      tag_535\n        /* \"#utility.yul\":25787:25788   */\n      0x04\n        /* \"#utility.yul\":25782:25785   */\n      dup4\n        /* \"#utility.yul\":25705:25789   */\n      tag_254\n      jump\t// in\n    tag_535:\n        /* \"#utility.yul\":25698:25789   */\n      swap2\n      pop\n        /* \"#utility.yul\":25798:25891   */\n      tag_536\n        /* \"#utility.yul\":25887:25890   */\n      dup3\n        /* \"#utility.yul\":25798:25891   */\n      tag_291\n      jump\t// in\n    tag_536:\n        /* \"#utility.yul\":25916:25917   */\n      0x04\n        /* \"#utility.yul\":25911:25914   */\n      dup3\n        /* \"#utility.yul\":25907:25918   */\n      add\n        /* \"#utility.yul\":25900:25918   */\n      swap1\n      pop\n        /* \"#utility.yul\":25524:25924   */\n      swap2\n      swap1\n      pop\n      jump\t// out\n        /* \"#utility.yul\":25930:26885   */\n    tag_108:\n        /* \"#utility.yul\":26306:26309   */\n      0x00\n        /* \"#utility.yul\":26328:26476   */\n      tag_538\n        /* \"#utility.yul\":26472:26475   */\n      dup3\n        /* \"#utility.yul\":26328:26476   */\n      tag_289\n      jump\t// in\n    tag_538:\n        /* \"#utility.yul\":26321:26476   */\n      swap2\n      pop\n        /* \"#utility.yul\":26493:26585   */\n      tag_539\n        /* \"#utility.yul\":26581:26584   */\n      dup3\n        /* \"#utility.yul\":26572:26578   */\n      dup6\n        /* \"#utility.yul\":26493:26585   */\n      tag_290\n      jump\t// in\n    tag_539:\n        /* \"#utility.yul\":26486:26585   */\n      swap2\n      pop\n        /* \"#utility.yul\":26602:26750   */\n      tag_540\n        /* \"#utility.yul\":26746:26749   */\n      dup3\n        /* \"#utility.yul\":26602:26750   */\n      tag_292\n      jump\t// in\n    tag_540:\n        /* \"#utility.yul\":26595:26750   */\n      swap2\n      pop\n        /* \"#utility.yul\":26767:26859   */\n      tag_541\n        /* \"#utility.yul\":26855:26858   */\n      dup3\n        /* \"#utility.yul\":26846:26852   */\n      dup5\n        /* \"#utility.yul\":26767:26859   */\n      tag_290\n      jump\t// in\n    tag_541:\n        /* \"#utility.yul\":26760:26859   */\n      swap2\n      pop\n        /* \"#utility.yul\":26876:26879   */\n      dup2\n        /* \"#utility.yul\":26869:26879   */\n      swap1\n      pop\n        /* \"#utility.yul\":25930:26885   */\n      swap4\n      swap3\n      pop\n      pop\n      pop\n      jump\t// out\n        /* \"#utility.yul\":26891:27009   */\n    tag_293:\n        /* \"#utility.yul\":26978:27002   */\n      tag_543\n        /* \"#utility.yul\":26996:27001   */\n      dup2\n        /* \"#utility.yul\":26978:27002   */\n      tag_241\n      jump\t// in\n    tag_543:\n        /* \"#utility.yul\":26973:26976   */\n      dup3\n        /* \"#utility.yul\":26966:27003   */\n      mstore\n        /* \"#utility.yul\":26891:27009   */\n      pop\n      pop\n      jump\t// out\n        /* \"#utility.yul\":27015:27647   */\n    tag_116:\n        /* \"#utility.yul\":27206:27210   */\n      0x00\n        /* \"#utility.yul\":27244:27247   */\n      0x80\n        /* \"#utility.yul\":27233:27242   */\n      dup3\n        /* \"#utility.yul\":27229:27248   */\n      add\n        /* \"#utility.yul\":27221:27248   */\n      swap1\n      pop\n        /* \"#utility.yul\":27258:27329   */\n      tag_545\n        /* \"#utility.yul\":27326:27327   */\n      0x00\n        /* \"#utility.yul\":27315:27324   */\n      dup4\n        /* \"#utility.yul\":27311:27328   */\n      add\n        /* \"#utility.yul\":27302:27308   */\n      dup8\n        /* \"#utility.yul\":27258:27329   */\n      tag_293\n      jump\t// in\n    tag_545:\n        /* \"#utility.yul\":27339:27411   */\n      tag_546\n        /* \"#utility.yul\":27407:27409   */\n      0x20\n        /* \"#utility.yul\":27396:27405   */\n      dup4\n        /* \"#utility.yul\":27392:27410   */\n      add\n        /* \"#utility.yul\":27383:27389   */\n      dup7\n        /* \"#utility.yul\":27339:27411   */\n      tag_293\n      jump\t// in\n    tag_546:\n        /* \"#utility.yul\":27421:27487   */\n      tag_547\n        /* \"#utility.yul\":27483:27485   */\n      0x40\n        /* \"#utility.yul\":27472:27481   */\n      dup4\n        /* \"#utility.yul\":27468:27486   */\n      add\n        /* \"#utility.yul\":27459:27465   */\n      dup6\n        /* \"#utility.yul\":27421:27487   */\n      tag_253\n      jump\t// in\n    tag_547:\n        /* \"#utility.yul\":27534:27543   */\n      dup2\n        /* \"#utility.yul\":27528:27532   */\n      dup2\n        /* \"#utility.yul\":27524:27544   */\n      sub\n        /* \"#utility.yul\":27519:27521   */\n      0x60\n        /* \"#utility.yul\":27508:27517   */\n      dup4\n        /* \"#utility.yul\":27504:27522   */\n      add\n        /* \"#utility.yul\":27497:27545   */\n      mstore\n        /* \"#utility.yul\":27562:27640   */\n      tag_548\n        /* \"#utility.yul\":27635:27639   */\n      dup2\n        /* \"#utility.yul\":27626:27632   */\n      dup5\n        /* \"#utility.yul\":27562:27640   */\n      tag_251\n      jump\t// in\n    tag_548:\n        /* \"#utility.yul\":27554:27640   */\n      swap1\n      pop\n        /* \"#utility.yul\":27015:27647   */\n      swap6\n      swap5\n      pop\n      pop\n      pop\n      pop\n      pop\n      jump\t// out\n        /* \"#utility.yul\":27653:27739   */\n    tag_294:\n        /* \"#utility.yul\":27688:27695   */\n      0x00\n        /* \"#utility.yul\":27728:27732   */\n      0xff\n        /* \"#utility.yul\":27721:27726   */\n      dup3\n        /* \"#utility.yul\":27717:27733   */\n      and\n        /* \"#utility.yul\":27706:27733   */\n      swap1\n      pop\n        /* \"#utility.yul\":27653:27739   */\n      swap2\n      swap1\n      pop\n      jump\t// out\n        /* \"#utility.yul\":27745:27925   */\n    tag_295:\n        /* \"#utility.yul\":27793:27870   */\n      0x4e487b7100000000000000000000000000000000000000000000000000000000\n        /* \"#utility.yul\":27790:27791   */\n      0x00\n        /* \"#utility.yul\":27783:27871   */\n      mstore\n        /* \"#utility.yul\":27890:27894   */\n      0x11\n        /* \"#utility.yul\":27887:27888   */\n      0x04\n        /* \"#utility.yul\":27880:27895   */\n      mstore\n        /* \"#utility.yul\":27914:27918   */\n      0x24\n        /* \"#utility.yul\":27911:27912   */\n      0x00\n        /* \"#utility.yul\":27904:27919   */\n      revert\n        /* \"#utility.yul\":27931:28119   */\n    tag_165:\n        /* \"#utility.yul\":27969:27972   */\n      0x00\n        /* \"#utility.yul\":27988:28006   */\n      tag_552\n        /* \"#utility.yul\":28004:28005   */\n      dup3\n        /* \"#utility.yul\":27988:28006   */\n      tag_294\n      jump\t// in\n    tag_552:\n        /* \"#utility.yul\":27983:28006   */\n      swap2\n      pop\n        /* \"#utility.yul\":28020:28038   */\n      tag_553\n        /* \"#utility.yul\":28036:28037   */\n      dup4\n        /* \"#utility.yul\":28020:28038   */\n      tag_294\n      jump\t// in\n    tag_553:\n        /* \"#utility.yul\":28015:28038   */\n      swap3\n      pop\n        /* \"#utility.yul\":28061:28062   */\n      dup3\n        /* \"#utility.yul\":28058:28059   */\n      dup3\n        /* \"#utility.yul\":28054:28063   */\n      add\n        /* \"#utility.yul\":28047:28063   */\n      swap1\n      pop\n        /* \"#utility.yul\":28084:28088   */\n      0xff\n        /* \"#utility.yul\":28079:28082   */\n      dup2\n        /* \"#utility.yul\":28076:28089   */\n      gt\n        /* \"#utility.yul\":28073:28112   */\n      iszero\n      tag_554\n      jumpi\n        /* \"#utility.yul\":28092:28110   */\n      tag_555\n      tag_295\n      jump\t// in\n    tag_555:\n        /* \"#utility.yul\":28073:28112   */\n    tag_554:\n        /* \"#utility.yul\":27931:28119   */\n      swap3\n      swap2\n      pop\n      pop\n      jump\t// out\n        /* \"#utility.yul\":28125:28287   */\n    tag_296:\n        /* \"#utility.yul\":28265:28279   */\n      0x496e76616c696420726f6c650000000000000000000000000000000000000000\n        /* \"#utility.yul\":28261:28262   */\n      0x00\n        /* \"#utility.yul\":28253:28259   */\n      dup3\n        /* \"#utility.yul\":28249:28263   */\n      add\n        /* \"#utility.yul\":28242:28280   */\n      mstore\n        /* \"#utility.yul\":28125:28287   */\n      pop\n      jump\t// out\n        /* \"#utility.yul\":28293:28659   */\n    tag_297:\n        /* \"#utility.yul\":28435:28438   */\n      0x00\n        /* \"#utility.yul\":28456:28523   */\n      tag_558\n        /* \"#utility.yul\":28520:28522   */\n      0x0c\n        /* \"#utility.yul\":28515:28518   */\n      dup4\n        /* \"#utility.yul\":28456:28523   */\n      tag_249\n      jump\t// in\n    tag_558:\n        /* \"#utility.yul\":28449:28523   */\n      swap2\n      pop\n        /* \"#utility.yul\":28532:28625   */\n      tag_559\n        /* \"#utility.yul\":28621:28624   */\n      dup3\n        /* \"#utility.yul\":28532:28625   */\n      tag_296\n      jump\t// in\n    tag_559:\n        /* \"#utility.yul\":28650:28652   */\n      0x20\n        /* \"#utility.yul\":28645:28648   */\n      dup3\n        /* \"#utility.yul\":28641:28653   */\n      add\n        /* \"#utility.yul\":28634:28653   */\n      swap1\n      pop\n        /* \"#utility.yul\":28293:28659   */\n      swap2\n      swap1\n      pop\n      jump\t// out\n        /* \"#utility.yul\":28665:29084   */\n    tag_204:\n        /* \"#utility.yul\":28831:28835   */\n      0x00\n        /* \"#utility.yul\":28869:28871   */\n      0x20\n        /* \"#utility.yul\":28858:28867   */\n      dup3\n        /* \"#utility.yul\":28854:28872   */\n      add\n        /* \"#utility.yul\":28846:28872   */\n      swap1\n      pop\n        /* \"#utility.yul\":28918:28927   */\n      dup2\n        /* \"#utility.yul\":28912:28916   */\n      dup2\n        /* \"#utility.yul\":28908:28928   */\n      sub\n        /* \"#utility.yul\":28904:28905   */\n      0x00\n        /* \"#utility.yul\":28893:28902   */\n      dup4\n        /* \"#utility.yul\":28889:28906   */\n      add\n        /* \"#utility.yul\":28882:28929   */\n      mstore\n        /* \"#utility.yul\":28946:29077   */\n      tag_561\n        /* \"#utility.yul\":29072:29076   */\n      dup2\n        /* \"#utility.yul\":28946:29077   */\n      tag_297\n      jump\t// in\n    tag_561:\n        /* \"#utility.yul\":28938:29077   */\n      swap1\n      pop\n        /* \"#utility.yul\":28665:29084   */\n      swap2\n      swap1\n      pop\n      jump\t// out\n        /* \"#utility.yul\":29090:29284   */\n    tag_211:\n        /* \"#utility.yul\":29130:29134   */\n      0x00\n        /* \"#utility.yul\":29150:29170   */\n      tag_563\n        /* \"#utility.yul\":29168:29169   */\n      dup3\n        /* \"#utility.yul\":29150:29170   */\n      tag_276\n      jump\t// in\n    tag_563:\n        /* \"#utility.yul\":29145:29170   */\n      swap2\n      pop\n        /* \"#utility.yul\":29184:29204   */\n      tag_564\n        /* \"#utility.yul\":29202:29203   */\n      dup4\n        /* \"#utility.yul\":29184:29204   */\n      tag_276\n      jump\t// in\n    tag_564:\n        /* \"#utility.yul\":29179:29204   */\n      swap3\n      pop\n        /* \"#utility.yul\":29228:29229   */\n      dup3\n        /* \"#utility.yul\":29225:29226   */\n      dup3\n        /* \"#utility.yul\":29221:29230   */\n      sub\n        /* \"#utility.yul\":29213:29230   */\n      swap1\n      pop\n        /* \"#utility.yul\":29252:29253   */\n      dup2\n        /* \"#utility.yul\":29246:29250   */\n      dup2\n        /* \"#utility.yul\":29243:29254   */\n      gt\n        /* \"#utility.yul\":29240:29277   */\n      iszero\n      tag_565\n      jumpi\n        /* \"#utility.yul\":29257:29275   */\n      tag_566\n      tag_295\n      jump\t// in\n    tag_566:\n        /* \"#utility.yul\":29240:29277   */\n    tag_565:\n        /* \"#utility.yul\":29090:29284   */\n      swap3\n      swap2\n      pop\n      pop\n      jump\t// out\n        /* \"#utility.yul\":29290:29481   */\n    tag_218:\n        /* \"#utility.yul\":29330:29333   */\n      0x00\n        /* \"#utility.yul\":29349:29369   */\n      tag_568\n        /* \"#utility.yul\":29367:29368   */\n      dup3\n        /* \"#utility.yul\":29349:29369   */\n      tag_276\n      jump\t// in\n    tag_568:\n        /* \"#utility.yul\":29344:29369   */\n      swap2\n      pop\n        /* \"#utility.yul\":29383:29403   */\n      tag_569\n        /* \"#utility.yul\":29401:29402   */\n      dup4\n        /* \"#utility.yul\":29383:29403   */\n      tag_276\n      jump\t// in\n    tag_569:\n        /* \"#utility.yul\":29378:29403   */\n      swap3\n      pop\n        /* \"#utility.yul\":29426:29427   */\n      dup3\n        /* \"#utility.yul\":29423:29424   */\n      dup3\n        /* \"#utility.yul\":29419:29428   */\n      add\n        /* \"#utility.yul\":29412:29428   */\n      swap1\n      pop\n        /* \"#utility.yul\":29447:29450   */\n      dup1\n        /* \"#utility.yul\":29444:29445   */\n      dup3\n        /* \"#utility.yul\":29441:29451   */\n      gt\n        /* \"#utility.yul\":29438:29474   */\n      iszero\n      tag_570\n      jumpi\n        /* \"#utility.yul\":29454:29472   */\n      tag_571\n      tag_295\n      jump\t// in\n    tag_571:\n        /* \"#utility.yul\":29438:29474   */\n    tag_570:\n        /* \"#utility.yul\":29290:29481   */\n      swap3\n      swap2\n      pop\n      pop\n      jump\t// out\n        /* \"#utility.yul\":29487:29720   */\n    tag_224:\n        /* \"#utility.yul\":29526:29529   */\n      0x00\n        /* \"#utility.yul\":29549:29573   */\n      tag_573\n        /* \"#utility.yul\":29567:29572   */\n      dup3\n        /* \"#utility.yul\":29549:29573   */\n      tag_276\n      jump\t// in\n    tag_573:\n        /* \"#utility.yul\":29540:29573   */\n      swap2\n      pop\n        /* \"#utility.yul\":29595:29661   */\n      0xffffffffffffffffffffffffffffffffffffffffffffffffffffffffffffffff\n        /* \"#utility.yul\":29588:29593   */\n      dup3\n        /* \"#utility.yul\":29585:29662   */\n      sub\n        /* \"#utility.yul\":29582:29685   */\n      tag_574\n      jumpi\n        /* \"#utility.yul\":29665:29683   */\n      tag_575\n      tag_295\n      jump\t// in\n    tag_575:\n        /* \"#utility.yul\":29582:29685   */\n    tag_574:\n        /* \"#utility.yul\":29712:29713   */\n      0x01\n        /* \"#utility.yul\":29705:29710   */\n      dup3\n        /* \"#utility.yul\":29701:29714   */\n      add\n        /* \"#utility.yul\":29694:29714   */\n      swap1\n      pop\n        /* \"#utility.yul\":29487:29720   */\n      swap2\n      swap1\n      pop\n      jump\t// out\n    stop\n    data_07ff0ded478beb10aaed377354358189bd4d367c3be67eef0f91006f56be62c8 496e76616c6964207472616e736665723a2053656e646572206973206e6f742061207265676973746572656420656e74697479\n    data_80f5648544ad854f91793f2c72972f2cffcf24435ac9b3c25a17a49813066691 496e76616c6964207472616e736665723a20426f74682073656e64657220616e6420726563656976657220617265206e6f74207265676973746572656420656e746974696573\n    data_b89408f4d1ac2c0fd0438d7cb7a312f36569b72991e611afa8ff497cecc6bd52 496e76616c6964207472616e736665723a205265636569766572206973206e6f742061207265676973746572656420656e74697479\n\n    auxdata: 0xa2646970667358221220524c08ce3042f7d9720324ac4af902cafa0bd910ea2306403e066e94cebb573e64736f6c634300081a0033\n}\n",
				"bytecode": {
					"linkReferences": {},
					"object": "60806040526040518060c001604052806040518060400160405280600681526020017f616e676f6c61000000000000000000000000000000000000000000000000000081525081526020016040518060400160405280601881526020017f63656e7472616c206166726963616e2072657075626c6963000000000000000081525081526020016040518060400160405280600581526020017f636f6e676f00000000000000000000000000000000000000000000000000000081525081526020016040518060400160405280600681526020017f6775696e6561000000000000000000000000000000000000000000000000000081525081526020016040518060400160405280600781526020017f6c6962657269610000000000000000000000000000000000000000000000000081525081526020016040518060400160405280600c81526020017f736965727261206c656f6e6500000000000000000000000000000000000000008152508152505f90600661017e929190610190565b5034801561018a575f80fd5b5061056b565b828054828255905f5260205f209081019282156101d6579160200282015b828111156101d55782518290816101c5919061049c565b50916020019190600101906101ae565b5b5090506101e391906101e7565b5090565b5b80821115610206575f81816101fd919061020a565b506001016101e8565b5090565b508054610216906102c6565b5f825580601f106102275750610244565b601f0160209004905f5260205f20908101906102439190610247565b5b50565b5b8082111561025e575f815f905550600101610248565b5090565b5f81519050919050565b7f4e487b71000000000000000000000000000000000000000000000000000000005f52604160045260245ffd5b7f4e487b71000000000000000000000000000000000000000000000000000000005f52602260045260245ffd5b5f60028204905060018216806102dd57607f821691505b6020821081036102f0576102ef610299565b5b50919050565b5f819050815f5260205f209050919050565b5f6020601f8301049050919050565b5f82821b905092915050565b5f600883026103527fffffffffffffffffffffffffffffffffffffffffffffffffffffffffffffffff82610317565b61035c8683610317565b95508019841693508086168417925050509392505050565b5f819050919050565b5f819050919050565b5f6103a061039b61039684610374565b61037d565b610374565b9050919050565b5f819050919050565b6103b983610386565b6103cd6103c5826103a7565b848454610323565b825550505050565b5f90565b6103e16103d5565b6103ec8184846103b0565b505050565b5b8181101561040f576104045f826103d9565b6001810190506103f2565b5050565b601f82111561045457610425816102f6565b61042e84610308565b8101602085101561043d578190505b61045161044985610308565b8301826103f1565b50505b505050565b5f82821c905092915050565b5f6104745f1984600802610459565b1980831691505092915050565b5f61048c8383610465565b9150826002028217905092915050565b6104a582610262565b67ffffffffffffffff8111156104be576104bd61026c565b5b6104c882546102c6565b6104d3828285610413565b5f60209050601f831160018114610504575f84156104f2578287015190505b6104fc8582610481565b865550610563565b601f198416610512866102f6565b5f5b8281101561053957848901518255600182019150602085019450602081019050610514565b868310156105565784890151610552601f891682610465565b8355505b6001600288020188555050505b505050505050565b6126fc806105785f395ff3fe608060405234801561000f575f80fd5b5060043610610055575f3560e01c806336335ae2146100595780633bd18a9e1461008957806340f385ff146100a55780636f475e7f146100d95780638579ea9b14610109575b5f80fd5b610073600480360381019061006e9190611808565b610139565b6040516100809190611936565b60405180910390f35b6100a3600480360381019061009e9190611956565b6101ef565b005b6100bf60048036038101906100ba9190611a54565b6105f7565b6040516100d0959493929190611af9565b60405180910390f35b6100f360048036038101906100ee9190611b66565b61089a565b6040516101009190611ba4565b60405180910390f35b610123600480360381019061011e9190611b66565b610945565b6040516101309190611ba4565b60405180910390f35b60605f61014583610b61565b90506002816040516101579190611bf7565b90815260200160405180910390208054806020026020016040519081016040528092919081815260200182805480156101e257602002820191905f5260205f20905b815f9054906101000a900473ffffffffffffffffffffffffffffffffffffffff1673ffffffffffffffffffffffffffffffffffffffff1681526020019060010190808311610199575b5050505050915050919050565b5f6101f983610b61565b905061020481610e3f565b610243576040517f08c379a000000000000000000000000000000000000000000000000000000000815260040161023a90611ca3565b60405180910390fd5b5f61024d8561106c565b905061025881611219565b15610298576040517f08c379a000000000000000000000000000000000000000000000000000000000815260040161028f90611d57565b60405180910390fd5b60015f3373ffffffffffffffffffffffffffffffffffffffff1673ffffffffffffffffffffffffffffffffffffffff1681526020019081526020015f206002015f9054906101000a900460ff1615610325576040517f08c379a000000000000000000000000000000000000000000000000000000000815260040161031c90611dbf565b60405180910390fd5b5f8390505f81511161036c576040517f08c379a000000000000000000000000000000000000000000000000000000000815260040161036390611e27565b60405180910390fd5b5f61037684611307565b9050807effffffffffffffffffffffffffffffffffffffffffffffffffffffffffffff1916825f815181106103ae576103ad611e45565b5b602001015160f81c60f81b7effffffffffffffffffffffffffffffffffffffffffffffffffffffffffffff19161481856040516020016103ef929190611f51565b6040516020818303038152906040529061043f576040517f08c379a00000000000000000000000000000000000000000000000000000000081526004016104369190611f8e565b60405180910390fd5b506040518060a001604052808981526020018881526020016001151581526020018681526020018581525060015f3373ffffffffffffffffffffffffffffffffffffffff1673ffffffffffffffffffffffffffffffffffffffff1681526020019081526020015f205f820151815f0190816104ba91906121b1565b5060208201518160010190816104d091906121b1565b506040820151816002015f6101000a81548160ff021916908315150217905550606082015181600301908161050591906121b1565b50608082015181600401908161051b91906121b1565b5090505060028460405161052f9190611bf7565b908152602001604051809103902033908060018154018082558091505060019003905f5260205f20015f9091909190916101000a81548173ffffffffffffffffffffffffffffffffffffffff021916908373ffffffffffffffffffffffffffffffffffffffff1602179055503373ffffffffffffffffffffffffffffffffffffffff167fca394e3b41e2aa37469125c136278e21cebaf3ca7e3fdfc9d07c64740a292ff58986886040516105e593929190612280565b60405180910390a25050505050505050565b6060805f6060805f60015f8873ffffffffffffffffffffffffffffffffffffffff1673ffffffffffffffffffffffffffffffffffffffff1681526020019081526020015f209050805f0181600101826002015f9054906101000a900460ff16836003018460040184805461066a90611fdb565b80601f016020809104026020016040519081016040528092919081815260200182805461069690611fdb565b80156106e15780601f106106b8576101008083540402835291602001916106e1565b820191905f5260205f20905b8154815290600101906020018083116106c457829003601f168201915b505050505094508380546106f490611fdb565b80601f016020809104026020016040519081016040528092919081815260200182805461072090611fdb565b801561076b5780601f106107425761010080835404028352916020019161076b565b820191905f5260205f20905b81548152906001019060200180831161074e57829003601f168201915b5050505050935081805461077e90611fdb565b80601f01602080910402602001604051908101604052809291908181526020018280546107aa90611fdb565b80156107f55780601f106107cc576101008083540402835291602001916107f5565b820191905f5260205f20905b8154815290600101906020018083116107d857829003601f168201915b5050505050915080805461080890611fdb565b80601f016020809104026020016040519081016040528092919081815260200182805461083490611fdb565b801561087f5780601f106108565761010080835404028352916020019161087f565b820191905f5260205f20905b81548152906001019060200180831161086257829003601f168201915b50505050509050955095509550955095505091939590929450565b5f60015f8473ffffffffffffffffffffffffffffffffffffffff1673ffffffffffffffffffffffffffffffffffffffff1681526020019081526020015f206002015f9054906101000a900460ff16801561093d575060015f8373ffffffffffffffffffffffffffffffffffffffff1673ffffffffffffffffffffffffffffffffffffffff1681526020019081526020015f206002015f9054906101000a900460ff165b905092915050565b5f8060015f8573ffffffffffffffffffffffffffffffffffffffff1673ffffffffffffffffffffffffffffffffffffffff1681526020019081526020015f206002015f9054906101000a900460ff1690505f60015f8573ffffffffffffffffffffffffffffffffffffffff1673ffffffffffffffffffffffffffffffffffffffff1681526020019081526020015f206002015f9054906101000a900460ff16905060605f8380156109f35750825b15610aa3576001905060015f8873ffffffffffffffffffffffffffffffffffffffff1673ffffffffffffffffffffffffffffffffffffffff1681526020019081526020015f2060040160015f8873ffffffffffffffffffffffffffffffffffffffff1673ffffffffffffffffffffffffffffffffffffffff1681526020019081526020015f20600401604051602001610a8d929190612404565b6040516020818303038152906040529150610b17565b83158015610aaf575082155b15610ad45760405180608001604052806046815260200161264c604691399150610b16565b83610af957604051806060016040528060338152602001612619603391399150610b15565b6040518060600160405280603581526020016126926035913991505b5b5b7fb895a9794919be34af98df51f4a6dcaad7ee6b342aa6d6ae5d0db8daf23c085987878385604051610b4c949392919061244c565b60405180910390a18094505050505092915050565b60605f610b6d8361106c565b604051602001610b7d9190611bf7565b604051602081830303815290604052805190602001209050610bd36040518060400160405280600581526020017f4d696e657200000000000000000000000000000000000000000000000000000081525061106c565b604051602001610be39190611bf7565b604051602081830303815290604052805190602001208103610c3d576040518060400160405280600581526020017f4d696e6572000000000000000000000000000000000000000000000000000000815250915050610e3a565b610c7b6040518060400160405280600c81526020017f4d616e756661637475726572000000000000000000000000000000000000000081525061106c565b604051602001610c8b9190611bf7565b604051602081830303815290604052805190602001208103610ce5576040518060400160405280600c81526020017f4d616e7566616374757265720000000000000000000000000000000000000000815250915050610e3a565b610d236040518060400160405280600981526020017f436572746966696572000000000000000000000000000000000000000000000081525061106c565b604051602001610d339190611bf7565b604051602081830303815290604052805190602001208103610d8d576040518060400160405280600981526020017f4365727469666965720000000000000000000000000000000000000000000000815250915050610e3a565b610dcb6040518060400160405280600881526020017f52657461696c657200000000000000000000000000000000000000000000000081525061106c565b604051602001610ddb9190611bf7565b604051602081830303815290604052805190602001208103610e35576040518060400160405280600881526020017f52657461696c6572000000000000000000000000000000000000000000000000815250915050610e3a565b829150505b919050565b5f6040518060400160405280600581526020017f4d696e6572000000000000000000000000000000000000000000000000000000815250604051602001610e869190611bf7565b6040516020818303038152906040528051906020012082604051602001610ead9190611bf7565b604051602081830303815290604052805190602001201480610f4f57506040518060400160405280600c81526020017f4d616e7566616374757265720000000000000000000000000000000000000000815250604051602001610f109190611bf7565b6040516020818303038152906040528051906020012082604051602001610f379190611bf7565b60405160208183030381529060405280519060200120145b80610fda57506040518060400160405280600981526020017f4365727469666965720000000000000000000000000000000000000000000000815250604051602001610f9b9190611bf7565b6040516020818303038152906040528051906020012082604051602001610fc29190611bf7565b60405160208183030381529060405280519060200120145b8061106557506040518060400160405280600881526020017f52657461696c65720000000000000000000000000000000000000000000000008152506040516020016110269190611bf7565b604051602081830303815290604052805190602001208260405160200161104d9190611bf7565b60405160208183030381529060405280519060200120145b9050919050565b60605f8290505f815167ffffffffffffffff81111561108e5761108d6116e4565b5b6040519080825280601f01601f1916602001820160405280156110c05781602001600182028036833780820191505090505b5090505f5b825181101561120e5760418382815181106110e3576110e2611e45565b5b602001015160f81c60f81b60f81c60ff16101580156111265750605a83828151811061111257611111611e45565b5b602001015160f81c60f81b60f81c60ff1611155b156111a15760208382815181106111405761113f611e45565b5b602001015160f81c60f81b60f81c61115891906124cf565b60f81b82828151811061116e5761116d611e45565b5b60200101907effffffffffffffffffffffffffffffffffffffffffffffffffffffffffffff191690815f1a905350611201565b8281815181106111b4576111b3611e45565b5b602001015160f81c60f81b8282815181106111d2576111d1611e45565b5b60200101907effffffffffffffffffffffffffffffffffffffffffffffffffffffffffffff191690815f1a9053505b80806001019150506110c5565b508092505050919050565b5f806112248361106c565b90505f5b5f805490508110156112fc576112df825f838154811061124b5761124a611e45565b5b905f5260205f2001805461125e90611fdb565b80601f016020809104026020016040519081016040528092919081815260200182805461128a90611fdb565b80156112d55780601f106112ac576101008083540402835291602001916112d5565b820191905f5260205f20905b8154815290600101906020018083116112b857829003601f168201915b505050505061159e565b156112ef57600192505050611302565b8080600101915050611228565b505f9150505b919050565b5f808260405160200161131a9190611bf7565b6040516020818303038152906040528051906020012090506040518060400160405280600581526020017f4d696e65720000000000000000000000000000000000000000000000000000008152506040516020016113789190611bf7565b6040516020818303038152906040528051906020012081036113bd577f6100000000000000000000000000000000000000000000000000000000000000915050611599565b6040518060400160405280600c81526020017f4d616e75666163747572657200000000000000000000000000000000000000008152506040516020016114039190611bf7565b604051602081830303815290604052805190602001208103611448577f6200000000000000000000000000000000000000000000000000000000000000915050611599565b6040518060400160405280600981526020017f436572746966696572000000000000000000000000000000000000000000000081525060405160200161148e9190611bf7565b6040516020818303038152906040528051906020012081036114d3577f6300000000000000000000000000000000000000000000000000000000000000915050611599565b6040518060400160405280600881526020017f52657461696c65720000000000000000000000000000000000000000000000008152506040516020016115199190611bf7565b60405160208183030381529060405280519060200120810361155e577f6400000000000000000000000000000000000000000000000000000000000000915050611599565b6040517f08c379a00000000000000000000000000000000000000000000000000000000081526004016115909061254d565b60405180910390fd5b919050565b5f808390505f8390508151815111156115bb575f925050506116b5565b5f5b815183516115cb919061256b565b81116116ae575f600190505f5b8351811015611686578381815181106115f4576115f3611e45565b5b602001015160f81c60f81b7effffffffffffffffffffffffffffffffffffffffffffffffffffffffffffff191685828561162e919061259e565b8151811061163f5761163e611e45565b5b602001015160f81c60f81b7effffffffffffffffffffffffffffffffffffffffffffffffffffffffffffff191614611679575f9150611686565b80806001019150506115d8565b50801561169a5760019450505050506116b5565b5080806116a6906125d1565b9150506115bd565b505f925050505b92915050565b5f604051905090565b5f80fd5b5f80fd5b5f80fd5b5f80fd5b5f601f19601f8301169050919050565b7f4e487b71000000000000000000000000000000000000000000000000000000005f52604160045260245ffd5b61171a826116d4565b810181811067ffffffffffffffff82111715611739576117386116e4565b5b80604052505050565b5f61174b6116bb565b90506117578282611711565b919050565b5f67ffffffffffffffff821115611776576117756116e4565b5b61177f826116d4565b9050602081019050919050565b828183375f83830152505050565b5f6117ac6117a78461175c565b611742565b9050828152602081018484840111156117c8576117c76116d0565b5b6117d384828561178c565b509392505050565b5f82601f8301126117ef576117ee6116cc565b5b81356117ff84826020860161179a565b91505092915050565b5f6020828403121561181d5761181c6116c4565b5b5f82013567ffffffffffffffff81111561183a576118396116c8565b5b611846848285016117db565b91505092915050565b5f81519050919050565b5f82825260208201905092915050565b5f819050602082019050919050565b5f73ffffffffffffffffffffffffffffffffffffffff82169050919050565b5f6118a182611878565b9050919050565b6118b181611897565b82525050565b5f6118c283836118a8565b60208301905092915050565b5f602082019050919050565b5f6118e48261184f565b6118ee8185611859565b93506118f983611869565b805f5b8381101561192957815161191088826118b7565b975061191b836118ce565b9250506001810190506118fc565b5085935050505092915050565b5f6020820190508181035f83015261194e81846118da565b905092915050565b5f805f806080858703121561196e5761196d6116c4565b5b5f85013567ffffffffffffffff81111561198b5761198a6116c8565b5b611997878288016117db565b945050602085013567ffffffffffffffff8111156119b8576119b76116c8565b5b6119c4878288016117db565b935050604085013567ffffffffffffffff8111156119e5576119e46116c8565b5b6119f1878288016117db565b925050606085013567ffffffffffffffff811115611a1257611a116116c8565b5b611a1e878288016117db565b91505092959194509250565b611a3381611897565b8114611a3d575f80fd5b50565b5f81359050611a4e81611a2a565b92915050565b5f60208284031215611a6957611a686116c4565b5b5f611a7684828501611a40565b91505092915050565b5f81519050919050565b5f82825260208201905092915050565b8281835e5f83830152505050565b5f611ab182611a7f565b611abb8185611a89565b9350611acb818560208601611a99565b611ad4816116d4565b840191505092915050565b5f8115159050919050565b611af381611adf565b82525050565b5f60a0820190508181035f830152611b118188611aa7565b90508181036020830152611b258187611aa7565b9050611b346040830186611aea565b8181036060830152611b468185611aa7565b90508181036080830152611b5a8184611aa7565b90509695505050505050565b5f8060408385031215611b7c57611b7b6116c4565b5b5f611b8985828601611a40565b9250506020611b9a85828601611a40565b9150509250929050565b5f602082019050611bb75f830184611aea565b92915050565b5f81905092915050565b5f611bd182611a7f565b611bdb8185611bbd565b9350611beb818560208601611a99565b80840191505092915050565b5f611c028284611bc7565b915081905092915050565b7f496e76616c696420726f6c652e204d757374206265204d696e65722c204d616e5f8201527f7566616374757265722c204365727469666965722c206f722052657461696c6560208201527f7200000000000000000000000000000000000000000000000000000000000000604082015250565b5f611c8d604183611a89565b9150611c9882611c0d565b606082019050919050565b5f6020820190508181035f830152611cba81611c81565b9050919050565b7f526567697374726174696f6e2072656a65637465643a204c6f636174696f6e205f8201527f697320696e206120636f6e666c696374207a6f6e652062616e6e65642062792060208201527f746865204b696d6265726c65792050726f636573730000000000000000000000604082015250565b5f611d41605583611a89565b9150611d4c82611cc1565b606082019050919050565b5f6020820190508181035f830152611d6e81611d35565b9050919050565b7f456e7469747920616c72656164792072656769737465726564000000000000005f82015250565b5f611da9601983611a89565b9150611db482611d75565b602082019050919050565b5f6020820190508181035f830152611dd681611d9d565b9050919050565b7f4c6963656e7365206e756d6265722063616e6e6f7420626520656d70747900005f82015250565b5f611e11601e83611a89565b9150611e1c82611ddd565b602082019050919050565b5f6020820190508181035f830152611e3e81611e05565b9050919050565b7f4e487b71000000000000000000000000000000000000000000000000000000005f52603260045260245ffd5b7f4c6963656e7365206d75737420737461727420776974682027000000000000005f82015250565b5f611ea6601983611bbd565b9150611eb182611e72565b601982019050919050565b5f7fff0000000000000000000000000000000000000000000000000000000000000082169050919050565b5f819050919050565b611f01611efc82611ebc565b611ee7565b82525050565b7f2720666f722000000000000000000000000000000000000000000000000000005f82015250565b5f611f3b600683611bbd565b9150611f4682611f07565b600682019050919050565b5f611f5b82611e9a565b9150611f678285611ef0565b600182019150611f7682611f2f565b9150611f828284611bc7565b91508190509392505050565b5f6020820190508181035f830152611fa68184611aa7565b905092915050565b7f4e487b71000000000000000000000000000000000000000000000000000000005f52602260045260245ffd5b5f6002820490506001821680611ff257607f821691505b60208210810361200557612004611fae565b5b50919050565b5f819050815f5260205f209050919050565b5f6020601f8301049050919050565b5f82821b905092915050565b5f600883026120677fffffffffffffffffffffffffffffffffffffffffffffffffffffffffffffffff8261202c565b612071868361202c565b95508019841693508086168417925050509392505050565b5f819050919050565b5f819050919050565b5f6120b56120b06120ab84612089565b612092565b612089565b9050919050565b5f819050919050565b6120ce8361209b565b6120e26120da826120bc565b848454612038565b825550505050565b5f90565b6120f66120ea565b6121018184846120c5565b505050565b5b81811015612124576121195f826120ee565b600181019050612107565b5050565b601f8211156121695761213a8161200b565b6121438461201d565b81016020851015612152578190505b61216661215e8561201d565b830182612106565b50505b505050565b5f82821c905092915050565b5f6121895f198460080261216e565b1980831691505092915050565b5f6121a1838361217a565b9150826002028217905092915050565b6121ba82611a7f565b67ffffffffffffffff8111156121d3576121d26116e4565b5b6121dd8254611fdb565b6121e8828285612128565b5f60209050601f831160018114612219575f8415612207578287015190505b6122118582612196565b865550612278565b601f1984166122278661200b565b5f5b8281101561224e57848901518255600182019150602085019450602081019050612229565b8683101561226b5784890151612267601f89168261217a565b8355505b6001600288020188555050505b505050505050565b5f6060820190508181035f8301526122988186611aa7565b905081810360208301526122ac8185611aa7565b905081810360408301526122c08184611aa7565b9050949350505050565b7f56616c6964207472616e73666572206265747765656e207265676973746572655f8201527f6420656e7469746965733a200000000000000000000000000000000000000000602082015250565b5f612324602c83611bbd565b915061232f826122ca565b602c82019050919050565b5f815461234681611fdb565b6123508186611bbd565b9450600182165f811461236a576001811461237f576123b1565b60ff19831686528115158202860193506123b1565b6123888561200b565b5f5b838110156123a95781548189015260018201915060208101905061238a565b838801955050505b50505092915050565b7f20746f20000000000000000000000000000000000000000000000000000000005f82015250565b5f6123ee600483611bbd565b91506123f9826123ba565b600482019050919050565b5f61240e82612318565b915061241a828561233a565b9150612425826123e2565b9150612431828461233a565b91508190509392505050565b61244681611897565b82525050565b5f60808201905061245f5f83018761243d565b61246c602083018661243d565b6124796040830185611aea565b818103606083015261248b8184611aa7565b905095945050505050565b5f60ff82169050919050565b7f4e487b71000000000000000000000000000000000000000000000000000000005f52601160045260245ffd5b5f6124d982612496565b91506124e483612496565b9250828201905060ff8111156124fd576124fc6124a2565b5b92915050565b7f496e76616c696420726f6c6500000000000000000000000000000000000000005f82015250565b5f612537600c83611a89565b915061254282612503565b602082019050919050565b5f6020820190508181035f8301526125648161252b565b9050919050565b5f61257582612089565b915061258083612089565b9250828203905081811115612598576125976124a2565b5b92915050565b5f6125a882612089565b91506125b383612089565b92508282019050808211156125cb576125ca6124a2565b5b92915050565b5f6125db82612089565b91507fffffffffffffffffffffffffffffffffffffffffffffffffffffffffffffffff820361260d5761260c6124a2565b5b60018201905091905056fe496e76616c6964207472616e736665723a2053656e646572206973206e6f742061207265676973746572656420656e74697479496e76616c6964207472616e736665723a20426f74682073656e64657220616e6420726563656976657220617265206e6f74207265676973746572656420656e746974696573496e76616c6964207472616e736665723a205265636569766572206973206e6f742061207265676973746572656420656e74697479a2646970667358221220524c08ce3042f7d9720324ac4af902cafa0bd910ea2306403e066e94cebb573e64736f6c634300081a0033",
					"opcodes": "PUSH1 0x80 PUSH1 0x40 MSTORE PUSH1 0x40 MLOAD DUP1 PUSH1 0xC0 ADD PUSH1 0x40 MSTORE DUP1 PUSH1 0x40 MLOAD DUP1 PUSH1 0x40 ADD PUSH1 0x40 MSTORE DUP1 PUSH1 0x6 DUP2 MSTORE PUSH1 0x20 ADD PUSH32 0x616E676F6C610000000000000000000000000000000000000000000000000000 DUP2 MSTORE POP DUP2 MSTORE PUSH1 0x20 ADD PUSH1 0x40 MLOAD DUP1 PUSH1 0x40 ADD PUSH1 0x40 MSTORE DUP1 PUSH1 0x18 DUP2 MSTORE PUSH1 0x20 ADD PUSH32 0x63656E7472616C206166726963616E2072657075626C69630000000000000000 DUP2 MSTORE POP DUP2 MSTORE PUSH1 0x20 ADD PUSH1 0x40 MLOAD DUP1 PUSH1 0x40 ADD PUSH1 0x40 MSTORE DUP1 PUSH1 0x5 DUP2 MSTORE PUSH1 0x20 ADD PUSH32 0x636F6E676F000000000000000000000000000000000000000000000000000000 DUP2 MSTORE POP DUP2 MSTORE PUSH1 0x20 ADD PUSH1 0x40 MLOAD DUP1 PUSH1 0x40 ADD PUSH1 0x40 MSTORE DUP1 PUSH1 0x6 DUP2 MSTORE PUSH1 0x20 ADD PUSH32 0x6775696E65610000000000000000000000000000000000000000000000000000 DUP2 MSTORE POP DUP2 MSTORE PUSH1 0x20 ADD PUSH1 0x40 MLOAD DUP1 PUSH1 0x40 ADD PUSH1 0x40 MSTORE DUP1 PUSH1 0x7 DUP2 MSTORE PUSH1 0x20 ADD PUSH32 0x6C69626572696100000000000000000000000000000000000000000000000000 DUP2 MSTORE POP DUP2 MSTORE PUSH1 0x20 ADD PUSH1 0x40 MLOAD DUP1 PUSH1 0x40 ADD PUSH1 0x40 MSTORE DUP1 PUSH1 0xC DUP2 MSTORE PUSH1 0x20 ADD PUSH32 0x736965727261206C656F6E650000000000000000000000000000000000000000 DUP2 MSTORE POP DUP2 MSTORE POP PUSH0 SWAP1 PUSH1 0x6 PUSH2 0x17E SWAP3 SWAP2 SWAP1 PUSH2 0x190 JUMP JUMPDEST POP CALLVALUE DUP1 ISZERO PUSH2 0x18A JUMPI PUSH0 DUP1 REVERT JUMPDEST POP PUSH2 0x56B JUMP JUMPDEST DUP3 DUP1 SLOAD DUP3 DUP3 SSTORE SWAP1 PUSH0 MSTORE PUSH1 0x20 PUSH0 KECCAK256 SWAP1 DUP2 ADD SWAP3 DUP3 ISZERO PUSH2 0x1D6 JUMPI SWAP2 PUSH1 0x20 MUL DUP3 ADD JUMPDEST DUP3 DUP2 GT ISZERO PUSH2 0x1D5 JUMPI DUP3 MLOAD DUP3 SWAP1 DUP2 PUSH2 0x1C5 SWAP2 SWAP1 PUSH2 0x49C JUMP JUMPDEST POP SWAP2 PUSH1 0x20 ADD SWAP2 SWAP1 PUSH1 0x1 ADD SWAP1 PUSH2 0x1AE JUMP JUMPDEST JUMPDEST POP SWAP1 POP PUSH2 0x1E3 SWAP2 SWAP1 PUSH2 0x1E7 JUMP JUMPDEST POP SWAP1 JUMP JUMPDEST JUMPDEST DUP1 DUP3 GT ISZERO PUSH2 0x206 JUMPI PUSH0 DUP2 DUP2 PUSH2 0x1FD SWAP2 SWAP1 PUSH2 0x20A JUMP JUMPDEST POP PUSH1 0x1 ADD PUSH2 0x1E8 JUMP JUMPDEST POP SWAP1 JUMP JUMPDEST POP DUP1 SLOAD PUSH2 0x216 SWAP1 PUSH2 0x2C6 JUMP JUMPDEST PUSH0 DUP3 SSTORE DUP1 PUSH1 0x1F LT PUSH2 0x227 JUMPI POP PUSH2 0x244 JUMP JUMPDEST PUSH1 0x1F ADD PUSH1 0x20 SWAP1 DIV SWAP1 PUSH0 MSTORE PUSH1 0x20 PUSH0 KECCAK256 SWAP1 DUP2 ADD SWAP1 PUSH2 0x243 SWAP2 SWAP1 PUSH2 0x247 JUMP JUMPDEST JUMPDEST POP JUMP JUMPDEST JUMPDEST DUP1 DUP3 GT ISZERO PUSH2 0x25E JUMPI PUSH0 DUP2 PUSH0 SWAP1 SSTORE POP PUSH1 0x1 ADD PUSH2 0x248 JUMP JUMPDEST POP SWAP1 JUMP JUMPDEST PUSH0 DUP2 MLOAD SWAP1 POP SWAP2 SWAP1 POP JUMP JUMPDEST PUSH32 0x4E487B7100000000000000000000000000000000000000000000000000000000 PUSH0 MSTORE PUSH1 0x41 PUSH1 0x4 MSTORE PUSH1 0x24 PUSH0 REVERT JUMPDEST PUSH32 0x4E487B7100000000000000000000000000000000000000000000000000000000 PUSH0 MSTORE PUSH1 0x22 PUSH1 0x4 MSTORE PUSH1 0x24 PUSH0 REVERT JUMPDEST PUSH0 PUSH1 0x2 DUP3 DIV SWAP1 POP PUSH1 0x1 DUP3 AND DUP1 PUSH2 0x2DD JUMPI PUSH1 0x7F DUP3 AND SWAP2 POP JUMPDEST PUSH1 0x20 DUP3 LT DUP2 SUB PUSH2 0x2F0 JUMPI PUSH2 0x2EF PUSH2 0x299 JUMP JUMPDEST JUMPDEST POP SWAP2 SWAP1 POP JUMP JUMPDEST PUSH0 DUP2 SWAP1 POP DUP2 PUSH0 MSTORE PUSH1 0x20 PUSH0 KECCAK256 SWAP1 POP SWAP2 SWAP1 POP JUMP JUMPDEST PUSH0 PUSH1 0x20 PUSH1 0x1F DUP4 ADD DIV SWAP1 POP SWAP2 SWAP1 POP JUMP JUMPDEST PUSH0 DUP3 DUP3 SHL SWAP1 POP SWAP3 SWAP2 POP POP JUMP JUMPDEST PUSH0 PUSH1 0x8 DUP4 MUL PUSH2 0x352 PUSH32 0xFFFFFFFFFFFFFFFFFFFFFFFFFFFFFFFFFFFFFFFFFFFFFFFFFFFFFFFFFFFFFFFF DUP3 PUSH2 0x317 JUMP JUMPDEST PUSH2 0x35C DUP7 DUP4 PUSH2 0x317 JUMP JUMPDEST SWAP6 POP DUP1 NOT DUP5 AND SWAP4 POP DUP1 DUP7 AND DUP5 OR SWAP3 POP POP POP SWAP4 SWAP3 POP POP POP JUMP JUMPDEST PUSH0 DUP2 SWAP1 POP SWAP2 SWAP1 POP JUMP JUMPDEST PUSH0 DUP2 SWAP1 POP SWAP2 SWAP1 POP JUMP JUMPDEST PUSH0 PUSH2 0x3A0 PUSH2 0x39B PUSH2 0x396 DUP5 PUSH2 0x374 JUMP JUMPDEST PUSH2 0x37D JUMP JUMPDEST PUSH2 0x374 JUMP JUMPDEST SWAP1 POP SWAP2 SWAP1 POP JUMP JUMPDEST PUSH0 DUP2 SWAP1 POP SWAP2 SWAP1 POP JUMP JUMPDEST PUSH2 0x3B9 DUP4 PUSH2 0x386 JUMP JUMPDEST PUSH2 0x3CD PUSH2 0x3C5 DUP3 PUSH2 0x3A7 JUMP JUMPDEST DUP5 DUP5 SLOAD PUSH2 0x323 JUMP JUMPDEST DUP3 SSTORE POP POP POP POP JUMP JUMPDEST PUSH0 SWAP1 JUMP JUMPDEST PUSH2 0x3E1 PUSH2 0x3D5 JUMP JUMPDEST PUSH2 0x3EC DUP2 DUP5 DUP5 PUSH2 0x3B0 JUMP JUMPDEST POP POP POP JUMP JUMPDEST JUMPDEST DUP2 DUP2 LT ISZERO PUSH2 0x40F JUMPI PUSH2 0x404 PUSH0 DUP3 PUSH2 0x3D9 JUMP JUMPDEST PUSH1 0x1 DUP2 ADD SWAP1 POP PUSH2 0x3F2 JUMP JUMPDEST POP POP JUMP JUMPDEST PUSH1 0x1F DUP3 GT ISZERO PUSH2 0x454 JUMPI PUSH2 0x425 DUP2 PUSH2 0x2F6 JUMP JUMPDEST PUSH2 0x42E DUP5 PUSH2 0x308 JUMP JUMPDEST DUP2 ADD PUSH1 0x20 DUP6 LT ISZERO PUSH2 0x43D JUMPI DUP2 SWAP1 POP JUMPDEST PUSH2 0x451 PUSH2 0x449 DUP6 PUSH2 0x308 JUMP JUMPDEST DUP4 ADD DUP3 PUSH2 0x3F1 JUMP JUMPDEST POP POP JUMPDEST POP POP POP JUMP JUMPDEST PUSH0 DUP3 DUP3 SHR SWAP1 POP SWAP3 SWAP2 POP POP JUMP JUMPDEST PUSH0 PUSH2 0x474 PUSH0 NOT DUP5 PUSH1 0x8 MUL PUSH2 0x459 JUMP JUMPDEST NOT DUP1 DUP4 AND SWAP2 POP POP SWAP3 SWAP2 POP POP JUMP JUMPDEST PUSH0 PUSH2 0x48C DUP4 DUP4 PUSH2 0x465 JUMP JUMPDEST SWAP2 POP DUP3 PUSH1 0x2 MUL DUP3 OR SWAP1 POP SWAP3 SWAP2 POP POP JUMP JUMPDEST PUSH2 0x4A5 DUP3 PUSH2 0x262 JUMP JUMPDEST PUSH8 0xFFFFFFFFFFFFFFFF DUP2 GT ISZERO PUSH2 0x4BE JUMPI PUSH2 0x4BD PUSH2 0x26C JUMP JUMPDEST JUMPDEST PUSH2 0x4C8 DUP3 SLOAD PUSH2 0x2C6 JUMP JUMPDEST PUSH2 0x4D3 DUP3 DUP3 DUP6 PUSH2 0x413 JUMP JUMPDEST PUSH0 PUSH1 0x20 SWAP1 POP PUSH1 0x1F DUP4 GT PUSH1 0x1 DUP2 EQ PUSH2 0x504 JUMPI PUSH0 DUP5 ISZERO PUSH2 0x4F2 JUMPI DUP3 DUP8 ADD MLOAD SWAP1 POP JUMPDEST PUSH2 0x4FC DUP6 DUP3 PUSH2 0x481 JUMP JUMPDEST DUP7 SSTORE POP PUSH2 0x563 JUMP JUMPDEST PUSH1 0x1F NOT DUP5 AND PUSH2 0x512 DUP7 PUSH2 0x2F6 JUMP JUMPDEST PUSH0 JUMPDEST DUP3 DUP2 LT ISZERO PUSH2 0x539 JUMPI DUP5 DUP10 ADD MLOAD DUP3 SSTORE PUSH1 0x1 DUP3 ADD SWAP2 POP PUSH1 0x20 DUP6 ADD SWAP5 POP PUSH1 0x20 DUP2 ADD SWAP1 POP PUSH2 0x514 JUMP JUMPDEST DUP7 DUP4 LT ISZERO PUSH2 0x556 JUMPI DUP5 DUP10 ADD MLOAD PUSH2 0x552 PUSH1 0x1F DUP10 AND DUP3 PUSH2 0x465 JUMP JUMPDEST DUP4 SSTORE POP JUMPDEST PUSH1 0x1 PUSH1 0x2 DUP9 MUL ADD DUP9 SSTORE POP POP POP JUMPDEST POP POP POP POP POP POP JUMP JUMPDEST PUSH2 0x26FC DUP1 PUSH2 0x578 PUSH0 CODECOPY PUSH0 RETURN INVALID PUSH1 0x80 PUSH1 0x40 MSTORE CALLVALUE DUP1 ISZERO PUSH2 0xF JUMPI PUSH0 DUP1 REVERT JUMPDEST POP PUSH1 0x4 CALLDATASIZE LT PUSH2 0x55 JUMPI PUSH0 CALLDATALOAD PUSH1 0xE0 SHR DUP1 PUSH4 0x36335AE2 EQ PUSH2 0x59 JUMPI DUP1 PUSH4 0x3BD18A9E EQ PUSH2 0x89 JUMPI DUP1 PUSH4 0x40F385FF EQ PUSH2 0xA5 JUMPI DUP1 PUSH4 0x6F475E7F EQ PUSH2 0xD9 JUMPI DUP1 PUSH4 0x8579EA9B EQ PUSH2 0x109 JUMPI JUMPDEST PUSH0 DUP1 REVERT JUMPDEST PUSH2 0x73 PUSH1 0x4 DUP1 CALLDATASIZE SUB DUP2 ADD SWAP1 PUSH2 0x6E SWAP2 SWAP1 PUSH2 0x1808 JUMP JUMPDEST PUSH2 0x139 JUMP JUMPDEST PUSH1 0x40 MLOAD PUSH2 0x80 SWAP2 SWAP1 PUSH2 0x1936 JUMP JUMPDEST PUSH1 0x40 MLOAD DUP1 SWAP2 SUB SWAP1 RETURN JUMPDEST PUSH2 0xA3 PUSH1 0x4 DUP1 CALLDATASIZE SUB DUP2 ADD SWAP1 PUSH2 0x9E SWAP2 SWAP1 PUSH2 0x1956 JUMP JUMPDEST PUSH2 0x1EF JUMP JUMPDEST STOP JUMPDEST PUSH2 0xBF PUSH1 0x4 DUP1 CALLDATASIZE SUB DUP2 ADD SWAP1 PUSH2 0xBA SWAP2 SWAP1 PUSH2 0x1A54 JUMP JUMPDEST PUSH2 0x5F7 JUMP JUMPDEST PUSH1 0x40 MLOAD PUSH2 0xD0 SWAP6 SWAP5 SWAP4 SWAP3 SWAP2 SWAP1 PUSH2 0x1AF9 JUMP JUMPDEST PUSH1 0x40 MLOAD DUP1 SWAP2 SUB SWAP1 RETURN JUMPDEST PUSH2 0xF3 PUSH1 0x4 DUP1 CALLDATASIZE SUB DUP2 ADD SWAP1 PUSH2 0xEE SWAP2 SWAP1 PUSH2 0x1B66 JUMP JUMPDEST PUSH2 0x89A JUMP JUMPDEST PUSH1 0x40 MLOAD PUSH2 0x100 SWAP2 SWAP1 PUSH2 0x1BA4 JUMP JUMPDEST PUSH1 0x40 MLOAD DUP1 SWAP2 SUB SWAP1 RETURN JUMPDEST PUSH2 0x123 PUSH1 0x4 DUP1 CALLDATASIZE SUB DUP2 ADD SWAP1 PUSH2 0x11E SWAP2 SWAP1 PUSH2 0x1B66 JUMP JUMPDEST PUSH2 0x945 JUMP JUMPDEST PUSH1 0x40 MLOAD PUSH2 0x130 SWAP2 SWAP1 PUSH2 0x1BA4 JUMP JUMPDEST PUSH1 0x40 MLOAD DUP1 SWAP2 SUB SWAP1 RETURN JUMPDEST PUSH1 0x60 PUSH0 PUSH2 0x145 DUP4 PUSH2 0xB61 JUMP JUMPDEST SWAP1 POP PUSH1 0x2 DUP2 PUSH1 0x40 MLOAD PUSH2 0x157 SWAP2 SWAP1 PUSH2 0x1BF7 JUMP JUMPDEST SWAP1 DUP2 MSTORE PUSH1 0x20 ADD PUSH1 0x40 MLOAD DUP1 SWAP2 SUB SWAP1 KECCAK256 DUP1 SLOAD DUP1 PUSH1 0x20 MUL PUSH1 0x20 ADD PUSH1 0x40 MLOAD SWAP1 DUP2 ADD PUSH1 0x40 MSTORE DUP1 SWAP3 SWAP2 SWAP1 DUP2 DUP2 MSTORE PUSH1 0x20 ADD DUP3 DUP1 SLOAD DUP1 ISZERO PUSH2 0x1E2 JUMPI PUSH1 0x20 MUL DUP3 ADD SWAP2 SWAP1 PUSH0 MSTORE PUSH1 0x20 PUSH0 KECCAK256 SWAP1 JUMPDEST DUP2 PUSH0 SWAP1 SLOAD SWAP1 PUSH2 0x100 EXP SWAP1 DIV PUSH20 0xFFFFFFFFFFFFFFFFFFFFFFFFFFFFFFFFFFFFFFFF AND PUSH20 0xFFFFFFFFFFFFFFFFFFFFFFFFFFFFFFFFFFFFFFFF AND DUP2 MSTORE PUSH1 0x20 ADD SWAP1 PUSH1 0x1 ADD SWAP1 DUP1 DUP4 GT PUSH2 0x199 JUMPI JUMPDEST POP POP POP POP POP SWAP2 POP POP SWAP2 SWAP1 POP JUMP JUMPDEST PUSH0 PUSH2 0x1F9 DUP4 PUSH2 0xB61 JUMP JUMPDEST SWAP1 POP PUSH2 0x204 DUP2 PUSH2 0xE3F JUMP JUMPDEST PUSH2 0x243 JUMPI PUSH1 0x40 MLOAD PUSH32 0x8C379A000000000000000000000000000000000000000000000000000000000 DUP2 MSTORE PUSH1 0x4 ADD PUSH2 0x23A SWAP1 PUSH2 0x1CA3 JUMP JUMPDEST PUSH1 0x40 MLOAD DUP1 SWAP2 SUB SWAP1 REVERT JUMPDEST PUSH0 PUSH2 0x24D DUP6 PUSH2 0x106C JUMP JUMPDEST SWAP1 POP PUSH2 0x258 DUP2 PUSH2 0x1219 JUMP JUMPDEST ISZERO PUSH2 0x298 JUMPI PUSH1 0x40 MLOAD PUSH32 0x8C379A000000000000000000000000000000000000000000000000000000000 DUP2 MSTORE PUSH1 0x4 ADD PUSH2 0x28F SWAP1 PUSH2 0x1D57 JUMP JUMPDEST PUSH1 0x40 MLOAD DUP1 SWAP2 SUB SWAP1 REVERT JUMPDEST PUSH1 0x1 PUSH0 CALLER PUSH20 0xFFFFFFFFFFFFFFFFFFFFFFFFFFFFFFFFFFFFFFFF AND PUSH20 0xFFFFFFFFFFFFFFFFFFFFFFFFFFFFFFFFFFFFFFFF AND DUP2 MSTORE PUSH1 0x20 ADD SWAP1 DUP2 MSTORE PUSH1 0x20 ADD PUSH0 KECCAK256 PUSH1 0x2 ADD PUSH0 SWAP1 SLOAD SWAP1 PUSH2 0x100 EXP SWAP1 DIV PUSH1 0xFF AND ISZERO PUSH2 0x325 JUMPI PUSH1 0x40 MLOAD PUSH32 0x8C379A000000000000000000000000000000000000000000000000000000000 DUP2 MSTORE PUSH1 0x4 ADD PUSH2 0x31C SWAP1 PUSH2 0x1DBF JUMP JUMPDEST PUSH1 0x40 MLOAD DUP1 SWAP2 SUB SWAP1 REVERT JUMPDEST PUSH0 DUP4 SWAP1 POP PUSH0 DUP2 MLOAD GT PUSH2 0x36C JUMPI PUSH1 0x40 MLOAD PUSH32 0x8C379A000000000000000000000000000000000000000000000000000000000 DUP2 MSTORE PUSH1 0x4 ADD PUSH2 0x363 SWAP1 PUSH2 0x1E27 JUMP JUMPDEST PUSH1 0x40 MLOAD DUP1 SWAP2 SUB SWAP1 REVERT JUMPDEST PUSH0 PUSH2 0x376 DUP5 PUSH2 0x1307 JUMP JUMPDEST SWAP1 POP DUP1 PUSH31 0xFFFFFFFFFFFFFFFFFFFFFFFFFFFFFFFFFFFFFFFFFFFFFFFFFFFFFFFFFFFFFF NOT AND DUP3 PUSH0 DUP2 MLOAD DUP2 LT PUSH2 0x3AE JUMPI PUSH2 0x3AD PUSH2 0x1E45 JUMP JUMPDEST JUMPDEST PUSH1 0x20 ADD ADD MLOAD PUSH1 0xF8 SHR PUSH1 0xF8 SHL PUSH31 0xFFFFFFFFFFFFFFFFFFFFFFFFFFFFFFFFFFFFFFFFFFFFFFFFFFFFFFFFFFFFFF NOT AND EQ DUP2 DUP6 PUSH1 0x40 MLOAD PUSH1 0x20 ADD PUSH2 0x3EF SWAP3 SWAP2 SWAP1 PUSH2 0x1F51 JUMP JUMPDEST PUSH1 0x40 MLOAD PUSH1 0x20 DUP2 DUP4 SUB SUB DUP2 MSTORE SWAP1 PUSH1 0x40 MSTORE SWAP1 PUSH2 0x43F JUMPI PUSH1 0x40 MLOAD PUSH32 0x8C379A000000000000000000000000000000000000000000000000000000000 DUP2 MSTORE PUSH1 0x4 ADD PUSH2 0x436 SWAP2 SWAP1 PUSH2 0x1F8E JUMP JUMPDEST PUSH1 0x40 MLOAD DUP1 SWAP2 SUB SWAP1 REVERT JUMPDEST POP PUSH1 0x40 MLOAD DUP1 PUSH1 0xA0 ADD PUSH1 0x40 MSTORE DUP1 DUP10 DUP2 MSTORE PUSH1 0x20 ADD DUP9 DUP2 MSTORE PUSH1 0x20 ADD PUSH1 0x1 ISZERO ISZERO DUP2 MSTORE PUSH1 0x20 ADD DUP7 DUP2 MSTORE PUSH1 0x20 ADD DUP6 DUP2 MSTORE POP PUSH1 0x1 PUSH0 CALLER PUSH20 0xFFFFFFFFFFFFFFFFFFFFFFFFFFFFFFFFFFFFFFFF AND PUSH20 0xFFFFFFFFFFFFFFFFFFFFFFFFFFFFFFFFFFFFFFFF AND DUP2 MSTORE PUSH1 0x20 ADD SWAP1 DUP2 MSTORE PUSH1 0x20 ADD PUSH0 KECCAK256 PUSH0 DUP3 ADD MLOAD DUP2 PUSH0 ADD SWAP1 DUP2 PUSH2 0x4BA SWAP2 SWAP1 PUSH2 0x21B1 JUMP JUMPDEST POP PUSH1 0x20 DUP3 ADD MLOAD DUP2 PUSH1 0x1 ADD SWAP1 DUP2 PUSH2 0x4D0 SWAP2 SWAP1 PUSH2 0x21B1 JUMP JUMPDEST POP PUSH1 0x40 DUP3 ADD MLOAD DUP2 PUSH1 0x2 ADD PUSH0 PUSH2 0x100 EXP DUP2 SLOAD DUP2 PUSH1 0xFF MUL NOT AND SWAP1 DUP4 ISZERO ISZERO MUL OR SWAP1 SSTORE POP PUSH1 0x60 DUP3 ADD MLOAD DUP2 PUSH1 0x3 ADD SWAP1 DUP2 PUSH2 0x505 SWAP2 SWAP1 PUSH2 0x21B1 JUMP JUMPDEST POP PUSH1 0x80 DUP3 ADD MLOAD DUP2 PUSH1 0x4 ADD SWAP1 DUP2 PUSH2 0x51B SWAP2 SWAP1 PUSH2 0x21B1 JUMP JUMPDEST POP SWAP1 POP POP PUSH1 0x2 DUP5 PUSH1 0x40 MLOAD PUSH2 0x52F SWAP2 SWAP1 PUSH2 0x1BF7 JUMP JUMPDEST SWAP1 DUP2 MSTORE PUSH1 0x20 ADD PUSH1 0x40 MLOAD DUP1 SWAP2 SUB SWAP1 KECCAK256 CALLER SWAP1 DUP1 PUSH1 0x1 DUP2 SLOAD ADD DUP1 DUP3 SSTORE DUP1 SWAP2 POP POP PUSH1 0x1 SWAP1 SUB SWAP1 PUSH0 MSTORE PUSH1 0x20 PUSH0 KECCAK256 ADD PUSH0 SWAP1 SWAP2 SWAP1 SWAP2 SWAP1 SWAP2 PUSH2 0x100 EXP DUP2 SLOAD DUP2 PUSH20 0xFFFFFFFFFFFFFFFFFFFFFFFFFFFFFFFFFFFFFFFF MUL NOT AND SWAP1 DUP4 PUSH20 0xFFFFFFFFFFFFFFFFFFFFFFFFFFFFFFFFFFFFFFFF AND MUL OR SWAP1 SSTORE POP CALLER PUSH20 0xFFFFFFFFFFFFFFFFFFFFFFFFFFFFFFFFFFFFFFFF AND PUSH32 0xCA394E3B41E2AA37469125C136278E21CEBAF3CA7E3FDFC9D07C64740A292FF5 DUP10 DUP7 DUP9 PUSH1 0x40 MLOAD PUSH2 0x5E5 SWAP4 SWAP3 SWAP2 SWAP1 PUSH2 0x2280 JUMP JUMPDEST PUSH1 0x40 MLOAD DUP1 SWAP2 SUB SWAP1 LOG2 POP POP POP POP POP POP POP POP JUMP JUMPDEST PUSH1 0x60 DUP1 PUSH0 PUSH1 0x60 DUP1 PUSH0 PUSH1 0x1 PUSH0 DUP9 PUSH20 0xFFFFFFFFFFFFFFFFFFFFFFFFFFFFFFFFFFFFFFFF AND PUSH20 0xFFFFFFFFFFFFFFFFFFFFFFFFFFFFFFFFFFFFFFFF AND DUP2 MSTORE PUSH1 0x20 ADD SWAP1 DUP2 MSTORE PUSH1 0x20 ADD PUSH0 KECCAK256 SWAP1 POP DUP1 PUSH0 ADD DUP2 PUSH1 0x1 ADD DUP3 PUSH1 0x2 ADD PUSH0 SWAP1 SLOAD SWAP1 PUSH2 0x100 EXP SWAP1 DIV PUSH1 0xFF AND DUP4 PUSH1 0x3 ADD DUP5 PUSH1 0x4 ADD DUP5 DUP1 SLOAD PUSH2 0x66A SWAP1 PUSH2 0x1FDB JUMP JUMPDEST DUP1 PUSH1 0x1F ADD PUSH1 0x20 DUP1 SWAP2 DIV MUL PUSH1 0x20 ADD PUSH1 0x40 MLOAD SWAP1 DUP2 ADD PUSH1 0x40 MSTORE DUP1 SWAP3 SWAP2 SWAP1 DUP2 DUP2 MSTORE PUSH1 0x20 ADD DUP3 DUP1 SLOAD PUSH2 0x696 SWAP1 PUSH2 0x1FDB JUMP JUMPDEST DUP1 ISZERO PUSH2 0x6E1 JUMPI DUP1 PUSH1 0x1F LT PUSH2 0x6B8 JUMPI PUSH2 0x100 DUP1 DUP4 SLOAD DIV MUL DUP4 MSTORE SWAP2 PUSH1 0x20 ADD SWAP2 PUSH2 0x6E1 JUMP JUMPDEST DUP3 ADD SWAP2 SWAP1 PUSH0 MSTORE PUSH1 0x20 PUSH0 KECCAK256 SWAP1 JUMPDEST DUP2 SLOAD DUP2 MSTORE SWAP1 PUSH1 0x1 ADD SWAP1 PUSH1 0x20 ADD DUP1 DUP4 GT PUSH2 0x6C4 JUMPI DUP3 SWAP1 SUB PUSH1 0x1F AND DUP3 ADD SWAP2 JUMPDEST POP POP POP POP POP SWAP5 POP DUP4 DUP1 SLOAD PUSH2 0x6F4 SWAP1 PUSH2 0x1FDB JUMP JUMPDEST DUP1 PUSH1 0x1F ADD PUSH1 0x20 DUP1 SWAP2 DIV MUL PUSH1 0x20 ADD PUSH1 0x40 MLOAD SWAP1 DUP2 ADD PUSH1 0x40 MSTORE DUP1 SWAP3 SWAP2 SWAP1 DUP2 DUP2 MSTORE PUSH1 0x20 ADD DUP3 DUP1 SLOAD PUSH2 0x720 SWAP1 PUSH2 0x1FDB JUMP JUMPDEST DUP1 ISZERO PUSH2 0x76B JUMPI DUP1 PUSH1 0x1F LT PUSH2 0x742 JUMPI PUSH2 0x100 DUP1 DUP4 SLOAD DIV MUL DUP4 MSTORE SWAP2 PUSH1 0x20 ADD SWAP2 PUSH2 0x76B JUMP JUMPDEST DUP3 ADD SWAP2 SWAP1 PUSH0 MSTORE PUSH1 0x20 PUSH0 KECCAK256 SWAP1 JUMPDEST DUP2 SLOAD DUP2 MSTORE SWAP1 PUSH1 0x1 ADD SWAP1 PUSH1 0x20 ADD DUP1 DUP4 GT PUSH2 0x74E JUMPI DUP3 SWAP1 SUB PUSH1 0x1F AND DUP3 ADD SWAP2 JUMPDEST POP POP POP POP POP SWAP4 POP DUP2 DUP1 SLOAD PUSH2 0x77E SWAP1 PUSH2 0x1FDB JUMP JUMPDEST DUP1 PUSH1 0x1F ADD PUSH1 0x20 DUP1 SWAP2 DIV MUL PUSH1 0x20 ADD PUSH1 0x40 MLOAD SWAP1 DUP2 ADD PUSH1 0x40 MSTORE DUP1 SWAP3 SWAP2 SWAP1 DUP2 DUP2 MSTORE PUSH1 0x20 ADD DUP3 DUP1 SLOAD PUSH2 0x7AA SWAP1 PUSH2 0x1FDB JUMP JUMPDEST DUP1 ISZERO PUSH2 0x7F5 JUMPI DUP1 PUSH1 0x1F LT PUSH2 0x7CC JUMPI PUSH2 0x100 DUP1 DUP4 SLOAD DIV MUL DUP4 MSTORE SWAP2 PUSH1 0x20 ADD SWAP2 PUSH2 0x7F5 JUMP JUMPDEST DUP3 ADD SWAP2 SWAP1 PUSH0 MSTORE PUSH1 0x20 PUSH0 KECCAK256 SWAP1 JUMPDEST DUP2 SLOAD DUP2 MSTORE SWAP1 PUSH1 0x1 ADD SWAP1 PUSH1 0x20 ADD DUP1 DUP4 GT PUSH2 0x7D8 JUMPI DUP3 SWAP1 SUB PUSH1 0x1F AND DUP3 ADD SWAP2 JUMPDEST POP POP POP POP POP SWAP2 POP DUP1 DUP1 SLOAD PUSH2 0x808 SWAP1 PUSH2 0x1FDB JUMP JUMPDEST DUP1 PUSH1 0x1F ADD PUSH1 0x20 DUP1 SWAP2 DIV MUL PUSH1 0x20 ADD PUSH1 0x40 MLOAD SWAP1 DUP2 ADD PUSH1 0x40 MSTORE DUP1 SWAP3 SWAP2 SWAP1 DUP2 DUP2 MSTORE PUSH1 0x20 ADD DUP3 DUP1 SLOAD PUSH2 0x834 SWAP1 PUSH2 0x1FDB JUMP JUMPDEST DUP1 ISZERO PUSH2 0x87F JUMPI DUP1 PUSH1 0x1F LT PUSH2 0x856 JUMPI PUSH2 0x100 DUP1 DUP4 SLOAD DIV MUL DUP4 MSTORE SWAP2 PUSH1 0x20 ADD SWAP2 PUSH2 0x87F JUMP JUMPDEST DUP3 ADD SWAP2 SWAP1 PUSH0 MSTORE PUSH1 0x20 PUSH0 KECCAK256 SWAP1 JUMPDEST DUP2 SLOAD DUP2 MSTORE SWAP1 PUSH1 0x1 ADD SWAP1 PUSH1 0x20 ADD DUP1 DUP4 GT PUSH2 0x862 JUMPI DUP3 SWAP1 SUB PUSH1 0x1F AND DUP3 ADD SWAP2 JUMPDEST POP POP POP POP POP SWAP1 POP SWAP6 POP SWAP6 POP SWAP6 POP SWAP6 POP SWAP6 POP POP SWAP2 SWAP4 SWAP6 SWAP1 SWAP3 SWAP5 POP JUMP JUMPDEST PUSH0 PUSH1 0x1 PUSH0 DUP5 PUSH20 0xFFFFFFFFFFFFFFFFFFFFFFFFFFFFFFFFFFFFFFFF AND PUSH20 0xFFFFFFFFFFFFFFFFFFFFFFFFFFFFFFFFFFFFFFFF AND DUP2 MSTORE PUSH1 0x20 ADD SWAP1 DUP2 MSTORE PUSH1 0x20 ADD PUSH0 KECCAK256 PUSH1 0x2 ADD PUSH0 SWAP1 SLOAD SWAP1 PUSH2 0x100 EXP SWAP1 DIV PUSH1 0xFF AND DUP1 ISZERO PUSH2 0x93D JUMPI POP PUSH1 0x1 PUSH0 DUP4 PUSH20 0xFFFFFFFFFFFFFFFFFFFFFFFFFFFFFFFFFFFFFFFF AND PUSH20 0xFFFFFFFFFFFFFFFFFFFFFFFFFFFFFFFFFFFFFFFF AND DUP2 MSTORE PUSH1 0x20 ADD SWAP1 DUP2 MSTORE PUSH1 0x20 ADD PUSH0 KECCAK256 PUSH1 0x2 ADD PUSH0 SWAP1 SLOAD SWAP1 PUSH2 0x100 EXP SWAP1 DIV PUSH1 0xFF AND JUMPDEST SWAP1 POP SWAP3 SWAP2 POP POP JUMP JUMPDEST PUSH0 DUP1 PUSH1 0x1 PUSH0 DUP6 PUSH20 0xFFFFFFFFFFFFFFFFFFFFFFFFFFFFFFFFFFFFFFFF AND PUSH20 0xFFFFFFFFFFFFFFFFFFFFFFFFFFFFFFFFFFFFFFFF AND DUP2 MSTORE PUSH1 0x20 ADD SWAP1 DUP2 MSTORE PUSH1 0x20 ADD PUSH0 KECCAK256 PUSH1 0x2 ADD PUSH0 SWAP1 SLOAD SWAP1 PUSH2 0x100 EXP SWAP1 DIV PUSH1 0xFF AND SWAP1 POP PUSH0 PUSH1 0x1 PUSH0 DUP6 PUSH20 0xFFFFFFFFFFFFFFFFFFFFFFFFFFFFFFFFFFFFFFFF AND PUSH20 0xFFFFFFFFFFFFFFFFFFFFFFFFFFFFFFFFFFFFFFFF AND DUP2 MSTORE PUSH1 0x20 ADD SWAP1 DUP2 MSTORE PUSH1 0x20 ADD PUSH0 KECCAK256 PUSH1 0x2 ADD PUSH0 SWAP1 SLOAD SWAP1 PUSH2 0x100 EXP SWAP1 DIV PUSH1 0xFF AND SWAP1 POP PUSH1 0x60 PUSH0 DUP4 DUP1 ISZERO PUSH2 0x9F3 JUMPI POP DUP3 JUMPDEST ISZERO PUSH2 0xAA3 JUMPI PUSH1 0x1 SWAP1 POP PUSH1 0x1 PUSH0 DUP9 PUSH20 0xFFFFFFFFFFFFFFFFFFFFFFFFFFFFFFFFFFFFFFFF AND PUSH20 0xFFFFFFFFFFFFFFFFFFFFFFFFFFFFFFFFFFFFFFFF AND DUP2 MSTORE PUSH1 0x20 ADD SWAP1 DUP2 MSTORE PUSH1 0x20 ADD PUSH0 KECCAK256 PUSH1 0x4 ADD PUSH1 0x1 PUSH0 DUP9 PUSH20 0xFFFFFFFFFFFFFFFFFFFFFFFFFFFFFFFFFFFFFFFF AND PUSH20 0xFFFFFFFFFFFFFFFFFFFFFFFFFFFFFFFFFFFFFFFF AND DUP2 MSTORE PUSH1 0x20 ADD SWAP1 DUP2 MSTORE PUSH1 0x20 ADD PUSH0 KECCAK256 PUSH1 0x4 ADD PUSH1 0x40 MLOAD PUSH1 0x20 ADD PUSH2 0xA8D SWAP3 SWAP2 SWAP1 PUSH2 0x2404 JUMP JUMPDEST PUSH1 0x40 MLOAD PUSH1 0x20 DUP2 DUP4 SUB SUB DUP2 MSTORE SWAP1 PUSH1 0x40 MSTORE SWAP2 POP PUSH2 0xB17 JUMP JUMPDEST DUP4 ISZERO DUP1 ISZERO PUSH2 0xAAF JUMPI POP DUP3 ISZERO JUMPDEST ISZERO PUSH2 0xAD4 JUMPI PUSH1 0x40 MLOAD DUP1 PUSH1 0x80 ADD PUSH1 0x40 MSTORE DUP1 PUSH1 0x46 DUP2 MSTORE PUSH1 0x20 ADD PUSH2 0x264C PUSH1 0x46 SWAP2 CODECOPY SWAP2 POP PUSH2 0xB16 JUMP JUMPDEST DUP4 PUSH2 0xAF9 JUMPI PUSH1 0x40 MLOAD DUP1 PUSH1 0x60 ADD PUSH1 0x40 MSTORE DUP1 PUSH1 0x33 DUP2 MSTORE PUSH1 0x20 ADD PUSH2 0x2619 PUSH1 0x33 SWAP2 CODECOPY SWAP2 POP PUSH2 0xB15 JUMP JUMPDEST PUSH1 0x40 MLOAD DUP1 PUSH1 0x60 ADD PUSH1 0x40 MSTORE DUP1 PUSH1 0x35 DUP2 MSTORE PUSH1 0x20 ADD PUSH2 0x2692 PUSH1 0x35 SWAP2 CODECOPY SWAP2 POP JUMPDEST JUMPDEST JUMPDEST PUSH32 0xB895A9794919BE34AF98DF51F4A6DCAAD7EE6B342AA6D6AE5D0DB8DAF23C0859 DUP8 DUP8 DUP4 DUP6 PUSH1 0x40 MLOAD PUSH2 0xB4C SWAP5 SWAP4 SWAP3 SWAP2 SWAP1 PUSH2 0x244C JUMP JUMPDEST PUSH1 0x40 MLOAD DUP1 SWAP2 SUB SWAP1 LOG1 DUP1 SWAP5 POP POP POP POP POP SWAP3 SWAP2 POP POP JUMP JUMPDEST PUSH1 0x60 PUSH0 PUSH2 0xB6D DUP4 PUSH2 0x106C JUMP JUMPDEST PUSH1 0x40 MLOAD PUSH1 0x20 ADD PUSH2 0xB7D SWAP2 SWAP1 PUSH2 0x1BF7 JUMP JUMPDEST PUSH1 0x40 MLOAD PUSH1 0x20 DUP2 DUP4 SUB SUB DUP2 MSTORE SWAP1 PUSH1 0x40 MSTORE DUP1 MLOAD SWAP1 PUSH1 0x20 ADD KECCAK256 SWAP1 POP PUSH2 0xBD3 PUSH1 0x40 MLOAD DUP1 PUSH1 0x40 ADD PUSH1 0x40 MSTORE DUP1 PUSH1 0x5 DUP2 MSTORE PUSH1 0x20 ADD PUSH32 0x4D696E6572000000000000000000000000000000000000000000000000000000 DUP2 MSTORE POP PUSH2 0x106C JUMP JUMPDEST PUSH1 0x40 MLOAD PUSH1 0x20 ADD PUSH2 0xBE3 SWAP2 SWAP1 PUSH2 0x1BF7 JUMP JUMPDEST PUSH1 0x40 MLOAD PUSH1 0x20 DUP2 DUP4 SUB SUB DUP2 MSTORE SWAP1 PUSH1 0x40 MSTORE DUP1 MLOAD SWAP1 PUSH1 0x20 ADD KECCAK256 DUP2 SUB PUSH2 0xC3D JUMPI PUSH1 0x40 MLOAD DUP1 PUSH1 0x40 ADD PUSH1 0x40 MSTORE DUP1 PUSH1 0x5 DUP2 MSTORE PUSH1 0x20 ADD PUSH32 0x4D696E6572000000000000000000000000000000000000000000000000000000 DUP2 MSTORE POP SWAP2 POP POP PUSH2 0xE3A JUMP JUMPDEST PUSH2 0xC7B PUSH1 0x40 MLOAD DUP1 PUSH1 0x40 ADD PUSH1 0x40 MSTORE DUP1 PUSH1 0xC DUP2 MSTORE PUSH1 0x20 ADD PUSH32 0x4D616E7566616374757265720000000000000000000000000000000000000000 DUP2 MSTORE POP PUSH2 0x106C JUMP JUMPDEST PUSH1 0x40 MLOAD PUSH1 0x20 ADD PUSH2 0xC8B SWAP2 SWAP1 PUSH2 0x1BF7 JUMP JUMPDEST PUSH1 0x40 MLOAD PUSH1 0x20 DUP2 DUP4 SUB SUB DUP2 MSTORE SWAP1 PUSH1 0x40 MSTORE DUP1 MLOAD SWAP1 PUSH1 0x20 ADD KECCAK256 DUP2 SUB PUSH2 0xCE5 JUMPI PUSH1 0x40 MLOAD DUP1 PUSH1 0x40 ADD PUSH1 0x40 MSTORE DUP1 PUSH1 0xC DUP2 MSTORE PUSH1 0x20 ADD PUSH32 0x4D616E7566616374757265720000000000000000000000000000000000000000 DUP2 MSTORE POP SWAP2 POP POP PUSH2 0xE3A JUMP JUMPDEST PUSH2 0xD23 PUSH1 0x40 MLOAD DUP1 PUSH1 0x40 ADD PUSH1 0x40 MSTORE DUP1 PUSH1 0x9 DUP2 MSTORE PUSH1 0x20 ADD PUSH32 0x4365727469666965720000000000000000000000000000000000000000000000 DUP2 MSTORE POP PUSH2 0x106C JUMP JUMPDEST PUSH1 0x40 MLOAD PUSH1 0x20 ADD PUSH2 0xD33 SWAP2 SWAP1 PUSH2 0x1BF7 JUMP JUMPDEST PUSH1 0x40 MLOAD PUSH1 0x20 DUP2 DUP4 SUB SUB DUP2 MSTORE SWAP1 PUSH1 0x40 MSTORE DUP1 MLOAD SWAP1 PUSH1 0x20 ADD KECCAK256 DUP2 SUB PUSH2 0xD8D JUMPI PUSH1 0x40 MLOAD DUP1 PUSH1 0x40 ADD PUSH1 0x40 MSTORE DUP1 PUSH1 0x9 DUP2 MSTORE PUSH1 0x20 ADD PUSH32 0x4365727469666965720000000000000000000000000000000000000000000000 DUP2 MSTORE POP SWAP2 POP POP PUSH2 0xE3A JUMP JUMPDEST PUSH2 0xDCB PUSH1 0x40 MLOAD DUP1 PUSH1 0x40 ADD PUSH1 0x40 MSTORE DUP1 PUSH1 0x8 DUP2 MSTORE PUSH1 0x20 ADD PUSH32 0x52657461696C6572000000000000000000000000000000000000000000000000 DUP2 MSTORE POP PUSH2 0x106C JUMP JUMPDEST PUSH1 0x40 MLOAD PUSH1 0x20 ADD PUSH2 0xDDB SWAP2 SWAP1 PUSH2 0x1BF7 JUMP JUMPDEST PUSH1 0x40 MLOAD PUSH1 0x20 DUP2 DUP4 SUB SUB DUP2 MSTORE SWAP1 PUSH1 0x40 MSTORE DUP1 MLOAD SWAP1 PUSH1 0x20 ADD KECCAK256 DUP2 SUB PUSH2 0xE35 JUMPI PUSH1 0x40 MLOAD DUP1 PUSH1 0x40 ADD PUSH1 0x40 MSTORE DUP1 PUSH1 0x8 DUP2 MSTORE PUSH1 0x20 ADD PUSH32 0x52657461696C6572000000000000000000000000000000000000000000000000 DUP2 MSTORE POP SWAP2 POP POP PUSH2 0xE3A JUMP JUMPDEST DUP3 SWAP2 POP POP JUMPDEST SWAP2 SWAP1 POP JUMP JUMPDEST PUSH0 PUSH1 0x40 MLOAD DUP1 PUSH1 0x40 ADD PUSH1 0x40 MSTORE DUP1 PUSH1 0x5 DUP2 MSTORE PUSH1 0x20 ADD PUSH32 0x4D696E6572000000000000000000000000000000000000000000000000000000 DUP2 MSTORE POP PUSH1 0x40 MLOAD PUSH1 0x20 ADD PUSH2 0xE86 SWAP2 SWAP1 PUSH2 0x1BF7 JUMP JUMPDEST PUSH1 0x40 MLOAD PUSH1 0x20 DUP2 DUP4 SUB SUB DUP2 MSTORE SWAP1 PUSH1 0x40 MSTORE DUP1 MLOAD SWAP1 PUSH1 0x20 ADD KECCAK256 DUP3 PUSH1 0x40 MLOAD PUSH1 0x20 ADD PUSH2 0xEAD SWAP2 SWAP1 PUSH2 0x1BF7 JUMP JUMPDEST PUSH1 0x40 MLOAD PUSH1 0x20 DUP2 DUP4 SUB SUB DUP2 MSTORE SWAP1 PUSH1 0x40 MSTORE DUP1 MLOAD SWAP1 PUSH1 0x20 ADD KECCAK256 EQ DUP1 PUSH2 0xF4F JUMPI POP PUSH1 0x40 MLOAD DUP1 PUSH1 0x40 ADD PUSH1 0x40 MSTORE DUP1 PUSH1 0xC DUP2 MSTORE PUSH1 0x20 ADD PUSH32 0x4D616E7566616374757265720000000000000000000000000000000000000000 DUP2 MSTORE POP PUSH1 0x40 MLOAD PUSH1 0x20 ADD PUSH2 0xF10 SWAP2 SWAP1 PUSH2 0x1BF7 JUMP JUMPDEST PUSH1 0x40 MLOAD PUSH1 0x20 DUP2 DUP4 SUB SUB DUP2 MSTORE SWAP1 PUSH1 0x40 MSTORE DUP1 MLOAD SWAP1 PUSH1 0x20 ADD KECCAK256 DUP3 PUSH1 0x40 MLOAD PUSH1 0x20 ADD PUSH2 0xF37 SWAP2 SWAP1 PUSH2 0x1BF7 JUMP JUMPDEST PUSH1 0x40 MLOAD PUSH1 0x20 DUP2 DUP4 SUB SUB DUP2 MSTORE SWAP1 PUSH1 0x40 MSTORE DUP1 MLOAD SWAP1 PUSH1 0x20 ADD KECCAK256 EQ JUMPDEST DUP1 PUSH2 0xFDA JUMPI POP PUSH1 0x40 MLOAD DUP1 PUSH1 0x40 ADD PUSH1 0x40 MSTORE DUP1 PUSH1 0x9 DUP2 MSTORE PUSH1 0x20 ADD PUSH32 0x4365727469666965720000000000000000000000000000000000000000000000 DUP2 MSTORE POP PUSH1 0x40 MLOAD PUSH1 0x20 ADD PUSH2 0xF9B SWAP2 SWAP1 PUSH2 0x1BF7 JUMP JUMPDEST PUSH1 0x40 MLOAD PUSH1 0x20 DUP2 DUP4 SUB SUB DUP2 MSTORE SWAP1 PUSH1 0x40 MSTORE DUP1 MLOAD SWAP1 PUSH1 0x20 ADD KECCAK256 DUP3 PUSH1 0x40 MLOAD PUSH1 0x20 ADD PUSH2 0xFC2 SWAP2 SWAP1 PUSH2 0x1BF7 JUMP JUMPDEST PUSH1 0x40 MLOAD PUSH1 0x20 DUP2 DUP4 SUB SUB DUP2 MSTORE SWAP1 PUSH1 0x40 MSTORE DUP1 MLOAD SWAP1 PUSH1 0x20 ADD KECCAK256 EQ JUMPDEST DUP1 PUSH2 0x1065 JUMPI POP PUSH1 0x40 MLOAD DUP1 PUSH1 0x40 ADD PUSH1 0x40 MSTORE DUP1 PUSH1 0x8 DUP2 MSTORE PUSH1 0x20 ADD PUSH32 0x52657461696C6572000000000000000000000000000000000000000000000000 DUP2 MSTORE POP PUSH1 0x40 MLOAD PUSH1 0x20 ADD PUSH2 0x1026 SWAP2 SWAP1 PUSH2 0x1BF7 JUMP JUMPDEST PUSH1 0x40 MLOAD PUSH1 0x20 DUP2 DUP4 SUB SUB DUP2 MSTORE SWAP1 PUSH1 0x40 MSTORE DUP1 MLOAD SWAP1 PUSH1 0x20 ADD KECCAK256 DUP3 PUSH1 0x40 MLOAD PUSH1 0x20 ADD PUSH2 0x104D SWAP2 SWAP1 PUSH2 0x1BF7 JUMP JUMPDEST PUSH1 0x40 MLOAD PUSH1 0x20 DUP2 DUP4 SUB SUB DUP2 MSTORE SWAP1 PUSH1 0x40 MSTORE DUP1 MLOAD SWAP1 PUSH1 0x20 ADD KECCAK256 EQ JUMPDEST SWAP1 POP SWAP2 SWAP1 POP JUMP JUMPDEST PUSH1 0x60 PUSH0 DUP3 SWAP1 POP PUSH0 DUP2 MLOAD PUSH8 0xFFFFFFFFFFFFFFFF DUP2 GT ISZERO PUSH2 0x108E JUMPI PUSH2 0x108D PUSH2 0x16E4 JUMP JUMPDEST JUMPDEST PUSH1 0x40 MLOAD SWAP1 DUP1 DUP3 MSTORE DUP1 PUSH1 0x1F ADD PUSH1 0x1F NOT AND PUSH1 0x20 ADD DUP3 ADD PUSH1 0x40 MSTORE DUP1 ISZERO PUSH2 0x10C0 JUMPI DUP2 PUSH1 0x20 ADD PUSH1 0x1 DUP3 MUL DUP1 CALLDATASIZE DUP4 CALLDATACOPY DUP1 DUP3 ADD SWAP2 POP POP SWAP1 POP JUMPDEST POP SWAP1 POP PUSH0 JUMPDEST DUP3 MLOAD DUP2 LT ISZERO PUSH2 0x120E JUMPI PUSH1 0x41 DUP4 DUP3 DUP2 MLOAD DUP2 LT PUSH2 0x10E3 JUMPI PUSH2 0x10E2 PUSH2 0x1E45 JUMP JUMPDEST JUMPDEST PUSH1 0x20 ADD ADD MLOAD PUSH1 0xF8 SHR PUSH1 0xF8 SHL PUSH1 0xF8 SHR PUSH1 0xFF AND LT ISZERO DUP1 ISZERO PUSH2 0x1126 JUMPI POP PUSH1 0x5A DUP4 DUP3 DUP2 MLOAD DUP2 LT PUSH2 0x1112 JUMPI PUSH2 0x1111 PUSH2 0x1E45 JUMP JUMPDEST JUMPDEST PUSH1 0x20 ADD ADD MLOAD PUSH1 0xF8 SHR PUSH1 0xF8 SHL PUSH1 0xF8 SHR PUSH1 0xFF AND GT ISZERO JUMPDEST ISZERO PUSH2 0x11A1 JUMPI PUSH1 0x20 DUP4 DUP3 DUP2 MLOAD DUP2 LT PUSH2 0x1140 JUMPI PUSH2 0x113F PUSH2 0x1E45 JUMP JUMPDEST JUMPDEST PUSH1 0x20 ADD ADD MLOAD PUSH1 0xF8 SHR PUSH1 0xF8 SHL PUSH1 0xF8 SHR PUSH2 0x1158 SWAP2 SWAP1 PUSH2 0x24CF JUMP JUMPDEST PUSH1 0xF8 SHL DUP3 DUP3 DUP2 MLOAD DUP2 LT PUSH2 0x116E JUMPI PUSH2 0x116D PUSH2 0x1E45 JUMP JUMPDEST JUMPDEST PUSH1 0x20 ADD ADD SWAP1 PUSH31 0xFFFFFFFFFFFFFFFFFFFFFFFFFFFFFFFFFFFFFFFFFFFFFFFFFFFFFFFFFFFFFF NOT AND SWAP1 DUP2 PUSH0 BYTE SWAP1 MSTORE8 POP PUSH2 0x1201 JUMP JUMPDEST DUP3 DUP2 DUP2 MLOAD DUP2 LT PUSH2 0x11B4 JUMPI PUSH2 0x11B3 PUSH2 0x1E45 JUMP JUMPDEST JUMPDEST PUSH1 0x20 ADD ADD MLOAD PUSH1 0xF8 SHR PUSH1 0xF8 SHL DUP3 DUP3 DUP2 MLOAD DUP2 LT PUSH2 0x11D2 JUMPI PUSH2 0x11D1 PUSH2 0x1E45 JUMP JUMPDEST JUMPDEST PUSH1 0x20 ADD ADD SWAP1 PUSH31 0xFFFFFFFFFFFFFFFFFFFFFFFFFFFFFFFFFFFFFFFFFFFFFFFFFFFFFFFFFFFFFF NOT AND SWAP1 DUP2 PUSH0 BYTE SWAP1 MSTORE8 POP JUMPDEST DUP1 DUP1 PUSH1 0x1 ADD SWAP2 POP POP PUSH2 0x10C5 JUMP JUMPDEST POP DUP1 SWAP3 POP POP POP SWAP2 SWAP1 POP JUMP JUMPDEST PUSH0 DUP1 PUSH2 0x1224 DUP4 PUSH2 0x106C JUMP JUMPDEST SWAP1 POP PUSH0 JUMPDEST PUSH0 DUP1 SLOAD SWAP1 POP DUP2 LT ISZERO PUSH2 0x12FC JUMPI PUSH2 0x12DF DUP3 PUSH0 DUP4 DUP2 SLOAD DUP2 LT PUSH2 0x124B JUMPI PUSH2 0x124A PUSH2 0x1E45 JUMP JUMPDEST JUMPDEST SWAP1 PUSH0 MSTORE PUSH1 0x20 PUSH0 KECCAK256 ADD DUP1 SLOAD PUSH2 0x125E SWAP1 PUSH2 0x1FDB JUMP JUMPDEST DUP1 PUSH1 0x1F ADD PUSH1 0x20 DUP1 SWAP2 DIV MUL PUSH1 0x20 ADD PUSH1 0x40 MLOAD SWAP1 DUP2 ADD PUSH1 0x40 MSTORE DUP1 SWAP3 SWAP2 SWAP1 DUP2 DUP2 MSTORE PUSH1 0x20 ADD DUP3 DUP1 SLOAD PUSH2 0x128A SWAP1 PUSH2 0x1FDB JUMP JUMPDEST DUP1 ISZERO PUSH2 0x12D5 JUMPI DUP1 PUSH1 0x1F LT PUSH2 0x12AC JUMPI PUSH2 0x100 DUP1 DUP4 SLOAD DIV MUL DUP4 MSTORE SWAP2 PUSH1 0x20 ADD SWAP2 PUSH2 0x12D5 JUMP JUMPDEST DUP3 ADD SWAP2 SWAP1 PUSH0 MSTORE PUSH1 0x20 PUSH0 KECCAK256 SWAP1 JUMPDEST DUP2 SLOAD DUP2 MSTORE SWAP1 PUSH1 0x1 ADD SWAP1 PUSH1 0x20 ADD DUP1 DUP4 GT PUSH2 0x12B8 JUMPI DUP3 SWAP1 SUB PUSH1 0x1F AND DUP3 ADD SWAP2 JUMPDEST POP POP POP POP POP PUSH2 0x159E JUMP JUMPDEST ISZERO PUSH2 0x12EF JUMPI PUSH1 0x1 SWAP3 POP POP POP PUSH2 0x1302 JUMP JUMPDEST DUP1 DUP1 PUSH1 0x1 ADD SWAP2 POP POP PUSH2 0x1228 JUMP JUMPDEST POP PUSH0 SWAP2 POP POP JUMPDEST SWAP2 SWAP1 POP JUMP JUMPDEST PUSH0 DUP1 DUP3 PUSH1 0x40 MLOAD PUSH1 0x20 ADD PUSH2 0x131A SWAP2 SWAP1 PUSH2 0x1BF7 JUMP JUMPDEST PUSH1 0x40 MLOAD PUSH1 0x20 DUP2 DUP4 SUB SUB DUP2 MSTORE SWAP1 PUSH1 0x40 MSTORE DUP1 MLOAD SWAP1 PUSH1 0x20 ADD KECCAK256 SWAP1 POP PUSH1 0x40 MLOAD DUP1 PUSH1 0x40 ADD PUSH1 0x40 MSTORE DUP1 PUSH1 0x5 DUP2 MSTORE PUSH1 0x20 ADD PUSH32 0x4D696E6572000000000000000000000000000000000000000000000000000000 DUP2 MSTORE POP PUSH1 0x40 MLOAD PUSH1 0x20 ADD PUSH2 0x1378 SWAP2 SWAP1 PUSH2 0x1BF7 JUMP JUMPDEST PUSH1 0x40 MLOAD PUSH1 0x20 DUP2 DUP4 SUB SUB DUP2 MSTORE SWAP1 PUSH1 0x40 MSTORE DUP1 MLOAD SWAP1 PUSH1 0x20 ADD KECCAK256 DUP2 SUB PUSH2 0x13BD JUMPI PUSH32 0x6100000000000000000000000000000000000000000000000000000000000000 SWAP2 POP POP PUSH2 0x1599 JUMP JUMPDEST PUSH1 0x40 MLOAD DUP1 PUSH1 0x40 ADD PUSH1 0x40 MSTORE DUP1 PUSH1 0xC DUP2 MSTORE PUSH1 0x20 ADD PUSH32 0x4D616E7566616374757265720000000000000000000000000000000000000000 DUP2 MSTORE POP PUSH1 0x40 MLOAD PUSH1 0x20 ADD PUSH2 0x1403 SWAP2 SWAP1 PUSH2 0x1BF7 JUMP JUMPDEST PUSH1 0x40 MLOAD PUSH1 0x20 DUP2 DUP4 SUB SUB DUP2 MSTORE SWAP1 PUSH1 0x40 MSTORE DUP1 MLOAD SWAP1 PUSH1 0x20 ADD KECCAK256 DUP2 SUB PUSH2 0x1448 JUMPI PUSH32 0x6200000000000000000000000000000000000000000000000000000000000000 SWAP2 POP POP PUSH2 0x1599 JUMP JUMPDEST PUSH1 0x40 MLOAD DUP1 PUSH1 0x40 ADD PUSH1 0x40 MSTORE DUP1 PUSH1 0x9 DUP2 MSTORE PUSH1 0x20 ADD PUSH32 0x4365727469666965720000000000000000000000000000000000000000000000 DUP2 MSTORE POP PUSH1 0x40 MLOAD PUSH1 0x20 ADD PUSH2 0x148E SWAP2 SWAP1 PUSH2 0x1BF7 JUMP JUMPDEST PUSH1 0x40 MLOAD PUSH1 0x20 DUP2 DUP4 SUB SUB DUP2 MSTORE SWAP1 PUSH1 0x40 MSTORE DUP1 MLOAD SWAP1 PUSH1 0x20 ADD KECCAK256 DUP2 SUB PUSH2 0x14D3 JUMPI PUSH32 0x6300000000000000000000000000000000000000000000000000000000000000 SWAP2 POP POP PUSH2 0x1599 JUMP JUMPDEST PUSH1 0x40 MLOAD DUP1 PUSH1 0x40 ADD PUSH1 0x40 MSTORE DUP1 PUSH1 0x8 DUP2 MSTORE PUSH1 0x20 ADD PUSH32 0x52657461696C6572000000000000000000000000000000000000000000000000 DUP2 MSTORE POP PUSH1 0x40 MLOAD PUSH1 0x20 ADD PUSH2 0x1519 SWAP2 SWAP1 PUSH2 0x1BF7 JUMP JUMPDEST PUSH1 0x40 MLOAD PUSH1 0x20 DUP2 DUP4 SUB SUB DUP2 MSTORE SWAP1 PUSH1 0x40 MSTORE DUP1 MLOAD SWAP1 PUSH1 0x20 ADD KECCAK256 DUP2 SUB PUSH2 0x155E JUMPI PUSH32 0x6400000000000000000000000000000000000000000000000000000000000000 SWAP2 POP POP PUSH2 0x1599 JUMP JUMPDEST PUSH1 0x40 MLOAD PUSH32 0x8C379A000000000000000000000000000000000000000000000000000000000 DUP2 MSTORE PUSH1 0x4 ADD PUSH2 0x1590 SWAP1 PUSH2 0x254D JUMP JUMPDEST PUSH1 0x40 MLOAD DUP1 SWAP2 SUB SWAP1 REVERT JUMPDEST SWAP2 SWAP1 POP JUMP JUMPDEST PUSH0 DUP1 DUP4 SWAP1 POP PUSH0 DUP4 SWAP1 POP DUP2 MLOAD DUP2 MLOAD GT ISZERO PUSH2 0x15BB JUMPI PUSH0 SWAP3 POP POP POP PUSH2 0x16B5 JUMP JUMPDEST PUSH0 JUMPDEST DUP2 MLOAD DUP4 MLOAD PUSH2 0x15CB SWAP2 SWAP1 PUSH2 0x256B JUMP JUMPDEST DUP2 GT PUSH2 0x16AE JUMPI PUSH0 PUSH1 0x1 SWAP1 POP PUSH0 JUMPDEST DUP4 MLOAD DUP2 LT ISZERO PUSH2 0x1686 JUMPI DUP4 DUP2 DUP2 MLOAD DUP2 LT PUSH2 0x15F4 JUMPI PUSH2 0x15F3 PUSH2 0x1E45 JUMP JUMPDEST JUMPDEST PUSH1 0x20 ADD ADD MLOAD PUSH1 0xF8 SHR PUSH1 0xF8 SHL PUSH31 0xFFFFFFFFFFFFFFFFFFFFFFFFFFFFFFFFFFFFFFFFFFFFFFFFFFFFFFFFFFFFFF NOT AND DUP6 DUP3 DUP6 PUSH2 0x162E SWAP2 SWAP1 PUSH2 0x259E JUMP JUMPDEST DUP2 MLOAD DUP2 LT PUSH2 0x163F JUMPI PUSH2 0x163E PUSH2 0x1E45 JUMP JUMPDEST JUMPDEST PUSH1 0x20 ADD ADD MLOAD PUSH1 0xF8 SHR PUSH1 0xF8 SHL PUSH31 0xFFFFFFFFFFFFFFFFFFFFFFFFFFFFFFFFFFFFFFFFFFFFFFFFFFFFFFFFFFFFFF NOT AND EQ PUSH2 0x1679 JUMPI PUSH0 SWAP2 POP PUSH2 0x1686 JUMP JUMPDEST DUP1 DUP1 PUSH1 0x1 ADD SWAP2 POP POP PUSH2 0x15D8 JUMP JUMPDEST POP DUP1 ISZERO PUSH2 0x169A JUMPI PUSH1 0x1 SWAP5 POP POP POP POP POP PUSH2 0x16B5 JUMP JUMPDEST POP DUP1 DUP1 PUSH2 0x16A6 SWAP1 PUSH2 0x25D1 JUMP JUMPDEST SWAP2 POP POP PUSH2 0x15BD JUMP JUMPDEST POP PUSH0 SWAP3 POP POP POP JUMPDEST SWAP3 SWAP2 POP POP JUMP JUMPDEST PUSH0 PUSH1 0x40 MLOAD SWAP1 POP SWAP1 JUMP JUMPDEST PUSH0 DUP1 REVERT JUMPDEST PUSH0 DUP1 REVERT JUMPDEST PUSH0 DUP1 REVERT JUMPDEST PUSH0 DUP1 REVERT JUMPDEST PUSH0 PUSH1 0x1F NOT PUSH1 0x1F DUP4 ADD AND SWAP1 POP SWAP2 SWAP1 POP JUMP JUMPDEST PUSH32 0x4E487B7100000000000000000000000000000000000000000000000000000000 PUSH0 MSTORE PUSH1 0x41 PUSH1 0x4 MSTORE PUSH1 0x24 PUSH0 REVERT JUMPDEST PUSH2 0x171A DUP3 PUSH2 0x16D4 JUMP JUMPDEST DUP2 ADD DUP2 DUP2 LT PUSH8 0xFFFFFFFFFFFFFFFF DUP3 GT OR ISZERO PUSH2 0x1739 JUMPI PUSH2 0x1738 PUSH2 0x16E4 JUMP JUMPDEST JUMPDEST DUP1 PUSH1 0x40 MSTORE POP POP POP JUMP JUMPDEST PUSH0 PUSH2 0x174B PUSH2 0x16BB JUMP JUMPDEST SWAP1 POP PUSH2 0x1757 DUP3 DUP3 PUSH2 0x1711 JUMP JUMPDEST SWAP2 SWAP1 POP JUMP JUMPDEST PUSH0 PUSH8 0xFFFFFFFFFFFFFFFF DUP3 GT ISZERO PUSH2 0x1776 JUMPI PUSH2 0x1775 PUSH2 0x16E4 JUMP JUMPDEST JUMPDEST PUSH2 0x177F DUP3 PUSH2 0x16D4 JUMP JUMPDEST SWAP1 POP PUSH1 0x20 DUP2 ADD SWAP1 POP SWAP2 SWAP1 POP JUMP JUMPDEST DUP3 DUP2 DUP4 CALLDATACOPY PUSH0 DUP4 DUP4 ADD MSTORE POP POP POP JUMP JUMPDEST PUSH0 PUSH2 0x17AC PUSH2 0x17A7 DUP5 PUSH2 0x175C JUMP JUMPDEST PUSH2 0x1742 JUMP JUMPDEST SWAP1 POP DUP3 DUP2 MSTORE PUSH1 0x20 DUP2 ADD DUP5 DUP5 DUP5 ADD GT ISZERO PUSH2 0x17C8 JUMPI PUSH2 0x17C7 PUSH2 0x16D0 JUMP JUMPDEST JUMPDEST PUSH2 0x17D3 DUP5 DUP3 DUP6 PUSH2 0x178C JUMP JUMPDEST POP SWAP4 SWAP3 POP POP POP JUMP JUMPDEST PUSH0 DUP3 PUSH1 0x1F DUP4 ADD SLT PUSH2 0x17EF JUMPI PUSH2 0x17EE PUSH2 0x16CC JUMP JUMPDEST JUMPDEST DUP2 CALLDATALOAD PUSH2 0x17FF DUP5 DUP3 PUSH1 0x20 DUP7 ADD PUSH2 0x179A JUMP JUMPDEST SWAP2 POP POP SWAP3 SWAP2 POP POP JUMP JUMPDEST PUSH0 PUSH1 0x20 DUP3 DUP5 SUB SLT ISZERO PUSH2 0x181D JUMPI PUSH2 0x181C PUSH2 0x16C4 JUMP JUMPDEST JUMPDEST PUSH0 DUP3 ADD CALLDATALOAD PUSH8 0xFFFFFFFFFFFFFFFF DUP2 GT ISZERO PUSH2 0x183A JUMPI PUSH2 0x1839 PUSH2 0x16C8 JUMP JUMPDEST JUMPDEST PUSH2 0x1846 DUP5 DUP3 DUP6 ADD PUSH2 0x17DB JUMP JUMPDEST SWAP2 POP POP SWAP3 SWAP2 POP POP JUMP JUMPDEST PUSH0 DUP2 MLOAD SWAP1 POP SWAP2 SWAP1 POP JUMP JUMPDEST PUSH0 DUP3 DUP3 MSTORE PUSH1 0x20 DUP3 ADD SWAP1 POP SWAP3 SWAP2 POP POP JUMP JUMPDEST PUSH0 DUP2 SWAP1 POP PUSH1 0x20 DUP3 ADD SWAP1 POP SWAP2 SWAP1 POP JUMP JUMPDEST PUSH0 PUSH20 0xFFFFFFFFFFFFFFFFFFFFFFFFFFFFFFFFFFFFFFFF DUP3 AND SWAP1 POP SWAP2 SWAP1 POP JUMP JUMPDEST PUSH0 PUSH2 0x18A1 DUP3 PUSH2 0x1878 JUMP JUMPDEST SWAP1 POP SWAP2 SWAP1 POP JUMP JUMPDEST PUSH2 0x18B1 DUP2 PUSH2 0x1897 JUMP JUMPDEST DUP3 MSTORE POP POP JUMP JUMPDEST PUSH0 PUSH2 0x18C2 DUP4 DUP4 PUSH2 0x18A8 JUMP JUMPDEST PUSH1 0x20 DUP4 ADD SWAP1 POP SWAP3 SWAP2 POP POP JUMP JUMPDEST PUSH0 PUSH1 0x20 DUP3 ADD SWAP1 POP SWAP2 SWAP1 POP JUMP JUMPDEST PUSH0 PUSH2 0x18E4 DUP3 PUSH2 0x184F JUMP JUMPDEST PUSH2 0x18EE DUP2 DUP6 PUSH2 0x1859 JUMP JUMPDEST SWAP4 POP PUSH2 0x18F9 DUP4 PUSH2 0x1869 JUMP JUMPDEST DUP1 PUSH0 JUMPDEST DUP4 DUP2 LT ISZERO PUSH2 0x1929 JUMPI DUP2 MLOAD PUSH2 0x1910 DUP9 DUP3 PUSH2 0x18B7 JUMP JUMPDEST SWAP8 POP PUSH2 0x191B DUP4 PUSH2 0x18CE JUMP JUMPDEST SWAP3 POP POP PUSH1 0x1 DUP2 ADD SWAP1 POP PUSH2 0x18FC JUMP JUMPDEST POP DUP6 SWAP4 POP POP POP POP SWAP3 SWAP2 POP POP JUMP JUMPDEST PUSH0 PUSH1 0x20 DUP3 ADD SWAP1 POP DUP2 DUP2 SUB PUSH0 DUP4 ADD MSTORE PUSH2 0x194E DUP2 DUP5 PUSH2 0x18DA JUMP JUMPDEST SWAP1 POP SWAP3 SWAP2 POP POP JUMP JUMPDEST PUSH0 DUP1 PUSH0 DUP1 PUSH1 0x80 DUP6 DUP8 SUB SLT ISZERO PUSH2 0x196E JUMPI PUSH2 0x196D PUSH2 0x16C4 JUMP JUMPDEST JUMPDEST PUSH0 DUP6 ADD CALLDATALOAD PUSH8 0xFFFFFFFFFFFFFFFF DUP2 GT ISZERO PUSH2 0x198B JUMPI PUSH2 0x198A PUSH2 0x16C8 JUMP JUMPDEST JUMPDEST PUSH2 0x1997 DUP8 DUP3 DUP9 ADD PUSH2 0x17DB JUMP JUMPDEST SWAP5 POP POP PUSH1 0x20 DUP6 ADD CALLDATALOAD PUSH8 0xFFFFFFFFFFFFFFFF DUP2 GT ISZERO PUSH2 0x19B8 JUMPI PUSH2 0x19B7 PUSH2 0x16C8 JUMP JUMPDEST JUMPDEST PUSH2 0x19C4 DUP8 DUP3 DUP9 ADD PUSH2 0x17DB JUMP JUMPDEST SWAP4 POP POP PUSH1 0x40 DUP6 ADD CALLDATALOAD PUSH8 0xFFFFFFFFFFFFFFFF DUP2 GT ISZERO PUSH2 0x19E5 JUMPI PUSH2 0x19E4 PUSH2 0x16C8 JUMP JUMPDEST JUMPDEST PUSH2 0x19F1 DUP8 DUP3 DUP9 ADD PUSH2 0x17DB JUMP JUMPDEST SWAP3 POP POP PUSH1 0x60 DUP6 ADD CALLDATALOAD PUSH8 0xFFFFFFFFFFFFFFFF DUP2 GT ISZERO PUSH2 0x1A12 JUMPI PUSH2 0x1A11 PUSH2 0x16C8 JUMP JUMPDEST JUMPDEST PUSH2 0x1A1E DUP8 DUP3 DUP9 ADD PUSH2 0x17DB JUMP JUMPDEST SWAP2 POP POP SWAP3 SWAP6 SWAP2 SWAP5 POP SWAP3 POP JUMP JUMPDEST PUSH2 0x1A33 DUP2 PUSH2 0x1897 JUMP JUMPDEST DUP2 EQ PUSH2 0x1A3D JUMPI PUSH0 DUP1 REVERT JUMPDEST POP JUMP JUMPDEST PUSH0 DUP2 CALLDATALOAD SWAP1 POP PUSH2 0x1A4E DUP2 PUSH2 0x1A2A JUMP JUMPDEST SWAP3 SWAP2 POP POP JUMP JUMPDEST PUSH0 PUSH1 0x20 DUP3 DUP5 SUB SLT ISZERO PUSH2 0x1A69 JUMPI PUSH2 0x1A68 PUSH2 0x16C4 JUMP JUMPDEST JUMPDEST PUSH0 PUSH2 0x1A76 DUP5 DUP3 DUP6 ADD PUSH2 0x1A40 JUMP JUMPDEST SWAP2 POP POP SWAP3 SWAP2 POP POP JUMP JUMPDEST PUSH0 DUP2 MLOAD SWAP1 POP SWAP2 SWAP1 POP JUMP JUMPDEST PUSH0 DUP3 DUP3 MSTORE PUSH1 0x20 DUP3 ADD SWAP1 POP SWAP3 SWAP2 POP POP JUMP JUMPDEST DUP3 DUP2 DUP4 MCOPY PUSH0 DUP4 DUP4 ADD MSTORE POP POP POP JUMP JUMPDEST PUSH0 PUSH2 0x1AB1 DUP3 PUSH2 0x1A7F JUMP JUMPDEST PUSH2 0x1ABB DUP2 DUP6 PUSH2 0x1A89 JUMP JUMPDEST SWAP4 POP PUSH2 0x1ACB DUP2 DUP6 PUSH1 0x20 DUP7 ADD PUSH2 0x1A99 JUMP JUMPDEST PUSH2 0x1AD4 DUP2 PUSH2 0x16D4 JUMP JUMPDEST DUP5 ADD SWAP2 POP POP SWAP3 SWAP2 POP POP JUMP JUMPDEST PUSH0 DUP2 ISZERO ISZERO SWAP1 POP SWAP2 SWAP1 POP JUMP JUMPDEST PUSH2 0x1AF3 DUP2 PUSH2 0x1ADF JUMP JUMPDEST DUP3 MSTORE POP POP JUMP JUMPDEST PUSH0 PUSH1 0xA0 DUP3 ADD SWAP1 POP DUP2 DUP2 SUB PUSH0 DUP4 ADD MSTORE PUSH2 0x1B11 DUP2 DUP9 PUSH2 0x1AA7 JUMP JUMPDEST SWAP1 POP DUP2 DUP2 SUB PUSH1 0x20 DUP4 ADD MSTORE PUSH2 0x1B25 DUP2 DUP8 PUSH2 0x1AA7 JUMP JUMPDEST SWAP1 POP PUSH2 0x1B34 PUSH1 0x40 DUP4 ADD DUP7 PUSH2 0x1AEA JUMP JUMPDEST DUP2 DUP2 SUB PUSH1 0x60 DUP4 ADD MSTORE PUSH2 0x1B46 DUP2 DUP6 PUSH2 0x1AA7 JUMP JUMPDEST SWAP1 POP DUP2 DUP2 SUB PUSH1 0x80 DUP4 ADD MSTORE PUSH2 0x1B5A DUP2 DUP5 PUSH2 0x1AA7 JUMP JUMPDEST SWAP1 POP SWAP7 SWAP6 POP POP POP POP POP POP JUMP JUMPDEST PUSH0 DUP1 PUSH1 0x40 DUP4 DUP6 SUB SLT ISZERO PUSH2 0x1B7C JUMPI PUSH2 0x1B7B PUSH2 0x16C4 JUMP JUMPDEST JUMPDEST PUSH0 PUSH2 0x1B89 DUP6 DUP3 DUP7 ADD PUSH2 0x1A40 JUMP JUMPDEST SWAP3 POP POP PUSH1 0x20 PUSH2 0x1B9A DUP6 DUP3 DUP7 ADD PUSH2 0x1A40 JUMP JUMPDEST SWAP2 POP POP SWAP3 POP SWAP3 SWAP1 POP JUMP JUMPDEST PUSH0 PUSH1 0x20 DUP3 ADD SWAP1 POP PUSH2 0x1BB7 PUSH0 DUP4 ADD DUP5 PUSH2 0x1AEA JUMP JUMPDEST SWAP3 SWAP2 POP POP JUMP JUMPDEST PUSH0 DUP2 SWAP1 POP SWAP3 SWAP2 POP POP JUMP JUMPDEST PUSH0 PUSH2 0x1BD1 DUP3 PUSH2 0x1A7F JUMP JUMPDEST PUSH2 0x1BDB DUP2 DUP6 PUSH2 0x1BBD JUMP JUMPDEST SWAP4 POP PUSH2 0x1BEB DUP2 DUP6 PUSH1 0x20 DUP7 ADD PUSH2 0x1A99 JUMP JUMPDEST DUP1 DUP5 ADD SWAP2 POP POP SWAP3 SWAP2 POP POP JUMP JUMPDEST PUSH0 PUSH2 0x1C02 DUP3 DUP5 PUSH2 0x1BC7 JUMP JUMPDEST SWAP2 POP DUP2 SWAP1 POP SWAP3 SWAP2 POP POP JUMP JUMPDEST PUSH32 0x496E76616C696420726F6C652E204D757374206265204D696E65722C204D616E PUSH0 DUP3 ADD MSTORE PUSH32 0x7566616374757265722C204365727469666965722C206F722052657461696C65 PUSH1 0x20 DUP3 ADD MSTORE PUSH32 0x7200000000000000000000000000000000000000000000000000000000000000 PUSH1 0x40 DUP3 ADD MSTORE POP JUMP JUMPDEST PUSH0 PUSH2 0x1C8D PUSH1 0x41 DUP4 PUSH2 0x1A89 JUMP JUMPDEST SWAP2 POP PUSH2 0x1C98 DUP3 PUSH2 0x1C0D JUMP JUMPDEST PUSH1 0x60 DUP3 ADD SWAP1 POP SWAP2 SWAP1 POP JUMP JUMPDEST PUSH0 PUSH1 0x20 DUP3 ADD SWAP1 POP DUP2 DUP2 SUB PUSH0 DUP4 ADD MSTORE PUSH2 0x1CBA DUP2 PUSH2 0x1C81 JUMP JUMPDEST SWAP1 POP SWAP2 SWAP1 POP JUMP JUMPDEST PUSH32 0x526567697374726174696F6E2072656A65637465643A204C6F636174696F6E20 PUSH0 DUP3 ADD MSTORE PUSH32 0x697320696E206120636F6E666C696374207A6F6E652062616E6E656420627920 PUSH1 0x20 DUP3 ADD MSTORE PUSH32 0x746865204B696D6265726C65792050726F636573730000000000000000000000 PUSH1 0x40 DUP3 ADD MSTORE POP JUMP JUMPDEST PUSH0 PUSH2 0x1D41 PUSH1 0x55 DUP4 PUSH2 0x1A89 JUMP JUMPDEST SWAP2 POP PUSH2 0x1D4C DUP3 PUSH2 0x1CC1 JUMP JUMPDEST PUSH1 0x60 DUP3 ADD SWAP1 POP SWAP2 SWAP1 POP JUMP JUMPDEST PUSH0 PUSH1 0x20 DUP3 ADD SWAP1 POP DUP2 DUP2 SUB PUSH0 DUP4 ADD MSTORE PUSH2 0x1D6E DUP2 PUSH2 0x1D35 JUMP JUMPDEST SWAP1 POP SWAP2 SWAP1 POP JUMP JUMPDEST PUSH32 0x456E7469747920616C7265616479207265676973746572656400000000000000 PUSH0 DUP3 ADD MSTORE POP JUMP JUMPDEST PUSH0 PUSH2 0x1DA9 PUSH1 0x19 DUP4 PUSH2 0x1A89 JUMP JUMPDEST SWAP2 POP PUSH2 0x1DB4 DUP3 PUSH2 0x1D75 JUMP JUMPDEST PUSH1 0x20 DUP3 ADD SWAP1 POP SWAP2 SWAP1 POP JUMP JUMPDEST PUSH0 PUSH1 0x20 DUP3 ADD SWAP1 POP DUP2 DUP2 SUB PUSH0 DUP4 ADD MSTORE PUSH2 0x1DD6 DUP2 PUSH2 0x1D9D JUMP JUMPDEST SWAP1 POP SWAP2 SWAP1 POP JUMP JUMPDEST PUSH32 0x4C6963656E7365206E756D6265722063616E6E6F7420626520656D7074790000 PUSH0 DUP3 ADD MSTORE POP JUMP JUMPDEST PUSH0 PUSH2 0x1E11 PUSH1 0x1E DUP4 PUSH2 0x1A89 JUMP JUMPDEST SWAP2 POP PUSH2 0x1E1C DUP3 PUSH2 0x1DDD JUMP JUMPDEST PUSH1 0x20 DUP3 ADD SWAP1 POP SWAP2 SWAP1 POP JUMP JUMPDEST PUSH0 PUSH1 0x20 DUP3 ADD SWAP1 POP DUP2 DUP2 SUB PUSH0 DUP4 ADD MSTORE PUSH2 0x1E3E DUP2 PUSH2 0x1E05 JUMP JUMPDEST SWAP1 POP SWAP2 SWAP1 POP JUMP JUMPDEST PUSH32 0x4E487B7100000000000000000000000000000000000000000000000000000000 PUSH0 MSTORE PUSH1 0x32 PUSH1 0x4 MSTORE PUSH1 0x24 PUSH0 REVERT JUMPDEST PUSH32 0x4C6963656E7365206D7573742073746172742077697468202700000000000000 PUSH0 DUP3 ADD MSTORE POP JUMP JUMPDEST PUSH0 PUSH2 0x1EA6 PUSH1 0x19 DUP4 PUSH2 0x1BBD JUMP JUMPDEST SWAP2 POP PUSH2 0x1EB1 DUP3 PUSH2 0x1E72 JUMP JUMPDEST PUSH1 0x19 DUP3 ADD SWAP1 POP SWAP2 SWAP1 POP JUMP JUMPDEST PUSH0 PUSH32 0xFF00000000000000000000000000000000000000000000000000000000000000 DUP3 AND SWAP1 POP SWAP2 SWAP1 POP JUMP JUMPDEST PUSH0 DUP2 SWAP1 POP SWAP2 SWAP1 POP JUMP JUMPDEST PUSH2 0x1F01 PUSH2 0x1EFC DUP3 PUSH2 0x1EBC JUMP JUMPDEST PUSH2 0x1EE7 JUMP JUMPDEST DUP3 MSTORE POP POP JUMP JUMPDEST PUSH32 0x2720666F72200000000000000000000000000000000000000000000000000000 PUSH0 DUP3 ADD MSTORE POP JUMP JUMPDEST PUSH0 PUSH2 0x1F3B PUSH1 0x6 DUP4 PUSH2 0x1BBD JUMP JUMPDEST SWAP2 POP PUSH2 0x1F46 DUP3 PUSH2 0x1F07 JUMP JUMPDEST PUSH1 0x6 DUP3 ADD SWAP1 POP SWAP2 SWAP1 POP JUMP JUMPDEST PUSH0 PUSH2 0x1F5B DUP3 PUSH2 0x1E9A JUMP JUMPDEST SWAP2 POP PUSH2 0x1F67 DUP3 DUP6 PUSH2 0x1EF0 JUMP JUMPDEST PUSH1 0x1 DUP3 ADD SWAP2 POP PUSH2 0x1F76 DUP3 PUSH2 0x1F2F JUMP JUMPDEST SWAP2 POP PUSH2 0x1F82 DUP3 DUP5 PUSH2 0x1BC7 JUMP JUMPDEST SWAP2 POP DUP2 SWAP1 POP SWAP4 SWAP3 POP POP POP JUMP JUMPDEST PUSH0 PUSH1 0x20 DUP3 ADD SWAP1 POP DUP2 DUP2 SUB PUSH0 DUP4 ADD MSTORE PUSH2 0x1FA6 DUP2 DUP5 PUSH2 0x1AA7 JUMP JUMPDEST SWAP1 POP SWAP3 SWAP2 POP POP JUMP JUMPDEST PUSH32 0x4E487B7100000000000000000000000000000000000000000000000000000000 PUSH0 MSTORE PUSH1 0x22 PUSH1 0x4 MSTORE PUSH1 0x24 PUSH0 REVERT JUMPDEST PUSH0 PUSH1 0x2 DUP3 DIV SWAP1 POP PUSH1 0x1 DUP3 AND DUP1 PUSH2 0x1FF2 JUMPI PUSH1 0x7F DUP3 AND SWAP2 POP JUMPDEST PUSH1 0x20 DUP3 LT DUP2 SUB PUSH2 0x2005 JUMPI PUSH2 0x2004 PUSH2 0x1FAE JUMP JUMPDEST JUMPDEST POP SWAP2 SWAP1 POP JUMP JUMPDEST PUSH0 DUP2 SWAP1 POP DUP2 PUSH0 MSTORE PUSH1 0x20 PUSH0 KECCAK256 SWAP1 POP SWAP2 SWAP1 POP JUMP JUMPDEST PUSH0 PUSH1 0x20 PUSH1 0x1F DUP4 ADD DIV SWAP1 POP SWAP2 SWAP1 POP JUMP JUMPDEST PUSH0 DUP3 DUP3 SHL SWAP1 POP SWAP3 SWAP2 POP POP JUMP JUMPDEST PUSH0 PUSH1 0x8 DUP4 MUL PUSH2 0x2067 PUSH32 0xFFFFFFFFFFFFFFFFFFFFFFFFFFFFFFFFFFFFFFFFFFFFFFFFFFFFFFFFFFFFFFFF DUP3 PUSH2 0x202C JUMP JUMPDEST PUSH2 0x2071 DUP7 DUP4 PUSH2 0x202C JUMP JUMPDEST SWAP6 POP DUP1 NOT DUP5 AND SWAP4 POP DUP1 DUP7 AND DUP5 OR SWAP3 POP POP POP SWAP4 SWAP3 POP POP POP JUMP JUMPDEST PUSH0 DUP2 SWAP1 POP SWAP2 SWAP1 POP JUMP JUMPDEST PUSH0 DUP2 SWAP1 POP SWAP2 SWAP1 POP JUMP JUMPDEST PUSH0 PUSH2 0x20B5 PUSH2 0x20B0 PUSH2 0x20AB DUP5 PUSH2 0x2089 JUMP JUMPDEST PUSH2 0x2092 JUMP JUMPDEST PUSH2 0x2089 JUMP JUMPDEST SWAP1 POP SWAP2 SWAP1 POP JUMP JUMPDEST PUSH0 DUP2 SWAP1 POP SWAP2 SWAP1 POP JUMP JUMPDEST PUSH2 0x20CE DUP4 PUSH2 0x209B JUMP JUMPDEST PUSH2 0x20E2 PUSH2 0x20DA DUP3 PUSH2 0x20BC JUMP JUMPDEST DUP5 DUP5 SLOAD PUSH2 0x2038 JUMP JUMPDEST DUP3 SSTORE POP POP POP POP JUMP JUMPDEST PUSH0 SWAP1 JUMP JUMPDEST PUSH2 0x20F6 PUSH2 0x20EA JUMP JUMPDEST PUSH2 0x2101 DUP2 DUP5 DUP5 PUSH2 0x20C5 JUMP JUMPDEST POP POP POP JUMP JUMPDEST JUMPDEST DUP2 DUP2 LT ISZERO PUSH2 0x2124 JUMPI PUSH2 0x2119 PUSH0 DUP3 PUSH2 0x20EE JUMP JUMPDEST PUSH1 0x1 DUP2 ADD SWAP1 POP PUSH2 0x2107 JUMP JUMPDEST POP POP JUMP JUMPDEST PUSH1 0x1F DUP3 GT ISZERO PUSH2 0x2169 JUMPI PUSH2 0x213A DUP2 PUSH2 0x200B JUMP JUMPDEST PUSH2 0x2143 DUP5 PUSH2 0x201D JUMP JUMPDEST DUP2 ADD PUSH1 0x20 DUP6 LT ISZERO PUSH2 0x2152 JUMPI DUP2 SWAP1 POP JUMPDEST PUSH2 0x2166 PUSH2 0x215E DUP6 PUSH2 0x201D JUMP JUMPDEST DUP4 ADD DUP3 PUSH2 0x2106 JUMP JUMPDEST POP POP JUMPDEST POP POP POP JUMP JUMPDEST PUSH0 DUP3 DUP3 SHR SWAP1 POP SWAP3 SWAP2 POP POP JUMP JUMPDEST PUSH0 PUSH2 0x2189 PUSH0 NOT DUP5 PUSH1 0x8 MUL PUSH2 0x216E JUMP JUMPDEST NOT DUP1 DUP4 AND SWAP2 POP POP SWAP3 SWAP2 POP POP JUMP JUMPDEST PUSH0 PUSH2 0x21A1 DUP4 DUP4 PUSH2 0x217A JUMP JUMPDEST SWAP2 POP DUP3 PUSH1 0x2 MUL DUP3 OR SWAP1 POP SWAP3 SWAP2 POP POP JUMP JUMPDEST PUSH2 0x21BA DUP3 PUSH2 0x1A7F JUMP JUMPDEST PUSH8 0xFFFFFFFFFFFFFFFF DUP2 GT ISZERO PUSH2 0x21D3 JUMPI PUSH2 0x21D2 PUSH2 0x16E4 JUMP JUMPDEST JUMPDEST PUSH2 0x21DD DUP3 SLOAD PUSH2 0x1FDB JUMP JUMPDEST PUSH2 0x21E8 DUP3 DUP3 DUP6 PUSH2 0x2128 JUMP JUMPDEST PUSH0 PUSH1 0x20 SWAP1 POP PUSH1 0x1F DUP4 GT PUSH1 0x1 DUP2 EQ PUSH2 0x2219 JUMPI PUSH0 DUP5 ISZERO PUSH2 0x2207 JUMPI DUP3 DUP8 ADD MLOAD SWAP1 POP JUMPDEST PUSH2 0x2211 DUP6 DUP3 PUSH2 0x2196 JUMP JUMPDEST DUP7 SSTORE POP PUSH2 0x2278 JUMP JUMPDEST PUSH1 0x1F NOT DUP5 AND PUSH2 0x2227 DUP7 PUSH2 0x200B JUMP JUMPDEST PUSH0 JUMPDEST DUP3 DUP2 LT ISZERO PUSH2 0x224E JUMPI DUP5 DUP10 ADD MLOAD DUP3 SSTORE PUSH1 0x1 DUP3 ADD SWAP2 POP PUSH1 0x20 DUP6 ADD SWAP5 POP PUSH1 0x20 DUP2 ADD SWAP1 POP PUSH2 0x2229 JUMP JUMPDEST DUP7 DUP4 LT ISZERO PUSH2 0x226B JUMPI DUP5 DUP10 ADD MLOAD PUSH2 0x2267 PUSH1 0x1F DUP10 AND DUP3 PUSH2 0x217A JUMP JUMPDEST DUP4 SSTORE POP JUMPDEST PUSH1 0x1 PUSH1 0x2 DUP9 MUL ADD DUP9 SSTORE POP POP POP JUMPDEST POP POP POP POP POP POP JUMP JUMPDEST PUSH0 PUSH1 0x60 DUP3 ADD SWAP1 POP DUP2 DUP2 SUB PUSH0 DUP4 ADD MSTORE PUSH2 0x2298 DUP2 DUP7 PUSH2 0x1AA7 JUMP JUMPDEST SWAP1 POP DUP2 DUP2 SUB PUSH1 0x20 DUP4 ADD MSTORE PUSH2 0x22AC DUP2 DUP6 PUSH2 0x1AA7 JUMP JUMPDEST SWAP1 POP DUP2 DUP2 SUB PUSH1 0x40 DUP4 ADD MSTORE PUSH2 0x22C0 DUP2 DUP5 PUSH2 0x1AA7 JUMP JUMPDEST SWAP1 POP SWAP5 SWAP4 POP POP POP POP JUMP JUMPDEST PUSH32 0x56616C6964207472616E73666572206265747765656E20726567697374657265 PUSH0 DUP3 ADD MSTORE PUSH32 0x6420656E7469746965733A200000000000000000000000000000000000000000 PUSH1 0x20 DUP3 ADD MSTORE POP JUMP JUMPDEST PUSH0 PUSH2 0x2324 PUSH1 0x2C DUP4 PUSH2 0x1BBD JUMP JUMPDEST SWAP2 POP PUSH2 0x232F DUP3 PUSH2 0x22CA JUMP JUMPDEST PUSH1 0x2C DUP3 ADD SWAP1 POP SWAP2 SWAP1 POP JUMP JUMPDEST PUSH0 DUP2 SLOAD PUSH2 0x2346 DUP2 PUSH2 0x1FDB JUMP JUMPDEST PUSH2 0x2350 DUP2 DUP7 PUSH2 0x1BBD JUMP JUMPDEST SWAP5 POP PUSH1 0x1 DUP3 AND PUSH0 DUP2 EQ PUSH2 0x236A JUMPI PUSH1 0x1 DUP2 EQ PUSH2 0x237F JUMPI PUSH2 0x23B1 JUMP JUMPDEST PUSH1 0xFF NOT DUP4 AND DUP7 MSTORE DUP2 ISZERO ISZERO DUP3 MUL DUP7 ADD SWAP4 POP PUSH2 0x23B1 JUMP JUMPDEST PUSH2 0x2388 DUP6 PUSH2 0x200B JUMP JUMPDEST PUSH0 JUMPDEST DUP4 DUP2 LT ISZERO PUSH2 0x23A9 JUMPI DUP2 SLOAD DUP2 DUP10 ADD MSTORE PUSH1 0x1 DUP3 ADD SWAP2 POP PUSH1 0x20 DUP2 ADD SWAP1 POP PUSH2 0x238A JUMP JUMPDEST DUP4 DUP9 ADD SWAP6 POP POP POP JUMPDEST POP POP POP SWAP3 SWAP2 POP POP JUMP JUMPDEST PUSH32 0x20746F2000000000000000000000000000000000000000000000000000000000 PUSH0 DUP3 ADD MSTORE POP JUMP JUMPDEST PUSH0 PUSH2 0x23EE PUSH1 0x4 DUP4 PUSH2 0x1BBD JUMP JUMPDEST SWAP2 POP PUSH2 0x23F9 DUP3 PUSH2 0x23BA JUMP JUMPDEST PUSH1 0x4 DUP3 ADD SWAP1 POP SWAP2 SWAP1 POP JUMP JUMPDEST PUSH0 PUSH2 0x240E DUP3 PUSH2 0x2318 JUMP JUMPDEST SWAP2 POP PUSH2 0x241A DUP3 DUP6 PUSH2 0x233A JUMP JUMPDEST SWAP2 POP PUSH2 0x2425 DUP3 PUSH2 0x23E2 JUMP JUMPDEST SWAP2 POP PUSH2 0x2431 DUP3 DUP5 PUSH2 0x233A JUMP JUMPDEST SWAP2 POP DUP2 SWAP1 POP SWAP4 SWAP3 POP POP POP JUMP JUMPDEST PUSH2 0x2446 DUP2 PUSH2 0x1897 JUMP JUMPDEST DUP3 MSTORE POP POP JUMP JUMPDEST PUSH0 PUSH1 0x80 DUP3 ADD SWAP1 POP PUSH2 0x245F PUSH0 DUP4 ADD DUP8 PUSH2 0x243D JUMP JUMPDEST PUSH2 0x246C PUSH1 0x20 DUP4 ADD DUP7 PUSH2 0x243D JUMP JUMPDEST PUSH2 0x2479 PUSH1 0x40 DUP4 ADD DUP6 PUSH2 0x1AEA JUMP JUMPDEST DUP2 DUP2 SUB PUSH1 0x60 DUP4 ADD MSTORE PUSH2 0x248B DUP2 DUP5 PUSH2 0x1AA7 JUMP JUMPDEST SWAP1 POP SWAP6 SWAP5 POP POP POP POP POP JUMP JUMPDEST PUSH0 PUSH1 0xFF DUP3 AND SWAP1 POP SWAP2 SWAP1 POP JUMP JUMPDEST PUSH32 0x4E487B7100000000000000000000000000000000000000000000000000000000 PUSH0 MSTORE PUSH1 0x11 PUSH1 0x4 MSTORE PUSH1 0x24 PUSH0 REVERT JUMPDEST PUSH0 PUSH2 0x24D9 DUP3 PUSH2 0x2496 JUMP JUMPDEST SWAP2 POP PUSH2 0x24E4 DUP4 PUSH2 0x2496 JUMP JUMPDEST SWAP3 POP DUP3 DUP3 ADD SWAP1 POP PUSH1 0xFF DUP2 GT ISZERO PUSH2 0x24FD JUMPI PUSH2 0x24FC PUSH2 0x24A2 JUMP JUMPDEST JUMPDEST SWAP3 SWAP2 POP POP JUMP JUMPDEST PUSH32 0x496E76616C696420726F6C650000000000000000000000000000000000000000 PUSH0 DUP3 ADD MSTORE POP JUMP JUMPDEST PUSH0 PUSH2 0x2537 PUSH1 0xC DUP4 PUSH2 0x1A89 JUMP JUMPDEST SWAP2 POP PUSH2 0x2542 DUP3 PUSH2 0x2503 JUMP JUMPDEST PUSH1 0x20 DUP3 ADD SWAP1 POP SWAP2 SWAP1 POP JUMP JUMPDEST PUSH0 PUSH1 0x20 DUP3 ADD SWAP1 POP DUP2 DUP2 SUB PUSH0 DUP4 ADD MSTORE PUSH2 0x2564 DUP2 PUSH2 0x252B JUMP JUMPDEST SWAP1 POP SWAP2 SWAP1 POP JUMP JUMPDEST PUSH0 PUSH2 0x2575 DUP3 PUSH2 0x2089 JUMP JUMPDEST SWAP2 POP PUSH2 0x2580 DUP4 PUSH2 0x2089 JUMP JUMPDEST SWAP3 POP DUP3 DUP3 SUB SWAP1 POP DUP2 DUP2 GT ISZERO PUSH2 0x2598 JUMPI PUSH2 0x2597 PUSH2 0x24A2 JUMP JUMPDEST JUMPDEST SWAP3 SWAP2 POP POP JUMP JUMPDEST PUSH0 PUSH2 0x25A8 DUP3 PUSH2 0x2089 JUMP JUMPDEST SWAP2 POP PUSH2 0x25B3 DUP4 PUSH2 0x2089 JUMP JUMPDEST SWAP3 POP DUP3 DUP3 ADD SWAP1 POP DUP1 DUP3 GT ISZERO PUSH2 0x25CB JUMPI PUSH2 0x25CA PUSH2 0x24A2 JUMP JUMPDEST JUMPDEST SWAP3 SWAP2 POP POP JUMP JUMPDEST PUSH0 PUSH2 0x25DB DUP3 PUSH2 0x2089 JUMP JUMPDEST SWAP2 POP PUSH32 0xFFFFFFFFFFFFFFFFFFFFFFFFFFFFFFFFFFFFFFFFFFFFFFFFFFFFFFFFFFFFFFFF DUP3 SUB PUSH2 0x260D JUMPI PUSH2 0x260C PUSH2 0x24A2 JUMP JUMPDEST JUMPDEST PUSH1 0x1 DUP3 ADD SWAP1 POP SWAP2 SWAP1 POP JUMP INVALID BLOBHASH PUSH15 0x76616C6964207472616E736665723A KECCAK256 MSTORE8 PUSH6 0x6E6465722069 PUSH20 0x206E6F742061207265676973746572656420656E PUSH21 0x697479496E76616C6964207472616E736665723A20 TIMESTAMP PUSH16 0x74682073656E64657220616E64207265 PUSH4 0x65697665 PUSH19 0x20617265206E6F742072656769737465726564 KECCAK256 PUSH6 0x6E7469746965 PUSH20 0x496E76616C6964207472616E736665723A205265 PUSH4 0x65697665 PUSH19 0x206973206E6F74206120726567697374657265 PUSH5 0x20656E7469 PUSH21 0x79A2646970667358221220524C08CE3042F7D97203 0x24 0xAC BLOBBASEFEE 0xF9 MUL 0xCA STATICCALL SIGNEXTEND 0xD9 LT 0xEA 0x23 MOD BLOCKHASH RETURNDATACOPY MOD PUSH15 0x94CEBB573E64736F6C634300081A00 CALLER "
				},
				"gasEstimates": {
					"creation": {
						"codeDepositCost": "1996000",
						"executionCost": "infinite",
						"totalCost": "infinite"
					},
					"external": {
						"getEntitiesByRole(string)": "infinite",
						"getEntityInfo(address)": "infinite",
						"isValidTransfer(address,address)": "infinite",
						"registerEntity(string,string,string,string)": "infinite",
						"validateTransfer(address,address)": "infinite"
					},
					"internal": {
						"_toLowerCase(string memory)": "infinite",
						"containsString(string memory,string memory)": "infinite",
						"getLicensePrefixForRole(string memory)": "infinite",
						"hasRole(address,string memory)": "infinite",
						"isLocationBlacklisted(string memory)": "infinite",
						"isValidRole(string memory)": "infinite",
						"normaliseRole(string memory)": "infinite"
					}
				},
				"methodIdentifiers": {
					"getEntitiesByRole(string)": "36335ae2",
					"getEntityInfo(address)": "40f385ff",
					"isValidTransfer(address,address)": "8579ea9b",
					"registerEntity(string,string,string,string)": "3bd18a9e",
					"validateTransfer(address,address)": "6f475e7f"
				}
			},
			"storageLayout": {
				"storage": [
					{
						"astId": 23,
						"contract": "contracts/EntityContract.sol:EntityContract",
						"label": "blacklistedLocations",
						"offset": 0,
						"slot": "0",
						"type": "t_array(t_string_storage)dyn_storage"
					},
					{
						"astId": 39,
						"contract": "contracts/EntityContract.sol:EntityContract",
						"label": "entities",
						"offset": 0,
						"slot": "1",
						"type": "t_mapping(t_address,t_struct(Entity)34_storage)"
					},
					{
						"astId": 44,
						"contract": "contracts/EntityContract.sol:EntityContract",
						"label": "entitiesByRole",
						"offset": 0,
						"slot": "2",
						"type": "t_mapping(t_string_memory_ptr,t_array(t_address)dyn_storage)"
					}
				],
				"types": {
					"t_address": {
						"encoding": "inplace",
						"label": "address",
						"numberOfBytes": "20"
					},
					"t_array(t_address)dyn_storage": {
						"base": "t_address",
						"encoding": "dynamic_array",
						"label": "address[]",
						"numberOfBytes": "32"
					},
					"t_array(t_string_storage)dyn_storage": {
						"base": "t_string_storage",
						"encoding": "dynamic_array",
						"label": "string[]",
						"numberOfBytes": "32"
					},
					"t_bool": {
						"encoding": "inplace",
						"label": "bool",
						"numberOfBytes": "1"
					},
					"t_mapping(t_address,t_struct(Entity)34_storage)": {
						"encoding": "mapping",
						"key": "t_address",
						"label": "mapping(address => struct EntityContract.Entity)",
						"numberOfBytes": "32",
						"value": "t_struct(Entity)34_storage"
					},
					"t_mapping(t_string_memory_ptr,t_array(t_address)dyn_storage)": {
						"encoding": "mapping",
						"key": "t_string_memory_ptr",
						"label": "mapping(string => address[])",
						"numberOfBytes": "32",
						"value": "t_array(t_address)dyn_storage"
					},
					"t_string_memory_ptr": {
						"encoding": "bytes",
						"label": "string",
						"numberOfBytes": "32"
					},
					"t_string_storage": {
						"encoding": "bytes",
						"label": "string",
						"numberOfBytes": "32"
					},
					"t_struct(Entity)34_storage": {
						"encoding": "inplace",
						"label": "struct EntityContract.Entity",
						"members": [
							{
								"astId": 25,
								"contract": "contracts/EntityContract.sol:EntityContract",
								"label": "name",
								"offset": 0,
								"slot": "0",
								"type": "t_string_storage"
							},
							{
								"astId": 27,
								"contract": "contracts/EntityContract.sol:EntityContract",
								"label": "location",
								"offset": 0,
								"slot": "1",
								"type": "t_string_storage"
							},
							{
								"astId": 29,
								"contract": "contracts/EntityContract.sol:EntityContract",
								"label": "isRegistered",
								"offset": 0,
								"slot": "2",
								"type": "t_bool"
							},
							{
								"astId": 31,
								"contract": "contracts/EntityContract.sol:EntityContract",
								"label": "licenseNumber",
								"offset": 0,
								"slot": "3",
								"type": "t_string_storage"
							},
							{
								"astId": 33,
								"contract": "contracts/EntityContract.sol:EntityContract",
								"label": "role",
								"offset": 0,
								"slot": "4",
								"type": "t_string_storage"
							}
						],
						"numberOfBytes": "160"
					}
				}
			},
			"userdoc": {
				"kind": "user",
				"methods": {},
				"version": 1
			}
		}
	}
}