{
	"contracts/EntityContract.sol": {
		"EntityContract": {
			"abi": [
				{
					"anonymous": false,
					"inputs": [
						{
							"indexed": true,
							"internalType": "address",
							"name": "entityAddress",
							"type": "address"
						},
						{
							"indexed": false,
							"internalType": "string",
							"name": "name",
							"type": "string"
						},
						{
							"indexed": false,
							"internalType": "string",
							"name": "role",
							"type": "string"
						},
						{
							"indexed": false,
							"internalType": "string",
							"name": "licenseNumber",
							"type": "string"
						}
					],
					"name": "EntityRegistered",
					"type": "event"
				},
				{
					"anonymous": false,
					"inputs": [
						{
							"indexed": false,
							"internalType": "string",
							"name": "name",
							"type": "string"
						},
						{
							"indexed": false,
							"internalType": "string",
							"name": "location",
							"type": "string"
						},
						{
							"indexed": false,
							"internalType": "string",
							"name": "reason",
							"type": "string"
						}
					],
					"name": "RegistrationRejected",
					"type": "event"
				},
				{
					"anonymous": false,
					"inputs": [
						{
							"indexed": false,
							"internalType": "address",
							"name": "from",
							"type": "address"
						},
						{
							"indexed": false,
							"internalType": "address",
							"name": "to",
							"type": "address"
						},
						{
							"indexed": false,
							"internalType": "bool",
							"name": "isValid",
							"type": "bool"
						},
						{
							"indexed": false,
							"internalType": "string",
							"name": "message",
							"type": "string"
						}
					],
					"name": "TransferValidation",
					"type": "event"
				},
				{
					"inputs": [
						{
							"internalType": "address",
							"name": "_entityAddress",
							"type": "address"
						}
					],
					"name": "getEntityInfo",
					"outputs": [
						{
							"internalType": "string",
							"name": "name",
							"type": "string"
						},
						{
							"internalType": "string",
							"name": "location",
							"type": "string"
						},
						{
							"internalType": "bool",
							"name": "isRegistered",
							"type": "bool"
						},
						{
							"internalType": "string",
							"name": "licenseNumber",
							"type": "string"
						},
						{
							"internalType": "string",
							"name": "role",
							"type": "string"
						}
					],
					"stateMutability": "view",
					"type": "function"
				},
				{
					"inputs": [
						{
							"internalType": "string",
							"name": "_name",
							"type": "string"
						},
						{
							"internalType": "string",
							"name": "_location",
							"type": "string"
						},
						{
							"internalType": "string",
							"name": "_role",
							"type": "string"
						},
						{
							"internalType": "string",
							"name": "_licenseNumber",
							"type": "string"
						}
					],
					"name": "registerEntity",
					"outputs": [],
					"stateMutability": "nonpayable",
					"type": "function"
				},
				{
					"inputs": [
						{
							"internalType": "address",
							"name": "_from",
							"type": "address"
						},
						{
							"internalType": "address",
							"name": "_to",
							"type": "address"
						}
					],
					"name": "validateTransfer",
					"outputs": [
						{
							"internalType": "bool",
							"name": "",
							"type": "bool"
						}
					],
					"stateMutability": "view",
					"type": "function"
				}
			],
			"devdoc": {
				"kind": "dev",
				"methods": {},
				"version": 1
			},
			"evm": {
				"assembly": "    /* \"contracts/EntityContract.sol\":57:7114  contract EntityContract {... */\n  mstore(0x40, 0x80)\n    /* \"contracts/EntityContract.sol\":398:576  string[] private blacklistedLocations = [... */\n  mload(0x40)\n  dup1\n  0xc0\n  add\n  0x40\n  mstore\n  dup1\n  mload(0x40)\n  dup1\n  0x40\n  add\n  0x40\n  mstore\n  dup1\n  0x06\n  dup2\n  mstore\n  0x20\n  add\n  0x616e676f6c610000000000000000000000000000000000000000000000000000\n  dup2\n  mstore\n  pop\n  dup2\n  mstore\n  0x20\n  add\n  mload(0x40)\n  dup1\n  0x40\n  add\n  0x40\n  mstore\n  dup1\n  0x18\n  dup2\n  mstore\n  0x20\n  add\n  0x63656e7472616c206166726963616e2072657075626c69630000000000000000\n  dup2\n  mstore\n  pop\n  dup2\n  mstore\n  0x20\n  add\n  mload(0x40)\n  dup1\n  0x40\n  add\n  0x40\n  mstore\n  dup1\n  0x05\n  dup2\n  mstore\n  0x20\n  add\n  0x636f6e676f000000000000000000000000000000000000000000000000000000\n  dup2\n  mstore\n  pop\n  dup2\n  mstore\n  0x20\n  add\n  mload(0x40)\n  dup1\n  0x40\n  add\n  0x40\n  mstore\n  dup1\n  0x06\n  dup2\n  mstore\n  0x20\n  add\n  0x6775696e65610000000000000000000000000000000000000000000000000000\n  dup2\n  mstore\n  pop\n  dup2\n  mstore\n  0x20\n  add\n  mload(0x40)\n  dup1\n  0x40\n  add\n  0x40\n  mstore\n  dup1\n  0x07\n  dup2\n  mstore\n  0x20\n  add\n  0x6c69626572696100000000000000000000000000000000000000000000000000\n  dup2\n  mstore\n  pop\n  dup2\n  mstore\n  0x20\n  add\n  mload(0x40)\n  dup1\n  0x40\n  add\n  0x40\n  mstore\n  dup1\n  0x0c\n  dup2\n  mstore\n  0x20\n  add\n  0x736965727261206c656f6e650000000000000000000000000000000000000000\n  dup2\n  mstore\n  pop\n  dup2\n  mstore\n  pop\n  0x00\n  swap1\n  0x06\n  tag_1\n  swap3\n  swap2\n  swap1\n  tag_2\n  jump\t// in\ntag_1:\n  pop\n    /* \"contracts/EntityContract.sol\":57:7114  contract EntityContract {... */\n  callvalue\n  dup1\n  iszero\n  tag_3\n  jumpi\n  0x00\n  dup1\n  revert\ntag_3:\n  pop\n  jump(tag_4)\ntag_2:\n  dup3\n  dup1\n  sload\n  dup3\n  dup3\n  sstore\n  swap1\n  0x00\n  mstore\n  keccak256(0x00, 0x20)\n  swap1\n  dup2\n  add\n  swap3\n  dup3\n  iszero\n  tag_5\n  jumpi\n  swap2\n  0x20\n  mul\n  dup3\n  add\ntag_6:\n  dup3\n  dup2\n  gt\n  iszero\n  tag_7\n  jumpi\n  dup3\n  mload\n  dup3\n  swap1\n  dup2\n  tag_8\n  swap2\n  swap1\n  tag_9\n  jump\t// in\ntag_8:\n  pop\n  swap2\n  0x20\n  add\n  swap2\n  swap1\n  0x01\n  add\n  swap1\n  jump(tag_6)\ntag_7:\ntag_5:\n  pop\n  swap1\n  pop\n  tag_10\n  swap2\n  swap1\n  tag_11\n  jump\t// in\ntag_10:\n  pop\n  swap1\n  jump\t// out\ntag_11:\ntag_12:\n  dup1\n  dup3\n  gt\n  iszero\n  tag_13\n  jumpi\n  0x00\n  dup2\n  dup2\n  tag_14\n  swap2\n  swap1\n  tag_15\n  jump\t// in\ntag_14:\n  pop\n  0x01\n  add\n  jump(tag_12)\ntag_13:\n  pop\n  swap1\n  jump\t// out\ntag_15:\n  pop\n  dup1\n  sload\n  tag_16\n  swap1\n  tag_17\n  jump\t// in\ntag_16:\n  0x00\n  dup3\n  sstore\n  dup1\n  0x1f\n  lt\n  tag_19\n  jumpi\n  pop\n  jump(tag_18)\ntag_19:\n  0x1f\n  add\n  0x20\n  swap1\n  div\n  swap1\n  0x00\n  mstore\n  keccak256(0x00, 0x20)\n  swap1\n  dup2\n  add\n  swap1\n  tag_20\n  swap2\n  swap1\n  tag_21\n  jump\t// in\ntag_20:\ntag_18:\n  pop\n  jump\t// out\ntag_21:\ntag_22:\n  dup1\n  dup3\n  gt\n  iszero\n  tag_23\n  jumpi\n  0x00\n  dup2\n  0x00\n  swap1\n  sstore\n  pop\n  0x01\n  add\n  jump(tag_22)\ntag_23:\n  pop\n  swap1\n  jump\t// out\n    /* \"#utility.yul\":7:106   */\ntag_24:\n    /* \"#utility.yul\":59:65   */\n  0x00\n    /* \"#utility.yul\":93:98   */\n  dup2\n    /* \"#utility.yul\":87:99   */\n  mload\n    /* \"#utility.yul\":77:99   */\n  swap1\n  pop\n    /* \"#utility.yul\":7:106   */\n  swap2\n  swap1\n  pop\n  jump\t// out\n    /* \"#utility.yul\":112:292   */\ntag_25:\n    /* \"#utility.yul\":160:237   */\n  0x4e487b7100000000000000000000000000000000000000000000000000000000\n    /* \"#utility.yul\":157:158   */\n  0x00\n    /* \"#utility.yul\":150:238   */\n  mstore\n    /* \"#utility.yul\":257:261   */\n  0x41\n    /* \"#utility.yul\":254:255   */\n  0x04\n    /* \"#utility.yul\":247:262   */\n  mstore\n    /* \"#utility.yul\":281:285   */\n  0x24\n    /* \"#utility.yul\":278:279   */\n  0x00\n    /* \"#utility.yul\":271:286   */\n  revert\n    /* \"#utility.yul\":298:478   */\ntag_26:\n    /* \"#utility.yul\":346:423   */\n  0x4e487b7100000000000000000000000000000000000000000000000000000000\n    /* \"#utility.yul\":343:344   */\n  0x00\n    /* \"#utility.yul\":336:424   */\n  mstore\n    /* \"#utility.yul\":443:447   */\n  0x22\n    /* \"#utility.yul\":440:441   */\n  0x04\n    /* \"#utility.yul\":433:448   */\n  mstore\n    /* \"#utility.yul\":467:471   */\n  0x24\n    /* \"#utility.yul\":464:465   */\n  0x00\n    /* \"#utility.yul\":457:472   */\n  revert\n    /* \"#utility.yul\":484:804   */\ntag_17:\n    /* \"#utility.yul\":528:534   */\n  0x00\n    /* \"#utility.yul\":565:566   */\n  0x02\n    /* \"#utility.yul\":559:563   */\n  dup3\n    /* \"#utility.yul\":555:567   */\n  div\n    /* \"#utility.yul\":545:567   */\n  swap1\n  pop\n    /* \"#utility.yul\":612:613   */\n  0x01\n    /* \"#utility.yul\":606:610   */\n  dup3\n    /* \"#utility.yul\":602:614   */\n  and\n    /* \"#utility.yul\":633:651   */\n  dup1\n    /* \"#utility.yul\":623:704   */\n  tag_48\n  jumpi\n    /* \"#utility.yul\":689:693   */\n  0x7f\n    /* \"#utility.yul\":681:687   */\n  dup3\n    /* \"#utility.yul\":677:694   */\n  and\n    /* \"#utility.yul\":667:694   */\n  swap2\n  pop\n    /* \"#utility.yul\":623:704   */\ntag_48:\n    /* \"#utility.yul\":751:753   */\n  0x20\n    /* \"#utility.yul\":743:749   */\n  dup3\n    /* \"#utility.yul\":740:754   */\n  lt\n    /* \"#utility.yul\":720:738   */\n  dup2\n    /* \"#utility.yul\":717:755   */\n  sub\n    /* \"#utility.yul\":714:798   */\n  tag_49\n  jumpi\n    /* \"#utility.yul\":770:788   */\n  tag_50\n  tag_26\n  jump\t// in\ntag_50:\n    /* \"#utility.yul\":714:798   */\ntag_49:\n    /* \"#utility.yul\":535:804   */\n  pop\n    /* \"#utility.yul\":484:804   */\n  swap2\n  swap1\n  pop\n  jump\t// out\n    /* \"#utility.yul\":810:951   */\ntag_27:\n    /* \"#utility.yul\":859:863   */\n  0x00\n    /* \"#utility.yul\":882:885   */\n  dup2\n    /* \"#utility.yul\":874:885   */\n  swap1\n  pop\n    /* \"#utility.yul\":905:908   */\n  dup2\n    /* \"#utility.yul\":902:903   */\n  0x00\n    /* \"#utility.yul\":895:909   */\n  mstore\n    /* \"#utility.yul\":939:943   */\n  0x20\n    /* \"#utility.yul\":936:937   */\n  0x00\n    /* \"#utility.yul\":926:944   */\n  keccak256\n    /* \"#utility.yul\":918:944   */\n  swap1\n  pop\n    /* \"#utility.yul\":810:951   */\n  swap2\n  swap1\n  pop\n  jump\t// out\n    /* \"#utility.yul\":957:1050   */\ntag_28:\n    /* \"#utility.yul\":994:1000   */\n  0x00\n    /* \"#utility.yul\":1041:1043   */\n  0x20\n    /* \"#utility.yul\":1036:1038   */\n  0x1f\n    /* \"#utility.yul\":1029:1034   */\n  dup4\n    /* \"#utility.yul\":1025:1039   */\n  add\n    /* \"#utility.yul\":1021:1044   */\n  div\n    /* \"#utility.yul\":1011:1044   */\n  swap1\n  pop\n    /* \"#utility.yul\":957:1050   */\n  swap2\n  swap1\n  pop\n  jump\t// out\n    /* \"#utility.yul\":1056:1163   */\ntag_29:\n    /* \"#utility.yul\":1100:1108   */\n  0x00\n    /* \"#utility.yul\":1150:1155   */\n  dup3\n    /* \"#utility.yul\":1144:1148   */\n  dup3\n    /* \"#utility.yul\":1140:1156   */\n  shl\n    /* \"#utility.yul\":1119:1156   */\n  swap1\n  pop\n    /* \"#utility.yul\":1056:1163   */\n  swap3\n  swap2\n  pop\n  pop\n  jump\t// out\n    /* \"#utility.yul\":1169:1562   */\ntag_30:\n    /* \"#utility.yul\":1238:1244   */\n  0x00\n    /* \"#utility.yul\":1288:1289   */\n  0x08\n    /* \"#utility.yul\":1276:1286   */\n  dup4\n    /* \"#utility.yul\":1272:1290   */\n  mul\n    /* \"#utility.yul\":1311:1408   */\n  tag_55\n    /* \"#utility.yul\":1341:1407   */\n  0xffffffffffffffffffffffffffffffffffffffffffffffffffffffffffffffff\n    /* \"#utility.yul\":1330:1339   */\n  dup3\n    /* \"#utility.yul\":1311:1408   */\n  tag_29\n  jump\t// in\ntag_55:\n    /* \"#utility.yul\":1429:1468   */\n  tag_56\n    /* \"#utility.yul\":1459:1467   */\n  dup7\n    /* \"#utility.yul\":1448:1457   */\n  dup4\n    /* \"#utility.yul\":1429:1468   */\n  tag_29\n  jump\t// in\ntag_56:\n    /* \"#utility.yul\":1417:1468   */\n  swap6\n  pop\n    /* \"#utility.yul\":1501:1505   */\n  dup1\n    /* \"#utility.yul\":1497:1506   */\n  not\n    /* \"#utility.yul\":1490:1495   */\n  dup5\n    /* \"#utility.yul\":1486:1507   */\n  and\n    /* \"#utility.yul\":1477:1507   */\n  swap4\n  pop\n    /* \"#utility.yul\":1550:1554   */\n  dup1\n    /* \"#utility.yul\":1540:1548   */\n  dup7\n    /* \"#utility.yul\":1536:1555   */\n  and\n    /* \"#utility.yul\":1529:1534   */\n  dup5\n    /* \"#utility.yul\":1526:1556   */\n  or\n    /* \"#utility.yul\":1516:1556   */\n  swap3\n  pop\n    /* \"#utility.yul\":1245:1562   */\n  pop\n  pop\n    /* \"#utility.yul\":1169:1562   */\n  swap4\n  swap3\n  pop\n  pop\n  pop\n  jump\t// out\n    /* \"#utility.yul\":1568:1645   */\ntag_31:\n    /* \"#utility.yul\":1605:1612   */\n  0x00\n    /* \"#utility.yul\":1634:1639   */\n  dup2\n    /* \"#utility.yul\":1623:1639   */\n  swap1\n  pop\n    /* \"#utility.yul\":1568:1645   */\n  swap2\n  swap1\n  pop\n  jump\t// out\n    /* \"#utility.yul\":1651:1711   */\ntag_32:\n    /* \"#utility.yul\":1679:1682   */\n  0x00\n    /* \"#utility.yul\":1700:1705   */\n  dup2\n    /* \"#utility.yul\":1693:1705   */\n  swap1\n  pop\n    /* \"#utility.yul\":1651:1711   */\n  swap2\n  swap1\n  pop\n  jump\t// out\n    /* \"#utility.yul\":1717:1859   */\ntag_33:\n    /* \"#utility.yul\":1767:1776   */\n  0x00\n    /* \"#utility.yul\":1800:1853   */\n  tag_60\n    /* \"#utility.yul\":1818:1852   */\n  tag_61\n    /* \"#utility.yul\":1827:1851   */\n  tag_62\n    /* \"#utility.yul\":1845:1850   */\n  dup5\n    /* \"#utility.yul\":1827:1851   */\n  tag_31\n  jump\t// in\ntag_62:\n    /* \"#utility.yul\":1818:1852   */\n  tag_32\n  jump\t// in\ntag_61:\n    /* \"#utility.yul\":1800:1853   */\n  tag_31\n  jump\t// in\ntag_60:\n    /* \"#utility.yul\":1787:1853   */\n  swap1\n  pop\n    /* \"#utility.yul\":1717:1859   */\n  swap2\n  swap1\n  pop\n  jump\t// out\n    /* \"#utility.yul\":1865:1940   */\ntag_34:\n    /* \"#utility.yul\":1908:1911   */\n  0x00\n    /* \"#utility.yul\":1929:1934   */\n  dup2\n    /* \"#utility.yul\":1922:1934   */\n  swap1\n  pop\n    /* \"#utility.yul\":1865:1940   */\n  swap2\n  swap1\n  pop\n  jump\t// out\n    /* \"#utility.yul\":1946:2215   */\ntag_35:\n    /* \"#utility.yul\":2056:2095   */\n  tag_65\n    /* \"#utility.yul\":2087:2094   */\n  dup4\n    /* \"#utility.yul\":2056:2095   */\n  tag_33\n  jump\t// in\ntag_65:\n    /* \"#utility.yul\":2117:2208   */\n  tag_66\n    /* \"#utility.yul\":2166:2207   */\n  tag_67\n    /* \"#utility.yul\":2190:2206   */\n  dup3\n    /* \"#utility.yul\":2166:2207   */\n  tag_34\n  jump\t// in\ntag_67:\n    /* \"#utility.yul\":2158:2164   */\n  dup5\n    /* \"#utility.yul\":2151:2155   */\n  dup5\n    /* \"#utility.yul\":2145:2156   */\n  sload\n    /* \"#utility.yul\":2117:2208   */\n  tag_30\n  jump\t// in\ntag_66:\n    /* \"#utility.yul\":2111:2115   */\n  dup3\n    /* \"#utility.yul\":2104:2209   */\n  sstore\n    /* \"#utility.yul\":2022:2215   */\n  pop\n    /* \"#utility.yul\":1946:2215   */\n  pop\n  pop\n  pop\n  jump\t// out\n    /* \"#utility.yul\":2221:2294   */\ntag_36:\n    /* \"#utility.yul\":2266:2269   */\n  0x00\n    /* \"#utility.yul\":2221:2294   */\n  swap1\n  jump\t// out\n    /* \"#utility.yul\":2300:2489   */\ntag_37:\n    /* \"#utility.yul\":2377:2409   */\n  tag_70\n  tag_36\n  jump\t// in\ntag_70:\n    /* \"#utility.yul\":2418:2483   */\n  tag_71\n    /* \"#utility.yul\":2476:2482   */\n  dup2\n    /* \"#utility.yul\":2468:2474   */\n  dup5\n    /* \"#utility.yul\":2462:2466   */\n  dup5\n    /* \"#utility.yul\":2418:2483   */\n  tag_35\n  jump\t// in\ntag_71:\n    /* \"#utility.yul\":2353:2489   */\n  pop\n    /* \"#utility.yul\":2300:2489   */\n  pop\n  pop\n  jump\t// out\n    /* \"#utility.yul\":2495:2681   */\ntag_38:\n    /* \"#utility.yul\":2555:2675   */\ntag_73:\n    /* \"#utility.yul\":2572:2575   */\n  dup2\n    /* \"#utility.yul\":2565:2570   */\n  dup2\n    /* \"#utility.yul\":2562:2576   */\n  lt\n    /* \"#utility.yul\":2555:2675   */\n  iszero\n  tag_75\n  jumpi\n    /* \"#utility.yul\":2626:2665   */\n  tag_76\n    /* \"#utility.yul\":2663:2664   */\n  0x00\n    /* \"#utility.yul\":2656:2661   */\n  dup3\n    /* \"#utility.yul\":2626:2665   */\n  tag_37\n  jump\t// in\ntag_76:\n    /* \"#utility.yul\":2599:2600   */\n  0x01\n    /* \"#utility.yul\":2592:2597   */\n  dup2\n    /* \"#utility.yul\":2588:2601   */\n  add\n    /* \"#utility.yul\":2579:2601   */\n  swap1\n  pop\n    /* \"#utility.yul\":2555:2675   */\n  jump(tag_73)\ntag_75:\n    /* \"#utility.yul\":2495:2681   */\n  pop\n  pop\n  jump\t// out\n    /* \"#utility.yul\":2687:3230   */\ntag_39:\n    /* \"#utility.yul\":2788:2790   */\n  0x1f\n    /* \"#utility.yul\":2783:2786   */\n  dup3\n    /* \"#utility.yul\":2780:2791   */\n  gt\n    /* \"#utility.yul\":2777:3223   */\n  iszero\n  tag_78\n  jumpi\n    /* \"#utility.yul\":2822:2860   */\n  tag_79\n    /* \"#utility.yul\":2854:2859   */\n  dup2\n    /* \"#utility.yul\":2822:2860   */\n  tag_27\n  jump\t// in\ntag_79:\n    /* \"#utility.yul\":2906:2935   */\n  tag_80\n    /* \"#utility.yul\":2924:2934   */\n  dup5\n    /* \"#utility.yul\":2906:2935   */\n  tag_28\n  jump\t// in\ntag_80:\n    /* \"#utility.yul\":2896:2904   */\n  dup2\n    /* \"#utility.yul\":2892:2936   */\n  add\n    /* \"#utility.yul\":3089:3091   */\n  0x20\n    /* \"#utility.yul\":3077:3087   */\n  dup6\n    /* \"#utility.yul\":3074:3092   */\n  lt\n    /* \"#utility.yul\":3071:3120   */\n  iszero\n  tag_81\n  jumpi\n    /* \"#utility.yul\":3110:3118   */\n  dup2\n    /* \"#utility.yul\":3095:3118   */\n  swap1\n  pop\n    /* \"#utility.yul\":3071:3120   */\ntag_81:\n    /* \"#utility.yul\":3133:3213   */\n  tag_82\n    /* \"#utility.yul\":3189:3211   */\n  tag_83\n    /* \"#utility.yul\":3207:3210   */\n  dup6\n    /* \"#utility.yul\":3189:3211   */\n  tag_28\n  jump\t// in\ntag_83:\n    /* \"#utility.yul\":3179:3187   */\n  dup4\n    /* \"#utility.yul\":3175:3212   */\n  add\n    /* \"#utility.yul\":3162:3173   */\n  dup3\n    /* \"#utility.yul\":3133:3213   */\n  tag_38\n  jump\t// in\ntag_82:\n    /* \"#utility.yul\":2792:3223   */\n  pop\n  pop\n    /* \"#utility.yul\":2777:3223   */\ntag_78:\n    /* \"#utility.yul\":2687:3230   */\n  pop\n  pop\n  pop\n  jump\t// out\n    /* \"#utility.yul\":3236:3353   */\ntag_40:\n    /* \"#utility.yul\":3290:3298   */\n  0x00\n    /* \"#utility.yul\":3340:3345   */\n  dup3\n    /* \"#utility.yul\":3334:3338   */\n  dup3\n    /* \"#utility.yul\":3330:3346   */\n  shr\n    /* \"#utility.yul\":3309:3346   */\n  swap1\n  pop\n    /* \"#utility.yul\":3236:3353   */\n  swap3\n  swap2\n  pop\n  pop\n  jump\t// out\n    /* \"#utility.yul\":3359:3528   */\ntag_41:\n    /* \"#utility.yul\":3403:3409   */\n  0x00\n    /* \"#utility.yul\":3436:3487   */\n  tag_86\n    /* \"#utility.yul\":3484:3485   */\n  0x00\n    /* \"#utility.yul\":3480:3486   */\n  not\n    /* \"#utility.yul\":3472:3477   */\n  dup5\n    /* \"#utility.yul\":3469:3470   */\n  0x08\n    /* \"#utility.yul\":3465:3478   */\n  mul\n    /* \"#utility.yul\":3436:3487   */\n  tag_40\n  jump\t// in\ntag_86:\n    /* \"#utility.yul\":3432:3488   */\n  not\n    /* \"#utility.yul\":3517:3521   */\n  dup1\n    /* \"#utility.yul\":3511:3515   */\n  dup4\n    /* \"#utility.yul\":3507:3522   */\n  and\n    /* \"#utility.yul\":3497:3522   */\n  swap2\n  pop\n    /* \"#utility.yul\":3410:3528   */\n  pop\n    /* \"#utility.yul\":3359:3528   */\n  swap3\n  swap2\n  pop\n  pop\n  jump\t// out\n    /* \"#utility.yul\":3533:3828   */\ntag_42:\n    /* \"#utility.yul\":3609:3613   */\n  0x00\n    /* \"#utility.yul\":3755:3784   */\n  tag_88\n    /* \"#utility.yul\":3780:3783   */\n  dup4\n    /* \"#utility.yul\":3774:3778   */\n  dup4\n    /* \"#utility.yul\":3755:3784   */\n  tag_41\n  jump\t// in\ntag_88:\n    /* \"#utility.yul\":3747:3784   */\n  swap2\n  pop\n    /* \"#utility.yul\":3817:3820   */\n  dup3\n    /* \"#utility.yul\":3814:3815   */\n  0x02\n    /* \"#utility.yul\":3810:3821   */\n  mul\n    /* \"#utility.yul\":3804:3808   */\n  dup3\n    /* \"#utility.yul\":3801:3822   */\n  or\n    /* \"#utility.yul\":3793:3822   */\n  swap1\n  pop\n    /* \"#utility.yul\":3533:3828   */\n  swap3\n  swap2\n  pop\n  pop\n  jump\t// out\n    /* \"#utility.yul\":3833:5228   */\ntag_9:\n    /* \"#utility.yul\":3950:3987   */\n  tag_90\n    /* \"#utility.yul\":3983:3986   */\n  dup3\n    /* \"#utility.yul\":3950:3987   */\n  tag_24\n  jump\t// in\ntag_90:\n    /* \"#utility.yul\":4052:4070   */\n  0xffffffffffffffff\n    /* \"#utility.yul\":4044:4050   */\n  dup2\n    /* \"#utility.yul\":4041:4071   */\n  gt\n    /* \"#utility.yul\":4038:4094   */\n  iszero\n  tag_91\n  jumpi\n    /* \"#utility.yul\":4074:4092   */\n  tag_92\n  tag_25\n  jump\t// in\ntag_92:\n    /* \"#utility.yul\":4038:4094   */\ntag_91:\n    /* \"#utility.yul\":4118:4156   */\n  tag_93\n    /* \"#utility.yul\":4150:4154   */\n  dup3\n    /* \"#utility.yul\":4144:4155   */\n  sload\n    /* \"#utility.yul\":4118:4156   */\n  tag_17\n  jump\t// in\ntag_93:\n    /* \"#utility.yul\":4203:4270   */\n  tag_94\n    /* \"#utility.yul\":4263:4269   */\n  dup3\n    /* \"#utility.yul\":4255:4261   */\n  dup3\n    /* \"#utility.yul\":4249:4253   */\n  dup6\n    /* \"#utility.yul\":4203:4270   */\n  tag_39\n  jump\t// in\ntag_94:\n    /* \"#utility.yul\":4297:4298   */\n  0x00\n    /* \"#utility.yul\":4321:4325   */\n  0x20\n    /* \"#utility.yul\":4308:4325   */\n  swap1\n  pop\n    /* \"#utility.yul\":4353:4355   */\n  0x1f\n    /* \"#utility.yul\":4345:4351   */\n  dup4\n    /* \"#utility.yul\":4342:4356   */\n  gt\n    /* \"#utility.yul\":4370:4371   */\n  0x01\n    /* \"#utility.yul\":4365:4983   */\n  dup2\n  eq\n  tag_96\n  jumpi\n    /* \"#utility.yul\":5027:5028   */\n  0x00\n    /* \"#utility.yul\":5044:5050   */\n  dup5\n    /* \"#utility.yul\":5041:5118   */\n  iszero\n  tag_97\n  jumpi\n    /* \"#utility.yul\":5093:5102   */\n  dup3\n    /* \"#utility.yul\":5088:5091   */\n  dup8\n    /* \"#utility.yul\":5084:5103   */\n  add\n    /* \"#utility.yul\":5078:5104   */\n  mload\n    /* \"#utility.yul\":5069:5104   */\n  swap1\n  pop\n    /* \"#utility.yul\":5041:5118   */\ntag_97:\n    /* \"#utility.yul\":5144:5211   */\n  tag_98\n    /* \"#utility.yul\":5204:5210   */\n  dup6\n    /* \"#utility.yul\":5197:5202   */\n  dup3\n    /* \"#utility.yul\":5144:5211   */\n  tag_42\n  jump\t// in\ntag_98:\n    /* \"#utility.yul\":5138:5142   */\n  dup7\n    /* \"#utility.yul\":5131:5212   */\n  sstore\n    /* \"#utility.yul\":5000:5222   */\n  pop\n    /* \"#utility.yul\":4335:5222   */\n  jump(tag_95)\n    /* \"#utility.yul\":4365:4983   */\ntag_96:\n    /* \"#utility.yul\":4417:4421   */\n  0x1f\n    /* \"#utility.yul\":4413:4422   */\n  not\n    /* \"#utility.yul\":4405:4411   */\n  dup5\n    /* \"#utility.yul\":4401:4423   */\n  and\n    /* \"#utility.yul\":4451:4488   */\n  tag_99\n    /* \"#utility.yul\":4483:4487   */\n  dup7\n    /* \"#utility.yul\":4451:4488   */\n  tag_27\n  jump\t// in\ntag_99:\n    /* \"#utility.yul\":4510:4511   */\n  0x00\n    /* \"#utility.yul\":4524:4732   */\ntag_100:\n    /* \"#utility.yul\":4538:4545   */\n  dup3\n    /* \"#utility.yul\":4535:4536   */\n  dup2\n    /* \"#utility.yul\":4532:4546   */\n  lt\n    /* \"#utility.yul\":4524:4732   */\n  iszero\n  tag_102\n  jumpi\n    /* \"#utility.yul\":4617:4626   */\n  dup5\n    /* \"#utility.yul\":4612:4615   */\n  dup10\n    /* \"#utility.yul\":4608:4627   */\n  add\n    /* \"#utility.yul\":4602:4628   */\n  mload\n    /* \"#utility.yul\":4594:4600   */\n  dup3\n    /* \"#utility.yul\":4587:4629   */\n  sstore\n    /* \"#utility.yul\":4668:4669   */\n  0x01\n    /* \"#utility.yul\":4660:4666   */\n  dup3\n    /* \"#utility.yul\":4656:4670   */\n  add\n    /* \"#utility.yul\":4646:4670   */\n  swap2\n  pop\n    /* \"#utility.yul\":4715:4717   */\n  0x20\n    /* \"#utility.yul\":4704:4713   */\n  dup6\n    /* \"#utility.yul\":4700:4718   */\n  add\n    /* \"#utility.yul\":4687:4718   */\n  swap5\n  pop\n    /* \"#utility.yul\":4561:4565   */\n  0x20\n    /* \"#utility.yul\":4558:4559   */\n  dup2\n    /* \"#utility.yul\":4554:4566   */\n  add\n    /* \"#utility.yul\":4549:4566   */\n  swap1\n  pop\n    /* \"#utility.yul\":4524:4732   */\n  jump(tag_100)\ntag_102:\n    /* \"#utility.yul\":4760:4766   */\n  dup7\n    /* \"#utility.yul\":4751:4758   */\n  dup4\n    /* \"#utility.yul\":4748:4767   */\n  lt\n    /* \"#utility.yul\":4745:4924   */\n  iszero\n  tag_103\n  jumpi\n    /* \"#utility.yul\":4818:4827   */\n  dup5\n    /* \"#utility.yul\":4813:4816   */\n  dup10\n    /* \"#utility.yul\":4809:4828   */\n  add\n    /* \"#utility.yul\":4803:4829   */\n  mload\n    /* \"#utility.yul\":4861:4909   */\n  tag_104\n    /* \"#utility.yul\":4903:4907   */\n  0x1f\n    /* \"#utility.yul\":4895:4901   */\n  dup10\n    /* \"#utility.yul\":4891:4908   */\n  and\n    /* \"#utility.yul\":4880:4889   */\n  dup3\n    /* \"#utility.yul\":4861:4909   */\n  tag_41\n  jump\t// in\ntag_104:\n    /* \"#utility.yul\":4853:4859   */\n  dup4\n    /* \"#utility.yul\":4846:4910   */\n  sstore\n    /* \"#utility.yul\":4768:4924   */\n  pop\n    /* \"#utility.yul\":4745:4924   */\ntag_103:\n    /* \"#utility.yul\":4970:4971   */\n  0x01\n    /* \"#utility.yul\":4966:4967   */\n  0x02\n    /* \"#utility.yul\":4958:4964   */\n  dup9\n    /* \"#utility.yul\":4954:4968   */\n  mul\n    /* \"#utility.yul\":4950:4972   */\n  add\n    /* \"#utility.yul\":4944:4948   */\n  dup9\n    /* \"#utility.yul\":4937:4973   */\n  sstore\n    /* \"#utility.yul\":4372:4983   */\n  pop\n  pop\n  pop\n    /* \"#utility.yul\":4335:5222   */\ntag_95:\n  pop\n    /* \"#utility.yul\":3925:5228   */\n  pop\n  pop\n  pop\n    /* \"#utility.yul\":3833:5228   */\n  pop\n  pop\n  jump\t// out\n    /* \"contracts/EntityContract.sol\":57:7114  contract EntityContract {... */\ntag_4:\n  dataSize(sub_0)\n  dup1\n  dataOffset(sub_0)\n  0x00\n  codecopy\n  0x00\n  return\nstop\n\nsub_0: assembly {\n        /* \"contracts/EntityContract.sol\":57:7114  contract EntityContract {... */\n      mstore(0x40, 0x80)\n      callvalue\n      dup1\n      iszero\n      tag_1\n      jumpi\n      0x00\n      dup1\n      revert\n    tag_1:\n      pop\n      jumpi(tag_2, lt(calldatasize, 0x04))\n      shr(0xe0, calldataload(0x00))\n      dup1\n      0x3bd18a9e\n      eq\n      tag_3\n      jumpi\n      dup1\n      0x40f385ff\n      eq\n      tag_4\n      jumpi\n      dup1\n      0x6f475e7f\n      eq\n      tag_5\n      jumpi\n    tag_2:\n      0x00\n      dup1\n      revert\n        /* \"contracts/EntityContract.sol\":1244:2793  function registerEntity(... */\n    tag_3:\n      tag_6\n      0x04\n      dup1\n      calldatasize\n      sub\n      dup2\n      add\n      swap1\n      tag_7\n      swap2\n      swap1\n      tag_8\n      jump\t// in\n    tag_7:\n      tag_9\n      jump\t// in\n    tag_6:\n      stop\n        /* \"contracts/EntityContract.sol\":4310:4774  function getEntityInfo(address _entityAddress) public view returns (... */\n    tag_4:\n      tag_10\n      0x04\n      dup1\n      calldatasize\n      sub\n      dup2\n      add\n      swap1\n      tag_11\n      swap2\n      swap1\n      tag_12\n      jump\t// in\n    tag_11:\n      tag_13\n      jump\t// in\n    tag_10:\n      mload(0x40)\n      tag_14\n      swap6\n      swap5\n      swap4\n      swap3\n      swap2\n      swap1\n      tag_15\n      jump\t// in\n    tag_14:\n      mload(0x40)\n      dup1\n      swap2\n      sub\n      swap1\n      return\n        /* \"contracts/EntityContract.sol\":2876:3039  function validateTransfer(address _from, address _to) public view returns (bool) {... */\n    tag_5:\n      tag_16\n      0x04\n      dup1\n      calldatasize\n      sub\n      dup2\n      add\n      swap1\n      tag_17\n      swap2\n      swap1\n      tag_18\n      jump\t// in\n    tag_17:\n      tag_19\n      jump\t// in\n    tag_16:\n      mload(0x40)\n      tag_20\n      swap2\n      swap1\n      tag_21\n      jump\t// in\n    tag_20:\n      mload(0x40)\n      dup1\n      swap2\n      sub\n      swap1\n      return\n        /* \"contracts/EntityContract.sol\":1244:2793  function registerEntity(... */\n    tag_9:\n        /* \"contracts/EntityContract.sol\":1420:1448  string memory normalisedRole */\n      0x00\n        /* \"contracts/EntityContract.sol\":1451:1471  normaliseRole(_role) */\n      tag_23\n        /* \"contracts/EntityContract.sol\":1465:1470  _role */\n      dup4\n        /* \"contracts/EntityContract.sol\":1451:1464  normaliseRole */\n      tag_24\n        /* \"contracts/EntityContract.sol\":1451:1471  normaliseRole(_role) */\n      jump\t// in\n    tag_23:\n        /* \"contracts/EntityContract.sol\":1420:1471  string memory normalisedRole = normaliseRole(_role) */\n      swap1\n      pop\n        /* \"contracts/EntityContract.sol\":1552:1579  isValidRole(normalisedRole) */\n      tag_25\n        /* \"contracts/EntityContract.sol\":1564:1578  normalisedRole */\n      dup2\n        /* \"contracts/EntityContract.sol\":1552:1563  isValidRole */\n      tag_26\n        /* \"contracts/EntityContract.sol\":1552:1579  isValidRole(normalisedRole) */\n      jump\t// in\n    tag_25:\n        /* \"contracts/EntityContract.sol\":1531:1670  require(... */\n      tag_27\n      jumpi\n      mload(0x40)\n      0x08c379a000000000000000000000000000000000000000000000000000000000\n      dup2\n      mstore\n      0x04\n      add\n      tag_28\n      swap1\n      tag_29\n      jump\t// in\n    tag_28:\n      mload(0x40)\n      dup1\n      swap2\n      sub\n      swap1\n      revert\n    tag_27:\n        /* \"contracts/EntityContract.sol\":1718:1750  string memory normalisedLocation */\n      0x00\n        /* \"contracts/EntityContract.sol\":1753:1776  _toLowerCase(_location) */\n      tag_30\n        /* \"contracts/EntityContract.sol\":1766:1775  _location */\n      dup6\n        /* \"contracts/EntityContract.sol\":1753:1765  _toLowerCase */\n      tag_31\n        /* \"contracts/EntityContract.sol\":1753:1776  _toLowerCase(_location) */\n      jump\t// in\n    tag_30:\n        /* \"contracts/EntityContract.sol\":1718:1776  string memory normalisedLocation = _toLowerCase(_location) */\n      swap1\n      pop\n        /* \"contracts/EntityContract.sol\":1795:1836  isLocationBlacklisted(normalisedLocation) */\n      tag_32\n        /* \"contracts/EntityContract.sol\":1817:1835  normalisedLocation */\n      dup2\n        /* \"contracts/EntityContract.sol\":1795:1816  isLocationBlacklisted */\n      tag_33\n        /* \"contracts/EntityContract.sol\":1795:1836  isLocationBlacklisted(normalisedLocation) */\n      jump\t// in\n    tag_32:\n        /* \"contracts/EntityContract.sol\":1794:1836  !isLocationBlacklisted(normalisedLocation) */\n      iszero\n        /* \"contracts/EntityContract.sol\":1786:1939  require(!isLocationBlacklisted(normalisedLocation), ... */\n      tag_34\n      jumpi\n      mload(0x40)\n      0x08c379a000000000000000000000000000000000000000000000000000000000\n      dup2\n      mstore\n      0x04\n      add\n      tag_35\n      swap1\n      tag_36\n      jump\t// in\n    tag_35:\n      mload(0x40)\n      dup1\n      swap2\n      sub\n      swap1\n      revert\n    tag_34:\n        /* \"contracts/EntityContract.sol\":1959:1967  entities */\n      0x01\n        /* \"contracts/EntityContract.sol\":1959:1979  entities[msg.sender] */\n      0x00\n        /* \"contracts/EntityContract.sol\":1968:1978  msg.sender */\n      caller\n        /* \"contracts/EntityContract.sol\":1959:1979  entities[msg.sender] */\n      0xffffffffffffffffffffffffffffffffffffffff\n      and\n      0xffffffffffffffffffffffffffffffffffffffff\n      and\n      dup2\n      mstore\n      0x20\n      add\n      swap1\n      dup2\n      mstore\n      0x20\n      add\n      0x00\n      keccak256\n        /* \"contracts/EntityContract.sol\":1959:1992  entities[msg.sender].isRegistered */\n      0x02\n      add\n      0x00\n      swap1\n      sload\n      swap1\n      0x0100\n      exp\n      swap1\n      div\n      0xff\n      and\n        /* \"contracts/EntityContract.sol\":1958:1992  !entities[msg.sender].isRegistered */\n      iszero\n        /* \"contracts/EntityContract.sol\":1950:2022  require(!entities[msg.sender].isRegistered, \"Entity already registered\") */\n      tag_37\n      jumpi\n      mload(0x40)\n      0x08c379a000000000000000000000000000000000000000000000000000000000\n      dup2\n      mstore\n      0x04\n      add\n      tag_38\n      swap1\n      tag_39\n      jump\t// in\n    tag_38:\n      mload(0x40)\n      dup1\n      swap2\n      sub\n      swap1\n      revert\n    tag_37:\n        /* \"contracts/EntityContract.sol\":2033:2058  bytes memory licenseBytes */\n      0x00\n        /* \"contracts/EntityContract.sol\":2067:2081  _licenseNumber */\n      dup4\n        /* \"contracts/EntityContract.sol\":2033:2082  bytes memory licenseBytes = bytes(_licenseNumber) */\n      swap1\n      pop\n        /* \"contracts/EntityContract.sol\":2122:2123  0 */\n      0x00\n        /* \"contracts/EntityContract.sol\":2100:2112  licenseBytes */\n      dup2\n        /* \"contracts/EntityContract.sol\":2100:2119  licenseBytes.length */\n      mload\n        /* \"contracts/EntityContract.sol\":2100:2123  licenseBytes.length > 0 */\n      gt\n        /* \"contracts/EntityContract.sol\":2092:2158  require(licenseBytes.length > 0, \"License number cannot be empty\") */\n      tag_40\n      jumpi\n      mload(0x40)\n      0x08c379a000000000000000000000000000000000000000000000000000000000\n      dup2\n      mstore\n      0x04\n      add\n      tag_41\n      swap1\n      tag_42\n      jump\t// in\n    tag_41:\n      mload(0x40)\n      dup1\n      swap2\n      sub\n      swap1\n      revert\n    tag_40:\n        /* \"contracts/EntityContract.sol\":2169:2190  bytes1 expectedPrefix */\n      0x00\n        /* \"contracts/EntityContract.sol\":2193:2232  getLicensePrefixForRole(normalisedRole) */\n      tag_43\n        /* \"contracts/EntityContract.sol\":2217:2231  normalisedRole */\n      dup5\n        /* \"contracts/EntityContract.sol\":2193:2216  getLicensePrefixForRole */\n      tag_44\n        /* \"contracts/EntityContract.sol\":2193:2232  getLicensePrefixForRole(normalisedRole) */\n      jump\t// in\n    tag_43:\n        /* \"contracts/EntityContract.sol\":2169:2232  bytes1 expectedPrefix = getLicensePrefixForRole(normalisedRole) */\n      swap1\n      pop\n        /* \"contracts/EntityContract.sol\":2269:2283  expectedPrefix */\n      dup1\n        /* \"contracts/EntityContract.sol\":2250:2283  licenseBytes[0] == expectedPrefix */\n      not(0xffffffffffffffffffffffffffffffffffffffffffffffffffffffffffffff)\n      and\n        /* \"contracts/EntityContract.sol\":2250:2262  licenseBytes */\n      dup3\n        /* \"contracts/EntityContract.sol\":2263:2264  0 */\n      0x00\n        /* \"contracts/EntityContract.sol\":2250:2265  licenseBytes[0] */\n      dup2\n      mload\n      dup2\n      lt\n      tag_45\n      jumpi\n      tag_46\n      tag_47\n      jump\t// in\n    tag_46:\n    tag_45:\n      0x20\n      add\n      add\n      mload\n      0xf8\n      shr\n      0xf8\n      shl\n        /* \"contracts/EntityContract.sol\":2250:2283  licenseBytes[0] == expectedPrefix */\n      not(0xffffffffffffffffffffffffffffffffffffffffffffffffffffffffffffff)\n      and\n      eq\n        /* \"contracts/EntityContract.sol\":2351:2365  expectedPrefix */\n      dup2\n        /* \"contracts/EntityContract.sol\":2377:2391  normalisedRole */\n      dup6\n        /* \"contracts/EntityContract.sol\":2305:2392  abi.encodePacked(\"License must start with '\", expectedPrefix, \"' for \", normalisedRole) */\n      add(0x20, mload(0x40))\n      tag_48\n      swap3\n      swap2\n      swap1\n      tag_49\n      jump\t// in\n    tag_48:\n      mload(0x40)\n      0x20\n      dup2\n      dup4\n      sub\n      sub\n      dup2\n      mstore\n      swap1\n      0x40\n      mstore\n        /* \"contracts/EntityContract.sol\":2242:2394  require(licenseBytes[0] == expectedPrefix, ... */\n      swap1\n      tag_50\n      jumpi\n      mload(0x40)\n      0x08c379a000000000000000000000000000000000000000000000000000000000\n      dup2\n      mstore\n      0x04\n      add\n      tag_51\n      swap2\n      swap1\n      tag_52\n      jump\t// in\n    tag_51:\n      mload(0x40)\n      dup1\n      swap2\n      sub\n      swap1\n      revert\n    tag_50:\n      pop\n        /* \"contracts/EntityContract.sol\":2460:2645  Entity({... */\n      mload(0x40)\n      dup1\n      0xa0\n      add\n      0x40\n      mstore\n      dup1\n        /* \"contracts/EntityContract.sol\":2487:2492  _name */\n      dup10\n        /* \"contracts/EntityContract.sol\":2460:2645  Entity({... */\n      dup2\n      mstore\n      0x20\n      add\n        /* \"contracts/EntityContract.sol\":2516:2525  _location */\n      dup9\n        /* \"contracts/EntityContract.sol\":2460:2645  Entity({... */\n      dup2\n      mstore\n      0x20\n      add\n        /* \"contracts/EntityContract.sol\":2553:2557  true */\n      0x01\n        /* \"contracts/EntityContract.sol\":2460:2645  Entity({... */\n      iszero\n      iszero\n      dup2\n      mstore\n      0x20\n      add\n        /* \"contracts/EntityContract.sol\":2586:2600  _licenseNumber */\n      dup7\n        /* \"contracts/EntityContract.sol\":2460:2645  Entity({... */\n      dup2\n      mstore\n      0x20\n      add\n        /* \"contracts/EntityContract.sol\":2620:2634  normalisedRole */\n      dup6\n        /* \"contracts/EntityContract.sol\":2460:2645  Entity({... */\n      dup2\n      mstore\n      pop\n        /* \"contracts/EntityContract.sol\":2437:2445  entities */\n      0x01\n        /* \"contracts/EntityContract.sol\":2437:2457  entities[msg.sender] */\n      0x00\n        /* \"contracts/EntityContract.sol\":2446:2456  msg.sender */\n      caller\n        /* \"contracts/EntityContract.sol\":2437:2457  entities[msg.sender] */\n      0xffffffffffffffffffffffffffffffffffffffff\n      and\n      0xffffffffffffffffffffffffffffffffffffffff\n      and\n      dup2\n      mstore\n      0x20\n      add\n      swap1\n      dup2\n      mstore\n      0x20\n      add\n      0x00\n      keccak256\n        /* \"contracts/EntityContract.sol\":2437:2645  entities[msg.sender] = Entity({... */\n      0x00\n      dup3\n      add\n      mload\n      dup2\n      0x00\n      add\n      swap1\n      dup2\n      tag_53\n      swap2\n      swap1\n      tag_54\n      jump\t// in\n    tag_53:\n      pop\n      0x20\n      dup3\n      add\n      mload\n      dup2\n      0x01\n      add\n      swap1\n      dup2\n      tag_55\n      swap2\n      swap1\n      tag_54\n      jump\t// in\n    tag_55:\n      pop\n      0x40\n      dup3\n      add\n      mload\n      dup2\n      0x02\n      add\n      exp(0x0100, 0x00)\n      dup2\n      sload\n      dup2\n      0xff\n      mul\n      not\n      and\n      swap1\n      dup4\n      iszero\n      iszero\n      mul\n      or\n      swap1\n      sstore\n      pop\n      0x60\n      dup3\n      add\n      mload\n      dup2\n      0x03\n      add\n      swap1\n      dup2\n      tag_56\n      swap2\n      swap1\n      tag_54\n      jump\t// in\n    tag_56:\n      pop\n      0x80\n      dup3\n      add\n      mload\n      dup2\n      0x04\n      add\n      swap1\n      dup2\n      tag_57\n      swap2\n      swap1\n      tag_54\n      jump\t// in\n    tag_57:\n      pop\n      swap1\n      pop\n      pop\n        /* \"contracts/EntityContract.sol\":2656:2670  entitiesByRole */\n      0x02\n        /* \"contracts/EntityContract.sol\":2671:2685  normalisedRole */\n      dup5\n        /* \"contracts/EntityContract.sol\":2656:2686  entitiesByRole[normalisedRole] */\n      mload(0x40)\n      tag_58\n      swap2\n      swap1\n      tag_59\n      jump\t// in\n    tag_58:\n      swap1\n      dup2\n      mstore\n      0x20\n      add\n      mload(0x40)\n      dup1\n      swap2\n      sub\n      swap1\n      keccak256\n        /* \"contracts/EntityContract.sol\":2692:2702  msg.sender */\n      caller\n        /* \"contracts/EntityContract.sol\":2656:2703  entitiesByRole[normalisedRole].push(msg.sender) */\n      swap1\n      dup1\n      0x01\n      dup2\n      sload\n      add\n      dup1\n      dup3\n      sstore\n      dup1\n      swap2\n      pop\n      pop\n      0x01\n      swap1\n      sub\n      swap1\n      0x00\n      mstore\n      keccak256(0x00, 0x20)\n      add\n      0x00\n      swap1\n      swap2\n      swap1\n      swap2\n      swap1\n      swap2\n      0x0100\n      exp\n      dup2\n      sload\n      dup2\n      0xffffffffffffffffffffffffffffffffffffffff\n      mul\n      not\n      and\n      swap1\n      dup4\n      0xffffffffffffffffffffffffffffffffffffffff\n      and\n      mul\n      or\n      swap1\n      sstore\n      pop\n        /* \"contracts/EntityContract.sol\":2736:2746  msg.sender */\n      caller\n        /* \"contracts/EntityContract.sol\":2719:2786  EntityRegistered(msg.sender, _name, normalisedRole, _licenseNumber) */\n      0xffffffffffffffffffffffffffffffffffffffff\n      and\n      0xca394e3b41e2aa37469125c136278e21cebaf3ca7e3fdfc9d07c64740a292ff5\n        /* \"contracts/EntityContract.sol\":2748:2753  _name */\n      dup10\n        /* \"contracts/EntityContract.sol\":2755:2769  normalisedRole */\n      dup7\n        /* \"contracts/EntityContract.sol\":2771:2785  _licenseNumber */\n      dup9\n        /* \"contracts/EntityContract.sol\":2719:2786  EntityRegistered(msg.sender, _name, normalisedRole, _licenseNumber) */\n      mload(0x40)\n      tag_61\n      swap4\n      swap3\n      swap2\n      swap1\n      tag_62\n      jump\t// in\n    tag_61:\n      mload(0x40)\n      dup1\n      swap2\n      sub\n      swap1\n      log2\n        /* \"contracts/EntityContract.sol\":1410:2793  {... */\n      pop\n      pop\n      pop\n      pop\n        /* \"contracts/EntityContract.sol\":1244:2793  function registerEntity(... */\n      pop\n      pop\n      pop\n      pop\n      jump\t// out\n        /* \"contracts/EntityContract.sol\":4310:4774  function getEntityInfo(address _entityAddress) public view returns (... */\n    tag_13:\n        /* \"contracts/EntityContract.sol\":4387:4405  string memory name */\n      0x60\n        /* \"contracts/EntityContract.sol\":4415:4437  string memory location */\n      dup1\n        /* \"contracts/EntityContract.sol\":4447:4464  bool isRegistered */\n      0x00\n        /* \"contracts/EntityContract.sol\":4474:4501  string memory licenseNumber */\n      0x60\n        /* \"contracts/EntityContract.sol\":4511:4529  string memory role */\n      dup1\n        /* \"contracts/EntityContract.sol\":4546:4567  Entity storage entity */\n      0x00\n        /* \"contracts/EntityContract.sol\":4570:4578  entities */\n      0x01\n        /* \"contracts/EntityContract.sol\":4570:4594  entities[_entityAddress] */\n      0x00\n        /* \"contracts/EntityContract.sol\":4579:4593  _entityAddress */\n      dup9\n        /* \"contracts/EntityContract.sol\":4570:4594  entities[_entityAddress] */\n      0xffffffffffffffffffffffffffffffffffffffff\n      and\n      0xffffffffffffffffffffffffffffffffffffffff\n      and\n      dup2\n      mstore\n      0x20\n      add\n      swap1\n      dup2\n      mstore\n      0x20\n      add\n      0x00\n      keccak256\n        /* \"contracts/EntityContract.sol\":4546:4594  Entity storage entity = entities[_entityAddress] */\n      swap1\n      pop\n        /* \"contracts/EntityContract.sol\":4625:4631  entity */\n      dup1\n        /* \"contracts/EntityContract.sol\":4625:4636  entity.name */\n      0x00\n      add\n        /* \"contracts/EntityContract.sol\":4650:4656  entity */\n      dup2\n        /* \"contracts/EntityContract.sol\":4650:4665  entity.location */\n      0x01\n      add\n        /* \"contracts/EntityContract.sol\":4679:4685  entity */\n      dup3\n        /* \"contracts/EntityContract.sol\":4679:4698  entity.isRegistered */\n      0x02\n      add\n      0x00\n      swap1\n      sload\n      swap1\n      0x0100\n      exp\n      swap1\n      div\n      0xff\n      and\n        /* \"contracts/EntityContract.sol\":4712:4718  entity */\n      dup4\n        /* \"contracts/EntityContract.sol\":4712:4732  entity.licenseNumber */\n      0x03\n      add\n        /* \"contracts/EntityContract.sol\":4746:4752  entity */\n      dup5\n        /* \"contracts/EntityContract.sol\":4746:4757  entity.role */\n      0x04\n      add\n        /* \"contracts/EntityContract.sol\":4604:4767  return (... */\n      dup5\n      dup1\n      sload\n      tag_64\n      swap1\n      tag_65\n      jump\t// in\n    tag_64:\n      dup1\n      0x1f\n      add\n      0x20\n      dup1\n      swap2\n      div\n      mul\n      0x20\n      add\n      mload(0x40)\n      swap1\n      dup2\n      add\n      0x40\n      mstore\n      dup1\n      swap3\n      swap2\n      swap1\n      dup2\n      dup2\n      mstore\n      0x20\n      add\n      dup3\n      dup1\n      sload\n      tag_66\n      swap1\n      tag_65\n      jump\t// in\n    tag_66:\n      dup1\n      iszero\n      tag_67\n      jumpi\n      dup1\n      0x1f\n      lt\n      tag_68\n      jumpi\n      0x0100\n      dup1\n      dup4\n      sload\n      div\n      mul\n      dup4\n      mstore\n      swap2\n      0x20\n      add\n      swap2\n      jump(tag_67)\n    tag_68:\n      dup3\n      add\n      swap2\n      swap1\n      0x00\n      mstore\n      keccak256(0x00, 0x20)\n      swap1\n    tag_69:\n      dup2\n      sload\n      dup2\n      mstore\n      swap1\n      0x01\n      add\n      swap1\n      0x20\n      add\n      dup1\n      dup4\n      gt\n      tag_69\n      jumpi\n      dup3\n      swap1\n      sub\n      0x1f\n      and\n      dup3\n      add\n      swap2\n    tag_67:\n      pop\n      pop\n      pop\n      pop\n      pop\n      swap5\n      pop\n      dup4\n      dup1\n      sload\n      tag_70\n      swap1\n      tag_65\n      jump\t// in\n    tag_70:\n      dup1\n      0x1f\n      add\n      0x20\n      dup1\n      swap2\n      div\n      mul\n      0x20\n      add\n      mload(0x40)\n      swap1\n      dup2\n      add\n      0x40\n      mstore\n      dup1\n      swap3\n      swap2\n      swap1\n      dup2\n      dup2\n      mstore\n      0x20\n      add\n      dup3\n      dup1\n      sload\n      tag_71\n      swap1\n      tag_65\n      jump\t// in\n    tag_71:\n      dup1\n      iszero\n      tag_72\n      jumpi\n      dup1\n      0x1f\n      lt\n      tag_73\n      jumpi\n      0x0100\n      dup1\n      dup4\n      sload\n      div\n      mul\n      dup4\n      mstore\n      swap2\n      0x20\n      add\n      swap2\n      jump(tag_72)\n    tag_73:\n      dup3\n      add\n      swap2\n      swap1\n      0x00\n      mstore\n      keccak256(0x00, 0x20)\n      swap1\n    tag_74:\n      dup2\n      sload\n      dup2\n      mstore\n      swap1\n      0x01\n      add\n      swap1\n      0x20\n      add\n      dup1\n      dup4\n      gt\n      tag_74\n      jumpi\n      dup3\n      swap1\n      sub\n      0x1f\n      and\n      dup3\n      add\n      swap2\n    tag_72:\n      pop\n      pop\n      pop\n      pop\n      pop\n      swap4\n      pop\n      dup2\n      dup1\n      sload\n      tag_75\n      swap1\n      tag_65\n      jump\t// in\n    tag_75:\n      dup1\n      0x1f\n      add\n      0x20\n      dup1\n      swap2\n      div\n      mul\n      0x20\n      add\n      mload(0x40)\n      swap1\n      dup2\n      add\n      0x40\n      mstore\n      dup1\n      swap3\n      swap2\n      swap1\n      dup2\n      dup2\n      mstore\n      0x20\n      add\n      dup3\n      dup1\n      sload\n      tag_76\n      swap1\n      tag_65\n      jump\t// in\n    tag_76:\n      dup1\n      iszero\n      tag_77\n      jumpi\n      dup1\n      0x1f\n      lt\n      tag_78\n      jumpi\n      0x0100\n      dup1\n      dup4\n      sload\n      div\n      mul\n      dup4\n      mstore\n      swap2\n      0x20\n      add\n      swap2\n      jump(tag_77)\n    tag_78:\n      dup3\n      add\n      swap2\n      swap1\n      0x00\n      mstore\n      keccak256(0x00, 0x20)\n      swap1\n    tag_79:\n      dup2\n      sload\n      dup2\n      mstore\n      swap1\n      0x01\n      add\n      swap1\n      0x20\n      add\n      dup1\n      dup4\n      gt\n      tag_79\n      jumpi\n      dup3\n      swap1\n      sub\n      0x1f\n      and\n      dup3\n      add\n      swap2\n    tag_77:\n      pop\n      pop\n      pop\n      pop\n      pop\n      swap2\n      pop\n      dup1\n      dup1\n      sload\n      tag_80\n      swap1\n      tag_65\n      jump\t// in\n    tag_80:\n      dup1\n      0x1f\n      add\n      0x20\n      dup1\n      swap2\n      div\n      mul\n      0x20\n      add\n      mload(0x40)\n      swap1\n      dup2\n      add\n      0x40\n      mstore\n      dup1\n      swap3\n      swap2\n      swap1\n      dup2\n      dup2\n      mstore\n      0x20\n      add\n      dup3\n      dup1\n      sload\n      tag_81\n      swap1\n      tag_65\n      jump\t// in\n    tag_81:\n      dup1\n      iszero\n      tag_82\n      jumpi\n      dup1\n      0x1f\n      lt\n      tag_83\n      jumpi\n      0x0100\n      dup1\n      dup4\n      sload\n      div\n      mul\n      dup4\n      mstore\n      swap2\n      0x20\n      add\n      swap2\n      jump(tag_82)\n    tag_83:\n      dup3\n      add\n      swap2\n      swap1\n      0x00\n      mstore\n      keccak256(0x00, 0x20)\n      swap1\n    tag_84:\n      dup2\n      sload\n      dup2\n      mstore\n      swap1\n      0x01\n      add\n      swap1\n      0x20\n      add\n      dup1\n      dup4\n      gt\n      tag_84\n      jumpi\n      dup3\n      swap1\n      sub\n      0x1f\n      and\n      dup3\n      add\n      swap2\n    tag_82:\n      pop\n      pop\n      pop\n      pop\n      pop\n      swap1\n      pop\n      swap6\n      pop\n      swap6\n      pop\n      swap6\n      pop\n      swap6\n      pop\n      swap6\n      pop\n      pop\n        /* \"contracts/EntityContract.sol\":4310:4774  function getEntityInfo(address _entityAddress) public view returns (... */\n      swap2\n      swap4\n      swap6\n      swap1\n      swap3\n      swap5\n      pop\n      jump\t// out\n        /* \"contracts/EntityContract.sol\":2876:3039  function validateTransfer(address _from, address _to) public view returns (bool) {... */\n    tag_19:\n        /* \"contracts/EntityContract.sol\":2951:2955  bool */\n      0x00\n        /* \"contracts/EntityContract.sol\":2974:2982  entities */\n      0x01\n        /* \"contracts/EntityContract.sol\":2974:2989  entities[_from] */\n      0x00\n        /* \"contracts/EntityContract.sol\":2983:2988  _from */\n      dup5\n        /* \"contracts/EntityContract.sol\":2974:2989  entities[_from] */\n      0xffffffffffffffffffffffffffffffffffffffff\n      and\n      0xffffffffffffffffffffffffffffffffffffffff\n      and\n      dup2\n      mstore\n      0x20\n      add\n      swap1\n      dup2\n      mstore\n      0x20\n      add\n      0x00\n      keccak256\n        /* \"contracts/EntityContract.sol\":2974:3002  entities[_from].isRegistered */\n      0x02\n      add\n      0x00\n      swap1\n      sload\n      swap1\n      0x0100\n      exp\n      swap1\n      div\n      0xff\n      and\n        /* \"contracts/EntityContract.sol\":2974:3032  entities[_from].isRegistered && entities[_to].isRegistered */\n      dup1\n      iszero\n      tag_86\n      jumpi\n      pop\n        /* \"contracts/EntityContract.sol\":3006:3014  entities */\n      0x01\n        /* \"contracts/EntityContract.sol\":3006:3019  entities[_to] */\n      0x00\n        /* \"contracts/EntityContract.sol\":3015:3018  _to */\n      dup4\n        /* \"contracts/EntityContract.sol\":3006:3019  entities[_to] */\n      0xffffffffffffffffffffffffffffffffffffffff\n      and\n      0xffffffffffffffffffffffffffffffffffffffff\n      and\n      dup2\n      mstore\n      0x20\n      add\n      swap1\n      dup2\n      mstore\n      0x20\n      add\n      0x00\n      keccak256\n        /* \"contracts/EntityContract.sol\":3006:3032  entities[_to].isRegistered */\n      0x02\n      add\n      0x00\n      swap1\n      sload\n      swap1\n      0x0100\n      exp\n      swap1\n      div\n      0xff\n      and\n        /* \"contracts/EntityContract.sol\":2974:3032  entities[_from].isRegistered && entities[_to].isRegistered */\n    tag_86:\n        /* \"contracts/EntityContract.sol\":2967:3032  return entities[_from].isRegistered && entities[_to].isRegistered */\n      swap1\n      pop\n        /* \"contracts/EntityContract.sol\":2876:3039  function validateTransfer(address _from, address _to) public view returns (bool) {... */\n      swap3\n      swap2\n      pop\n      pop\n      jump\t// out\n        /* \"contracts/EntityContract.sol\":4781:5505  function normaliseRole(string memory _role) private pure returns (string memory) {... */\n    tag_24:\n        /* \"contracts/EntityContract.sol\":4847:4860  string memory */\n      0x60\n        /* \"contracts/EntityContract.sol\":4872:4888  bytes32 roleHash */\n      0x00\n        /* \"contracts/EntityContract.sol\":4918:4937  _toLowerCase(_role) */\n      tag_88\n        /* \"contracts/EntityContract.sol\":4931:4936  _role */\n      dup4\n        /* \"contracts/EntityContract.sol\":4918:4930  _toLowerCase */\n      tag_31\n        /* \"contracts/EntityContract.sol\":4918:4937  _toLowerCase(_role) */\n      jump\t// in\n    tag_88:\n        /* \"contracts/EntityContract.sol\":4901:4938  abi.encodePacked(_toLowerCase(_role)) */\n      add(0x20, mload(0x40))\n      tag_89\n      swap2\n      swap1\n      tag_59\n      jump\t// in\n    tag_89:\n      mload(0x40)\n      0x20\n      dup2\n      dup4\n      sub\n      sub\n      dup2\n      mstore\n      swap1\n      0x40\n      mstore\n        /* \"contracts/EntityContract.sol\":4891:4939  keccak256(abi.encodePacked(_toLowerCase(_role))) */\n      dup1\n      mload\n      swap1\n      0x20\n      add\n      keccak256\n        /* \"contracts/EntityContract.sol\":4872:4939  bytes32 roleHash = keccak256(abi.encodePacked(_toLowerCase(_role))) */\n      swap1\n      pop\n        /* \"contracts/EntityContract.sol\":5001:5025  _toLowerCase(ROLE_MINER) */\n      tag_90\n        /* \"contracts/EntityContract.sol\":5014:5024  ROLE_MINER */\n      mload(0x40)\n      dup1\n      0x40\n      add\n      0x40\n      mstore\n      dup1\n      0x05\n      dup2\n      mstore\n      0x20\n      add\n      0x4d696e6572000000000000000000000000000000000000000000000000000000\n      dup2\n      mstore\n      pop\n        /* \"contracts/EntityContract.sol\":5001:5013  _toLowerCase */\n      tag_31\n        /* \"contracts/EntityContract.sol\":5001:5025  _toLowerCase(ROLE_MINER) */\n      jump\t// in\n    tag_90:\n        /* \"contracts/EntityContract.sol\":4984:5026  abi.encodePacked(_toLowerCase(ROLE_MINER)) */\n      add(0x20, mload(0x40))\n      tag_91\n      swap2\n      swap1\n      tag_59\n      jump\t// in\n    tag_91:\n      mload(0x40)\n      0x20\n      dup2\n      dup4\n      sub\n      sub\n      dup2\n      mstore\n      swap1\n      0x40\n      mstore\n        /* \"contracts/EntityContract.sol\":4974:5027  keccak256(abi.encodePacked(_toLowerCase(ROLE_MINER))) */\n      dup1\n      mload\n      swap1\n      0x20\n      add\n      keccak256\n        /* \"contracts/EntityContract.sol\":4962:4970  roleHash */\n      dup2\n        /* \"contracts/EntityContract.sol\":4962:5027  roleHash == keccak256(abi.encodePacked(_toLowerCase(ROLE_MINER))) */\n      sub\n        /* \"contracts/EntityContract.sol\":4958:5499  if (roleHash == keccak256(abi.encodePacked(_toLowerCase(ROLE_MINER)))) {... */\n      tag_92\n      jumpi\n        /* \"contracts/EntityContract.sol\":5050:5060  ROLE_MINER */\n      mload(0x40)\n      dup1\n      0x40\n      add\n      0x40\n      mstore\n      dup1\n      0x05\n      dup2\n      mstore\n      0x20\n      add\n      0x4d696e6572000000000000000000000000000000000000000000000000000000\n      dup2\n      mstore\n      pop\n        /* \"contracts/EntityContract.sol\":5043:5060  return ROLE_MINER */\n      swap2\n      pop\n      pop\n      jump(tag_87)\n        /* \"contracts/EntityContract.sol\":4958:5499  if (roleHash == keccak256(abi.encodePacked(_toLowerCase(ROLE_MINER)))) {... */\n    tag_92:\n        /* \"contracts/EntityContract.sol\":5120:5151  _toLowerCase(ROLE_MANUFACTURER) */\n      tag_94\n        /* \"contracts/EntityContract.sol\":5133:5150  ROLE_MANUFACTURER */\n      mload(0x40)\n      dup1\n      0x40\n      add\n      0x40\n      mstore\n      dup1\n      0x0c\n      dup2\n      mstore\n      0x20\n      add\n      0x4d616e7566616374757265720000000000000000000000000000000000000000\n      dup2\n      mstore\n      pop\n        /* \"contracts/EntityContract.sol\":5120:5132  _toLowerCase */\n      tag_31\n        /* \"contracts/EntityContract.sol\":5120:5151  _toLowerCase(ROLE_MANUFACTURER) */\n      jump\t// in\n    tag_94:\n        /* \"contracts/EntityContract.sol\":5103:5152  abi.encodePacked(_toLowerCase(ROLE_MANUFACTURER)) */\n      add(0x20, mload(0x40))\n      tag_95\n      swap2\n      swap1\n      tag_59\n      jump\t// in\n    tag_95:\n      mload(0x40)\n      0x20\n      dup2\n      dup4\n      sub\n      sub\n      dup2\n      mstore\n      swap1\n      0x40\n      mstore\n        /* \"contracts/EntityContract.sol\":5093:5153  keccak256(abi.encodePacked(_toLowerCase(ROLE_MANUFACTURER))) */\n      dup1\n      mload\n      swap1\n      0x20\n      add\n      keccak256\n        /* \"contracts/EntityContract.sol\":5081:5089  roleHash */\n      dup2\n        /* \"contracts/EntityContract.sol\":5081:5153  roleHash == keccak256(abi.encodePacked(_toLowerCase(ROLE_MANUFACTURER))) */\n      sub\n        /* \"contracts/EntityContract.sol\":5077:5499  if (roleHash == keccak256(abi.encodePacked(_toLowerCase(ROLE_MANUFACTURER)))) {... */\n      tag_96\n      jumpi\n        /* \"contracts/EntityContract.sol\":5176:5193  ROLE_MANUFACTURER */\n      mload(0x40)\n      dup1\n      0x40\n      add\n      0x40\n      mstore\n      dup1\n      0x0c\n      dup2\n      mstore\n      0x20\n      add\n      0x4d616e7566616374757265720000000000000000000000000000000000000000\n      dup2\n      mstore\n      pop\n        /* \"contracts/EntityContract.sol\":5169:5193  return ROLE_MANUFACTURER */\n      swap2\n      pop\n      pop\n      jump(tag_87)\n        /* \"contracts/EntityContract.sol\":5077:5499  if (roleHash == keccak256(abi.encodePacked(_toLowerCase(ROLE_MANUFACTURER)))) {... */\n    tag_96:\n        /* \"contracts/EntityContract.sol\":5253:5281  _toLowerCase(ROLE_CERTIFIER) */\n      tag_98\n        /* \"contracts/EntityContract.sol\":5266:5280  ROLE_CERTIFIER */\n      mload(0x40)\n      dup1\n      0x40\n      add\n      0x40\n      mstore\n      dup1\n      0x09\n      dup2\n      mstore\n      0x20\n      add\n      0x4365727469666965720000000000000000000000000000000000000000000000\n      dup2\n      mstore\n      pop\n        /* \"contracts/EntityContract.sol\":5253:5265  _toLowerCase */\n      tag_31\n        /* \"contracts/EntityContract.sol\":5253:5281  _toLowerCase(ROLE_CERTIFIER) */\n      jump\t// in\n    tag_98:\n        /* \"contracts/EntityContract.sol\":5236:5282  abi.encodePacked(_toLowerCase(ROLE_CERTIFIER)) */\n      add(0x20, mload(0x40))\n      tag_99\n      swap2\n      swap1\n      tag_59\n      jump\t// in\n    tag_99:\n      mload(0x40)\n      0x20\n      dup2\n      dup4\n      sub\n      sub\n      dup2\n      mstore\n      swap1\n      0x40\n      mstore\n        /* \"contracts/EntityContract.sol\":5226:5283  keccak256(abi.encodePacked(_toLowerCase(ROLE_CERTIFIER))) */\n      dup1\n      mload\n      swap1\n      0x20\n      add\n      keccak256\n        /* \"contracts/EntityContract.sol\":5214:5222  roleHash */\n      dup2\n        /* \"contracts/EntityContract.sol\":5214:5283  roleHash == keccak256(abi.encodePacked(_toLowerCase(ROLE_CERTIFIER))) */\n      sub\n        /* \"contracts/EntityContract.sol\":5210:5499  if (roleHash == keccak256(abi.encodePacked(_toLowerCase(ROLE_CERTIFIER)))) {... */\n      tag_100\n      jumpi\n        /* \"contracts/EntityContract.sol\":5306:5320  ROLE_CERTIFIER */\n      mload(0x40)\n      dup1\n      0x40\n      add\n      0x40\n      mstore\n      dup1\n      0x09\n      dup2\n      mstore\n      0x20\n      add\n      0x4365727469666965720000000000000000000000000000000000000000000000\n      dup2\n      mstore\n      pop\n        /* \"contracts/EntityContract.sol\":5299:5320  return ROLE_CERTIFIER */\n      swap2\n      pop\n      pop\n      jump(tag_87)\n        /* \"contracts/EntityContract.sol\":5210:5499  if (roleHash == keccak256(abi.encodePacked(_toLowerCase(ROLE_CERTIFIER)))) {... */\n    tag_100:\n        /* \"contracts/EntityContract.sol\":5380:5407  _toLowerCase(ROLE_RETAILER) */\n      tag_102\n        /* \"contracts/EntityContract.sol\":5393:5406  ROLE_RETAILER */\n      mload(0x40)\n      dup1\n      0x40\n      add\n      0x40\n      mstore\n      dup1\n      0x08\n      dup2\n      mstore\n      0x20\n      add\n      0x52657461696c6572000000000000000000000000000000000000000000000000\n      dup2\n      mstore\n      pop\n        /* \"contracts/EntityContract.sol\":5380:5392  _toLowerCase */\n      tag_31\n        /* \"contracts/EntityContract.sol\":5380:5407  _toLowerCase(ROLE_RETAILER) */\n      jump\t// in\n    tag_102:\n        /* \"contracts/EntityContract.sol\":5363:5408  abi.encodePacked(_toLowerCase(ROLE_RETAILER)) */\n      add(0x20, mload(0x40))\n      tag_103\n      swap2\n      swap1\n      tag_59\n      jump\t// in\n    tag_103:\n      mload(0x40)\n      0x20\n      dup2\n      dup4\n      sub\n      sub\n      dup2\n      mstore\n      swap1\n      0x40\n      mstore\n        /* \"contracts/EntityContract.sol\":5353:5409  keccak256(abi.encodePacked(_toLowerCase(ROLE_RETAILER))) */\n      dup1\n      mload\n      swap1\n      0x20\n      add\n      keccak256\n        /* \"contracts/EntityContract.sol\":5341:5349  roleHash */\n      dup2\n        /* \"contracts/EntityContract.sol\":5341:5409  roleHash == keccak256(abi.encodePacked(_toLowerCase(ROLE_RETAILER))) */\n      sub\n        /* \"contracts/EntityContract.sol\":5337:5499  if (roleHash == keccak256(abi.encodePacked(_toLowerCase(ROLE_RETAILER)))) {... */\n      tag_104\n      jumpi\n        /* \"contracts/EntityContract.sol\":5432:5445  ROLE_RETAILER */\n      mload(0x40)\n      dup1\n      0x40\n      add\n      0x40\n      mstore\n      dup1\n      0x08\n      dup2\n      mstore\n      0x20\n      add\n      0x52657461696c6572000000000000000000000000000000000000000000000000\n      dup2\n      mstore\n      pop\n        /* \"contracts/EntityContract.sol\":5425:5445  return ROLE_RETAILER */\n      swap2\n      pop\n      pop\n      jump(tag_87)\n        /* \"contracts/EntityContract.sol\":5337:5499  if (roleHash == keccak256(abi.encodePacked(_toLowerCase(ROLE_RETAILER)))) {... */\n    tag_104:\n        /* \"contracts/EntityContract.sol\":5483:5488  _role */\n      dup3\n        /* \"contracts/EntityContract.sol\":5476:5488  return _role */\n      swap2\n      pop\n      pop\n        /* \"contracts/EntityContract.sol\":4781:5505  function normaliseRole(string memory _role) private pure returns (string memory) {... */\n    tag_87:\n      swap2\n      swap1\n      pop\n      jump\t// out\n        /* \"contracts/EntityContract.sol\":6003:6476  function isValidRole(string memory _role) private pure returns (bool) {... */\n    tag_26:\n        /* \"contracts/EntityContract.sol\":6067:6071  bool */\n      0x00\n        /* \"contracts/EntityContract.sol\":6155:6165  ROLE_MINER */\n      mload(0x40)\n      dup1\n      0x40\n      add\n      0x40\n      mstore\n      dup1\n      0x05\n      dup2\n      mstore\n      0x20\n      add\n      0x4d696e6572000000000000000000000000000000000000000000000000000000\n      dup2\n      mstore\n      pop\n        /* \"contracts/EntityContract.sol\":6138:6166  abi.encodePacked(ROLE_MINER) */\n      add(0x20, mload(0x40))\n      tag_107\n      swap2\n      swap1\n      tag_59\n      jump\t// in\n    tag_107:\n      mload(0x40)\n      0x20\n      dup2\n      dup4\n      sub\n      sub\n      dup2\n      mstore\n      swap1\n      0x40\n      mstore\n        /* \"contracts/EntityContract.sol\":6128:6167  keccak256(abi.encodePacked(ROLE_MINER)) */\n      dup1\n      mload\n      swap1\n      0x20\n      add\n      keccak256\n        /* \"contracts/EntityContract.sol\":6117:6122  _role */\n      dup3\n        /* \"contracts/EntityContract.sol\":6100:6123  abi.encodePacked(_role) */\n      add(0x20, mload(0x40))\n      tag_108\n      swap2\n      swap1\n      tag_59\n      jump\t// in\n    tag_108:\n      mload(0x40)\n      0x20\n      dup2\n      dup4\n      sub\n      sub\n      dup2\n      mstore\n      swap1\n      0x40\n      mstore\n        /* \"contracts/EntityContract.sol\":6090:6124  keccak256(abi.encodePacked(_role)) */\n      dup1\n      mload\n      swap1\n      0x20\n      add\n      keccak256\n        /* \"contracts/EntityContract.sol\":6090:6167  keccak256(abi.encodePacked(_role)) == keccak256(abi.encodePacked(ROLE_MINER)) */\n      eq\n        /* \"contracts/EntityContract.sol\":6090:6270  keccak256(abi.encodePacked(_role)) == keccak256(abi.encodePacked(ROLE_MINER)) ||... */\n      dup1\n      tag_109\n      jumpi\n      pop\n        /* \"contracts/EntityContract.sol\":6251:6268  ROLE_MANUFACTURER */\n      mload(0x40)\n      dup1\n      0x40\n      add\n      0x40\n      mstore\n      dup1\n      0x0c\n      dup2\n      mstore\n      0x20\n      add\n      0x4d616e7566616374757265720000000000000000000000000000000000000000\n      dup2\n      mstore\n      pop\n        /* \"contracts/EntityContract.sol\":6234:6269  abi.encodePacked(ROLE_MANUFACTURER) */\n      add(0x20, mload(0x40))\n      tag_110\n      swap2\n      swap1\n      tag_59\n      jump\t// in\n    tag_110:\n      mload(0x40)\n      0x20\n      dup2\n      dup4\n      sub\n      sub\n      dup2\n      mstore\n      swap1\n      0x40\n      mstore\n        /* \"contracts/EntityContract.sol\":6224:6270  keccak256(abi.encodePacked(ROLE_MANUFACTURER)) */\n      dup1\n      mload\n      swap1\n      0x20\n      add\n      keccak256\n        /* \"contracts/EntityContract.sol\":6213:6218  _role */\n      dup3\n        /* \"contracts/EntityContract.sol\":6196:6219  abi.encodePacked(_role) */\n      add(0x20, mload(0x40))\n      tag_111\n      swap2\n      swap1\n      tag_59\n      jump\t// in\n    tag_111:\n      mload(0x40)\n      0x20\n      dup2\n      dup4\n      sub\n      sub\n      dup2\n      mstore\n      swap1\n      0x40\n      mstore\n        /* \"contracts/EntityContract.sol\":6186:6220  keccak256(abi.encodePacked(_role)) */\n      dup1\n      mload\n      swap1\n      0x20\n      add\n      keccak256\n        /* \"contracts/EntityContract.sol\":6186:6270  keccak256(abi.encodePacked(_role)) == keccak256(abi.encodePacked(ROLE_MANUFACTURER)) */\n      eq\n        /* \"contracts/EntityContract.sol\":6090:6270  keccak256(abi.encodePacked(_role)) == keccak256(abi.encodePacked(ROLE_MINER)) ||... */\n    tag_109:\n        /* \"contracts/EntityContract.sol\":6090:6370  keccak256(abi.encodePacked(_role)) == keccak256(abi.encodePacked(ROLE_MINER)) ||... */\n      dup1\n      tag_112\n      jumpi\n      pop\n        /* \"contracts/EntityContract.sol\":6354:6368  ROLE_CERTIFIER */\n      mload(0x40)\n      dup1\n      0x40\n      add\n      0x40\n      mstore\n      dup1\n      0x09\n      dup2\n      mstore\n      0x20\n      add\n      0x4365727469666965720000000000000000000000000000000000000000000000\n      dup2\n      mstore\n      pop\n        /* \"contracts/EntityContract.sol\":6337:6369  abi.encodePacked(ROLE_CERTIFIER) */\n      add(0x20, mload(0x40))\n      tag_113\n      swap2\n      swap1\n      tag_59\n      jump\t// in\n    tag_113:\n      mload(0x40)\n      0x20\n      dup2\n      dup4\n      sub\n      sub\n      dup2\n      mstore\n      swap1\n      0x40\n      mstore\n        /* \"contracts/EntityContract.sol\":6327:6370  keccak256(abi.encodePacked(ROLE_CERTIFIER)) */\n      dup1\n      mload\n      swap1\n      0x20\n      add\n      keccak256\n        /* \"contracts/EntityContract.sol\":6316:6321  _role */\n      dup3\n        /* \"contracts/EntityContract.sol\":6299:6322  abi.encodePacked(_role) */\n      add(0x20, mload(0x40))\n      tag_114\n      swap2\n      swap1\n      tag_59\n      jump\t// in\n    tag_114:\n      mload(0x40)\n      0x20\n      dup2\n      dup4\n      sub\n      sub\n      dup2\n      mstore\n      swap1\n      0x40\n      mstore\n        /* \"contracts/EntityContract.sol\":6289:6323  keccak256(abi.encodePacked(_role)) */\n      dup1\n      mload\n      swap1\n      0x20\n      add\n      keccak256\n        /* \"contracts/EntityContract.sol\":6289:6370  keccak256(abi.encodePacked(_role)) == keccak256(abi.encodePacked(ROLE_CERTIFIER)) */\n      eq\n        /* \"contracts/EntityContract.sol\":6090:6370  keccak256(abi.encodePacked(_role)) == keccak256(abi.encodePacked(ROLE_MINER)) ||... */\n    tag_112:\n        /* \"contracts/EntityContract.sol\":6090:6469  keccak256(abi.encodePacked(_role)) == keccak256(abi.encodePacked(ROLE_MINER)) ||... */\n      dup1\n      tag_115\n      jumpi\n      pop\n        /* \"contracts/EntityContract.sol\":6454:6467  ROLE_RETAILER */\n      mload(0x40)\n      dup1\n      0x40\n      add\n      0x40\n      mstore\n      dup1\n      0x08\n      dup2\n      mstore\n      0x20\n      add\n      0x52657461696c6572000000000000000000000000000000000000000000000000\n      dup2\n      mstore\n      pop\n        /* \"contracts/EntityContract.sol\":6437:6468  abi.encodePacked(ROLE_RETAILER) */\n      add(0x20, mload(0x40))\n      tag_116\n      swap2\n      swap1\n      tag_59\n      jump\t// in\n    tag_116:\n      mload(0x40)\n      0x20\n      dup2\n      dup4\n      sub\n      sub\n      dup2\n      mstore\n      swap1\n      0x40\n      mstore\n        /* \"contracts/EntityContract.sol\":6427:6469  keccak256(abi.encodePacked(ROLE_RETAILER)) */\n      dup1\n      mload\n      swap1\n      0x20\n      add\n      keccak256\n        /* \"contracts/EntityContract.sol\":6416:6421  _role */\n      dup3\n        /* \"contracts/EntityContract.sol\":6399:6422  abi.encodePacked(_role) */\n      add(0x20, mload(0x40))\n      tag_117\n      swap2\n      swap1\n      tag_59\n      jump\t// in\n    tag_117:\n      mload(0x40)\n      0x20\n      dup2\n      dup4\n      sub\n      sub\n      dup2\n      mstore\n      swap1\n      0x40\n      mstore\n        /* \"contracts/EntityContract.sol\":6389:6423  keccak256(abi.encodePacked(_role)) */\n      dup1\n      mload\n      swap1\n      0x20\n      add\n      keccak256\n        /* \"contracts/EntityContract.sol\":6389:6469  keccak256(abi.encodePacked(_role)) == keccak256(abi.encodePacked(ROLE_RETAILER)) */\n      eq\n        /* \"contracts/EntityContract.sol\":6090:6469  keccak256(abi.encodePacked(_role)) == keccak256(abi.encodePacked(ROLE_MINER)) ||... */\n    tag_115:\n        /* \"contracts/EntityContract.sol\":6083:6469  return keccak256(abi.encodePacked(_role)) == keccak256(abi.encodePacked(ROLE_MINER)) ||... */\n      swap1\n      pop\n        /* \"contracts/EntityContract.sol\":6003:6476  function isValidRole(string memory _role) private pure returns (bool) {... */\n      swap2\n      swap1\n      pop\n      jump\t// out\n        /* \"contracts/EntityContract.sol\":5511:5997  function _toLowerCase(string memory _str) private pure returns (string memory) {... */\n    tag_31:\n        /* \"contracts/EntityContract.sol\":5575:5588  string memory */\n      0x60\n        /* \"contracts/EntityContract.sol\":5600:5617  bytes memory bStr */\n      0x00\n        /* \"contracts/EntityContract.sol\":5626:5630  _str */\n      dup3\n        /* \"contracts/EntityContract.sol\":5600:5631  bytes memory bStr = bytes(_str) */\n      swap1\n      pop\n        /* \"contracts/EntityContract.sol\":5641:5660  bytes memory bLower */\n      0x00\n        /* \"contracts/EntityContract.sol\":5673:5677  bStr */\n      dup2\n        /* \"contracts/EntityContract.sol\":5673:5684  bStr.length */\n      mload\n        /* \"contracts/EntityContract.sol\":5663:5685  new bytes(bStr.length) */\n      0xffffffffffffffff\n      dup2\n      gt\n      iszero\n      tag_119\n      jumpi\n      tag_120\n      tag_121\n      jump\t// in\n    tag_120:\n    tag_119:\n      mload(0x40)\n      swap1\n      dup1\n      dup3\n      mstore\n      dup1\n      0x1f\n      add\n      not(0x1f)\n      and\n      0x20\n      add\n      dup3\n      add\n      0x40\n      mstore\n      dup1\n      iszero\n      tag_122\n      jumpi\n      dup2\n      0x20\n      add\n      0x01\n      dup3\n      mul\n      dup1\n      calldatasize\n      dup4\n      calldatacopy\n      dup1\n      dup3\n      add\n      swap2\n      pop\n      pop\n      swap1\n      pop\n    tag_122:\n      pop\n        /* \"contracts/EntityContract.sol\":5641:5685  bytes memory bLower = new bytes(bStr.length) */\n      swap1\n      pop\n        /* \"contracts/EntityContract.sol\":5709:5715  uint i */\n      0x00\n        /* \"contracts/EntityContract.sol\":5704:5951  for (uint i = 0; i < bStr.length; i++) {... */\n    tag_123:\n        /* \"contracts/EntityContract.sol\":5725:5729  bStr */\n      dup3\n        /* \"contracts/EntityContract.sol\":5725:5736  bStr.length */\n      mload\n        /* \"contracts/EntityContract.sol\":5721:5722  i */\n      dup2\n        /* \"contracts/EntityContract.sol\":5721:5736  i < bStr.length */\n      lt\n        /* \"contracts/EntityContract.sol\":5704:5951  for (uint i = 0; i < bStr.length; i++) {... */\n      iszero\n      tag_124\n      jumpi\n        /* \"contracts/EntityContract.sol\":5780:5782  65 */\n      0x41\n        /* \"contracts/EntityContract.sol\":5768:5772  bStr */\n      dup4\n        /* \"contracts/EntityContract.sol\":5773:5774  i */\n      dup3\n        /* \"contracts/EntityContract.sol\":5768:5775  bStr[i] */\n      dup2\n      mload\n      dup2\n      lt\n      tag_126\n      jumpi\n      tag_127\n      tag_47\n      jump\t// in\n    tag_127:\n    tag_126:\n      0x20\n      add\n      add\n      mload\n      0xf8\n      shr\n      0xf8\n      shl\n        /* \"contracts/EntityContract.sol\":5762:5776  uint8(bStr[i]) */\n      0xf8\n      shr\n        /* \"contracts/EntityContract.sol\":5762:5782  uint8(bStr[i]) >= 65 */\n      0xff\n      and\n      lt\n      iszero\n        /* \"contracts/EntityContract.sol\":5761:5809  (uint8(bStr[i]) >= 65) && (uint8(bStr[i]) <= 90) */\n      dup1\n      iszero\n      tag_128\n      jumpi\n      pop\n        /* \"contracts/EntityContract.sol\":5806:5808  90 */\n      0x5a\n        /* \"contracts/EntityContract.sol\":5794:5798  bStr */\n      dup4\n        /* \"contracts/EntityContract.sol\":5799:5800  i */\n      dup3\n        /* \"contracts/EntityContract.sol\":5794:5801  bStr[i] */\n      dup2\n      mload\n      dup2\n      lt\n      tag_129\n      jumpi\n      tag_130\n      tag_47\n      jump\t// in\n    tag_130:\n    tag_129:\n      0x20\n      add\n      add\n      mload\n      0xf8\n      shr\n      0xf8\n      shl\n        /* \"contracts/EntityContract.sol\":5788:5802  uint8(bStr[i]) */\n      0xf8\n      shr\n        /* \"contracts/EntityContract.sol\":5788:5808  uint8(bStr[i]) <= 90 */\n      0xff\n      and\n      gt\n      iszero\n        /* \"contracts/EntityContract.sol\":5761:5809  (uint8(bStr[i]) >= 65) && (uint8(bStr[i]) <= 90) */\n    tag_128:\n        /* \"contracts/EntityContract.sol\":5757:5941  if ((uint8(bStr[i]) >= 65) && (uint8(bStr[i]) <= 90)) {... */\n      iszero\n      tag_131\n      jumpi\n        /* \"contracts/EntityContract.sol\":5865:5867  32 */\n      0x20\n        /* \"contracts/EntityContract.sol\":5854:5858  bStr */\n      dup4\n        /* \"contracts/EntityContract.sol\":5859:5860  i */\n      dup3\n        /* \"contracts/EntityContract.sol\":5854:5861  bStr[i] */\n      dup2\n      mload\n      dup2\n      lt\n      tag_132\n      jumpi\n      tag_133\n      tag_47\n      jump\t// in\n    tag_133:\n    tag_132:\n      0x20\n      add\n      add\n      mload\n      0xf8\n      shr\n      0xf8\n      shl\n        /* \"contracts/EntityContract.sol\":5848:5862  uint8(bStr[i]) */\n      0xf8\n      shr\n        /* \"contracts/EntityContract.sol\":5848:5867  uint8(bStr[i]) + 32 */\n      tag_134\n      swap2\n      swap1\n      tag_135\n      jump\t// in\n    tag_134:\n        /* \"contracts/EntityContract.sol\":5841:5868  bytes1(uint8(bStr[i]) + 32) */\n      0xf8\n      shl\n        /* \"contracts/EntityContract.sol\":5829:5835  bLower */\n      dup3\n        /* \"contracts/EntityContract.sol\":5836:5837  i */\n      dup3\n        /* \"contracts/EntityContract.sol\":5829:5838  bLower[i] */\n      dup2\n      mload\n      dup2\n      lt\n      tag_136\n      jumpi\n      tag_137\n      tag_47\n      jump\t// in\n    tag_137:\n    tag_136:\n      0x20\n      add\n      add\n        /* \"contracts/EntityContract.sol\":5829:5868  bLower[i] = bytes1(uint8(bStr[i]) + 32) */\n      swap1\n      not(0xffffffffffffffffffffffffffffffffffffffffffffffffffffffffffffff)\n      and\n      swap1\n      dup2\n      0x00\n      byte\n      swap1\n      mstore8\n      pop\n        /* \"contracts/EntityContract.sol\":5757:5941  if ((uint8(bStr[i]) >= 65) && (uint8(bStr[i]) <= 90)) {... */\n      jump(tag_138)\n    tag_131:\n        /* \"contracts/EntityContract.sol\":5919:5923  bStr */\n      dup3\n        /* \"contracts/EntityContract.sol\":5924:5925  i */\n      dup2\n        /* \"contracts/EntityContract.sol\":5919:5926  bStr[i] */\n      dup2\n      mload\n      dup2\n      lt\n      tag_139\n      jumpi\n      tag_140\n      tag_47\n      jump\t// in\n    tag_140:\n    tag_139:\n      0x20\n      add\n      add\n      mload\n      0xf8\n      shr\n      0xf8\n      shl\n        /* \"contracts/EntityContract.sol\":5907:5913  bLower */\n      dup3\n        /* \"contracts/EntityContract.sol\":5914:5915  i */\n      dup3\n        /* \"contracts/EntityContract.sol\":5907:5916  bLower[i] */\n      dup2\n      mload\n      dup2\n      lt\n      tag_141\n      jumpi\n      tag_142\n      tag_47\n      jump\t// in\n    tag_142:\n    tag_141:\n      0x20\n      add\n      add\n        /* \"contracts/EntityContract.sol\":5907:5926  bLower[i] = bStr[i] */\n      swap1\n      not(0xffffffffffffffffffffffffffffffffffffffffffffffffffffffffffffff)\n      and\n      swap1\n      dup2\n      0x00\n      byte\n      swap1\n      mstore8\n      pop\n        /* \"contracts/EntityContract.sol\":5757:5941  if ((uint8(bStr[i]) >= 65) && (uint8(bStr[i]) <= 90)) {... */\n    tag_138:\n        /* \"contracts/EntityContract.sol\":5738:5741  i++ */\n      dup1\n      dup1\n      0x01\n      add\n      swap2\n      pop\n      pop\n        /* \"contracts/EntityContract.sol\":5704:5951  for (uint i = 0; i < bStr.length; i++) {... */\n      jump(tag_123)\n    tag_124:\n      pop\n        /* \"contracts/EntityContract.sol\":5983:5989  bLower */\n      dup1\n        /* \"contracts/EntityContract.sol\":5969:5990  return string(bLower) */\n      swap3\n      pop\n      pop\n      pop\n        /* \"contracts/EntityContract.sol\":5511:5997  function _toLowerCase(string memory _str) private pure returns (string memory) {... */\n      swap2\n      swap1\n      pop\n      jump\t// out\n        /* \"contracts/EntityContract.sol\":3086:3463  function isLocationBlacklisted(string memory _location) private view returns (bool) {... */\n    tag_33:\n        /* \"contracts/EntityContract.sol\":3164:3168  bool */\n      0x00\n        /* \"contracts/EntityContract.sol\":3180:3207  string memory lowerLocation */\n      dup1\n        /* \"contracts/EntityContract.sol\":3210:3233  _toLowerCase(_location) */\n      tag_144\n        /* \"contracts/EntityContract.sol\":3223:3232  _location */\n      dup4\n        /* \"contracts/EntityContract.sol\":3210:3222  _toLowerCase */\n      tag_31\n        /* \"contracts/EntityContract.sol\":3210:3233  _toLowerCase(_location) */\n      jump\t// in\n    tag_144:\n        /* \"contracts/EntityContract.sol\":3180:3233  string memory lowerLocation = _toLowerCase(_location) */\n      swap1\n      pop\n        /* \"contracts/EntityContract.sol\":3257:3263  uint i */\n      0x00\n        /* \"contracts/EntityContract.sol\":3252:3435  for (uint i = 0; i < blacklistedLocations.length; i++) {... */\n    tag_145:\n        /* \"contracts/EntityContract.sol\":3273:3293  blacklistedLocations */\n      0x00\n        /* \"contracts/EntityContract.sol\":3273:3300  blacklistedLocations.length */\n      dup1\n      sload\n      swap1\n      pop\n        /* \"contracts/EntityContract.sol\":3269:3270  i */\n      dup2\n        /* \"contracts/EntityContract.sol\":3269:3300  i < blacklistedLocations.length */\n      lt\n        /* \"contracts/EntityContract.sol\":3252:3435  for (uint i = 0; i < blacklistedLocations.length; i++) {... */\n      iszero\n      tag_146\n      jumpi\n        /* \"contracts/EntityContract.sol\":3325:3379  containsString(lowerLocation, blacklistedLocations[i]) */\n      tag_148\n        /* \"contracts/EntityContract.sol\":3340:3353  lowerLocation */\n      dup3\n        /* \"contracts/EntityContract.sol\":3355:3375  blacklistedLocations */\n      0x00\n        /* \"contracts/EntityContract.sol\":3376:3377  i */\n      dup4\n        /* \"contracts/EntityContract.sol\":3355:3378  blacklistedLocations[i] */\n      dup2\n      sload\n      dup2\n      lt\n      tag_149\n      jumpi\n      tag_150\n      tag_47\n      jump\t// in\n    tag_150:\n    tag_149:\n      swap1\n      0x00\n      mstore\n      keccak256(0x00, 0x20)\n      add\n        /* \"contracts/EntityContract.sol\":3325:3379  containsString(lowerLocation, blacklistedLocations[i]) */\n      dup1\n      sload\n      tag_152\n      swap1\n      tag_65\n      jump\t// in\n    tag_152:\n      dup1\n      0x1f\n      add\n      0x20\n      dup1\n      swap2\n      div\n      mul\n      0x20\n      add\n      mload(0x40)\n      swap1\n      dup2\n      add\n      0x40\n      mstore\n      dup1\n      swap3\n      swap2\n      swap1\n      dup2\n      dup2\n      mstore\n      0x20\n      add\n      dup3\n      dup1\n      sload\n      tag_153\n      swap1\n      tag_65\n      jump\t// in\n    tag_153:\n      dup1\n      iszero\n      tag_154\n      jumpi\n      dup1\n      0x1f\n      lt\n      tag_155\n      jumpi\n      0x0100\n      dup1\n      dup4\n      sload\n      div\n      mul\n      dup4\n      mstore\n      swap2\n      0x20\n      add\n      swap2\n      jump(tag_154)\n    tag_155:\n      dup3\n      add\n      swap2\n      swap1\n      0x00\n      mstore\n      keccak256(0x00, 0x20)\n      swap1\n    tag_156:\n      dup2\n      sload\n      dup2\n      mstore\n      swap1\n      0x01\n      add\n      swap1\n      0x20\n      add\n      dup1\n      dup4\n      gt\n      tag_156\n      jumpi\n      dup3\n      swap1\n      sub\n      0x1f\n      and\n      dup3\n      add\n      swap2\n    tag_154:\n      pop\n      pop\n      pop\n      pop\n      pop\n        /* \"contracts/EntityContract.sol\":3325:3339  containsString */\n      tag_157\n        /* \"contracts/EntityContract.sol\":3325:3379  containsString(lowerLocation, blacklistedLocations[i]) */\n      jump\t// in\n    tag_148:\n        /* \"contracts/EntityContract.sol\":3321:3425  if (containsString(lowerLocation, blacklistedLocations[i])) {... */\n      iszero\n      tag_158\n      jumpi\n        /* \"contracts/EntityContract.sol\":3406:3410  true */\n      0x01\n        /* \"contracts/EntityContract.sol\":3399:3410  return true */\n      swap3\n      pop\n      pop\n      pop\n      jump(tag_143)\n        /* \"contracts/EntityContract.sol\":3321:3425  if (containsString(lowerLocation, blacklistedLocations[i])) {... */\n    tag_158:\n        /* \"contracts/EntityContract.sol\":3302:3305  i++ */\n      dup1\n      dup1\n      0x01\n      add\n      swap2\n      pop\n      pop\n        /* \"contracts/EntityContract.sol\":3252:3435  for (uint i = 0; i < blacklistedLocations.length; i++) {... */\n      jump(tag_145)\n    tag_146:\n      pop\n        /* \"contracts/EntityContract.sol\":3451:3456  false */\n      0x00\n        /* \"contracts/EntityContract.sol\":3444:3456  return false */\n      swap2\n      pop\n      pop\n        /* \"contracts/EntityContract.sol\":3086:3463  function isLocationBlacklisted(string memory _location) private view returns (bool) {... */\n    tag_143:\n      swap2\n      swap1\n      pop\n      jump\t// out\n        /* \"contracts/EntityContract.sol\":6482:7107  function getLicensePrefixForRole(string memory _role) private pure returns (bytes1) {... */\n    tag_44:\n        /* \"contracts/EntityContract.sol\":6558:6564  bytes1 */\n      0x00\n        /* \"contracts/EntityContract.sol\":6576:6592  bytes32 roleHash */\n      dup1\n        /* \"contracts/EntityContract.sol\":6622:6627  _role */\n      dup3\n        /* \"contracts/EntityContract.sol\":6605:6628  abi.encodePacked(_role) */\n      add(0x20, mload(0x40))\n      tag_160\n      swap2\n      swap1\n      tag_59\n      jump\t// in\n    tag_160:\n      mload(0x40)\n      0x20\n      dup2\n      dup4\n      sub\n      sub\n      dup2\n      mstore\n      swap1\n      0x40\n      mstore\n        /* \"contracts/EntityContract.sol\":6595:6629  keccak256(abi.encodePacked(_role)) */\n      dup1\n      mload\n      swap1\n      0x20\n      add\n      keccak256\n        /* \"contracts/EntityContract.sol\":6576:6629  bytes32 roleHash = keccak256(abi.encodePacked(_role)) */\n      swap1\n      pop\n        /* \"contracts/EntityContract.sol\":6691:6701  ROLE_MINER */\n      mload(0x40)\n      dup1\n      0x40\n      add\n      0x40\n      mstore\n      dup1\n      0x05\n      dup2\n      mstore\n      0x20\n      add\n      0x4d696e6572000000000000000000000000000000000000000000000000000000\n      dup2\n      mstore\n      pop\n        /* \"contracts/EntityContract.sol\":6674:6702  abi.encodePacked(ROLE_MINER) */\n      add(0x20, mload(0x40))\n      tag_161\n      swap2\n      swap1\n      tag_59\n      jump\t// in\n    tag_161:\n      mload(0x40)\n      0x20\n      dup2\n      dup4\n      sub\n      sub\n      dup2\n      mstore\n      swap1\n      0x40\n      mstore\n        /* \"contracts/EntityContract.sol\":6664:6703  keccak256(abi.encodePacked(ROLE_MINER)) */\n      dup1\n      mload\n      swap1\n      0x20\n      add\n      keccak256\n        /* \"contracts/EntityContract.sol\":6652:6660  roleHash */\n      dup2\n        /* \"contracts/EntityContract.sol\":6652:6703  roleHash == keccak256(abi.encodePacked(ROLE_MINER)) */\n      sub\n        /* \"contracts/EntityContract.sol\":6648:7101  if (roleHash == keccak256(abi.encodePacked(ROLE_MINER))) {... */\n      tag_162\n      jumpi\n        /* \"contracts/EntityContract.sol\":6719:6729  return 'a' */\n      0x6100000000000000000000000000000000000000000000000000000000000000\n      swap2\n      pop\n      pop\n      jump(tag_159)\n        /* \"contracts/EntityContract.sol\":6648:7101  if (roleHash == keccak256(abi.encodePacked(ROLE_MINER))) {... */\n    tag_162:\n        /* \"contracts/EntityContract.sol\":6789:6806  ROLE_MANUFACTURER */\n      mload(0x40)\n      dup1\n      0x40\n      add\n      0x40\n      mstore\n      dup1\n      0x0c\n      dup2\n      mstore\n      0x20\n      add\n      0x4d616e7566616374757265720000000000000000000000000000000000000000\n      dup2\n      mstore\n      pop\n        /* \"contracts/EntityContract.sol\":6772:6807  abi.encodePacked(ROLE_MANUFACTURER) */\n      add(0x20, mload(0x40))\n      tag_164\n      swap2\n      swap1\n      tag_59\n      jump\t// in\n    tag_164:\n      mload(0x40)\n      0x20\n      dup2\n      dup4\n      sub\n      sub\n      dup2\n      mstore\n      swap1\n      0x40\n      mstore\n        /* \"contracts/EntityContract.sol\":6762:6808  keccak256(abi.encodePacked(ROLE_MANUFACTURER)) */\n      dup1\n      mload\n      swap1\n      0x20\n      add\n      keccak256\n        /* \"contracts/EntityContract.sol\":6750:6758  roleHash */\n      dup2\n        /* \"contracts/EntityContract.sol\":6750:6808  roleHash == keccak256(abi.encodePacked(ROLE_MANUFACTURER)) */\n      sub\n        /* \"contracts/EntityContract.sol\":6746:7101  if (roleHash == keccak256(abi.encodePacked(ROLE_MANUFACTURER))) {... */\n      tag_165\n      jumpi\n        /* \"contracts/EntityContract.sol\":6824:6834  return 'b' */\n      0x6200000000000000000000000000000000000000000000000000000000000000\n      swap2\n      pop\n      pop\n      jump(tag_159)\n        /* \"contracts/EntityContract.sol\":6746:7101  if (roleHash == keccak256(abi.encodePacked(ROLE_MANUFACTURER))) {... */\n    tag_165:\n        /* \"contracts/EntityContract.sol\":6894:6908  ROLE_CERTIFIER */\n      mload(0x40)\n      dup1\n      0x40\n      add\n      0x40\n      mstore\n      dup1\n      0x09\n      dup2\n      mstore\n      0x20\n      add\n      0x4365727469666965720000000000000000000000000000000000000000000000\n      dup2\n      mstore\n      pop\n        /* \"contracts/EntityContract.sol\":6877:6909  abi.encodePacked(ROLE_CERTIFIER) */\n      add(0x20, mload(0x40))\n      tag_167\n      swap2\n      swap1\n      tag_59\n      jump\t// in\n    tag_167:\n      mload(0x40)\n      0x20\n      dup2\n      dup4\n      sub\n      sub\n      dup2\n      mstore\n      swap1\n      0x40\n      mstore\n        /* \"contracts/EntityContract.sol\":6867:6910  keccak256(abi.encodePacked(ROLE_CERTIFIER)) */\n      dup1\n      mload\n      swap1\n      0x20\n      add\n      keccak256\n        /* \"contracts/EntityContract.sol\":6855:6863  roleHash */\n      dup2\n        /* \"contracts/EntityContract.sol\":6855:6910  roleHash == keccak256(abi.encodePacked(ROLE_CERTIFIER)) */\n      sub\n        /* \"contracts/EntityContract.sol\":6851:7101  if (roleHash == keccak256(abi.encodePacked(ROLE_CERTIFIER))) {... */\n      tag_168\n      jumpi\n        /* \"contracts/EntityContract.sol\":6926:6936  return 'c' */\n      0x6300000000000000000000000000000000000000000000000000000000000000\n      swap2\n      pop\n      pop\n      jump(tag_159)\n        /* \"contracts/EntityContract.sol\":6851:7101  if (roleHash == keccak256(abi.encodePacked(ROLE_CERTIFIER))) {... */\n    tag_168:\n        /* \"contracts/EntityContract.sol\":6996:7009  ROLE_RETAILER */\n      mload(0x40)\n      dup1\n      0x40\n      add\n      0x40\n      mstore\n      dup1\n      0x08\n      dup2\n      mstore\n      0x20\n      add\n      0x52657461696c6572000000000000000000000000000000000000000000000000\n      dup2\n      mstore\n      pop\n        /* \"contracts/EntityContract.sol\":6979:7010  abi.encodePacked(ROLE_RETAILER) */\n      add(0x20, mload(0x40))\n      tag_170\n      swap2\n      swap1\n      tag_59\n      jump\t// in\n    tag_170:\n      mload(0x40)\n      0x20\n      dup2\n      dup4\n      sub\n      sub\n      dup2\n      mstore\n      swap1\n      0x40\n      mstore\n        /* \"contracts/EntityContract.sol\":6969:7011  keccak256(abi.encodePacked(ROLE_RETAILER)) */\n      dup1\n      mload\n      swap1\n      0x20\n      add\n      keccak256\n        /* \"contracts/EntityContract.sol\":6957:6965  roleHash */\n      dup2\n        /* \"contracts/EntityContract.sol\":6957:7011  roleHash == keccak256(abi.encodePacked(ROLE_RETAILER)) */\n      sub\n        /* \"contracts/EntityContract.sol\":6953:7101  if (roleHash == keccak256(abi.encodePacked(ROLE_RETAILER))) {... */\n      tag_171\n      jumpi\n        /* \"contracts/EntityContract.sol\":7027:7037  return 'd' */\n      0x6400000000000000000000000000000000000000000000000000000000000000\n      swap2\n      pop\n      pop\n      jump(tag_159)\n        /* \"contracts/EntityContract.sol\":6953:7101  if (roleHash == keccak256(abi.encodePacked(ROLE_RETAILER))) {... */\n    tag_171:\n        /* \"contracts/EntityContract.sol\":7068:7090  revert(\"Invalid role\") */\n      mload(0x40)\n      0x08c379a000000000000000000000000000000000000000000000000000000000\n      dup2\n      mstore\n      0x04\n      add\n      tag_173\n      swap1\n      tag_174\n      jump\t// in\n    tag_173:\n      mload(0x40)\n      dup1\n      swap2\n      sub\n      swap1\n      revert\n        /* \"contracts/EntityContract.sol\":6482:7107  function getLicensePrefixForRole(string memory _role) private pure returns (bytes1) {... */\n    tag_159:\n      swap2\n      swap1\n      pop\n      jump\t// out\n        /* \"contracts/EntityContract.sol\":3507:4282  function containsString(string memory _source, string memory _search) private pure returns (bool) {... */\n    tag_157:\n        /* \"contracts/EntityContract.sol\":3599:3603  bool */\n      0x00\n        /* \"contracts/EntityContract.sol\":3615:3639  bytes memory sourceBytes */\n      dup1\n        /* \"contracts/EntityContract.sol\":3648:3655  _source */\n      dup4\n        /* \"contracts/EntityContract.sol\":3615:3656  bytes memory sourceBytes = bytes(_source) */\n      swap1\n      pop\n        /* \"contracts/EntityContract.sol\":3666:3690  bytes memory searchBytes */\n      0x00\n        /* \"contracts/EntityContract.sol\":3699:3706  _search */\n      dup4\n        /* \"contracts/EntityContract.sol\":3666:3707  bytes memory searchBytes = bytes(_search) */\n      swap1\n      pop\n        /* \"contracts/EntityContract.sol\":3751:3762  sourceBytes */\n      dup2\n        /* \"contracts/EntityContract.sol\":3751:3769  sourceBytes.length */\n      mload\n        /* \"contracts/EntityContract.sol\":3730:3741  searchBytes */\n      dup2\n        /* \"contracts/EntityContract.sol\":3730:3748  searchBytes.length */\n      mload\n        /* \"contracts/EntityContract.sol\":3730:3769  searchBytes.length > sourceBytes.length */\n      gt\n        /* \"contracts/EntityContract.sol\":3726:3808  if (searchBytes.length > sourceBytes.length) {... */\n      iszero\n      tag_176\n      jumpi\n        /* \"contracts/EntityContract.sol\":3792:3797  false */\n      0x00\n        /* \"contracts/EntityContract.sol\":3785:3797  return false */\n      swap3\n      pop\n      pop\n      pop\n      jump(tag_175)\n        /* \"contracts/EntityContract.sol\":3726:3808  if (searchBytes.length > sourceBytes.length) {... */\n    tag_176:\n        /* \"contracts/EntityContract.sol\":3858:3864  uint i */\n      0x00\n        /* \"contracts/EntityContract.sol\":3853:4245  for (uint i = 0; i <= sourceBytes.length - searchBytes.length; i++) {... */\n    tag_177:\n        /* \"contracts/EntityContract.sol\":3896:3907  searchBytes */\n      dup2\n        /* \"contracts/EntityContract.sol\":3896:3914  searchBytes.length */\n      mload\n        /* \"contracts/EntityContract.sol\":3875:3886  sourceBytes */\n      dup4\n        /* \"contracts/EntityContract.sol\":3875:3893  sourceBytes.length */\n      mload\n        /* \"contracts/EntityContract.sol\":3875:3914  sourceBytes.length - searchBytes.length */\n      tag_180\n      swap2\n      swap1\n      tag_181\n      jump\t// in\n    tag_180:\n        /* \"contracts/EntityContract.sol\":3870:3871  i */\n      dup2\n        /* \"contracts/EntityContract.sol\":3870:3914  i <= sourceBytes.length - searchBytes.length */\n      gt\n        /* \"contracts/EntityContract.sol\":3853:4245  for (uint i = 0; i <= sourceBytes.length - searchBytes.length; i++) {... */\n      tag_178\n      jumpi\n        /* \"contracts/EntityContract.sol\":3935:3945  bool found */\n      0x00\n        /* \"contracts/EntityContract.sol\":3948:3952  true */\n      0x01\n        /* \"contracts/EntityContract.sol\":3935:3952  bool found = true */\n      swap1\n      pop\n        /* \"contracts/EntityContract.sol\":3971:3977  uint j */\n      0x00\n        /* \"contracts/EntityContract.sol\":3966:4167  for (uint j = 0; j < searchBytes.length; j++) {... */\n    tag_182:\n        /* \"contracts/EntityContract.sol\":3987:3998  searchBytes */\n      dup4\n        /* \"contracts/EntityContract.sol\":3987:4005  searchBytes.length */\n      mload\n        /* \"contracts/EntityContract.sol\":3983:3984  j */\n      dup2\n        /* \"contracts/EntityContract.sol\":3983:4005  j < searchBytes.length */\n      lt\n        /* \"contracts/EntityContract.sol\":3966:4167  for (uint j = 0; j < searchBytes.length; j++) {... */\n      iszero\n      tag_183\n      jumpi\n        /* \"contracts/EntityContract.sol\":4056:4067  searchBytes */\n      dup4\n        /* \"contracts/EntityContract.sol\":4068:4069  j */\n      dup2\n        /* \"contracts/EntityContract.sol\":4056:4070  searchBytes[j] */\n      dup2\n      mload\n      dup2\n      lt\n      tag_185\n      jumpi\n      tag_186\n      tag_47\n      jump\t// in\n    tag_186:\n    tag_185:\n      0x20\n      add\n      add\n      mload\n      0xf8\n      shr\n      0xf8\n      shl\n        /* \"contracts/EntityContract.sol\":4034:4070  sourceBytes[i + j] != searchBytes[j] */\n      not(0xffffffffffffffffffffffffffffffffffffffffffffffffffffffffffffff)\n      and\n        /* \"contracts/EntityContract.sol\":4034:4045  sourceBytes */\n      dup6\n        /* \"contracts/EntityContract.sol\":4050:4051  j */\n      dup3\n        /* \"contracts/EntityContract.sol\":4046:4047  i */\n      dup6\n        /* \"contracts/EntityContract.sol\":4046:4051  i + j */\n      tag_187\n      swap2\n      swap1\n      tag_188\n      jump\t// in\n    tag_187:\n        /* \"contracts/EntityContract.sol\":4034:4052  sourceBytes[i + j] */\n      dup2\n      mload\n      dup2\n      lt\n      tag_189\n      jumpi\n      tag_190\n      tag_47\n      jump\t// in\n    tag_190:\n    tag_189:\n      0x20\n      add\n      add\n      mload\n      0xf8\n      shr\n      0xf8\n      shl\n        /* \"contracts/EntityContract.sol\":4034:4070  sourceBytes[i + j] != searchBytes[j] */\n      not(0xffffffffffffffffffffffffffffffffffffffffffffffffffffffffffffff)\n      and\n      eq\n        /* \"contracts/EntityContract.sol\":4030:4153  if (sourceBytes[i + j] != searchBytes[j]) {... */\n      tag_191\n      jumpi\n        /* \"contracts/EntityContract.sol\":4102:4107  false */\n      0x00\n        /* \"contracts/EntityContract.sol\":4094:4107  found = false */\n      swap2\n      pop\n        /* \"contracts/EntityContract.sol\":4129:4134  break */\n      jump(tag_183)\n        /* \"contracts/EntityContract.sol\":4030:4153  if (sourceBytes[i + j] != searchBytes[j]) {... */\n    tag_191:\n        /* \"contracts/EntityContract.sol\":4007:4010  j++ */\n      dup1\n      dup1\n      0x01\n      add\n      swap2\n      pop\n      pop\n        /* \"contracts/EntityContract.sol\":3966:4167  for (uint j = 0; j < searchBytes.length; j++) {... */\n      jump(tag_182)\n    tag_183:\n      pop\n        /* \"contracts/EntityContract.sol\":4184:4189  found */\n      dup1\n        /* \"contracts/EntityContract.sol\":4180:4235  if (found) {... */\n      iszero\n      tag_192\n      jumpi\n        /* \"contracts/EntityContract.sol\":4216:4220  true */\n      0x01\n        /* \"contracts/EntityContract.sol\":4209:4220  return true */\n      swap5\n      pop\n      pop\n      pop\n      pop\n      pop\n      jump(tag_175)\n        /* \"contracts/EntityContract.sol\":4180:4235  if (found) {... */\n    tag_192:\n        /* \"contracts/EntityContract.sol\":3921:4245  {... */\n      pop\n        /* \"contracts/EntityContract.sol\":3916:3919  i++ */\n      dup1\n      dup1\n      tag_193\n      swap1\n      tag_194\n      jump\t// in\n    tag_193:\n      swap2\n      pop\n      pop\n        /* \"contracts/EntityContract.sol\":3853:4245  for (uint i = 0; i <= sourceBytes.length - searchBytes.length; i++) {... */\n      jump(tag_177)\n    tag_178:\n      pop\n        /* \"contracts/EntityContract.sol\":4270:4275  false */\n      0x00\n        /* \"contracts/EntityContract.sol\":4263:4275  return false */\n      swap3\n      pop\n      pop\n      pop\n        /* \"contracts/EntityContract.sol\":3507:4282  function containsString(string memory _source, string memory _search) private pure returns (bool) {... */\n    tag_175:\n      swap3\n      swap2\n      pop\n      pop\n      jump\t// out\n        /* \"#utility.yul\":7:82   */\n    tag_195:\n        /* \"#utility.yul\":40:46   */\n      0x00\n        /* \"#utility.yul\":73:75   */\n      0x40\n        /* \"#utility.yul\":67:76   */\n      mload\n        /* \"#utility.yul\":57:76   */\n      swap1\n      pop\n        /* \"#utility.yul\":7:82   */\n      swap1\n      jump\t// out\n        /* \"#utility.yul\":88:205   */\n    tag_196:\n        /* \"#utility.yul\":197:198   */\n      0x00\n        /* \"#utility.yul\":194:195   */\n      dup1\n        /* \"#utility.yul\":187:199   */\n      revert\n        /* \"#utility.yul\":211:328   */\n    tag_197:\n        /* \"#utility.yul\":320:321   */\n      0x00\n        /* \"#utility.yul\":317:318   */\n      dup1\n        /* \"#utility.yul\":310:322   */\n      revert\n        /* \"#utility.yul\":334:451   */\n    tag_198:\n        /* \"#utility.yul\":443:444   */\n      0x00\n        /* \"#utility.yul\":440:441   */\n      dup1\n        /* \"#utility.yul\":433:445   */\n      revert\n        /* \"#utility.yul\":457:574   */\n    tag_199:\n        /* \"#utility.yul\":566:567   */\n      0x00\n        /* \"#utility.yul\":563:564   */\n      dup1\n        /* \"#utility.yul\":556:568   */\n      revert\n        /* \"#utility.yul\":580:682   */\n    tag_200:\n        /* \"#utility.yul\":621:627   */\n      0x00\n        /* \"#utility.yul\":672:674   */\n      0x1f\n        /* \"#utility.yul\":668:675   */\n      not\n        /* \"#utility.yul\":663:665   */\n      0x1f\n        /* \"#utility.yul\":656:661   */\n      dup4\n        /* \"#utility.yul\":652:666   */\n      add\n        /* \"#utility.yul\":648:676   */\n      and\n        /* \"#utility.yul\":638:676   */\n      swap1\n      pop\n        /* \"#utility.yul\":580:682   */\n      swap2\n      swap1\n      pop\n      jump\t// out\n        /* \"#utility.yul\":688:868   */\n    tag_121:\n        /* \"#utility.yul\":736:813   */\n      0x4e487b7100000000000000000000000000000000000000000000000000000000\n        /* \"#utility.yul\":733:734   */\n      0x00\n        /* \"#utility.yul\":726:814   */\n      mstore\n        /* \"#utility.yul\":833:837   */\n      0x41\n        /* \"#utility.yul\":830:831   */\n      0x04\n        /* \"#utility.yul\":823:838   */\n      mstore\n        /* \"#utility.yul\":857:861   */\n      0x24\n        /* \"#utility.yul\":854:855   */\n      0x00\n        /* \"#utility.yul\":847:862   */\n      revert\n        /* \"#utility.yul\":874:1155   */\n    tag_201:\n        /* \"#utility.yul\":957:984   */\n      tag_264\n        /* \"#utility.yul\":979:983   */\n      dup3\n        /* \"#utility.yul\":957:984   */\n      tag_200\n      jump\t// in\n    tag_264:\n        /* \"#utility.yul\":949:955   */\n      dup2\n        /* \"#utility.yul\":945:985   */\n      add\n        /* \"#utility.yul\":1087:1093   */\n      dup2\n        /* \"#utility.yul\":1075:1085   */\n      dup2\n        /* \"#utility.yul\":1072:1094   */\n      lt\n        /* \"#utility.yul\":1051:1069   */\n      0xffffffffffffffff\n        /* \"#utility.yul\":1039:1049   */\n      dup3\n        /* \"#utility.yul\":1036:1070   */\n      gt\n        /* \"#utility.yul\":1033:1095   */\n      or\n        /* \"#utility.yul\":1030:1118   */\n      iszero\n      tag_265\n      jumpi\n        /* \"#utility.yul\":1098:1116   */\n      tag_266\n      tag_121\n      jump\t// in\n    tag_266:\n        /* \"#utility.yul\":1030:1118   */\n    tag_265:\n        /* \"#utility.yul\":1138:1148   */\n      dup1\n        /* \"#utility.yul\":1134:1136   */\n      0x40\n        /* \"#utility.yul\":1127:1149   */\n      mstore\n        /* \"#utility.yul\":917:1155   */\n      pop\n        /* \"#utility.yul\":874:1155   */\n      pop\n      pop\n      jump\t// out\n        /* \"#utility.yul\":1161:1290   */\n    tag_202:\n        /* \"#utility.yul\":1195:1201   */\n      0x00\n        /* \"#utility.yul\":1222:1242   */\n      tag_268\n      tag_195\n      jump\t// in\n    tag_268:\n        /* \"#utility.yul\":1212:1242   */\n      swap1\n      pop\n        /* \"#utility.yul\":1251:1284   */\n      tag_269\n        /* \"#utility.yul\":1279:1283   */\n      dup3\n        /* \"#utility.yul\":1271:1277   */\n      dup3\n        /* \"#utility.yul\":1251:1284   */\n      tag_201\n      jump\t// in\n    tag_269:\n        /* \"#utility.yul\":1161:1290   */\n      swap2\n      swap1\n      pop\n      jump\t// out\n        /* \"#utility.yul\":1296:1604   */\n    tag_203:\n        /* \"#utility.yul\":1358:1362   */\n      0x00\n        /* \"#utility.yul\":1448:1466   */\n      0xffffffffffffffff\n        /* \"#utility.yul\":1440:1446   */\n      dup3\n        /* \"#utility.yul\":1437:1467   */\n      gt\n        /* \"#utility.yul\":1434:1490   */\n      iszero\n      tag_271\n      jumpi\n        /* \"#utility.yul\":1470:1488   */\n      tag_272\n      tag_121\n      jump\t// in\n    tag_272:\n        /* \"#utility.yul\":1434:1490   */\n    tag_271:\n        /* \"#utility.yul\":1508:1537   */\n      tag_273\n        /* \"#utility.yul\":1530:1536   */\n      dup3\n        /* \"#utility.yul\":1508:1537   */\n      tag_200\n      jump\t// in\n    tag_273:\n        /* \"#utility.yul\":1500:1537   */\n      swap1\n      pop\n        /* \"#utility.yul\":1592:1596   */\n      0x20\n        /* \"#utility.yul\":1586:1590   */\n      dup2\n        /* \"#utility.yul\":1582:1597   */\n      add\n        /* \"#utility.yul\":1574:1597   */\n      swap1\n      pop\n        /* \"#utility.yul\":1296:1604   */\n      swap2\n      swap1\n      pop\n      jump\t// out\n        /* \"#utility.yul\":1610:1758   */\n    tag_204:\n        /* \"#utility.yul\":1708:1714   */\n      dup3\n        /* \"#utility.yul\":1703:1706   */\n      dup2\n        /* \"#utility.yul\":1698:1701   */\n      dup4\n        /* \"#utility.yul\":1685:1715   */\n      calldatacopy\n        /* \"#utility.yul\":1749:1750   */\n      0x00\n        /* \"#utility.yul\":1740:1746   */\n      dup4\n        /* \"#utility.yul\":1735:1738   */\n      dup4\n        /* \"#utility.yul\":1731:1747   */\n      add\n        /* \"#utility.yul\":1724:1751   */\n      mstore\n        /* \"#utility.yul\":1610:1758   */\n      pop\n      pop\n      pop\n      jump\t// out\n        /* \"#utility.yul\":1764:2189   */\n    tag_205:\n        /* \"#utility.yul\":1842:1847   */\n      0x00\n        /* \"#utility.yul\":1867:1933   */\n      tag_276\n        /* \"#utility.yul\":1883:1932   */\n      tag_277\n        /* \"#utility.yul\":1925:1931   */\n      dup5\n        /* \"#utility.yul\":1883:1932   */\n      tag_203\n      jump\t// in\n    tag_277:\n        /* \"#utility.yul\":1867:1933   */\n      tag_202\n      jump\t// in\n    tag_276:\n        /* \"#utility.yul\":1858:1933   */\n      swap1\n      pop\n        /* \"#utility.yul\":1956:1962   */\n      dup3\n        /* \"#utility.yul\":1949:1954   */\n      dup2\n        /* \"#utility.yul\":1942:1963   */\n      mstore\n        /* \"#utility.yul\":1994:1998   */\n      0x20\n        /* \"#utility.yul\":1987:1992   */\n      dup2\n        /* \"#utility.yul\":1983:1999   */\n      add\n        /* \"#utility.yul\":2032:2035   */\n      dup5\n        /* \"#utility.yul\":2023:2029   */\n      dup5\n        /* \"#utility.yul\":2018:2021   */\n      dup5\n        /* \"#utility.yul\":2014:2030   */\n      add\n        /* \"#utility.yul\":2011:2036   */\n      gt\n        /* \"#utility.yul\":2008:2120   */\n      iszero\n      tag_278\n      jumpi\n        /* \"#utility.yul\":2039:2118   */\n      tag_279\n      tag_199\n      jump\t// in\n    tag_279:\n        /* \"#utility.yul\":2008:2120   */\n    tag_278:\n        /* \"#utility.yul\":2129:2183   */\n      tag_280\n        /* \"#utility.yul\":2176:2182   */\n      dup5\n        /* \"#utility.yul\":2171:2174   */\n      dup3\n        /* \"#utility.yul\":2166:2169   */\n      dup6\n        /* \"#utility.yul\":2129:2183   */\n      tag_204\n      jump\t// in\n    tag_280:\n        /* \"#utility.yul\":1848:2189   */\n      pop\n        /* \"#utility.yul\":1764:2189   */\n      swap4\n      swap3\n      pop\n      pop\n      pop\n      jump\t// out\n        /* \"#utility.yul\":2209:2549   */\n    tag_206:\n        /* \"#utility.yul\":2265:2270   */\n      0x00\n        /* \"#utility.yul\":2314:2317   */\n      dup3\n        /* \"#utility.yul\":2307:2311   */\n      0x1f\n        /* \"#utility.yul\":2299:2305   */\n      dup4\n        /* \"#utility.yul\":2295:2312   */\n      add\n        /* \"#utility.yul\":2291:2318   */\n      slt\n        /* \"#utility.yul\":2281:2403   */\n      tag_282\n      jumpi\n        /* \"#utility.yul\":2322:2401   */\n      tag_283\n      tag_198\n      jump\t// in\n    tag_283:\n        /* \"#utility.yul\":2281:2403   */\n    tag_282:\n        /* \"#utility.yul\":2439:2445   */\n      dup2\n        /* \"#utility.yul\":2426:2446   */\n      calldataload\n        /* \"#utility.yul\":2464:2543   */\n      tag_284\n        /* \"#utility.yul\":2539:2542   */\n      dup5\n        /* \"#utility.yul\":2531:2537   */\n      dup3\n        /* \"#utility.yul\":2524:2528   */\n      0x20\n        /* \"#utility.yul\":2516:2522   */\n      dup7\n        /* \"#utility.yul\":2512:2529   */\n      add\n        /* \"#utility.yul\":2464:2543   */\n      tag_205\n      jump\t// in\n    tag_284:\n        /* \"#utility.yul\":2455:2543   */\n      swap2\n      pop\n        /* \"#utility.yul\":2271:2549   */\n      pop\n        /* \"#utility.yul\":2209:2549   */\n      swap3\n      swap2\n      pop\n      pop\n      jump\t// out\n        /* \"#utility.yul\":2555:4040   */\n    tag_8:\n        /* \"#utility.yul\":2681:2687   */\n      0x00\n        /* \"#utility.yul\":2689:2695   */\n      dup1\n        /* \"#utility.yul\":2697:2703   */\n      0x00\n        /* \"#utility.yul\":2705:2711   */\n      dup1\n        /* \"#utility.yul\":2754:2757   */\n      0x80\n        /* \"#utility.yul\":2742:2751   */\n      dup6\n        /* \"#utility.yul\":2733:2740   */\n      dup8\n        /* \"#utility.yul\":2729:2752   */\n      sub\n        /* \"#utility.yul\":2725:2758   */\n      slt\n        /* \"#utility.yul\":2722:2842   */\n      iszero\n      tag_286\n      jumpi\n        /* \"#utility.yul\":2761:2840   */\n      tag_287\n      tag_196\n      jump\t// in\n    tag_287:\n        /* \"#utility.yul\":2722:2842   */\n    tag_286:\n        /* \"#utility.yul\":2909:2910   */\n      0x00\n        /* \"#utility.yul\":2898:2907   */\n      dup6\n        /* \"#utility.yul\":2894:2911   */\n      add\n        /* \"#utility.yul\":2881:2912   */\n      calldataload\n        /* \"#utility.yul\":2939:2957   */\n      0xffffffffffffffff\n        /* \"#utility.yul\":2931:2937   */\n      dup2\n        /* \"#utility.yul\":2928:2958   */\n      gt\n        /* \"#utility.yul\":2925:3042   */\n      iszero\n      tag_288\n      jumpi\n        /* \"#utility.yul\":2961:3040   */\n      tag_289\n      tag_197\n      jump\t// in\n    tag_289:\n        /* \"#utility.yul\":2925:3042   */\n    tag_288:\n        /* \"#utility.yul\":3066:3129   */\n      tag_290\n        /* \"#utility.yul\":3121:3128   */\n      dup8\n        /* \"#utility.yul\":3112:3118   */\n      dup3\n        /* \"#utility.yul\":3101:3110   */\n      dup9\n        /* \"#utility.yul\":3097:3119   */\n      add\n        /* \"#utility.yul\":3066:3129   */\n      tag_206\n      jump\t// in\n    tag_290:\n        /* \"#utility.yul\":3056:3129   */\n      swap5\n      pop\n        /* \"#utility.yul\":2852:3139   */\n      pop\n        /* \"#utility.yul\":3206:3208   */\n      0x20\n        /* \"#utility.yul\":3195:3204   */\n      dup6\n        /* \"#utility.yul\":3191:3209   */\n      add\n        /* \"#utility.yul\":3178:3210   */\n      calldataload\n        /* \"#utility.yul\":3237:3255   */\n      0xffffffffffffffff\n        /* \"#utility.yul\":3229:3235   */\n      dup2\n        /* \"#utility.yul\":3226:3256   */\n      gt\n        /* \"#utility.yul\":3223:3340   */\n      iszero\n      tag_291\n      jumpi\n        /* \"#utility.yul\":3259:3338   */\n      tag_292\n      tag_197\n      jump\t// in\n    tag_292:\n        /* \"#utility.yul\":3223:3340   */\n    tag_291:\n        /* \"#utility.yul\":3364:3427   */\n      tag_293\n        /* \"#utility.yul\":3419:3426   */\n      dup8\n        /* \"#utility.yul\":3410:3416   */\n      dup3\n        /* \"#utility.yul\":3399:3408   */\n      dup9\n        /* \"#utility.yul\":3395:3417   */\n      add\n        /* \"#utility.yul\":3364:3427   */\n      tag_206\n      jump\t// in\n    tag_293:\n        /* \"#utility.yul\":3354:3427   */\n      swap4\n      pop\n        /* \"#utility.yul\":3149:3437   */\n      pop\n        /* \"#utility.yul\":3504:3506   */\n      0x40\n        /* \"#utility.yul\":3493:3502   */\n      dup6\n        /* \"#utility.yul\":3489:3507   */\n      add\n        /* \"#utility.yul\":3476:3508   */\n      calldataload\n        /* \"#utility.yul\":3535:3553   */\n      0xffffffffffffffff\n        /* \"#utility.yul\":3527:3533   */\n      dup2\n        /* \"#utility.yul\":3524:3554   */\n      gt\n        /* \"#utility.yul\":3521:3638   */\n      iszero\n      tag_294\n      jumpi\n        /* \"#utility.yul\":3557:3636   */\n      tag_295\n      tag_197\n      jump\t// in\n    tag_295:\n        /* \"#utility.yul\":3521:3638   */\n    tag_294:\n        /* \"#utility.yul\":3662:3725   */\n      tag_296\n        /* \"#utility.yul\":3717:3724   */\n      dup8\n        /* \"#utility.yul\":3708:3714   */\n      dup3\n        /* \"#utility.yul\":3697:3706   */\n      dup9\n        /* \"#utility.yul\":3693:3715   */\n      add\n        /* \"#utility.yul\":3662:3725   */\n      tag_206\n      jump\t// in\n    tag_296:\n        /* \"#utility.yul\":3652:3725   */\n      swap3\n      pop\n        /* \"#utility.yul\":3447:3735   */\n      pop\n        /* \"#utility.yul\":3802:3804   */\n      0x60\n        /* \"#utility.yul\":3791:3800   */\n      dup6\n        /* \"#utility.yul\":3787:3805   */\n      add\n        /* \"#utility.yul\":3774:3806   */\n      calldataload\n        /* \"#utility.yul\":3833:3851   */\n      0xffffffffffffffff\n        /* \"#utility.yul\":3825:3831   */\n      dup2\n        /* \"#utility.yul\":3822:3852   */\n      gt\n        /* \"#utility.yul\":3819:3936   */\n      iszero\n      tag_297\n      jumpi\n        /* \"#utility.yul\":3855:3934   */\n      tag_298\n      tag_197\n      jump\t// in\n    tag_298:\n        /* \"#utility.yul\":3819:3936   */\n    tag_297:\n        /* \"#utility.yul\":3960:4023   */\n      tag_299\n        /* \"#utility.yul\":4015:4022   */\n      dup8\n        /* \"#utility.yul\":4006:4012   */\n      dup3\n        /* \"#utility.yul\":3995:4004   */\n      dup9\n        /* \"#utility.yul\":3991:4013   */\n      add\n        /* \"#utility.yul\":3960:4023   */\n      tag_206\n      jump\t// in\n    tag_299:\n        /* \"#utility.yul\":3950:4023   */\n      swap2\n      pop\n        /* \"#utility.yul\":3745:4033   */\n      pop\n        /* \"#utility.yul\":2555:4040   */\n      swap3\n      swap6\n      swap2\n      swap5\n      pop\n      swap3\n      pop\n      jump\t// out\n        /* \"#utility.yul\":4046:4172   */\n    tag_207:\n        /* \"#utility.yul\":4083:4090   */\n      0x00\n        /* \"#utility.yul\":4123:4165   */\n      0xffffffffffffffffffffffffffffffffffffffff\n        /* \"#utility.yul\":4116:4121   */\n      dup3\n        /* \"#utility.yul\":4112:4166   */\n      and\n        /* \"#utility.yul\":4101:4166   */\n      swap1\n      pop\n        /* \"#utility.yul\":4046:4172   */\n      swap2\n      swap1\n      pop\n      jump\t// out\n        /* \"#utility.yul\":4178:4274   */\n    tag_208:\n        /* \"#utility.yul\":4215:4222   */\n      0x00\n        /* \"#utility.yul\":4244:4268   */\n      tag_302\n        /* \"#utility.yul\":4262:4267   */\n      dup3\n        /* \"#utility.yul\":4244:4268   */\n      tag_207\n      jump\t// in\n    tag_302:\n        /* \"#utility.yul\":4233:4268   */\n      swap1\n      pop\n        /* \"#utility.yul\":4178:4274   */\n      swap2\n      swap1\n      pop\n      jump\t// out\n        /* \"#utility.yul\":4280:4402   */\n    tag_209:\n        /* \"#utility.yul\":4353:4377   */\n      tag_304\n        /* \"#utility.yul\":4371:4376   */\n      dup2\n        /* \"#utility.yul\":4353:4377   */\n      tag_208\n      jump\t// in\n    tag_304:\n        /* \"#utility.yul\":4346:4351   */\n      dup2\n        /* \"#utility.yul\":4343:4378   */\n      eq\n        /* \"#utility.yul\":4333:4396   */\n      tag_305\n      jumpi\n        /* \"#utility.yul\":4392:4393   */\n      0x00\n        /* \"#utility.yul\":4389:4390   */\n      dup1\n        /* \"#utility.yul\":4382:4394   */\n      revert\n        /* \"#utility.yul\":4333:4396   */\n    tag_305:\n        /* \"#utility.yul\":4280:4402   */\n      pop\n      jump\t// out\n        /* \"#utility.yul\":4408:4547   */\n    tag_210:\n        /* \"#utility.yul\":4454:4459   */\n      0x00\n        /* \"#utility.yul\":4492:4498   */\n      dup2\n        /* \"#utility.yul\":4479:4499   */\n      calldataload\n        /* \"#utility.yul\":4470:4499   */\n      swap1\n      pop\n        /* \"#utility.yul\":4508:4541   */\n      tag_307\n        /* \"#utility.yul\":4535:4540   */\n      dup2\n        /* \"#utility.yul\":4508:4541   */\n      tag_209\n      jump\t// in\n    tag_307:\n        /* \"#utility.yul\":4408:4547   */\n      swap3\n      swap2\n      pop\n      pop\n      jump\t// out\n        /* \"#utility.yul\":4553:4882   */\n    tag_12:\n        /* \"#utility.yul\":4612:4618   */\n      0x00\n        /* \"#utility.yul\":4661:4663   */\n      0x20\n        /* \"#utility.yul\":4649:4658   */\n      dup3\n        /* \"#utility.yul\":4640:4647   */\n      dup5\n        /* \"#utility.yul\":4636:4659   */\n      sub\n        /* \"#utility.yul\":4632:4664   */\n      slt\n        /* \"#utility.yul\":4629:4748   */\n      iszero\n      tag_309\n      jumpi\n        /* \"#utility.yul\":4667:4746   */\n      tag_310\n      tag_196\n      jump\t// in\n    tag_310:\n        /* \"#utility.yul\":4629:4748   */\n    tag_309:\n        /* \"#utility.yul\":4787:4788   */\n      0x00\n        /* \"#utility.yul\":4812:4865   */\n      tag_311\n        /* \"#utility.yul\":4857:4864   */\n      dup5\n        /* \"#utility.yul\":4848:4854   */\n      dup3\n        /* \"#utility.yul\":4837:4846   */\n      dup6\n        /* \"#utility.yul\":4833:4855   */\n      add\n        /* \"#utility.yul\":4812:4865   */\n      tag_210\n      jump\t// in\n    tag_311:\n        /* \"#utility.yul\":4802:4865   */\n      swap2\n      pop\n        /* \"#utility.yul\":4758:4875   */\n      pop\n        /* \"#utility.yul\":4553:4882   */\n      swap3\n      swap2\n      pop\n      pop\n      jump\t// out\n        /* \"#utility.yul\":4888:4987   */\n    tag_211:\n        /* \"#utility.yul\":4940:4946   */\n      0x00\n        /* \"#utility.yul\":4974:4979   */\n      dup2\n        /* \"#utility.yul\":4968:4980   */\n      mload\n        /* \"#utility.yul\":4958:4980   */\n      swap1\n      pop\n        /* \"#utility.yul\":4888:4987   */\n      swap2\n      swap1\n      pop\n      jump\t// out\n        /* \"#utility.yul\":4993:5162   */\n    tag_212:\n        /* \"#utility.yul\":5077:5088   */\n      0x00\n        /* \"#utility.yul\":5111:5117   */\n      dup3\n        /* \"#utility.yul\":5106:5109   */\n      dup3\n        /* \"#utility.yul\":5099:5118   */\n      mstore\n        /* \"#utility.yul\":5151:5155   */\n      0x20\n        /* \"#utility.yul\":5146:5149   */\n      dup3\n        /* \"#utility.yul\":5142:5156   */\n      add\n        /* \"#utility.yul\":5127:5156   */\n      swap1\n      pop\n        /* \"#utility.yul\":4993:5162   */\n      swap3\n      swap2\n      pop\n      pop\n      jump\t// out\n        /* \"#utility.yul\":5168:5307   */\n    tag_213:\n        /* \"#utility.yul\":5257:5263   */\n      dup3\n        /* \"#utility.yul\":5252:5255   */\n      dup2\n        /* \"#utility.yul\":5247:5250   */\n      dup4\n        /* \"#utility.yul\":5241:5264   */\n      mcopy\n        /* \"#utility.yul\":5298:5299   */\n      0x00\n        /* \"#utility.yul\":5289:5295   */\n      dup4\n        /* \"#utility.yul\":5284:5287   */\n      dup4\n        /* \"#utility.yul\":5280:5296   */\n      add\n        /* \"#utility.yul\":5273:5300   */\n      mstore\n        /* \"#utility.yul\":5168:5307   */\n      pop\n      pop\n      pop\n      jump\t// out\n        /* \"#utility.yul\":5313:5690   */\n    tag_214:\n        /* \"#utility.yul\":5401:5404   */\n      0x00\n        /* \"#utility.yul\":5429:5468   */\n      tag_316\n        /* \"#utility.yul\":5462:5467   */\n      dup3\n        /* \"#utility.yul\":5429:5468   */\n      tag_211\n      jump\t// in\n    tag_316:\n        /* \"#utility.yul\":5484:5555   */\n      tag_317\n        /* \"#utility.yul\":5548:5554   */\n      dup2\n        /* \"#utility.yul\":5543:5546   */\n      dup6\n        /* \"#utility.yul\":5484:5555   */\n      tag_212\n      jump\t// in\n    tag_317:\n        /* \"#utility.yul\":5477:5555   */\n      swap4\n      pop\n        /* \"#utility.yul\":5564:5629   */\n      tag_318\n        /* \"#utility.yul\":5622:5628   */\n      dup2\n        /* \"#utility.yul\":5617:5620   */\n      dup6\n        /* \"#utility.yul\":5610:5614   */\n      0x20\n        /* \"#utility.yul\":5603:5608   */\n      dup7\n        /* \"#utility.yul\":5599:5615   */\n      add\n        /* \"#utility.yul\":5564:5629   */\n      tag_213\n      jump\t// in\n    tag_318:\n        /* \"#utility.yul\":5654:5683   */\n      tag_319\n        /* \"#utility.yul\":5676:5682   */\n      dup2\n        /* \"#utility.yul\":5654:5683   */\n      tag_200\n      jump\t// in\n    tag_319:\n        /* \"#utility.yul\":5649:5652   */\n      dup5\n        /* \"#utility.yul\":5645:5684   */\n      add\n        /* \"#utility.yul\":5638:5684   */\n      swap2\n      pop\n        /* \"#utility.yul\":5405:5690   */\n      pop\n        /* \"#utility.yul\":5313:5690   */\n      swap3\n      swap2\n      pop\n      pop\n      jump\t// out\n        /* \"#utility.yul\":5696:5786   */\n    tag_215:\n        /* \"#utility.yul\":5730:5737   */\n      0x00\n        /* \"#utility.yul\":5773:5778   */\n      dup2\n        /* \"#utility.yul\":5766:5779   */\n      iszero\n        /* \"#utility.yul\":5759:5780   */\n      iszero\n        /* \"#utility.yul\":5748:5780   */\n      swap1\n      pop\n        /* \"#utility.yul\":5696:5786   */\n      swap2\n      swap1\n      pop\n      jump\t// out\n        /* \"#utility.yul\":5792:5901   */\n    tag_216:\n        /* \"#utility.yul\":5873:5894   */\n      tag_322\n        /* \"#utility.yul\":5888:5893   */\n      dup2\n        /* \"#utility.yul\":5873:5894   */\n      tag_215\n      jump\t// in\n    tag_322:\n        /* \"#utility.yul\":5868:5871   */\n      dup3\n        /* \"#utility.yul\":5861:5895   */\n      mstore\n        /* \"#utility.yul\":5792:5901   */\n      pop\n      pop\n      jump\t// out\n        /* \"#utility.yul\":5907:6923   */\n    tag_15:\n        /* \"#utility.yul\":6186:6190   */\n      0x00\n        /* \"#utility.yul\":6224:6227   */\n      0xa0\n        /* \"#utility.yul\":6213:6222   */\n      dup3\n        /* \"#utility.yul\":6209:6228   */\n      add\n        /* \"#utility.yul\":6201:6228   */\n      swap1\n      pop\n        /* \"#utility.yul\":6274:6283   */\n      dup2\n        /* \"#utility.yul\":6268:6272   */\n      dup2\n        /* \"#utility.yul\":6264:6284   */\n      sub\n        /* \"#utility.yul\":6260:6261   */\n      0x00\n        /* \"#utility.yul\":6249:6258   */\n      dup4\n        /* \"#utility.yul\":6245:6262   */\n      add\n        /* \"#utility.yul\":6238:6285   */\n      mstore\n        /* \"#utility.yul\":6302:6380   */\n      tag_324\n        /* \"#utility.yul\":6375:6379   */\n      dup2\n        /* \"#utility.yul\":6366:6372   */\n      dup9\n        /* \"#utility.yul\":6302:6380   */\n      tag_214\n      jump\t// in\n    tag_324:\n        /* \"#utility.yul\":6294:6380   */\n      swap1\n      pop\n        /* \"#utility.yul\":6427:6436   */\n      dup2\n        /* \"#utility.yul\":6421:6425   */\n      dup2\n        /* \"#utility.yul\":6417:6437   */\n      sub\n        /* \"#utility.yul\":6412:6414   */\n      0x20\n        /* \"#utility.yul\":6401:6410   */\n      dup4\n        /* \"#utility.yul\":6397:6415   */\n      add\n        /* \"#utility.yul\":6390:6438   */\n      mstore\n        /* \"#utility.yul\":6455:6533   */\n      tag_325\n        /* \"#utility.yul\":6528:6532   */\n      dup2\n        /* \"#utility.yul\":6519:6525   */\n      dup8\n        /* \"#utility.yul\":6455:6533   */\n      tag_214\n      jump\t// in\n    tag_325:\n        /* \"#utility.yul\":6447:6533   */\n      swap1\n      pop\n        /* \"#utility.yul\":6543:6609   */\n      tag_326\n        /* \"#utility.yul\":6605:6607   */\n      0x40\n        /* \"#utility.yul\":6594:6603   */\n      dup4\n        /* \"#utility.yul\":6590:6608   */\n      add\n        /* \"#utility.yul\":6581:6587   */\n      dup7\n        /* \"#utility.yul\":6543:6609   */\n      tag_216\n      jump\t// in\n    tag_326:\n        /* \"#utility.yul\":6656:6665   */\n      dup2\n        /* \"#utility.yul\":6650:6654   */\n      dup2\n        /* \"#utility.yul\":6646:6666   */\n      sub\n        /* \"#utility.yul\":6641:6643   */\n      0x60\n        /* \"#utility.yul\":6630:6639   */\n      dup4\n        /* \"#utility.yul\":6626:6644   */\n      add\n        /* \"#utility.yul\":6619:6667   */\n      mstore\n        /* \"#utility.yul\":6684:6762   */\n      tag_327\n        /* \"#utility.yul\":6757:6761   */\n      dup2\n        /* \"#utility.yul\":6748:6754   */\n      dup6\n        /* \"#utility.yul\":6684:6762   */\n      tag_214\n      jump\t// in\n    tag_327:\n        /* \"#utility.yul\":6676:6762   */\n      swap1\n      pop\n        /* \"#utility.yul\":6810:6819   */\n      dup2\n        /* \"#utility.yul\":6804:6808   */\n      dup2\n        /* \"#utility.yul\":6800:6820   */\n      sub\n        /* \"#utility.yul\":6794:6797   */\n      0x80\n        /* \"#utility.yul\":6783:6792   */\n      dup4\n        /* \"#utility.yul\":6779:6798   */\n      add\n        /* \"#utility.yul\":6772:6821   */\n      mstore\n        /* \"#utility.yul\":6838:6916   */\n      tag_328\n        /* \"#utility.yul\":6911:6915   */\n      dup2\n        /* \"#utility.yul\":6902:6908   */\n      dup5\n        /* \"#utility.yul\":6838:6916   */\n      tag_214\n      jump\t// in\n    tag_328:\n        /* \"#utility.yul\":6830:6916   */\n      swap1\n      pop\n        /* \"#utility.yul\":5907:6923   */\n      swap7\n      swap6\n      pop\n      pop\n      pop\n      pop\n      pop\n      pop\n      jump\t// out\n        /* \"#utility.yul\":6929:7403   */\n    tag_18:\n        /* \"#utility.yul\":6997:7003   */\n      0x00\n        /* \"#utility.yul\":7005:7011   */\n      dup1\n        /* \"#utility.yul\":7054:7056   */\n      0x40\n        /* \"#utility.yul\":7042:7051   */\n      dup4\n        /* \"#utility.yul\":7033:7040   */\n      dup6\n        /* \"#utility.yul\":7029:7052   */\n      sub\n        /* \"#utility.yul\":7025:7057   */\n      slt\n        /* \"#utility.yul\":7022:7141   */\n      iszero\n      tag_330\n      jumpi\n        /* \"#utility.yul\":7060:7139   */\n      tag_331\n      tag_196\n      jump\t// in\n    tag_331:\n        /* \"#utility.yul\":7022:7141   */\n    tag_330:\n        /* \"#utility.yul\":7180:7181   */\n      0x00\n        /* \"#utility.yul\":7205:7258   */\n      tag_332\n        /* \"#utility.yul\":7250:7257   */\n      dup6\n        /* \"#utility.yul\":7241:7247   */\n      dup3\n        /* \"#utility.yul\":7230:7239   */\n      dup7\n        /* \"#utility.yul\":7226:7248   */\n      add\n        /* \"#utility.yul\":7205:7258   */\n      tag_210\n      jump\t// in\n    tag_332:\n        /* \"#utility.yul\":7195:7258   */\n      swap3\n      pop\n        /* \"#utility.yul\":7151:7268   */\n      pop\n        /* \"#utility.yul\":7307:7309   */\n      0x20\n        /* \"#utility.yul\":7333:7386   */\n      tag_333\n        /* \"#utility.yul\":7378:7385   */\n      dup6\n        /* \"#utility.yul\":7369:7375   */\n      dup3\n        /* \"#utility.yul\":7358:7367   */\n      dup7\n        /* \"#utility.yul\":7354:7376   */\n      add\n        /* \"#utility.yul\":7333:7386   */\n      tag_210\n      jump\t// in\n    tag_333:\n        /* \"#utility.yul\":7323:7386   */\n      swap2\n      pop\n        /* \"#utility.yul\":7278:7396   */\n      pop\n        /* \"#utility.yul\":6929:7403   */\n      swap3\n      pop\n      swap3\n      swap1\n      pop\n      jump\t// out\n        /* \"#utility.yul\":7409:7619   */\n    tag_21:\n        /* \"#utility.yul\":7496:7500   */\n      0x00\n        /* \"#utility.yul\":7534:7536   */\n      0x20\n        /* \"#utility.yul\":7523:7532   */\n      dup3\n        /* \"#utility.yul\":7519:7537   */\n      add\n        /* \"#utility.yul\":7511:7537   */\n      swap1\n      pop\n        /* \"#utility.yul\":7547:7612   */\n      tag_335\n        /* \"#utility.yul\":7609:7610   */\n      0x00\n        /* \"#utility.yul\":7598:7607   */\n      dup4\n        /* \"#utility.yul\":7594:7611   */\n      add\n        /* \"#utility.yul\":7585:7591   */\n      dup5\n        /* \"#utility.yul\":7547:7612   */\n      tag_216\n      jump\t// in\n    tag_335:\n        /* \"#utility.yul\":7409:7619   */\n      swap3\n      swap2\n      pop\n      pop\n      jump\t// out\n        /* \"#utility.yul\":7625:7914   */\n    tag_217:\n        /* \"#utility.yul\":7765:7799   */\n      0x496e76616c696420726f6c652e204d757374206265204d696e65722c204d616e\n        /* \"#utility.yul\":7761:7762   */\n      0x00\n        /* \"#utility.yul\":7753:7759   */\n      dup3\n        /* \"#utility.yul\":7749:7763   */\n      add\n        /* \"#utility.yul\":7742:7800   */\n      mstore\n        /* \"#utility.yul\":7834:7868   */\n      0x7566616374757265722c204365727469666965722c206f722052657461696c65\n        /* \"#utility.yul\":7829:7831   */\n      0x20\n        /* \"#utility.yul\":7821:7827   */\n      dup3\n        /* \"#utility.yul\":7817:7832   */\n      add\n        /* \"#utility.yul\":7810:7869   */\n      mstore\n        /* \"#utility.yul\":7903:7906   */\n      0x7200000000000000000000000000000000000000000000000000000000000000\n        /* \"#utility.yul\":7898:7900   */\n      0x40\n        /* \"#utility.yul\":7890:7896   */\n      dup3\n        /* \"#utility.yul\":7886:7901   */\n      add\n        /* \"#utility.yul\":7879:7907   */\n      mstore\n        /* \"#utility.yul\":7625:7914   */\n      pop\n      jump\t// out\n        /* \"#utility.yul\":7920:8286   */\n    tag_218:\n        /* \"#utility.yul\":8062:8065   */\n      0x00\n        /* \"#utility.yul\":8083:8150   */\n      tag_338\n        /* \"#utility.yul\":8147:8149   */\n      0x41\n        /* \"#utility.yul\":8142:8145   */\n      dup4\n        /* \"#utility.yul\":8083:8150   */\n      tag_212\n      jump\t// in\n    tag_338:\n        /* \"#utility.yul\":8076:8150   */\n      swap2\n      pop\n        /* \"#utility.yul\":8159:8252   */\n      tag_339\n        /* \"#utility.yul\":8248:8251   */\n      dup3\n        /* \"#utility.yul\":8159:8252   */\n      tag_217\n      jump\t// in\n    tag_339:\n        /* \"#utility.yul\":8277:8279   */\n      0x60\n        /* \"#utility.yul\":8272:8275   */\n      dup3\n        /* \"#utility.yul\":8268:8280   */\n      add\n        /* \"#utility.yul\":8261:8280   */\n      swap1\n      pop\n        /* \"#utility.yul\":7920:8286   */\n      swap2\n      swap1\n      pop\n      jump\t// out\n        /* \"#utility.yul\":8292:8711   */\n    tag_29:\n        /* \"#utility.yul\":8458:8462   */\n      0x00\n        /* \"#utility.yul\":8496:8498   */\n      0x20\n        /* \"#utility.yul\":8485:8494   */\n      dup3\n        /* \"#utility.yul\":8481:8499   */\n      add\n        /* \"#utility.yul\":8473:8499   */\n      swap1\n      pop\n        /* \"#utility.yul\":8545:8554   */\n      dup2\n        /* \"#utility.yul\":8539:8543   */\n      dup2\n        /* \"#utility.yul\":8535:8555   */\n      sub\n        /* \"#utility.yul\":8531:8532   */\n      0x00\n        /* \"#utility.yul\":8520:8529   */\n      dup4\n        /* \"#utility.yul\":8516:8533   */\n      add\n        /* \"#utility.yul\":8509:8556   */\n      mstore\n        /* \"#utility.yul\":8573:8704   */\n      tag_341\n        /* \"#utility.yul\":8699:8703   */\n      dup2\n        /* \"#utility.yul\":8573:8704   */\n      tag_218\n      jump\t// in\n    tag_341:\n        /* \"#utility.yul\":8565:8704   */\n      swap1\n      pop\n        /* \"#utility.yul\":8292:8711   */\n      swap2\n      swap1\n      pop\n      jump\t// out\n        /* \"#utility.yul\":8717:9026   */\n    tag_219:\n        /* \"#utility.yul\":8857:8891   */\n      0x526567697374726174696f6e2072656a65637465643a204c6f636174696f6e20\n        /* \"#utility.yul\":8853:8854   */\n      0x00\n        /* \"#utility.yul\":8845:8851   */\n      dup3\n        /* \"#utility.yul\":8841:8855   */\n      add\n        /* \"#utility.yul\":8834:8892   */\n      mstore\n        /* \"#utility.yul\":8926:8960   */\n      0x697320696e206120636f6e666c696374207a6f6e652062616e6e656420627920\n        /* \"#utility.yul\":8921:8923   */\n      0x20\n        /* \"#utility.yul\":8913:8919   */\n      dup3\n        /* \"#utility.yul\":8909:8924   */\n      add\n        /* \"#utility.yul\":8902:8961   */\n      mstore\n        /* \"#utility.yul\":8995:9018   */\n      0x746865204b696d6265726c65792050726f636573730000000000000000000000\n        /* \"#utility.yul\":8990:8992   */\n      0x40\n        /* \"#utility.yul\":8982:8988   */\n      dup3\n        /* \"#utility.yul\":8978:8993   */\n      add\n        /* \"#utility.yul\":8971:9019   */\n      mstore\n        /* \"#utility.yul\":8717:9026   */\n      pop\n      jump\t// out\n        /* \"#utility.yul\":9032:9398   */\n    tag_220:\n        /* \"#utility.yul\":9174:9177   */\n      0x00\n        /* \"#utility.yul\":9195:9262   */\n      tag_344\n        /* \"#utility.yul\":9259:9261   */\n      0x55\n        /* \"#utility.yul\":9254:9257   */\n      dup4\n        /* \"#utility.yul\":9195:9262   */\n      tag_212\n      jump\t// in\n    tag_344:\n        /* \"#utility.yul\":9188:9262   */\n      swap2\n      pop\n        /* \"#utility.yul\":9271:9364   */\n      tag_345\n        /* \"#utility.yul\":9360:9363   */\n      dup3\n        /* \"#utility.yul\":9271:9364   */\n      tag_219\n      jump\t// in\n    tag_345:\n        /* \"#utility.yul\":9389:9391   */\n      0x60\n        /* \"#utility.yul\":9384:9387   */\n      dup3\n        /* \"#utility.yul\":9380:9392   */\n      add\n        /* \"#utility.yul\":9373:9392   */\n      swap1\n      pop\n        /* \"#utility.yul\":9032:9398   */\n      swap2\n      swap1\n      pop\n      jump\t// out\n        /* \"#utility.yul\":9404:9823   */\n    tag_36:\n        /* \"#utility.yul\":9570:9574   */\n      0x00\n        /* \"#utility.yul\":9608:9610   */\n      0x20\n        /* \"#utility.yul\":9597:9606   */\n      dup3\n        /* \"#utility.yul\":9593:9611   */\n      add\n        /* \"#utility.yul\":9585:9611   */\n      swap1\n      pop\n        /* \"#utility.yul\":9657:9666   */\n      dup2\n        /* \"#utility.yul\":9651:9655   */\n      dup2\n        /* \"#utility.yul\":9647:9667   */\n      sub\n        /* \"#utility.yul\":9643:9644   */\n      0x00\n        /* \"#utility.yul\":9632:9641   */\n      dup4\n        /* \"#utility.yul\":9628:9645   */\n      add\n        /* \"#utility.yul\":9621:9668   */\n      mstore\n        /* \"#utility.yul\":9685:9816   */\n      tag_347\n        /* \"#utility.yul\":9811:9815   */\n      dup2\n        /* \"#utility.yul\":9685:9816   */\n      tag_220\n      jump\t// in\n    tag_347:\n        /* \"#utility.yul\":9677:9816   */\n      swap1\n      pop\n        /* \"#utility.yul\":9404:9823   */\n      swap2\n      swap1\n      pop\n      jump\t// out\n        /* \"#utility.yul\":9829:10004   */\n    tag_221:\n        /* \"#utility.yul\":9969:9996   */\n      0x456e7469747920616c7265616479207265676973746572656400000000000000\n        /* \"#utility.yul\":9965:9966   */\n      0x00\n        /* \"#utility.yul\":9957:9963   */\n      dup3\n        /* \"#utility.yul\":9953:9967   */\n      add\n        /* \"#utility.yul\":9946:9997   */\n      mstore\n        /* \"#utility.yul\":9829:10004   */\n      pop\n      jump\t// out\n        /* \"#utility.yul\":10010:10376   */\n    tag_222:\n        /* \"#utility.yul\":10152:10155   */\n      0x00\n        /* \"#utility.yul\":10173:10240   */\n      tag_350\n        /* \"#utility.yul\":10237:10239   */\n      0x19\n        /* \"#utility.yul\":10232:10235   */\n      dup4\n        /* \"#utility.yul\":10173:10240   */\n      tag_212\n      jump\t// in\n    tag_350:\n        /* \"#utility.yul\":10166:10240   */\n      swap2\n      pop\n        /* \"#utility.yul\":10249:10342   */\n      tag_351\n        /* \"#utility.yul\":10338:10341   */\n      dup3\n        /* \"#utility.yul\":10249:10342   */\n      tag_221\n      jump\t// in\n    tag_351:\n        /* \"#utility.yul\":10367:10369   */\n      0x20\n        /* \"#utility.yul\":10362:10365   */\n      dup3\n        /* \"#utility.yul\":10358:10370   */\n      add\n        /* \"#utility.yul\":10351:10370   */\n      swap1\n      pop\n        /* \"#utility.yul\":10010:10376   */\n      swap2\n      swap1\n      pop\n      jump\t// out\n        /* \"#utility.yul\":10382:10801   */\n    tag_39:\n        /* \"#utility.yul\":10548:10552   */\n      0x00\n        /* \"#utility.yul\":10586:10588   */\n      0x20\n        /* \"#utility.yul\":10575:10584   */\n      dup3\n        /* \"#utility.yul\":10571:10589   */\n      add\n        /* \"#utility.yul\":10563:10589   */\n      swap1\n      pop\n        /* \"#utility.yul\":10635:10644   */\n      dup2\n        /* \"#utility.yul\":10629:10633   */\n      dup2\n        /* \"#utility.yul\":10625:10645   */\n      sub\n        /* \"#utility.yul\":10621:10622   */\n      0x00\n        /* \"#utility.yul\":10610:10619   */\n      dup4\n        /* \"#utility.yul\":10606:10623   */\n      add\n        /* \"#utility.yul\":10599:10646   */\n      mstore\n        /* \"#utility.yul\":10663:10794   */\n      tag_353\n        /* \"#utility.yul\":10789:10793   */\n      dup2\n        /* \"#utility.yul\":10663:10794   */\n      tag_222\n      jump\t// in\n    tag_353:\n        /* \"#utility.yul\":10655:10794   */\n      swap1\n      pop\n        /* \"#utility.yul\":10382:10801   */\n      swap2\n      swap1\n      pop\n      jump\t// out\n        /* \"#utility.yul\":10807:10987   */\n    tag_223:\n        /* \"#utility.yul\":10947:10979   */\n      0x4c6963656e7365206e756d6265722063616e6e6f7420626520656d7074790000\n        /* \"#utility.yul\":10943:10944   */\n      0x00\n        /* \"#utility.yul\":10935:10941   */\n      dup3\n        /* \"#utility.yul\":10931:10945   */\n      add\n        /* \"#utility.yul\":10924:10980   */\n      mstore\n        /* \"#utility.yul\":10807:10987   */\n      pop\n      jump\t// out\n        /* \"#utility.yul\":10993:11359   */\n    tag_224:\n        /* \"#utility.yul\":11135:11138   */\n      0x00\n        /* \"#utility.yul\":11156:11223   */\n      tag_356\n        /* \"#utility.yul\":11220:11222   */\n      0x1e\n        /* \"#utility.yul\":11215:11218   */\n      dup4\n        /* \"#utility.yul\":11156:11223   */\n      tag_212\n      jump\t// in\n    tag_356:\n        /* \"#utility.yul\":11149:11223   */\n      swap2\n      pop\n        /* \"#utility.yul\":11232:11325   */\n      tag_357\n        /* \"#utility.yul\":11321:11324   */\n      dup3\n        /* \"#utility.yul\":11232:11325   */\n      tag_223\n      jump\t// in\n    tag_357:\n        /* \"#utility.yul\":11350:11352   */\n      0x20\n        /* \"#utility.yul\":11345:11348   */\n      dup3\n        /* \"#utility.yul\":11341:11353   */\n      add\n        /* \"#utility.yul\":11334:11353   */\n      swap1\n      pop\n        /* \"#utility.yul\":10993:11359   */\n      swap2\n      swap1\n      pop\n      jump\t// out\n        /* \"#utility.yul\":11365:11784   */\n    tag_42:\n        /* \"#utility.yul\":11531:11535   */\n      0x00\n        /* \"#utility.yul\":11569:11571   */\n      0x20\n        /* \"#utility.yul\":11558:11567   */\n      dup3\n        /* \"#utility.yul\":11554:11572   */\n      add\n        /* \"#utility.yul\":11546:11572   */\n      swap1\n      pop\n        /* \"#utility.yul\":11618:11627   */\n      dup2\n        /* \"#utility.yul\":11612:11616   */\n      dup2\n        /* \"#utility.yul\":11608:11628   */\n      sub\n        /* \"#utility.yul\":11604:11605   */\n      0x00\n        /* \"#utility.yul\":11593:11602   */\n      dup4\n        /* \"#utility.yul\":11589:11606   */\n      add\n        /* \"#utility.yul\":11582:11629   */\n      mstore\n        /* \"#utility.yul\":11646:11777   */\n      tag_359\n        /* \"#utility.yul\":11772:11776   */\n      dup2\n        /* \"#utility.yul\":11646:11777   */\n      tag_224\n      jump\t// in\n    tag_359:\n        /* \"#utility.yul\":11638:11777   */\n      swap1\n      pop\n        /* \"#utility.yul\":11365:11784   */\n      swap2\n      swap1\n      pop\n      jump\t// out\n        /* \"#utility.yul\":11790:11970   */\n    tag_47:\n        /* \"#utility.yul\":11838:11915   */\n      0x4e487b7100000000000000000000000000000000000000000000000000000000\n        /* \"#utility.yul\":11835:11836   */\n      0x00\n        /* \"#utility.yul\":11828:11916   */\n      mstore\n        /* \"#utility.yul\":11935:11939   */\n      0x32\n        /* \"#utility.yul\":11932:11933   */\n      0x04\n        /* \"#utility.yul\":11925:11940   */\n      mstore\n        /* \"#utility.yul\":11959:11963   */\n      0x24\n        /* \"#utility.yul\":11956:11957   */\n      0x00\n        /* \"#utility.yul\":11949:11964   */\n      revert\n        /* \"#utility.yul\":11976:12124   */\n    tag_225:\n        /* \"#utility.yul\":12078:12089   */\n      0x00\n        /* \"#utility.yul\":12115:12118   */\n      dup2\n        /* \"#utility.yul\":12100:12118   */\n      swap1\n      pop\n        /* \"#utility.yul\":11976:12124   */\n      swap3\n      swap2\n      pop\n      pop\n      jump\t// out\n        /* \"#utility.yul\":12130:12305   */\n    tag_226:\n        /* \"#utility.yul\":12270:12297   */\n      0x4c6963656e7365206d7573742073746172742077697468202700000000000000\n        /* \"#utility.yul\":12266:12267   */\n      0x00\n        /* \"#utility.yul\":12258:12264   */\n      dup3\n        /* \"#utility.yul\":12254:12268   */\n      add\n        /* \"#utility.yul\":12247:12298   */\n      mstore\n        /* \"#utility.yul\":12130:12305   */\n      pop\n      jump\t// out\n        /* \"#utility.yul\":12311:12713   */\n    tag_227:\n        /* \"#utility.yul\":12471:12474   */\n      0x00\n        /* \"#utility.yul\":12492:12577   */\n      tag_364\n        /* \"#utility.yul\":12574:12576   */\n      0x19\n        /* \"#utility.yul\":12569:12572   */\n      dup4\n        /* \"#utility.yul\":12492:12577   */\n      tag_225\n      jump\t// in\n    tag_364:\n        /* \"#utility.yul\":12485:12577   */\n      swap2\n      pop\n        /* \"#utility.yul\":12586:12679   */\n      tag_365\n        /* \"#utility.yul\":12675:12678   */\n      dup3\n        /* \"#utility.yul\":12586:12679   */\n      tag_226\n      jump\t// in\n    tag_365:\n        /* \"#utility.yul\":12704:12706   */\n      0x19\n        /* \"#utility.yul\":12699:12702   */\n      dup3\n        /* \"#utility.yul\":12695:12707   */\n      add\n        /* \"#utility.yul\":12688:12707   */\n      swap1\n      pop\n        /* \"#utility.yul\":12311:12713   */\n      swap2\n      swap1\n      pop\n      jump\t// out\n        /* \"#utility.yul\":12719:12868   */\n    tag_228:\n        /* \"#utility.yul\":12755:12762   */\n      0x00\n        /* \"#utility.yul\":12795:12861   */\n      0xff00000000000000000000000000000000000000000000000000000000000000\n        /* \"#utility.yul\":12788:12793   */\n      dup3\n        /* \"#utility.yul\":12784:12862   */\n      and\n        /* \"#utility.yul\":12773:12862   */\n      swap1\n      pop\n        /* \"#utility.yul\":12719:12868   */\n      swap2\n      swap1\n      pop\n      jump\t// out\n        /* \"#utility.yul\":12874:12952   */\n    tag_229:\n        /* \"#utility.yul\":12912:12919   */\n      0x00\n        /* \"#utility.yul\":12941:12946   */\n      dup2\n        /* \"#utility.yul\":12930:12946   */\n      swap1\n      pop\n        /* \"#utility.yul\":12874:12952   */\n      swap2\n      swap1\n      pop\n      jump\t// out\n        /* \"#utility.yul\":12958:13111   */\n    tag_230:\n        /* \"#utility.yul\":13061:13104   */\n      tag_369\n        /* \"#utility.yul\":13080:13103   */\n      tag_370\n        /* \"#utility.yul\":13097:13102   */\n      dup3\n        /* \"#utility.yul\":13080:13103   */\n      tag_228\n      jump\t// in\n    tag_370:\n        /* \"#utility.yul\":13061:13104   */\n      tag_229\n      jump\t// in\n    tag_369:\n        /* \"#utility.yul\":13056:13059   */\n      dup3\n        /* \"#utility.yul\":13049:13105   */\n      mstore\n        /* \"#utility.yul\":12958:13111   */\n      pop\n      pop\n      jump\t// out\n        /* \"#utility.yul\":13117:13273   */\n    tag_231:\n        /* \"#utility.yul\":13257:13265   */\n      0x2720666f72200000000000000000000000000000000000000000000000000000\n        /* \"#utility.yul\":13253:13254   */\n      0x00\n        /* \"#utility.yul\":13245:13251   */\n      dup3\n        /* \"#utility.yul\":13241:13255   */\n      add\n        /* \"#utility.yul\":13234:13266   */\n      mstore\n        /* \"#utility.yul\":13117:13273   */\n      pop\n      jump\t// out\n        /* \"#utility.yul\":13279:13679   */\n    tag_232:\n        /* \"#utility.yul\":13439:13442   */\n      0x00\n        /* \"#utility.yul\":13460:13544   */\n      tag_373\n        /* \"#utility.yul\":13542:13543   */\n      0x06\n        /* \"#utility.yul\":13537:13540   */\n      dup4\n        /* \"#utility.yul\":13460:13544   */\n      tag_225\n      jump\t// in\n    tag_373:\n        /* \"#utility.yul\":13453:13544   */\n      swap2\n      pop\n        /* \"#utility.yul\":13553:13646   */\n      tag_374\n        /* \"#utility.yul\":13642:13645   */\n      dup3\n        /* \"#utility.yul\":13553:13646   */\n      tag_231\n      jump\t// in\n    tag_374:\n        /* \"#utility.yul\":13671:13672   */\n      0x06\n        /* \"#utility.yul\":13666:13669   */\n      dup3\n        /* \"#utility.yul\":13662:13673   */\n      add\n        /* \"#utility.yul\":13655:13673   */\n      swap1\n      pop\n        /* \"#utility.yul\":13279:13679   */\n      swap2\n      swap1\n      pop\n      jump\t// out\n        /* \"#utility.yul\":13685:14075   */\n    tag_233:\n        /* \"#utility.yul\":13791:13794   */\n      0x00\n        /* \"#utility.yul\":13819:13858   */\n      tag_376\n        /* \"#utility.yul\":13852:13857   */\n      dup3\n        /* \"#utility.yul\":13819:13858   */\n      tag_211\n      jump\t// in\n    tag_376:\n        /* \"#utility.yul\":13874:13963   */\n      tag_377\n        /* \"#utility.yul\":13956:13962   */\n      dup2\n        /* \"#utility.yul\":13951:13954   */\n      dup6\n        /* \"#utility.yul\":13874:13963   */\n      tag_225\n      jump\t// in\n    tag_377:\n        /* \"#utility.yul\":13867:13963   */\n      swap4\n      pop\n        /* \"#utility.yul\":13972:14037   */\n      tag_378\n        /* \"#utility.yul\":14030:14036   */\n      dup2\n        /* \"#utility.yul\":14025:14028   */\n      dup6\n        /* \"#utility.yul\":14018:14022   */\n      0x20\n        /* \"#utility.yul\":14011:14016   */\n      dup7\n        /* \"#utility.yul\":14007:14023   */\n      add\n        /* \"#utility.yul\":13972:14037   */\n      tag_213\n      jump\t// in\n    tag_378:\n        /* \"#utility.yul\":14062:14068   */\n      dup1\n        /* \"#utility.yul\":14057:14060   */\n      dup5\n        /* \"#utility.yul\":14053:14069   */\n      add\n        /* \"#utility.yul\":14046:14069   */\n      swap2\n      pop\n        /* \"#utility.yul\":13795:14075   */\n      pop\n        /* \"#utility.yul\":13685:14075   */\n      swap3\n      swap2\n      pop\n      pop\n      jump\t// out\n        /* \"#utility.yul\":14081:15024   */\n    tag_49:\n        /* \"#utility.yul\":14441:14444   */\n      0x00\n        /* \"#utility.yul\":14463:14611   */\n      tag_380\n        /* \"#utility.yul\":14607:14610   */\n      dup3\n        /* \"#utility.yul\":14463:14611   */\n      tag_227\n      jump\t// in\n    tag_380:\n        /* \"#utility.yul\":14456:14611   */\n      swap2\n      pop\n        /* \"#utility.yul\":14621:14694   */\n      tag_381\n        /* \"#utility.yul\":14690:14693   */\n      dup3\n        /* \"#utility.yul\":14681:14687   */\n      dup6\n        /* \"#utility.yul\":14621:14694   */\n      tag_230\n      jump\t// in\n    tag_381:\n        /* \"#utility.yul\":14719:14720   */\n      0x01\n        /* \"#utility.yul\":14714:14717   */\n      dup3\n        /* \"#utility.yul\":14710:14721   */\n      add\n        /* \"#utility.yul\":14703:14721   */\n      swap2\n      pop\n        /* \"#utility.yul\":14738:14886   */\n      tag_382\n        /* \"#utility.yul\":14882:14885   */\n      dup3\n        /* \"#utility.yul\":14738:14886   */\n      tag_232\n      jump\t// in\n    tag_382:\n        /* \"#utility.yul\":14731:14886   */\n      swap2\n      pop\n        /* \"#utility.yul\":14903:14998   */\n      tag_383\n        /* \"#utility.yul\":14994:14997   */\n      dup3\n        /* \"#utility.yul\":14985:14991   */\n      dup5\n        /* \"#utility.yul\":14903:14998   */\n      tag_233\n      jump\t// in\n    tag_383:\n        /* \"#utility.yul\":14896:14998   */\n      swap2\n      pop\n        /* \"#utility.yul\":15015:15018   */\n      dup2\n        /* \"#utility.yul\":15008:15018   */\n      swap1\n      pop\n        /* \"#utility.yul\":14081:15024   */\n      swap4\n      swap3\n      pop\n      pop\n      pop\n      jump\t// out\n        /* \"#utility.yul\":15030:15343   */\n    tag_52:\n        /* \"#utility.yul\":15143:15147   */\n      0x00\n        /* \"#utility.yul\":15181:15183   */\n      0x20\n        /* \"#utility.yul\":15170:15179   */\n      dup3\n        /* \"#utility.yul\":15166:15184   */\n      add\n        /* \"#utility.yul\":15158:15184   */\n      swap1\n      pop\n        /* \"#utility.yul\":15230:15239   */\n      dup2\n        /* \"#utility.yul\":15224:15228   */\n      dup2\n        /* \"#utility.yul\":15220:15240   */\n      sub\n        /* \"#utility.yul\":15216:15217   */\n      0x00\n        /* \"#utility.yul\":15205:15214   */\n      dup4\n        /* \"#utility.yul\":15201:15218   */\n      add\n        /* \"#utility.yul\":15194:15241   */\n      mstore\n        /* \"#utility.yul\":15258:15336   */\n      tag_385\n        /* \"#utility.yul\":15331:15335   */\n      dup2\n        /* \"#utility.yul\":15322:15328   */\n      dup5\n        /* \"#utility.yul\":15258:15336   */\n      tag_214\n      jump\t// in\n    tag_385:\n        /* \"#utility.yul\":15250:15336   */\n      swap1\n      pop\n        /* \"#utility.yul\":15030:15343   */\n      swap3\n      swap2\n      pop\n      pop\n      jump\t// out\n        /* \"#utility.yul\":15349:15529   */\n    tag_234:\n        /* \"#utility.yul\":15397:15474   */\n      0x4e487b7100000000000000000000000000000000000000000000000000000000\n        /* \"#utility.yul\":15394:15395   */\n      0x00\n        /* \"#utility.yul\":15387:15475   */\n      mstore\n        /* \"#utility.yul\":15494:15498   */\n      0x22\n        /* \"#utility.yul\":15491:15492   */\n      0x04\n        /* \"#utility.yul\":15484:15499   */\n      mstore\n        /* \"#utility.yul\":15518:15522   */\n      0x24\n        /* \"#utility.yul\":15515:15516   */\n      0x00\n        /* \"#utility.yul\":15508:15523   */\n      revert\n        /* \"#utility.yul\":15535:15855   */\n    tag_65:\n        /* \"#utility.yul\":15579:15585   */\n      0x00\n        /* \"#utility.yul\":15616:15617   */\n      0x02\n        /* \"#utility.yul\":15610:15614   */\n      dup3\n        /* \"#utility.yul\":15606:15618   */\n      div\n        /* \"#utility.yul\":15596:15618   */\n      swap1\n      pop\n        /* \"#utility.yul\":15663:15664   */\n      0x01\n        /* \"#utility.yul\":15657:15661   */\n      dup3\n        /* \"#utility.yul\":15653:15665   */\n      and\n        /* \"#utility.yul\":15684:15702   */\n      dup1\n        /* \"#utility.yul\":15674:15755   */\n      tag_388\n      jumpi\n        /* \"#utility.yul\":15740:15744   */\n      0x7f\n        /* \"#utility.yul\":15732:15738   */\n      dup3\n        /* \"#utility.yul\":15728:15745   */\n      and\n        /* \"#utility.yul\":15718:15745   */\n      swap2\n      pop\n        /* \"#utility.yul\":15674:15755   */\n    tag_388:\n        /* \"#utility.yul\":15802:15804   */\n      0x20\n        /* \"#utility.yul\":15794:15800   */\n      dup3\n        /* \"#utility.yul\":15791:15805   */\n      lt\n        /* \"#utility.yul\":15771:15789   */\n      dup2\n        /* \"#utility.yul\":15768:15806   */\n      sub\n        /* \"#utility.yul\":15765:15849   */\n      tag_389\n      jumpi\n        /* \"#utility.yul\":15821:15839   */\n      tag_390\n      tag_234\n      jump\t// in\n    tag_390:\n        /* \"#utility.yul\":15765:15849   */\n    tag_389:\n        /* \"#utility.yul\":15586:15855   */\n      pop\n        /* \"#utility.yul\":15535:15855   */\n      swap2\n      swap1\n      pop\n      jump\t// out\n        /* \"#utility.yul\":15861:16002   */\n    tag_235:\n        /* \"#utility.yul\":15910:15914   */\n      0x00\n        /* \"#utility.yul\":15933:15936   */\n      dup2\n        /* \"#utility.yul\":15925:15936   */\n      swap1\n      pop\n        /* \"#utility.yul\":15956:15959   */\n      dup2\n        /* \"#utility.yul\":15953:15954   */\n      0x00\n        /* \"#utility.yul\":15946:15960   */\n      mstore\n        /* \"#utility.yul\":15990:15994   */\n      0x20\n        /* \"#utility.yul\":15987:15988   */\n      0x00\n        /* \"#utility.yul\":15977:15995   */\n      keccak256\n        /* \"#utility.yul\":15969:15995   */\n      swap1\n      pop\n        /* \"#utility.yul\":15861:16002   */\n      swap2\n      swap1\n      pop\n      jump\t// out\n        /* \"#utility.yul\":16008:16101   */\n    tag_236:\n        /* \"#utility.yul\":16045:16051   */\n      0x00\n        /* \"#utility.yul\":16092:16094   */\n      0x20\n        /* \"#utility.yul\":16087:16089   */\n      0x1f\n        /* \"#utility.yul\":16080:16085   */\n      dup4\n        /* \"#utility.yul\":16076:16090   */\n      add\n        /* \"#utility.yul\":16072:16095   */\n      div\n        /* \"#utility.yul\":16062:16095   */\n      swap1\n      pop\n        /* \"#utility.yul\":16008:16101   */\n      swap2\n      swap1\n      pop\n      jump\t// out\n        /* \"#utility.yul\":16107:16214   */\n    tag_237:\n        /* \"#utility.yul\":16151:16159   */\n      0x00\n        /* \"#utility.yul\":16201:16206   */\n      dup3\n        /* \"#utility.yul\":16195:16199   */\n      dup3\n        /* \"#utility.yul\":16191:16207   */\n      shl\n        /* \"#utility.yul\":16170:16207   */\n      swap1\n      pop\n        /* \"#utility.yul\":16107:16214   */\n      swap3\n      swap2\n      pop\n      pop\n      jump\t// out\n        /* \"#utility.yul\":16220:16613   */\n    tag_238:\n        /* \"#utility.yul\":16289:16295   */\n      0x00\n        /* \"#utility.yul\":16339:16340   */\n      0x08\n        /* \"#utility.yul\":16327:16337   */\n      dup4\n        /* \"#utility.yul\":16323:16341   */\n      mul\n        /* \"#utility.yul\":16362:16459   */\n      tag_395\n        /* \"#utility.yul\":16392:16458   */\n      0xffffffffffffffffffffffffffffffffffffffffffffffffffffffffffffffff\n        /* \"#utility.yul\":16381:16390   */\n      dup3\n        /* \"#utility.yul\":16362:16459   */\n      tag_237\n      jump\t// in\n    tag_395:\n        /* \"#utility.yul\":16480:16519   */\n      tag_396\n        /* \"#utility.yul\":16510:16518   */\n      dup7\n        /* \"#utility.yul\":16499:16508   */\n      dup4\n        /* \"#utility.yul\":16480:16519   */\n      tag_237\n      jump\t// in\n    tag_396:\n        /* \"#utility.yul\":16468:16519   */\n      swap6\n      pop\n        /* \"#utility.yul\":16552:16556   */\n      dup1\n        /* \"#utility.yul\":16548:16557   */\n      not\n        /* \"#utility.yul\":16541:16546   */\n      dup5\n        /* \"#utility.yul\":16537:16558   */\n      and\n        /* \"#utility.yul\":16528:16558   */\n      swap4\n      pop\n        /* \"#utility.yul\":16601:16605   */\n      dup1\n        /* \"#utility.yul\":16591:16599   */\n      dup7\n        /* \"#utility.yul\":16587:16606   */\n      and\n        /* \"#utility.yul\":16580:16585   */\n      dup5\n        /* \"#utility.yul\":16577:16607   */\n      or\n        /* \"#utility.yul\":16567:16607   */\n      swap3\n      pop\n        /* \"#utility.yul\":16296:16613   */\n      pop\n      pop\n        /* \"#utility.yul\":16220:16613   */\n      swap4\n      swap3\n      pop\n      pop\n      pop\n      jump\t// out\n        /* \"#utility.yul\":16619:16696   */\n    tag_239:\n        /* \"#utility.yul\":16656:16663   */\n      0x00\n        /* \"#utility.yul\":16685:16690   */\n      dup2\n        /* \"#utility.yul\":16674:16690   */\n      swap1\n      pop\n        /* \"#utility.yul\":16619:16696   */\n      swap2\n      swap1\n      pop\n      jump\t// out\n        /* \"#utility.yul\":16702:16762   */\n    tag_240:\n        /* \"#utility.yul\":16730:16733   */\n      0x00\n        /* \"#utility.yul\":16751:16756   */\n      dup2\n        /* \"#utility.yul\":16744:16756   */\n      swap1\n      pop\n        /* \"#utility.yul\":16702:16762   */\n      swap2\n      swap1\n      pop\n      jump\t// out\n        /* \"#utility.yul\":16768:16910   */\n    tag_241:\n        /* \"#utility.yul\":16818:16827   */\n      0x00\n        /* \"#utility.yul\":16851:16904   */\n      tag_400\n        /* \"#utility.yul\":16869:16903   */\n      tag_401\n        /* \"#utility.yul\":16878:16902   */\n      tag_402\n        /* \"#utility.yul\":16896:16901   */\n      dup5\n        /* \"#utility.yul\":16878:16902   */\n      tag_239\n      jump\t// in\n    tag_402:\n        /* \"#utility.yul\":16869:16903   */\n      tag_240\n      jump\t// in\n    tag_401:\n        /* \"#utility.yul\":16851:16904   */\n      tag_239\n      jump\t// in\n    tag_400:\n        /* \"#utility.yul\":16838:16904   */\n      swap1\n      pop\n        /* \"#utility.yul\":16768:16910   */\n      swap2\n      swap1\n      pop\n      jump\t// out\n        /* \"#utility.yul\":16916:16991   */\n    tag_242:\n        /* \"#utility.yul\":16959:16962   */\n      0x00\n        /* \"#utility.yul\":16980:16985   */\n      dup2\n        /* \"#utility.yul\":16973:16985   */\n      swap1\n      pop\n        /* \"#utility.yul\":16916:16991   */\n      swap2\n      swap1\n      pop\n      jump\t// out\n        /* \"#utility.yul\":16997:17266   */\n    tag_243:\n        /* \"#utility.yul\":17107:17146   */\n      tag_405\n        /* \"#utility.yul\":17138:17145   */\n      dup4\n        /* \"#utility.yul\":17107:17146   */\n      tag_241\n      jump\t// in\n    tag_405:\n        /* \"#utility.yul\":17168:17259   */\n      tag_406\n        /* \"#utility.yul\":17217:17258   */\n      tag_407\n        /* \"#utility.yul\":17241:17257   */\n      dup3\n        /* \"#utility.yul\":17217:17258   */\n      tag_242\n      jump\t// in\n    tag_407:\n        /* \"#utility.yul\":17209:17215   */\n      dup5\n        /* \"#utility.yul\":17202:17206   */\n      dup5\n        /* \"#utility.yul\":17196:17207   */\n      sload\n        /* \"#utility.yul\":17168:17259   */\n      tag_238\n      jump\t// in\n    tag_406:\n        /* \"#utility.yul\":17162:17166   */\n      dup3\n        /* \"#utility.yul\":17155:17260   */\n      sstore\n        /* \"#utility.yul\":17073:17266   */\n      pop\n        /* \"#utility.yul\":16997:17266   */\n      pop\n      pop\n      pop\n      jump\t// out\n        /* \"#utility.yul\":17272:17345   */\n    tag_244:\n        /* \"#utility.yul\":17317:17320   */\n      0x00\n        /* \"#utility.yul\":17272:17345   */\n      swap1\n      jump\t// out\n        /* \"#utility.yul\":17351:17540   */\n    tag_245:\n        /* \"#utility.yul\":17428:17460   */\n      tag_410\n      tag_244\n      jump\t// in\n    tag_410:\n        /* \"#utility.yul\":17469:17534   */\n      tag_411\n        /* \"#utility.yul\":17527:17533   */\n      dup2\n        /* \"#utility.yul\":17519:17525   */\n      dup5\n        /* \"#utility.yul\":17513:17517   */\n      dup5\n        /* \"#utility.yul\":17469:17534   */\n      tag_243\n      jump\t// in\n    tag_411:\n        /* \"#utility.yul\":17404:17540   */\n      pop\n        /* \"#utility.yul\":17351:17540   */\n      pop\n      pop\n      jump\t// out\n        /* \"#utility.yul\":17546:17732   */\n    tag_246:\n        /* \"#utility.yul\":17606:17726   */\n    tag_413:\n        /* \"#utility.yul\":17623:17626   */\n      dup2\n        /* \"#utility.yul\":17616:17621   */\n      dup2\n        /* \"#utility.yul\":17613:17627   */\n      lt\n        /* \"#utility.yul\":17606:17726   */\n      iszero\n      tag_415\n      jumpi\n        /* \"#utility.yul\":17677:17716   */\n      tag_416\n        /* \"#utility.yul\":17714:17715   */\n      0x00\n        /* \"#utility.yul\":17707:17712   */\n      dup3\n        /* \"#utility.yul\":17677:17716   */\n      tag_245\n      jump\t// in\n    tag_416:\n        /* \"#utility.yul\":17650:17651   */\n      0x01\n        /* \"#utility.yul\":17643:17648   */\n      dup2\n        /* \"#utility.yul\":17639:17652   */\n      add\n        /* \"#utility.yul\":17630:17652   */\n      swap1\n      pop\n        /* \"#utility.yul\":17606:17726   */\n      jump(tag_413)\n    tag_415:\n        /* \"#utility.yul\":17546:17732   */\n      pop\n      pop\n      jump\t// out\n        /* \"#utility.yul\":17738:18281   */\n    tag_247:\n        /* \"#utility.yul\":17839:17841   */\n      0x1f\n        /* \"#utility.yul\":17834:17837   */\n      dup3\n        /* \"#utility.yul\":17831:17842   */\n      gt\n        /* \"#utility.yul\":17828:18274   */\n      iszero\n      tag_418\n      jumpi\n        /* \"#utility.yul\":17873:17911   */\n      tag_419\n        /* \"#utility.yul\":17905:17910   */\n      dup2\n        /* \"#utility.yul\":17873:17911   */\n      tag_235\n      jump\t// in\n    tag_419:\n        /* \"#utility.yul\":17957:17986   */\n      tag_420\n        /* \"#utility.yul\":17975:17985   */\n      dup5\n        /* \"#utility.yul\":17957:17986   */\n      tag_236\n      jump\t// in\n    tag_420:\n        /* \"#utility.yul\":17947:17955   */\n      dup2\n        /* \"#utility.yul\":17943:17987   */\n      add\n        /* \"#utility.yul\":18140:18142   */\n      0x20\n        /* \"#utility.yul\":18128:18138   */\n      dup6\n        /* \"#utility.yul\":18125:18143   */\n      lt\n        /* \"#utility.yul\":18122:18171   */\n      iszero\n      tag_421\n      jumpi\n        /* \"#utility.yul\":18161:18169   */\n      dup2\n        /* \"#utility.yul\":18146:18169   */\n      swap1\n      pop\n        /* \"#utility.yul\":18122:18171   */\n    tag_421:\n        /* \"#utility.yul\":18184:18264   */\n      tag_422\n        /* \"#utility.yul\":18240:18262   */\n      tag_423\n        /* \"#utility.yul\":18258:18261   */\n      dup6\n        /* \"#utility.yul\":18240:18262   */\n      tag_236\n      jump\t// in\n    tag_423:\n        /* \"#utility.yul\":18230:18238   */\n      dup4\n        /* \"#utility.yul\":18226:18263   */\n      add\n        /* \"#utility.yul\":18213:18224   */\n      dup3\n        /* \"#utility.yul\":18184:18264   */\n      tag_246\n      jump\t// in\n    tag_422:\n        /* \"#utility.yul\":17843:18274   */\n      pop\n      pop\n        /* \"#utility.yul\":17828:18274   */\n    tag_418:\n        /* \"#utility.yul\":17738:18281   */\n      pop\n      pop\n      pop\n      jump\t// out\n        /* \"#utility.yul\":18287:18404   */\n    tag_248:\n        /* \"#utility.yul\":18341:18349   */\n      0x00\n        /* \"#utility.yul\":18391:18396   */\n      dup3\n        /* \"#utility.yul\":18385:18389   */\n      dup3\n        /* \"#utility.yul\":18381:18397   */\n      shr\n        /* \"#utility.yul\":18360:18397   */\n      swap1\n      pop\n        /* \"#utility.yul\":18287:18404   */\n      swap3\n      swap2\n      pop\n      pop\n      jump\t// out\n        /* \"#utility.yul\":18410:18579   */\n    tag_249:\n        /* \"#utility.yul\":18454:18460   */\n      0x00\n        /* \"#utility.yul\":18487:18538   */\n      tag_426\n        /* \"#utility.yul\":18535:18536   */\n      0x00\n        /* \"#utility.yul\":18531:18537   */\n      not\n        /* \"#utility.yul\":18523:18528   */\n      dup5\n        /* \"#utility.yul\":18520:18521   */\n      0x08\n        /* \"#utility.yul\":18516:18529   */\n      mul\n        /* \"#utility.yul\":18487:18538   */\n      tag_248\n      jump\t// in\n    tag_426:\n        /* \"#utility.yul\":18483:18539   */\n      not\n        /* \"#utility.yul\":18568:18572   */\n      dup1\n        /* \"#utility.yul\":18562:18566   */\n      dup4\n        /* \"#utility.yul\":18558:18573   */\n      and\n        /* \"#utility.yul\":18548:18573   */\n      swap2\n      pop\n        /* \"#utility.yul\":18461:18579   */\n      pop\n        /* \"#utility.yul\":18410:18579   */\n      swap3\n      swap2\n      pop\n      pop\n      jump\t// out\n        /* \"#utility.yul\":18584:18879   */\n    tag_250:\n        /* \"#utility.yul\":18660:18664   */\n      0x00\n        /* \"#utility.yul\":18806:18835   */\n      tag_428\n        /* \"#utility.yul\":18831:18834   */\n      dup4\n        /* \"#utility.yul\":18825:18829   */\n      dup4\n        /* \"#utility.yul\":18806:18835   */\n      tag_249\n      jump\t// in\n    tag_428:\n        /* \"#utility.yul\":18798:18835   */\n      swap2\n      pop\n        /* \"#utility.yul\":18868:18871   */\n      dup3\n        /* \"#utility.yul\":18865:18866   */\n      0x02\n        /* \"#utility.yul\":18861:18872   */\n      mul\n        /* \"#utility.yul\":18855:18859   */\n      dup3\n        /* \"#utility.yul\":18852:18873   */\n      or\n        /* \"#utility.yul\":18844:18873   */\n      swap1\n      pop\n        /* \"#utility.yul\":18584:18879   */\n      swap3\n      swap2\n      pop\n      pop\n      jump\t// out\n        /* \"#utility.yul\":18884:20279   */\n    tag_54:\n        /* \"#utility.yul\":19001:19038   */\n      tag_430\n        /* \"#utility.yul\":19034:19037   */\n      dup3\n        /* \"#utility.yul\":19001:19038   */\n      tag_211\n      jump\t// in\n    tag_430:\n        /* \"#utility.yul\":19103:19121   */\n      0xffffffffffffffff\n        /* \"#utility.yul\":19095:19101   */\n      dup2\n        /* \"#utility.yul\":19092:19122   */\n      gt\n        /* \"#utility.yul\":19089:19145   */\n      iszero\n      tag_431\n      jumpi\n        /* \"#utility.yul\":19125:19143   */\n      tag_432\n      tag_121\n      jump\t// in\n    tag_432:\n        /* \"#utility.yul\":19089:19145   */\n    tag_431:\n        /* \"#utility.yul\":19169:19207   */\n      tag_433\n        /* \"#utility.yul\":19201:19205   */\n      dup3\n        /* \"#utility.yul\":19195:19206   */\n      sload\n        /* \"#utility.yul\":19169:19207   */\n      tag_65\n      jump\t// in\n    tag_433:\n        /* \"#utility.yul\":19254:19321   */\n      tag_434\n        /* \"#utility.yul\":19314:19320   */\n      dup3\n        /* \"#utility.yul\":19306:19312   */\n      dup3\n        /* \"#utility.yul\":19300:19304   */\n      dup6\n        /* \"#utility.yul\":19254:19321   */\n      tag_247\n      jump\t// in\n    tag_434:\n        /* \"#utility.yul\":19348:19349   */\n      0x00\n        /* \"#utility.yul\":19372:19376   */\n      0x20\n        /* \"#utility.yul\":19359:19376   */\n      swap1\n      pop\n        /* \"#utility.yul\":19404:19406   */\n      0x1f\n        /* \"#utility.yul\":19396:19402   */\n      dup4\n        /* \"#utility.yul\":19393:19407   */\n      gt\n        /* \"#utility.yul\":19421:19422   */\n      0x01\n        /* \"#utility.yul\":19416:20034   */\n      dup2\n      eq\n      tag_436\n      jumpi\n        /* \"#utility.yul\":20078:20079   */\n      0x00\n        /* \"#utility.yul\":20095:20101   */\n      dup5\n        /* \"#utility.yul\":20092:20169   */\n      iszero\n      tag_437\n      jumpi\n        /* \"#utility.yul\":20144:20153   */\n      dup3\n        /* \"#utility.yul\":20139:20142   */\n      dup8\n        /* \"#utility.yul\":20135:20154   */\n      add\n        /* \"#utility.yul\":20129:20155   */\n      mload\n        /* \"#utility.yul\":20120:20155   */\n      swap1\n      pop\n        /* \"#utility.yul\":20092:20169   */\n    tag_437:\n        /* \"#utility.yul\":20195:20262   */\n      tag_438\n        /* \"#utility.yul\":20255:20261   */\n      dup6\n        /* \"#utility.yul\":20248:20253   */\n      dup3\n        /* \"#utility.yul\":20195:20262   */\n      tag_250\n      jump\t// in\n    tag_438:\n        /* \"#utility.yul\":20189:20193   */\n      dup7\n        /* \"#utility.yul\":20182:20263   */\n      sstore\n        /* \"#utility.yul\":20051:20273   */\n      pop\n        /* \"#utility.yul\":19386:20273   */\n      jump(tag_435)\n        /* \"#utility.yul\":19416:20034   */\n    tag_436:\n        /* \"#utility.yul\":19468:19472   */\n      0x1f\n        /* \"#utility.yul\":19464:19473   */\n      not\n        /* \"#utility.yul\":19456:19462   */\n      dup5\n        /* \"#utility.yul\":19452:19474   */\n      and\n        /* \"#utility.yul\":19502:19539   */\n      tag_439\n        /* \"#utility.yul\":19534:19538   */\n      dup7\n        /* \"#utility.yul\":19502:19539   */\n      tag_235\n      jump\t// in\n    tag_439:\n        /* \"#utility.yul\":19561:19562   */\n      0x00\n        /* \"#utility.yul\":19575:19783   */\n    tag_440:\n        /* \"#utility.yul\":19589:19596   */\n      dup3\n        /* \"#utility.yul\":19586:19587   */\n      dup2\n        /* \"#utility.yul\":19583:19597   */\n      lt\n        /* \"#utility.yul\":19575:19783   */\n      iszero\n      tag_442\n      jumpi\n        /* \"#utility.yul\":19668:19677   */\n      dup5\n        /* \"#utility.yul\":19663:19666   */\n      dup10\n        /* \"#utility.yul\":19659:19678   */\n      add\n        /* \"#utility.yul\":19653:19679   */\n      mload\n        /* \"#utility.yul\":19645:19651   */\n      dup3\n        /* \"#utility.yul\":19638:19680   */\n      sstore\n        /* \"#utility.yul\":19719:19720   */\n      0x01\n        /* \"#utility.yul\":19711:19717   */\n      dup3\n        /* \"#utility.yul\":19707:19721   */\n      add\n        /* \"#utility.yul\":19697:19721   */\n      swap2\n      pop\n        /* \"#utility.yul\":19766:19768   */\n      0x20\n        /* \"#utility.yul\":19755:19764   */\n      dup6\n        /* \"#utility.yul\":19751:19769   */\n      add\n        /* \"#utility.yul\":19738:19769   */\n      swap5\n      pop\n        /* \"#utility.yul\":19612:19616   */\n      0x20\n        /* \"#utility.yul\":19609:19610   */\n      dup2\n        /* \"#utility.yul\":19605:19617   */\n      add\n        /* \"#utility.yul\":19600:19617   */\n      swap1\n      pop\n        /* \"#utility.yul\":19575:19783   */\n      jump(tag_440)\n    tag_442:\n        /* \"#utility.yul\":19811:19817   */\n      dup7\n        /* \"#utility.yul\":19802:19809   */\n      dup4\n        /* \"#utility.yul\":19799:19818   */\n      lt\n        /* \"#utility.yul\":19796:19975   */\n      iszero\n      tag_443\n      jumpi\n        /* \"#utility.yul\":19869:19878   */\n      dup5\n        /* \"#utility.yul\":19864:19867   */\n      dup10\n        /* \"#utility.yul\":19860:19879   */\n      add\n        /* \"#utility.yul\":19854:19880   */\n      mload\n        /* \"#utility.yul\":19912:19960   */\n      tag_444\n        /* \"#utility.yul\":19954:19958   */\n      0x1f\n        /* \"#utility.yul\":19946:19952   */\n      dup10\n        /* \"#utility.yul\":19942:19959   */\n      and\n        /* \"#utility.yul\":19931:19940   */\n      dup3\n        /* \"#utility.yul\":19912:19960   */\n      tag_249\n      jump\t// in\n    tag_444:\n        /* \"#utility.yul\":19904:19910   */\n      dup4\n        /* \"#utility.yul\":19897:19961   */\n      sstore\n        /* \"#utility.yul\":19819:19975   */\n      pop\n        /* \"#utility.yul\":19796:19975   */\n    tag_443:\n        /* \"#utility.yul\":20021:20022   */\n      0x01\n        /* \"#utility.yul\":20017:20018   */\n      0x02\n        /* \"#utility.yul\":20009:20015   */\n      dup9\n        /* \"#utility.yul\":20005:20019   */\n      mul\n        /* \"#utility.yul\":20001:20023   */\n      add\n        /* \"#utility.yul\":19995:19999   */\n      dup9\n        /* \"#utility.yul\":19988:20024   */\n      sstore\n        /* \"#utility.yul\":19423:20034   */\n      pop\n      pop\n      pop\n        /* \"#utility.yul\":19386:20273   */\n    tag_435:\n      pop\n        /* \"#utility.yul\":18976:20279   */\n      pop\n      pop\n      pop\n        /* \"#utility.yul\":18884:20279   */\n      pop\n      pop\n      jump\t// out\n        /* \"#utility.yul\":20285:20560   */\n    tag_59:\n        /* \"#utility.yul\":20417:20420   */\n      0x00\n        /* \"#utility.yul\":20439:20534   */\n      tag_446\n        /* \"#utility.yul\":20530:20533   */\n      dup3\n        /* \"#utility.yul\":20521:20527   */\n      dup5\n        /* \"#utility.yul\":20439:20534   */\n      tag_233\n      jump\t// in\n    tag_446:\n        /* \"#utility.yul\":20432:20534   */\n      swap2\n      pop\n        /* \"#utility.yul\":20551:20554   */\n      dup2\n        /* \"#utility.yul\":20544:20554   */\n      swap1\n      pop\n        /* \"#utility.yul\":20285:20560   */\n      swap3\n      swap2\n      pop\n      pop\n      jump\t// out\n        /* \"#utility.yul\":20566:21281   */\n    tag_62:\n        /* \"#utility.yul\":20775:20779   */\n      0x00\n        /* \"#utility.yul\":20813:20815   */\n      0x60\n        /* \"#utility.yul\":20802:20811   */\n      dup3\n        /* \"#utility.yul\":20798:20816   */\n      add\n        /* \"#utility.yul\":20790:20816   */\n      swap1\n      pop\n        /* \"#utility.yul\":20862:20871   */\n      dup2\n        /* \"#utility.yul\":20856:20860   */\n      dup2\n        /* \"#utility.yul\":20852:20872   */\n      sub\n        /* \"#utility.yul\":20848:20849   */\n      0x00\n        /* \"#utility.yul\":20837:20846   */\n      dup4\n        /* \"#utility.yul\":20833:20850   */\n      add\n        /* \"#utility.yul\":20826:20873   */\n      mstore\n        /* \"#utility.yul\":20890:20968   */\n      tag_448\n        /* \"#utility.yul\":20963:20967   */\n      dup2\n        /* \"#utility.yul\":20954:20960   */\n      dup7\n        /* \"#utility.yul\":20890:20968   */\n      tag_214\n      jump\t// in\n    tag_448:\n        /* \"#utility.yul\":20882:20968   */\n      swap1\n      pop\n        /* \"#utility.yul\":21015:21024   */\n      dup2\n        /* \"#utility.yul\":21009:21013   */\n      dup2\n        /* \"#utility.yul\":21005:21025   */\n      sub\n        /* \"#utility.yul\":21000:21002   */\n      0x20\n        /* \"#utility.yul\":20989:20998   */\n      dup4\n        /* \"#utility.yul\":20985:21003   */\n      add\n        /* \"#utility.yul\":20978:21026   */\n      mstore\n        /* \"#utility.yul\":21043:21121   */\n      tag_449\n        /* \"#utility.yul\":21116:21120   */\n      dup2\n        /* \"#utility.yul\":21107:21113   */\n      dup6\n        /* \"#utility.yul\":21043:21121   */\n      tag_214\n      jump\t// in\n    tag_449:\n        /* \"#utility.yul\":21035:21121   */\n      swap1\n      pop\n        /* \"#utility.yul\":21168:21177   */\n      dup2\n        /* \"#utility.yul\":21162:21166   */\n      dup2\n        /* \"#utility.yul\":21158:21178   */\n      sub\n        /* \"#utility.yul\":21153:21155   */\n      0x40\n        /* \"#utility.yul\":21142:21151   */\n      dup4\n        /* \"#utility.yul\":21138:21156   */\n      add\n        /* \"#utility.yul\":21131:21179   */\n      mstore\n        /* \"#utility.yul\":21196:21274   */\n      tag_450\n        /* \"#utility.yul\":21269:21273   */\n      dup2\n        /* \"#utility.yul\":21260:21266   */\n      dup5\n        /* \"#utility.yul\":21196:21274   */\n      tag_214\n      jump\t// in\n    tag_450:\n        /* \"#utility.yul\":21188:21274   */\n      swap1\n      pop\n        /* \"#utility.yul\":20566:21281   */\n      swap5\n      swap4\n      pop\n      pop\n      pop\n      pop\n      jump\t// out\n        /* \"#utility.yul\":21287:21373   */\n    tag_251:\n        /* \"#utility.yul\":21322:21329   */\n      0x00\n        /* \"#utility.yul\":21362:21366   */\n      0xff\n        /* \"#utility.yul\":21355:21360   */\n      dup3\n        /* \"#utility.yul\":21351:21367   */\n      and\n        /* \"#utility.yul\":21340:21367   */\n      swap1\n      pop\n        /* \"#utility.yul\":21287:21373   */\n      swap2\n      swap1\n      pop\n      jump\t// out\n        /* \"#utility.yul\":21379:21559   */\n    tag_252:\n        /* \"#utility.yul\":21427:21504   */\n      0x4e487b7100000000000000000000000000000000000000000000000000000000\n        /* \"#utility.yul\":21424:21425   */\n      0x00\n        /* \"#utility.yul\":21417:21505   */\n      mstore\n        /* \"#utility.yul\":21524:21528   */\n      0x11\n        /* \"#utility.yul\":21521:21522   */\n      0x04\n        /* \"#utility.yul\":21514:21529   */\n      mstore\n        /* \"#utility.yul\":21548:21552   */\n      0x24\n        /* \"#utility.yul\":21545:21546   */\n      0x00\n        /* \"#utility.yul\":21538:21553   */\n      revert\n        /* \"#utility.yul\":21565:21753   */\n    tag_135:\n        /* \"#utility.yul\":21603:21606   */\n      0x00\n        /* \"#utility.yul\":21622:21640   */\n      tag_454\n        /* \"#utility.yul\":21638:21639   */\n      dup3\n        /* \"#utility.yul\":21622:21640   */\n      tag_251\n      jump\t// in\n    tag_454:\n        /* \"#utility.yul\":21617:21640   */\n      swap2\n      pop\n        /* \"#utility.yul\":21654:21672   */\n      tag_455\n        /* \"#utility.yul\":21670:21671   */\n      dup4\n        /* \"#utility.yul\":21654:21672   */\n      tag_251\n      jump\t// in\n    tag_455:\n        /* \"#utility.yul\":21649:21672   */\n      swap3\n      pop\n        /* \"#utility.yul\":21695:21696   */\n      dup3\n        /* \"#utility.yul\":21692:21693   */\n      dup3\n        /* \"#utility.yul\":21688:21697   */\n      add\n        /* \"#utility.yul\":21681:21697   */\n      swap1\n      pop\n        /* \"#utility.yul\":21718:21722   */\n      0xff\n        /* \"#utility.yul\":21713:21716   */\n      dup2\n        /* \"#utility.yul\":21710:21723   */\n      gt\n        /* \"#utility.yul\":21707:21746   */\n      iszero\n      tag_456\n      jumpi\n        /* \"#utility.yul\":21726:21744   */\n      tag_457\n      tag_252\n      jump\t// in\n    tag_457:\n        /* \"#utility.yul\":21707:21746   */\n    tag_456:\n        /* \"#utility.yul\":21565:21753   */\n      swap3\n      swap2\n      pop\n      pop\n      jump\t// out\n        /* \"#utility.yul\":21759:21921   */\n    tag_253:\n        /* \"#utility.yul\":21899:21913   */\n      0x496e76616c696420726f6c650000000000000000000000000000000000000000\n        /* \"#utility.yul\":21895:21896   */\n      0x00\n        /* \"#utility.yul\":21887:21893   */\n      dup3\n        /* \"#utility.yul\":21883:21897   */\n      add\n        /* \"#utility.yul\":21876:21914   */\n      mstore\n        /* \"#utility.yul\":21759:21921   */\n      pop\n      jump\t// out\n        /* \"#utility.yul\":21927:22293   */\n    tag_254:\n        /* \"#utility.yul\":22069:22072   */\n      0x00\n        /* \"#utility.yul\":22090:22157   */\n      tag_460\n        /* \"#utility.yul\":22154:22156   */\n      0x0c\n        /* \"#utility.yul\":22149:22152   */\n      dup4\n        /* \"#utility.yul\":22090:22157   */\n      tag_212\n      jump\t// in\n    tag_460:\n        /* \"#utility.yul\":22083:22157   */\n      swap2\n      pop\n        /* \"#utility.yul\":22166:22259   */\n      tag_461\n        /* \"#utility.yul\":22255:22258   */\n      dup3\n        /* \"#utility.yul\":22166:22259   */\n      tag_253\n      jump\t// in\n    tag_461:\n        /* \"#utility.yul\":22284:22286   */\n      0x20\n        /* \"#utility.yul\":22279:22282   */\n      dup3\n        /* \"#utility.yul\":22275:22287   */\n      add\n        /* \"#utility.yul\":22268:22287   */\n      swap1\n      pop\n        /* \"#utility.yul\":21927:22293   */\n      swap2\n      swap1\n      pop\n      jump\t// out\n        /* \"#utility.yul\":22299:22718   */\n    tag_174:\n        /* \"#utility.yul\":22465:22469   */\n      0x00\n        /* \"#utility.yul\":22503:22505   */\n      0x20\n        /* \"#utility.yul\":22492:22501   */\n      dup3\n        /* \"#utility.yul\":22488:22506   */\n      add\n        /* \"#utility.yul\":22480:22506   */\n      swap1\n      pop\n        /* \"#utility.yul\":22552:22561   */\n      dup2\n        /* \"#utility.yul\":22546:22550   */\n      dup2\n        /* \"#utility.yul\":22542:22562   */\n      sub\n        /* \"#utility.yul\":22538:22539   */\n      0x00\n        /* \"#utility.yul\":22527:22536   */\n      dup4\n        /* \"#utility.yul\":22523:22540   */\n      add\n        /* \"#utility.yul\":22516:22563   */\n      mstore\n        /* \"#utility.yul\":22580:22711   */\n      tag_463\n        /* \"#utility.yul\":22706:22710   */\n      dup2\n        /* \"#utility.yul\":22580:22711   */\n      tag_254\n      jump\t// in\n    tag_463:\n        /* \"#utility.yul\":22572:22711   */\n      swap1\n      pop\n        /* \"#utility.yul\":22299:22718   */\n      swap2\n      swap1\n      pop\n      jump\t// out\n        /* \"#utility.yul\":22724:22918   */\n    tag_181:\n        /* \"#utility.yul\":22764:22768   */\n      0x00\n        /* \"#utility.yul\":22784:22804   */\n      tag_465\n        /* \"#utility.yul\":22802:22803   */\n      dup3\n        /* \"#utility.yul\":22784:22804   */\n      tag_239\n      jump\t// in\n    tag_465:\n        /* \"#utility.yul\":22779:22804   */\n      swap2\n      pop\n        /* \"#utility.yul\":22818:22838   */\n      tag_466\n        /* \"#utility.yul\":22836:22837   */\n      dup4\n        /* \"#utility.yul\":22818:22838   */\n      tag_239\n      jump\t// in\n    tag_466:\n        /* \"#utility.yul\":22813:22838   */\n      swap3\n      pop\n        /* \"#utility.yul\":22862:22863   */\n      dup3\n        /* \"#utility.yul\":22859:22860   */\n      dup3\n        /* \"#utility.yul\":22855:22864   */\n      sub\n        /* \"#utility.yul\":22847:22864   */\n      swap1\n      pop\n        /* \"#utility.yul\":22886:22887   */\n      dup2\n        /* \"#utility.yul\":22880:22884   */\n      dup2\n        /* \"#utility.yul\":22877:22888   */\n      gt\n        /* \"#utility.yul\":22874:22911   */\n      iszero\n      tag_467\n      jumpi\n        /* \"#utility.yul\":22891:22909   */\n      tag_468\n      tag_252\n      jump\t// in\n    tag_468:\n        /* \"#utility.yul\":22874:22911   */\n    tag_467:\n        /* \"#utility.yul\":22724:22918   */\n      swap3\n      swap2\n      pop\n      pop\n      jump\t// out\n        /* \"#utility.yul\":22924:23115   */\n    tag_188:\n        /* \"#utility.yul\":22964:22967   */\n      0x00\n        /* \"#utility.yul\":22983:23003   */\n      tag_470\n        /* \"#utility.yul\":23001:23002   */\n      dup3\n        /* \"#utility.yul\":22983:23003   */\n      tag_239\n      jump\t// in\n    tag_470:\n        /* \"#utility.yul\":22978:23003   */\n      swap2\n      pop\n        /* \"#utility.yul\":23017:23037   */\n      tag_471\n        /* \"#utility.yul\":23035:23036   */\n      dup4\n        /* \"#utility.yul\":23017:23037   */\n      tag_239\n      jump\t// in\n    tag_471:\n        /* \"#utility.yul\":23012:23037   */\n      swap3\n      pop\n        /* \"#utility.yul\":23060:23061   */\n      dup3\n        /* \"#utility.yul\":23057:23058   */\n      dup3\n        /* \"#utility.yul\":23053:23062   */\n      add\n        /* \"#utility.yul\":23046:23062   */\n      swap1\n      pop\n        /* \"#utility.yul\":23081:23084   */\n      dup1\n        /* \"#utility.yul\":23078:23079   */\n      dup3\n        /* \"#utility.yul\":23075:23085   */\n      gt\n        /* \"#utility.yul\":23072:23108   */\n      iszero\n      tag_472\n      jumpi\n        /* \"#utility.yul\":23088:23106   */\n      tag_473\n      tag_252\n      jump\t// in\n    tag_473:\n        /* \"#utility.yul\":23072:23108   */\n    tag_472:\n        /* \"#utility.yul\":22924:23115   */\n      swap3\n      swap2\n      pop\n      pop\n      jump\t// out\n        /* \"#utility.yul\":23121:23354   */\n    tag_194:\n        /* \"#utility.yul\":23160:23163   */\n      0x00\n        /* \"#utility.yul\":23183:23207   */\n      tag_475\n        /* \"#utility.yul\":23201:23206   */\n      dup3\n        /* \"#utility.yul\":23183:23207   */\n      tag_239\n      jump\t// in\n    tag_475:\n        /* \"#utility.yul\":23174:23207   */\n      swap2\n      pop\n        /* \"#utility.yul\":23229:23295   */\n      0xffffffffffffffffffffffffffffffffffffffffffffffffffffffffffffffff\n        /* \"#utility.yul\":23222:23227   */\n      dup3\n        /* \"#utility.yul\":23219:23296   */\n      sub\n        /* \"#utility.yul\":23216:23319   */\n      tag_476\n      jumpi\n        /* \"#utility.yul\":23299:23317   */\n      tag_477\n      tag_252\n      jump\t// in\n    tag_477:\n        /* \"#utility.yul\":23216:23319   */\n    tag_476:\n        /* \"#utility.yul\":23346:23347   */\n      0x01\n        /* \"#utility.yul\":23339:23344   */\n      dup3\n        /* \"#utility.yul\":23335:23348   */\n      add\n        /* \"#utility.yul\":23328:23348   */\n      swap1\n      pop\n        /* \"#utility.yul\":23121:23354   */\n      swap2\n      swap1\n      pop\n      jump\t// out\n\n    auxdata: 0xa2646970667358221220bab8e1757a2eecf25f38b635310488e284e5666dccdad71c4892356f3bfb1fec64736f6c634300081a0033\n}\n",
				"bytecode": {
					"linkReferences": {},
					"object": "60806040526040518060c001604052806040518060400160405280600681526020017f616e676f6c61000000000000000000000000000000000000000000000000000081525081526020016040518060400160405280601881526020017f63656e7472616c206166726963616e2072657075626c6963000000000000000081525081526020016040518060400160405280600581526020017f636f6e676f00000000000000000000000000000000000000000000000000000081525081526020016040518060400160405280600681526020017f6775696e6561000000000000000000000000000000000000000000000000000081525081526020016040518060400160405280600781526020017f6c6962657269610000000000000000000000000000000000000000000000000081525081526020016040518060400160405280600c81526020017f736965727261206c656f6e6500000000000000000000000000000000000000008152508152505f90600661017e929190610190565b5034801561018a575f80fd5b5061056b565b828054828255905f5260205f209081019282156101d6579160200282015b828111156101d55782518290816101c5919061049c565b50916020019190600101906101ae565b5b5090506101e391906101e7565b5090565b5b80821115610206575f81816101fd919061020a565b506001016101e8565b5090565b508054610216906102c6565b5f825580601f106102275750610244565b601f0160209004905f5260205f20908101906102439190610247565b5b50565b5b8082111561025e575f815f905550600101610248565b5090565b5f81519050919050565b7f4e487b71000000000000000000000000000000000000000000000000000000005f52604160045260245ffd5b7f4e487b71000000000000000000000000000000000000000000000000000000005f52602260045260245ffd5b5f60028204905060018216806102dd57607f821691505b6020821081036102f0576102ef610299565b5b50919050565b5f819050815f5260205f209050919050565b5f6020601f8301049050919050565b5f82821b905092915050565b5f600883026103527fffffffffffffffffffffffffffffffffffffffffffffffffffffffffffffffff82610317565b61035c8683610317565b95508019841693508086168417925050509392505050565b5f819050919050565b5f819050919050565b5f6103a061039b61039684610374565b61037d565b610374565b9050919050565b5f819050919050565b6103b983610386565b6103cd6103c5826103a7565b848454610323565b825550505050565b5f90565b6103e16103d5565b6103ec8184846103b0565b505050565b5b8181101561040f576104045f826103d9565b6001810190506103f2565b5050565b601f82111561045457610425816102f6565b61042e84610308565b8101602085101561043d578190505b61045161044985610308565b8301826103f1565b50505b505050565b5f82821c905092915050565b5f6104745f1984600802610459565b1980831691505092915050565b5f61048c8383610465565b9150826002028217905092915050565b6104a582610262565b67ffffffffffffffff8111156104be576104bd61026c565b5b6104c882546102c6565b6104d3828285610413565b5f60209050601f831160018114610504575f84156104f2578287015190505b6104fc8582610481565b865550610563565b601f198416610512866102f6565b5f5b8281101561053957848901518255600182019150602085019450602081019050610514565b868310156105565784890151610552601f891682610465565b8355505b6001600288020188555050505b505050505050565b61201c806105785f395ff3fe608060405234801561000f575f80fd5b506004361061003f575f3560e01c80633bd18a9e1461004357806340f385ff1461005f5780636f475e7f14610093575b5f80fd5b61005d600480360381019061005891906114c0565b6100c3565b005b610079600480360381019061007491906115ee565b6104cb565b60405161008a959493929190611693565b60405180910390f35b6100ad60048036038101906100a89190611700565b61076e565b6040516100ba919061173e565b60405180910390f35b5f6100cd83610819565b90506100d881610af7565b610117576040517f08c379a000000000000000000000000000000000000000000000000000000000815260040161010e906117ed565b60405180910390fd5b5f61012185610d24565b905061012c81610ed1565b1561016c576040517f08c379a0000000000000000000000000000000000000000000000000000000008152600401610163906118a1565b60405180910390fd5b60015f3373ffffffffffffffffffffffffffffffffffffffff1673ffffffffffffffffffffffffffffffffffffffff1681526020019081526020015f206002015f9054906101000a900460ff16156101f9576040517f08c379a00000000000000000000000000000000000000000000000000000000081526004016101f090611909565b60405180910390fd5b5f8390505f815111610240576040517f08c379a000000000000000000000000000000000000000000000000000000000815260040161023790611971565b60405180910390fd5b5f61024a84610fbf565b9050807effffffffffffffffffffffffffffffffffffffffffffffffffffffffffffff1916825f815181106102825761028161198f565b5b602001015160f81c60f81b7effffffffffffffffffffffffffffffffffffffffffffffffffffffffffffff19161481856040516020016102c3929190611ad5565b60405160208183030381529060405290610313576040517f08c379a000000000000000000000000000000000000000000000000000000000815260040161030a9190611b12565b60405180910390fd5b506040518060a001604052808981526020018881526020016001151581526020018681526020018581525060015f3373ffffffffffffffffffffffffffffffffffffffff1673ffffffffffffffffffffffffffffffffffffffff1681526020019081526020015f205f820151815f01908161038e9190611d35565b5060208201518160010190816103a49190611d35565b506040820151816002015f6101000a81548160ff02191690831515021790555060608201518160030190816103d99190611d35565b5060808201518160040190816103ef9190611d35565b509050506002846040516104039190611e04565b908152602001604051809103902033908060018154018082558091505060019003905f5260205f20015f9091909190916101000a81548173ffffffffffffffffffffffffffffffffffffffff021916908373ffffffffffffffffffffffffffffffffffffffff1602179055503373ffffffffffffffffffffffffffffffffffffffff167fca394e3b41e2aa37469125c136278e21cebaf3ca7e3fdfc9d07c64740a292ff58986886040516104b993929190611e1a565b60405180910390a25050505050505050565b6060805f6060805f60015f8873ffffffffffffffffffffffffffffffffffffffff1673ffffffffffffffffffffffffffffffffffffffff1681526020019081526020015f209050805f0181600101826002015f9054906101000a900460ff16836003018460040184805461053e90611b5f565b80601f016020809104026020016040519081016040528092919081815260200182805461056a90611b5f565b80156105b55780601f1061058c576101008083540402835291602001916105b5565b820191905f5260205f20905b81548152906001019060200180831161059857829003601f168201915b505050505094508380546105c890611b5f565b80601f01602080910402602001604051908101604052809291908181526020018280546105f490611b5f565b801561063f5780601f106106165761010080835404028352916020019161063f565b820191905f5260205f20905b81548152906001019060200180831161062257829003601f168201915b5050505050935081805461065290611b5f565b80601f016020809104026020016040519081016040528092919081815260200182805461067e90611b5f565b80156106c95780601f106106a0576101008083540402835291602001916106c9565b820191905f5260205f20905b8154815290600101906020018083116106ac57829003601f168201915b505050505091508080546106dc90611b5f565b80601f016020809104026020016040519081016040528092919081815260200182805461070890611b5f565b80156107535780601f1061072a57610100808354040283529160200191610753565b820191905f5260205f20905b81548152906001019060200180831161073657829003601f168201915b50505050509050955095509550955095505091939590929450565b5f60015f8473ffffffffffffffffffffffffffffffffffffffff1673ffffffffffffffffffffffffffffffffffffffff1681526020019081526020015f206002015f9054906101000a900460ff168015610811575060015f8373ffffffffffffffffffffffffffffffffffffffff1673ffffffffffffffffffffffffffffffffffffffff1681526020019081526020015f206002015f9054906101000a900460ff165b905092915050565b60605f61082583610d24565b6040516020016108359190611e04565b60405160208183030381529060405280519060200120905061088b6040518060400160405280600581526020017f4d696e6572000000000000000000000000000000000000000000000000000000815250610d24565b60405160200161089b9190611e04565b6040516020818303038152906040528051906020012081036108f5576040518060400160405280600581526020017f4d696e6572000000000000000000000000000000000000000000000000000000815250915050610af2565b6109336040518060400160405280600c81526020017f4d616e7566616374757265720000000000000000000000000000000000000000815250610d24565b6040516020016109439190611e04565b60405160208183030381529060405280519060200120810361099d576040518060400160405280600c81526020017f4d616e7566616374757265720000000000000000000000000000000000000000815250915050610af2565b6109db6040518060400160405280600981526020017f4365727469666965720000000000000000000000000000000000000000000000815250610d24565b6040516020016109eb9190611e04565b604051602081830303815290604052805190602001208103610a45576040518060400160405280600981526020017f4365727469666965720000000000000000000000000000000000000000000000815250915050610af2565b610a836040518060400160405280600881526020017f52657461696c6572000000000000000000000000000000000000000000000000815250610d24565b604051602001610a939190611e04565b604051602081830303815290604052805190602001208103610aed576040518060400160405280600881526020017f52657461696c6572000000000000000000000000000000000000000000000000815250915050610af2565b829150505b919050565b5f6040518060400160405280600581526020017f4d696e6572000000000000000000000000000000000000000000000000000000815250604051602001610b3e9190611e04565b6040516020818303038152906040528051906020012082604051602001610b659190611e04565b604051602081830303815290604052805190602001201480610c0757506040518060400160405280600c81526020017f4d616e7566616374757265720000000000000000000000000000000000000000815250604051602001610bc89190611e04565b6040516020818303038152906040528051906020012082604051602001610bef9190611e04565b60405160208183030381529060405280519060200120145b80610c9257506040518060400160405280600981526020017f4365727469666965720000000000000000000000000000000000000000000000815250604051602001610c539190611e04565b6040516020818303038152906040528051906020012082604051602001610c7a9190611e04565b60405160208183030381529060405280519060200120145b80610d1d57506040518060400160405280600881526020017f52657461696c6572000000000000000000000000000000000000000000000000815250604051602001610cde9190611e04565b6040516020818303038152906040528051906020012082604051602001610d059190611e04565b60405160208183030381529060405280519060200120145b9050919050565b60605f8290505f815167ffffffffffffffff811115610d4657610d4561139c565b5b6040519080825280601f01601f191660200182016040528015610d785781602001600182028036833780820191505090505b5090505f5b8251811015610ec6576041838281518110610d9b57610d9a61198f565b5b602001015160f81c60f81b60f81c60ff1610158015610dde5750605a838281518110610dca57610dc961198f565b5b602001015160f81c60f81b60f81c60ff1611155b15610e59576020838281518110610df857610df761198f565b5b602001015160f81c60f81b60f81c610e109190611e9d565b60f81b828281518110610e2657610e2561198f565b5b60200101907effffffffffffffffffffffffffffffffffffffffffffffffffffffffffffff191690815f1a905350610eb9565b828181518110610e6c57610e6b61198f565b5b602001015160f81c60f81b828281518110610e8a57610e8961198f565b5b60200101907effffffffffffffffffffffffffffffffffffffffffffffffffffffffffffff191690815f1a9053505b8080600101915050610d7d565b508092505050919050565b5f80610edc83610d24565b90505f5b5f80549050811015610fb457610f97825f8381548110610f0357610f0261198f565b5b905f5260205f20018054610f1690611b5f565b80601f0160208091040260200160405190810160405280929190818152602001828054610f4290611b5f565b8015610f8d5780601f10610f6457610100808354040283529160200191610f8d565b820191905f5260205f20905b815481529060010190602001808311610f7057829003601f168201915b5050505050611256565b15610fa757600192505050610fba565b8080600101915050610ee0565b505f9150505b919050565b5f8082604051602001610fd29190611e04565b6040516020818303038152906040528051906020012090506040518060400160405280600581526020017f4d696e65720000000000000000000000000000000000000000000000000000008152506040516020016110309190611e04565b604051602081830303815290604052805190602001208103611075577f6100000000000000000000000000000000000000000000000000000000000000915050611251565b6040518060400160405280600c81526020017f4d616e75666163747572657200000000000000000000000000000000000000008152506040516020016110bb9190611e04565b604051602081830303815290604052805190602001208103611100577f6200000000000000000000000000000000000000000000000000000000000000915050611251565b6040518060400160405280600981526020017f43657274696669657200000000000000000000000000000000000000000000008152506040516020016111469190611e04565b60405160208183030381529060405280519060200120810361118b577f6300000000000000000000000000000000000000000000000000000000000000915050611251565b6040518060400160405280600881526020017f52657461696c65720000000000000000000000000000000000000000000000008152506040516020016111d19190611e04565b604051602081830303815290604052805190602001208103611216577f6400000000000000000000000000000000000000000000000000000000000000915050611251565b6040517f08c379a000000000000000000000000000000000000000000000000000000000815260040161124890611f1b565b60405180910390fd5b919050565b5f808390505f839050815181511115611273575f9250505061136d565b5f5b815183516112839190611f39565b8111611366575f600190505f5b835181101561133e578381815181106112ac576112ab61198f565b5b602001015160f81c60f81b7effffffffffffffffffffffffffffffffffffffffffffffffffffffffffffff19168582856112e69190611f6c565b815181106112f7576112f661198f565b5b602001015160f81c60f81b7effffffffffffffffffffffffffffffffffffffffffffffffffffffffffffff191614611331575f915061133e565b8080600101915050611290565b50801561135257600194505050505061136d565b50808061135e90611f9f565b915050611275565b505f925050505b92915050565b5f604051905090565b5f80fd5b5f80fd5b5f80fd5b5f80fd5b5f601f19601f8301169050919050565b7f4e487b71000000000000000000000000000000000000000000000000000000005f52604160045260245ffd5b6113d28261138c565b810181811067ffffffffffffffff821117156113f1576113f061139c565b5b80604052505050565b5f611403611373565b905061140f82826113c9565b919050565b5f67ffffffffffffffff82111561142e5761142d61139c565b5b6114378261138c565b9050602081019050919050565b828183375f83830152505050565b5f61146461145f84611414565b6113fa565b9050828152602081018484840111156114805761147f611388565b5b61148b848285611444565b509392505050565b5f82601f8301126114a7576114a6611384565b5b81356114b7848260208601611452565b91505092915050565b5f805f80608085870312156114d8576114d761137c565b5b5f85013567ffffffffffffffff8111156114f5576114f4611380565b5b61150187828801611493565b945050602085013567ffffffffffffffff81111561152257611521611380565b5b61152e87828801611493565b935050604085013567ffffffffffffffff81111561154f5761154e611380565b5b61155b87828801611493565b925050606085013567ffffffffffffffff81111561157c5761157b611380565b5b61158887828801611493565b91505092959194509250565b5f73ffffffffffffffffffffffffffffffffffffffff82169050919050565b5f6115bd82611594565b9050919050565b6115cd816115b3565b81146115d7575f80fd5b50565b5f813590506115e8816115c4565b92915050565b5f602082840312156116035761160261137c565b5b5f611610848285016115da565b91505092915050565b5f81519050919050565b5f82825260208201905092915050565b8281835e5f83830152505050565b5f61164b82611619565b6116558185611623565b9350611665818560208601611633565b61166e8161138c565b840191505092915050565b5f8115159050919050565b61168d81611679565b82525050565b5f60a0820190508181035f8301526116ab8188611641565b905081810360208301526116bf8187611641565b90506116ce6040830186611684565b81810360608301526116e08185611641565b905081810360808301526116f48184611641565b90509695505050505050565b5f80604083850312156117165761171561137c565b5b5f611723858286016115da565b9250506020611734858286016115da565b9150509250929050565b5f6020820190506117515f830184611684565b92915050565b7f496e76616c696420726f6c652e204d757374206265204d696e65722c204d616e5f8201527f7566616374757265722c204365727469666965722c206f722052657461696c6560208201527f7200000000000000000000000000000000000000000000000000000000000000604082015250565b5f6117d7604183611623565b91506117e282611757565b606082019050919050565b5f6020820190508181035f830152611804816117cb565b9050919050565b7f526567697374726174696f6e2072656a65637465643a204c6f636174696f6e205f8201527f697320696e206120636f6e666c696374207a6f6e652062616e6e65642062792060208201527f746865204b696d6265726c65792050726f636573730000000000000000000000604082015250565b5f61188b605583611623565b91506118968261180b565b606082019050919050565b5f6020820190508181035f8301526118b88161187f565b9050919050565b7f456e7469747920616c72656164792072656769737465726564000000000000005f82015250565b5f6118f3601983611623565b91506118fe826118bf565b602082019050919050565b5f6020820190508181035f830152611920816118e7565b9050919050565b7f4c6963656e7365206e756d6265722063616e6e6f7420626520656d70747900005f82015250565b5f61195b601e83611623565b915061196682611927565b602082019050919050565b5f6020820190508181035f8301526119888161194f565b9050919050565b7f4e487b71000000000000000000000000000000000000000000000000000000005f52603260045260245ffd5b5f81905092915050565b7f4c6963656e7365206d75737420737461727420776974682027000000000000005f82015250565b5f6119fa6019836119bc565b9150611a05826119c6565b601982019050919050565b5f7fff0000000000000000000000000000000000000000000000000000000000000082169050919050565b5f819050919050565b611a55611a5082611a10565b611a3b565b82525050565b7f2720666f722000000000000000000000000000000000000000000000000000005f82015250565b5f611a8f6006836119bc565b9150611a9a82611a5b565b600682019050919050565b5f611aaf82611619565b611ab981856119bc565b9350611ac9818560208601611633565b80840191505092915050565b5f611adf826119ee565b9150611aeb8285611a44565b600182019150611afa82611a83565b9150611b068284611aa5565b91508190509392505050565b5f6020820190508181035f830152611b2a8184611641565b905092915050565b7f4e487b71000000000000000000000000000000000000000000000000000000005f52602260045260245ffd5b5f6002820490506001821680611b7657607f821691505b602082108103611b8957611b88611b32565b5b50919050565b5f819050815f5260205f209050919050565b5f6020601f8301049050919050565b5f82821b905092915050565b5f60088302611beb7fffffffffffffffffffffffffffffffffffffffffffffffffffffffffffffffff82611bb0565b611bf58683611bb0565b95508019841693508086168417925050509392505050565b5f819050919050565b5f819050919050565b5f611c39611c34611c2f84611c0d565b611c16565b611c0d565b9050919050565b5f819050919050565b611c5283611c1f565b611c66611c5e82611c40565b848454611bbc565b825550505050565b5f90565b611c7a611c6e565b611c85818484611c49565b505050565b5b81811015611ca857611c9d5f82611c72565b600181019050611c8b565b5050565b601f821115611ced57611cbe81611b8f565b611cc784611ba1565b81016020851015611cd6578190505b611cea611ce285611ba1565b830182611c8a565b50505b505050565b5f82821c905092915050565b5f611d0d5f1984600802611cf2565b1980831691505092915050565b5f611d258383611cfe565b9150826002028217905092915050565b611d3e82611619565b67ffffffffffffffff811115611d5757611d5661139c565b5b611d618254611b5f565b611d6c828285611cac565b5f60209050601f831160018114611d9d575f8415611d8b578287015190505b611d958582611d1a565b865550611dfc565b601f198416611dab86611b8f565b5f5b82811015611dd257848901518255600182019150602085019450602081019050611dad565b86831015611def5784890151611deb601f891682611cfe565b8355505b6001600288020188555050505b505050505050565b5f611e0f8284611aa5565b915081905092915050565b5f6060820190508181035f830152611e328186611641565b90508181036020830152611e468185611641565b90508181036040830152611e5a8184611641565b9050949350505050565b5f60ff82169050919050565b7f4e487b71000000000000000000000000000000000000000000000000000000005f52601160045260245ffd5b5f611ea782611e64565b9150611eb283611e64565b9250828201905060ff811115611ecb57611eca611e70565b5b92915050565b7f496e76616c696420726f6c6500000000000000000000000000000000000000005f82015250565b5f611f05600c83611623565b9150611f1082611ed1565b602082019050919050565b5f6020820190508181035f830152611f3281611ef9565b9050919050565b5f611f4382611c0d565b9150611f4e83611c0d565b9250828203905081811115611f6657611f65611e70565b5b92915050565b5f611f7682611c0d565b9150611f8183611c0d565b9250828201905080821115611f9957611f98611e70565b5b92915050565b5f611fa982611c0d565b91507fffffffffffffffffffffffffffffffffffffffffffffffffffffffffffffffff8203611fdb57611fda611e70565b5b60018201905091905056fea2646970667358221220bab8e1757a2eecf25f38b635310488e284e5666dccdad71c4892356f3bfb1fec64736f6c634300081a0033",
					"opcodes": "PUSH1 0x80 PUSH1 0x40 MSTORE PUSH1 0x40 MLOAD DUP1 PUSH1 0xC0 ADD PUSH1 0x40 MSTORE DUP1 PUSH1 0x40 MLOAD DUP1 PUSH1 0x40 ADD PUSH1 0x40 MSTORE DUP1 PUSH1 0x6 DUP2 MSTORE PUSH1 0x20 ADD PUSH32 0x616E676F6C610000000000000000000000000000000000000000000000000000 DUP2 MSTORE POP DUP2 MSTORE PUSH1 0x20 ADD PUSH1 0x40 MLOAD DUP1 PUSH1 0x40 ADD PUSH1 0x40 MSTORE DUP1 PUSH1 0x18 DUP2 MSTORE PUSH1 0x20 ADD PUSH32 0x63656E7472616C206166726963616E2072657075626C69630000000000000000 DUP2 MSTORE POP DUP2 MSTORE PUSH1 0x20 ADD PUSH1 0x40 MLOAD DUP1 PUSH1 0x40 ADD PUSH1 0x40 MSTORE DUP1 PUSH1 0x5 DUP2 MSTORE PUSH1 0x20 ADD PUSH32 0x636F6E676F000000000000000000000000000000000000000000000000000000 DUP2 MSTORE POP DUP2 MSTORE PUSH1 0x20 ADD PUSH1 0x40 MLOAD DUP1 PUSH1 0x40 ADD PUSH1 0x40 MSTORE DUP1 PUSH1 0x6 DUP2 MSTORE PUSH1 0x20 ADD PUSH32 0x6775696E65610000000000000000000000000000000000000000000000000000 DUP2 MSTORE POP DUP2 MSTORE PUSH1 0x20 ADD PUSH1 0x40 MLOAD DUP1 PUSH1 0x40 ADD PUSH1 0x40 MSTORE DUP1 PUSH1 0x7 DUP2 MSTORE PUSH1 0x20 ADD PUSH32 0x6C69626572696100000000000000000000000000000000000000000000000000 DUP2 MSTORE POP DUP2 MSTORE PUSH1 0x20 ADD PUSH1 0x40 MLOAD DUP1 PUSH1 0x40 ADD PUSH1 0x40 MSTORE DUP1 PUSH1 0xC DUP2 MSTORE PUSH1 0x20 ADD PUSH32 0x736965727261206C656F6E650000000000000000000000000000000000000000 DUP2 MSTORE POP DUP2 MSTORE POP PUSH0 SWAP1 PUSH1 0x6 PUSH2 0x17E SWAP3 SWAP2 SWAP1 PUSH2 0x190 JUMP JUMPDEST POP CALLVALUE DUP1 ISZERO PUSH2 0x18A JUMPI PUSH0 DUP1 REVERT JUMPDEST POP PUSH2 0x56B JUMP JUMPDEST DUP3 DUP1 SLOAD DUP3 DUP3 SSTORE SWAP1 PUSH0 MSTORE PUSH1 0x20 PUSH0 KECCAK256 SWAP1 DUP2 ADD SWAP3 DUP3 ISZERO PUSH2 0x1D6 JUMPI SWAP2 PUSH1 0x20 MUL DUP3 ADD JUMPDEST DUP3 DUP2 GT ISZERO PUSH2 0x1D5 JUMPI DUP3 MLOAD DUP3 SWAP1 DUP2 PUSH2 0x1C5 SWAP2 SWAP1 PUSH2 0x49C JUMP JUMPDEST POP SWAP2 PUSH1 0x20 ADD SWAP2 SWAP1 PUSH1 0x1 ADD SWAP1 PUSH2 0x1AE JUMP JUMPDEST JUMPDEST POP SWAP1 POP PUSH2 0x1E3 SWAP2 SWAP1 PUSH2 0x1E7 JUMP JUMPDEST POP SWAP1 JUMP JUMPDEST JUMPDEST DUP1 DUP3 GT ISZERO PUSH2 0x206 JUMPI PUSH0 DUP2 DUP2 PUSH2 0x1FD SWAP2 SWAP1 PUSH2 0x20A JUMP JUMPDEST POP PUSH1 0x1 ADD PUSH2 0x1E8 JUMP JUMPDEST POP SWAP1 JUMP JUMPDEST POP DUP1 SLOAD PUSH2 0x216 SWAP1 PUSH2 0x2C6 JUMP JUMPDEST PUSH0 DUP3 SSTORE DUP1 PUSH1 0x1F LT PUSH2 0x227 JUMPI POP PUSH2 0x244 JUMP JUMPDEST PUSH1 0x1F ADD PUSH1 0x20 SWAP1 DIV SWAP1 PUSH0 MSTORE PUSH1 0x20 PUSH0 KECCAK256 SWAP1 DUP2 ADD SWAP1 PUSH2 0x243 SWAP2 SWAP1 PUSH2 0x247 JUMP JUMPDEST JUMPDEST POP JUMP JUMPDEST JUMPDEST DUP1 DUP3 GT ISZERO PUSH2 0x25E JUMPI PUSH0 DUP2 PUSH0 SWAP1 SSTORE POP PUSH1 0x1 ADD PUSH2 0x248 JUMP JUMPDEST POP SWAP1 JUMP JUMPDEST PUSH0 DUP2 MLOAD SWAP1 POP SWAP2 SWAP1 POP JUMP JUMPDEST PUSH32 0x4E487B7100000000000000000000000000000000000000000000000000000000 PUSH0 MSTORE PUSH1 0x41 PUSH1 0x4 MSTORE PUSH1 0x24 PUSH0 REVERT JUMPDEST PUSH32 0x4E487B7100000000000000000000000000000000000000000000000000000000 PUSH0 MSTORE PUSH1 0x22 PUSH1 0x4 MSTORE PUSH1 0x24 PUSH0 REVERT JUMPDEST PUSH0 PUSH1 0x2 DUP3 DIV SWAP1 POP PUSH1 0x1 DUP3 AND DUP1 PUSH2 0x2DD JUMPI PUSH1 0x7F DUP3 AND SWAP2 POP JUMPDEST PUSH1 0x20 DUP3 LT DUP2 SUB PUSH2 0x2F0 JUMPI PUSH2 0x2EF PUSH2 0x299 JUMP JUMPDEST JUMPDEST POP SWAP2 SWAP1 POP JUMP JUMPDEST PUSH0 DUP2 SWAP1 POP DUP2 PUSH0 MSTORE PUSH1 0x20 PUSH0 KECCAK256 SWAP1 POP SWAP2 SWAP1 POP JUMP JUMPDEST PUSH0 PUSH1 0x20 PUSH1 0x1F DUP4 ADD DIV SWAP1 POP SWAP2 SWAP1 POP JUMP JUMPDEST PUSH0 DUP3 DUP3 SHL SWAP1 POP SWAP3 SWAP2 POP POP JUMP JUMPDEST PUSH0 PUSH1 0x8 DUP4 MUL PUSH2 0x352 PUSH32 0xFFFFFFFFFFFFFFFFFFFFFFFFFFFFFFFFFFFFFFFFFFFFFFFFFFFFFFFFFFFFFFFF DUP3 PUSH2 0x317 JUMP JUMPDEST PUSH2 0x35C DUP7 DUP4 PUSH2 0x317 JUMP JUMPDEST SWAP6 POP DUP1 NOT DUP5 AND SWAP4 POP DUP1 DUP7 AND DUP5 OR SWAP3 POP POP POP SWAP4 SWAP3 POP POP POP JUMP JUMPDEST PUSH0 DUP2 SWAP1 POP SWAP2 SWAP1 POP JUMP JUMPDEST PUSH0 DUP2 SWAP1 POP SWAP2 SWAP1 POP JUMP JUMPDEST PUSH0 PUSH2 0x3A0 PUSH2 0x39B PUSH2 0x396 DUP5 PUSH2 0x374 JUMP JUMPDEST PUSH2 0x37D JUMP JUMPDEST PUSH2 0x374 JUMP JUMPDEST SWAP1 POP SWAP2 SWAP1 POP JUMP JUMPDEST PUSH0 DUP2 SWAP1 POP SWAP2 SWAP1 POP JUMP JUMPDEST PUSH2 0x3B9 DUP4 PUSH2 0x386 JUMP JUMPDEST PUSH2 0x3CD PUSH2 0x3C5 DUP3 PUSH2 0x3A7 JUMP JUMPDEST DUP5 DUP5 SLOAD PUSH2 0x323 JUMP JUMPDEST DUP3 SSTORE POP POP POP POP JUMP JUMPDEST PUSH0 SWAP1 JUMP JUMPDEST PUSH2 0x3E1 PUSH2 0x3D5 JUMP JUMPDEST PUSH2 0x3EC DUP2 DUP5 DUP5 PUSH2 0x3B0 JUMP JUMPDEST POP POP POP JUMP JUMPDEST JUMPDEST DUP2 DUP2 LT ISZERO PUSH2 0x40F JUMPI PUSH2 0x404 PUSH0 DUP3 PUSH2 0x3D9 JUMP JUMPDEST PUSH1 0x1 DUP2 ADD SWAP1 POP PUSH2 0x3F2 JUMP JUMPDEST POP POP JUMP JUMPDEST PUSH1 0x1F DUP3 GT ISZERO PUSH2 0x454 JUMPI PUSH2 0x425 DUP2 PUSH2 0x2F6 JUMP JUMPDEST PUSH2 0x42E DUP5 PUSH2 0x308 JUMP JUMPDEST DUP2 ADD PUSH1 0x20 DUP6 LT ISZERO PUSH2 0x43D JUMPI DUP2 SWAP1 POP JUMPDEST PUSH2 0x451 PUSH2 0x449 DUP6 PUSH2 0x308 JUMP JUMPDEST DUP4 ADD DUP3 PUSH2 0x3F1 JUMP JUMPDEST POP POP JUMPDEST POP POP POP JUMP JUMPDEST PUSH0 DUP3 DUP3 SHR SWAP1 POP SWAP3 SWAP2 POP POP JUMP JUMPDEST PUSH0 PUSH2 0x474 PUSH0 NOT DUP5 PUSH1 0x8 MUL PUSH2 0x459 JUMP JUMPDEST NOT DUP1 DUP4 AND SWAP2 POP POP SWAP3 SWAP2 POP POP JUMP JUMPDEST PUSH0 PUSH2 0x48C DUP4 DUP4 PUSH2 0x465 JUMP JUMPDEST SWAP2 POP DUP3 PUSH1 0x2 MUL DUP3 OR SWAP1 POP SWAP3 SWAP2 POP POP JUMP JUMPDEST PUSH2 0x4A5 DUP3 PUSH2 0x262 JUMP JUMPDEST PUSH8 0xFFFFFFFFFFFFFFFF DUP2 GT ISZERO PUSH2 0x4BE JUMPI PUSH2 0x4BD PUSH2 0x26C JUMP JUMPDEST JUMPDEST PUSH2 0x4C8 DUP3 SLOAD PUSH2 0x2C6 JUMP JUMPDEST PUSH2 0x4D3 DUP3 DUP3 DUP6 PUSH2 0x413 JUMP JUMPDEST PUSH0 PUSH1 0x20 SWAP1 POP PUSH1 0x1F DUP4 GT PUSH1 0x1 DUP2 EQ PUSH2 0x504 JUMPI PUSH0 DUP5 ISZERO PUSH2 0x4F2 JUMPI DUP3 DUP8 ADD MLOAD SWAP1 POP JUMPDEST PUSH2 0x4FC DUP6 DUP3 PUSH2 0x481 JUMP JUMPDEST DUP7 SSTORE POP PUSH2 0x563 JUMP JUMPDEST PUSH1 0x1F NOT DUP5 AND PUSH2 0x512 DUP7 PUSH2 0x2F6 JUMP JUMPDEST PUSH0 JUMPDEST DUP3 DUP2 LT ISZERO PUSH2 0x539 JUMPI DUP5 DUP10 ADD MLOAD DUP3 SSTORE PUSH1 0x1 DUP3 ADD SWAP2 POP PUSH1 0x20 DUP6 ADD SWAP5 POP PUSH1 0x20 DUP2 ADD SWAP1 POP PUSH2 0x514 JUMP JUMPDEST DUP7 DUP4 LT ISZERO PUSH2 0x556 JUMPI DUP5 DUP10 ADD MLOAD PUSH2 0x552 PUSH1 0x1F DUP10 AND DUP3 PUSH2 0x465 JUMP JUMPDEST DUP4 SSTORE POP JUMPDEST PUSH1 0x1 PUSH1 0x2 DUP9 MUL ADD DUP9 SSTORE POP POP POP JUMPDEST POP POP POP POP POP POP JUMP JUMPDEST PUSH2 0x201C DUP1 PUSH2 0x578 PUSH0 CODECOPY PUSH0 RETURN INVALID PUSH1 0x80 PUSH1 0x40 MSTORE CALLVALUE DUP1 ISZERO PUSH2 0xF JUMPI PUSH0 DUP1 REVERT JUMPDEST POP PUSH1 0x4 CALLDATASIZE LT PUSH2 0x3F JUMPI PUSH0 CALLDATALOAD PUSH1 0xE0 SHR DUP1 PUSH4 0x3BD18A9E EQ PUSH2 0x43 JUMPI DUP1 PUSH4 0x40F385FF EQ PUSH2 0x5F JUMPI DUP1 PUSH4 0x6F475E7F EQ PUSH2 0x93 JUMPI JUMPDEST PUSH0 DUP1 REVERT JUMPDEST PUSH2 0x5D PUSH1 0x4 DUP1 CALLDATASIZE SUB DUP2 ADD SWAP1 PUSH2 0x58 SWAP2 SWAP1 PUSH2 0x14C0 JUMP JUMPDEST PUSH2 0xC3 JUMP JUMPDEST STOP JUMPDEST PUSH2 0x79 PUSH1 0x4 DUP1 CALLDATASIZE SUB DUP2 ADD SWAP1 PUSH2 0x74 SWAP2 SWAP1 PUSH2 0x15EE JUMP JUMPDEST PUSH2 0x4CB JUMP JUMPDEST PUSH1 0x40 MLOAD PUSH2 0x8A SWAP6 SWAP5 SWAP4 SWAP3 SWAP2 SWAP1 PUSH2 0x1693 JUMP JUMPDEST PUSH1 0x40 MLOAD DUP1 SWAP2 SUB SWAP1 RETURN JUMPDEST PUSH2 0xAD PUSH1 0x4 DUP1 CALLDATASIZE SUB DUP2 ADD SWAP1 PUSH2 0xA8 SWAP2 SWAP1 PUSH2 0x1700 JUMP JUMPDEST PUSH2 0x76E JUMP JUMPDEST PUSH1 0x40 MLOAD PUSH2 0xBA SWAP2 SWAP1 PUSH2 0x173E JUMP JUMPDEST PUSH1 0x40 MLOAD DUP1 SWAP2 SUB SWAP1 RETURN JUMPDEST PUSH0 PUSH2 0xCD DUP4 PUSH2 0x819 JUMP JUMPDEST SWAP1 POP PUSH2 0xD8 DUP2 PUSH2 0xAF7 JUMP JUMPDEST PUSH2 0x117 JUMPI PUSH1 0x40 MLOAD PUSH32 0x8C379A000000000000000000000000000000000000000000000000000000000 DUP2 MSTORE PUSH1 0x4 ADD PUSH2 0x10E SWAP1 PUSH2 0x17ED JUMP JUMPDEST PUSH1 0x40 MLOAD DUP1 SWAP2 SUB SWAP1 REVERT JUMPDEST PUSH0 PUSH2 0x121 DUP6 PUSH2 0xD24 JUMP JUMPDEST SWAP1 POP PUSH2 0x12C DUP2 PUSH2 0xED1 JUMP JUMPDEST ISZERO PUSH2 0x16C JUMPI PUSH1 0x40 MLOAD PUSH32 0x8C379A000000000000000000000000000000000000000000000000000000000 DUP2 MSTORE PUSH1 0x4 ADD PUSH2 0x163 SWAP1 PUSH2 0x18A1 JUMP JUMPDEST PUSH1 0x40 MLOAD DUP1 SWAP2 SUB SWAP1 REVERT JUMPDEST PUSH1 0x1 PUSH0 CALLER PUSH20 0xFFFFFFFFFFFFFFFFFFFFFFFFFFFFFFFFFFFFFFFF AND PUSH20 0xFFFFFFFFFFFFFFFFFFFFFFFFFFFFFFFFFFFFFFFF AND DUP2 MSTORE PUSH1 0x20 ADD SWAP1 DUP2 MSTORE PUSH1 0x20 ADD PUSH0 KECCAK256 PUSH1 0x2 ADD PUSH0 SWAP1 SLOAD SWAP1 PUSH2 0x100 EXP SWAP1 DIV PUSH1 0xFF AND ISZERO PUSH2 0x1F9 JUMPI PUSH1 0x40 MLOAD PUSH32 0x8C379A000000000000000000000000000000000000000000000000000000000 DUP2 MSTORE PUSH1 0x4 ADD PUSH2 0x1F0 SWAP1 PUSH2 0x1909 JUMP JUMPDEST PUSH1 0x40 MLOAD DUP1 SWAP2 SUB SWAP1 REVERT JUMPDEST PUSH0 DUP4 SWAP1 POP PUSH0 DUP2 MLOAD GT PUSH2 0x240 JUMPI PUSH1 0x40 MLOAD PUSH32 0x8C379A000000000000000000000000000000000000000000000000000000000 DUP2 MSTORE PUSH1 0x4 ADD PUSH2 0x237 SWAP1 PUSH2 0x1971 JUMP JUMPDEST PUSH1 0x40 MLOAD DUP1 SWAP2 SUB SWAP1 REVERT JUMPDEST PUSH0 PUSH2 0x24A DUP5 PUSH2 0xFBF JUMP JUMPDEST SWAP1 POP DUP1 PUSH31 0xFFFFFFFFFFFFFFFFFFFFFFFFFFFFFFFFFFFFFFFFFFFFFFFFFFFFFFFFFFFFFF NOT AND DUP3 PUSH0 DUP2 MLOAD DUP2 LT PUSH2 0x282 JUMPI PUSH2 0x281 PUSH2 0x198F JUMP JUMPDEST JUMPDEST PUSH1 0x20 ADD ADD MLOAD PUSH1 0xF8 SHR PUSH1 0xF8 SHL PUSH31 0xFFFFFFFFFFFFFFFFFFFFFFFFFFFFFFFFFFFFFFFFFFFFFFFFFFFFFFFFFFFFFF NOT AND EQ DUP2 DUP6 PUSH1 0x40 MLOAD PUSH1 0x20 ADD PUSH2 0x2C3 SWAP3 SWAP2 SWAP1 PUSH2 0x1AD5 JUMP JUMPDEST PUSH1 0x40 MLOAD PUSH1 0x20 DUP2 DUP4 SUB SUB DUP2 MSTORE SWAP1 PUSH1 0x40 MSTORE SWAP1 PUSH2 0x313 JUMPI PUSH1 0x40 MLOAD PUSH32 0x8C379A000000000000000000000000000000000000000000000000000000000 DUP2 MSTORE PUSH1 0x4 ADD PUSH2 0x30A SWAP2 SWAP1 PUSH2 0x1B12 JUMP JUMPDEST PUSH1 0x40 MLOAD DUP1 SWAP2 SUB SWAP1 REVERT JUMPDEST POP PUSH1 0x40 MLOAD DUP1 PUSH1 0xA0 ADD PUSH1 0x40 MSTORE DUP1 DUP10 DUP2 MSTORE PUSH1 0x20 ADD DUP9 DUP2 MSTORE PUSH1 0x20 ADD PUSH1 0x1 ISZERO ISZERO DUP2 MSTORE PUSH1 0x20 ADD DUP7 DUP2 MSTORE PUSH1 0x20 ADD DUP6 DUP2 MSTORE POP PUSH1 0x1 PUSH0 CALLER PUSH20 0xFFFFFFFFFFFFFFFFFFFFFFFFFFFFFFFFFFFFFFFF AND PUSH20 0xFFFFFFFFFFFFFFFFFFFFFFFFFFFFFFFFFFFFFFFF AND DUP2 MSTORE PUSH1 0x20 ADD SWAP1 DUP2 MSTORE PUSH1 0x20 ADD PUSH0 KECCAK256 PUSH0 DUP3 ADD MLOAD DUP2 PUSH0 ADD SWAP1 DUP2 PUSH2 0x38E SWAP2 SWAP1 PUSH2 0x1D35 JUMP JUMPDEST POP PUSH1 0x20 DUP3 ADD MLOAD DUP2 PUSH1 0x1 ADD SWAP1 DUP2 PUSH2 0x3A4 SWAP2 SWAP1 PUSH2 0x1D35 JUMP JUMPDEST POP PUSH1 0x40 DUP3 ADD MLOAD DUP2 PUSH1 0x2 ADD PUSH0 PUSH2 0x100 EXP DUP2 SLOAD DUP2 PUSH1 0xFF MUL NOT AND SWAP1 DUP4 ISZERO ISZERO MUL OR SWAP1 SSTORE POP PUSH1 0x60 DUP3 ADD MLOAD DUP2 PUSH1 0x3 ADD SWAP1 DUP2 PUSH2 0x3D9 SWAP2 SWAP1 PUSH2 0x1D35 JUMP JUMPDEST POP PUSH1 0x80 DUP3 ADD MLOAD DUP2 PUSH1 0x4 ADD SWAP1 DUP2 PUSH2 0x3EF SWAP2 SWAP1 PUSH2 0x1D35 JUMP JUMPDEST POP SWAP1 POP POP PUSH1 0x2 DUP5 PUSH1 0x40 MLOAD PUSH2 0x403 SWAP2 SWAP1 PUSH2 0x1E04 JUMP JUMPDEST SWAP1 DUP2 MSTORE PUSH1 0x20 ADD PUSH1 0x40 MLOAD DUP1 SWAP2 SUB SWAP1 KECCAK256 CALLER SWAP1 DUP1 PUSH1 0x1 DUP2 SLOAD ADD DUP1 DUP3 SSTORE DUP1 SWAP2 POP POP PUSH1 0x1 SWAP1 SUB SWAP1 PUSH0 MSTORE PUSH1 0x20 PUSH0 KECCAK256 ADD PUSH0 SWAP1 SWAP2 SWAP1 SWAP2 SWAP1 SWAP2 PUSH2 0x100 EXP DUP2 SLOAD DUP2 PUSH20 0xFFFFFFFFFFFFFFFFFFFFFFFFFFFFFFFFFFFFFFFF MUL NOT AND SWAP1 DUP4 PUSH20 0xFFFFFFFFFFFFFFFFFFFFFFFFFFFFFFFFFFFFFFFF AND MUL OR SWAP1 SSTORE POP CALLER PUSH20 0xFFFFFFFFFFFFFFFFFFFFFFFFFFFFFFFFFFFFFFFF AND PUSH32 0xCA394E3B41E2AA37469125C136278E21CEBAF3CA7E3FDFC9D07C64740A292FF5 DUP10 DUP7 DUP9 PUSH1 0x40 MLOAD PUSH2 0x4B9 SWAP4 SWAP3 SWAP2 SWAP1 PUSH2 0x1E1A JUMP JUMPDEST PUSH1 0x40 MLOAD DUP1 SWAP2 SUB SWAP1 LOG2 POP POP POP POP POP POP POP POP JUMP JUMPDEST PUSH1 0x60 DUP1 PUSH0 PUSH1 0x60 DUP1 PUSH0 PUSH1 0x1 PUSH0 DUP9 PUSH20 0xFFFFFFFFFFFFFFFFFFFFFFFFFFFFFFFFFFFFFFFF AND PUSH20 0xFFFFFFFFFFFFFFFFFFFFFFFFFFFFFFFFFFFFFFFF AND DUP2 MSTORE PUSH1 0x20 ADD SWAP1 DUP2 MSTORE PUSH1 0x20 ADD PUSH0 KECCAK256 SWAP1 POP DUP1 PUSH0 ADD DUP2 PUSH1 0x1 ADD DUP3 PUSH1 0x2 ADD PUSH0 SWAP1 SLOAD SWAP1 PUSH2 0x100 EXP SWAP1 DIV PUSH1 0xFF AND DUP4 PUSH1 0x3 ADD DUP5 PUSH1 0x4 ADD DUP5 DUP1 SLOAD PUSH2 0x53E SWAP1 PUSH2 0x1B5F JUMP JUMPDEST DUP1 PUSH1 0x1F ADD PUSH1 0x20 DUP1 SWAP2 DIV MUL PUSH1 0x20 ADD PUSH1 0x40 MLOAD SWAP1 DUP2 ADD PUSH1 0x40 MSTORE DUP1 SWAP3 SWAP2 SWAP1 DUP2 DUP2 MSTORE PUSH1 0x20 ADD DUP3 DUP1 SLOAD PUSH2 0x56A SWAP1 PUSH2 0x1B5F JUMP JUMPDEST DUP1 ISZERO PUSH2 0x5B5 JUMPI DUP1 PUSH1 0x1F LT PUSH2 0x58C JUMPI PUSH2 0x100 DUP1 DUP4 SLOAD DIV MUL DUP4 MSTORE SWAP2 PUSH1 0x20 ADD SWAP2 PUSH2 0x5B5 JUMP JUMPDEST DUP3 ADD SWAP2 SWAP1 PUSH0 MSTORE PUSH1 0x20 PUSH0 KECCAK256 SWAP1 JUMPDEST DUP2 SLOAD DUP2 MSTORE SWAP1 PUSH1 0x1 ADD SWAP1 PUSH1 0x20 ADD DUP1 DUP4 GT PUSH2 0x598 JUMPI DUP3 SWAP1 SUB PUSH1 0x1F AND DUP3 ADD SWAP2 JUMPDEST POP POP POP POP POP SWAP5 POP DUP4 DUP1 SLOAD PUSH2 0x5C8 SWAP1 PUSH2 0x1B5F JUMP JUMPDEST DUP1 PUSH1 0x1F ADD PUSH1 0x20 DUP1 SWAP2 DIV MUL PUSH1 0x20 ADD PUSH1 0x40 MLOAD SWAP1 DUP2 ADD PUSH1 0x40 MSTORE DUP1 SWAP3 SWAP2 SWAP1 DUP2 DUP2 MSTORE PUSH1 0x20 ADD DUP3 DUP1 SLOAD PUSH2 0x5F4 SWAP1 PUSH2 0x1B5F JUMP JUMPDEST DUP1 ISZERO PUSH2 0x63F JUMPI DUP1 PUSH1 0x1F LT PUSH2 0x616 JUMPI PUSH2 0x100 DUP1 DUP4 SLOAD DIV MUL DUP4 MSTORE SWAP2 PUSH1 0x20 ADD SWAP2 PUSH2 0x63F JUMP JUMPDEST DUP3 ADD SWAP2 SWAP1 PUSH0 MSTORE PUSH1 0x20 PUSH0 KECCAK256 SWAP1 JUMPDEST DUP2 SLOAD DUP2 MSTORE SWAP1 PUSH1 0x1 ADD SWAP1 PUSH1 0x20 ADD DUP1 DUP4 GT PUSH2 0x622 JUMPI DUP3 SWAP1 SUB PUSH1 0x1F AND DUP3 ADD SWAP2 JUMPDEST POP POP POP POP POP SWAP4 POP DUP2 DUP1 SLOAD PUSH2 0x652 SWAP1 PUSH2 0x1B5F JUMP JUMPDEST DUP1 PUSH1 0x1F ADD PUSH1 0x20 DUP1 SWAP2 DIV MUL PUSH1 0x20 ADD PUSH1 0x40 MLOAD SWAP1 DUP2 ADD PUSH1 0x40 MSTORE DUP1 SWAP3 SWAP2 SWAP1 DUP2 DUP2 MSTORE PUSH1 0x20 ADD DUP3 DUP1 SLOAD PUSH2 0x67E SWAP1 PUSH2 0x1B5F JUMP JUMPDEST DUP1 ISZERO PUSH2 0x6C9 JUMPI DUP1 PUSH1 0x1F LT PUSH2 0x6A0 JUMPI PUSH2 0x100 DUP1 DUP4 SLOAD DIV MUL DUP4 MSTORE SWAP2 PUSH1 0x20 ADD SWAP2 PUSH2 0x6C9 JUMP JUMPDEST DUP3 ADD SWAP2 SWAP1 PUSH0 MSTORE PUSH1 0x20 PUSH0 KECCAK256 SWAP1 JUMPDEST DUP2 SLOAD DUP2 MSTORE SWAP1 PUSH1 0x1 ADD SWAP1 PUSH1 0x20 ADD DUP1 DUP4 GT PUSH2 0x6AC JUMPI DUP3 SWAP1 SUB PUSH1 0x1F AND DUP3 ADD SWAP2 JUMPDEST POP POP POP POP POP SWAP2 POP DUP1 DUP1 SLOAD PUSH2 0x6DC SWAP1 PUSH2 0x1B5F JUMP JUMPDEST DUP1 PUSH1 0x1F ADD PUSH1 0x20 DUP1 SWAP2 DIV MUL PUSH1 0x20 ADD PUSH1 0x40 MLOAD SWAP1 DUP2 ADD PUSH1 0x40 MSTORE DUP1 SWAP3 SWAP2 SWAP1 DUP2 DUP2 MSTORE PUSH1 0x20 ADD DUP3 DUP1 SLOAD PUSH2 0x708 SWAP1 PUSH2 0x1B5F JUMP JUMPDEST DUP1 ISZERO PUSH2 0x753 JUMPI DUP1 PUSH1 0x1F LT PUSH2 0x72A JUMPI PUSH2 0x100 DUP1 DUP4 SLOAD DIV MUL DUP4 MSTORE SWAP2 PUSH1 0x20 ADD SWAP2 PUSH2 0x753 JUMP JUMPDEST DUP3 ADD SWAP2 SWAP1 PUSH0 MSTORE PUSH1 0x20 PUSH0 KECCAK256 SWAP1 JUMPDEST DUP2 SLOAD DUP2 MSTORE SWAP1 PUSH1 0x1 ADD SWAP1 PUSH1 0x20 ADD DUP1 DUP4 GT PUSH2 0x736 JUMPI DUP3 SWAP1 SUB PUSH1 0x1F AND DUP3 ADD SWAP2 JUMPDEST POP POP POP POP POP SWAP1 POP SWAP6 POP SWAP6 POP SWAP6 POP SWAP6 POP SWAP6 POP POP SWAP2 SWAP4 SWAP6 SWAP1 SWAP3 SWAP5 POP JUMP JUMPDEST PUSH0 PUSH1 0x1 PUSH0 DUP5 PUSH20 0xFFFFFFFFFFFFFFFFFFFFFFFFFFFFFFFFFFFFFFFF AND PUSH20 0xFFFFFFFFFFFFFFFFFFFFFFFFFFFFFFFFFFFFFFFF AND DUP2 MSTORE PUSH1 0x20 ADD SWAP1 DUP2 MSTORE PUSH1 0x20 ADD PUSH0 KECCAK256 PUSH1 0x2 ADD PUSH0 SWAP1 SLOAD SWAP1 PUSH2 0x100 EXP SWAP1 DIV PUSH1 0xFF AND DUP1 ISZERO PUSH2 0x811 JUMPI POP PUSH1 0x1 PUSH0 DUP4 PUSH20 0xFFFFFFFFFFFFFFFFFFFFFFFFFFFFFFFFFFFFFFFF AND PUSH20 0xFFFFFFFFFFFFFFFFFFFFFFFFFFFFFFFFFFFFFFFF AND DUP2 MSTORE PUSH1 0x20 ADD SWAP1 DUP2 MSTORE PUSH1 0x20 ADD PUSH0 KECCAK256 PUSH1 0x2 ADD PUSH0 SWAP1 SLOAD SWAP1 PUSH2 0x100 EXP SWAP1 DIV PUSH1 0xFF AND JUMPDEST SWAP1 POP SWAP3 SWAP2 POP POP JUMP JUMPDEST PUSH1 0x60 PUSH0 PUSH2 0x825 DUP4 PUSH2 0xD24 JUMP JUMPDEST PUSH1 0x40 MLOAD PUSH1 0x20 ADD PUSH2 0x835 SWAP2 SWAP1 PUSH2 0x1E04 JUMP JUMPDEST PUSH1 0x40 MLOAD PUSH1 0x20 DUP2 DUP4 SUB SUB DUP2 MSTORE SWAP1 PUSH1 0x40 MSTORE DUP1 MLOAD SWAP1 PUSH1 0x20 ADD KECCAK256 SWAP1 POP PUSH2 0x88B PUSH1 0x40 MLOAD DUP1 PUSH1 0x40 ADD PUSH1 0x40 MSTORE DUP1 PUSH1 0x5 DUP2 MSTORE PUSH1 0x20 ADD PUSH32 0x4D696E6572000000000000000000000000000000000000000000000000000000 DUP2 MSTORE POP PUSH2 0xD24 JUMP JUMPDEST PUSH1 0x40 MLOAD PUSH1 0x20 ADD PUSH2 0x89B SWAP2 SWAP1 PUSH2 0x1E04 JUMP JUMPDEST PUSH1 0x40 MLOAD PUSH1 0x20 DUP2 DUP4 SUB SUB DUP2 MSTORE SWAP1 PUSH1 0x40 MSTORE DUP1 MLOAD SWAP1 PUSH1 0x20 ADD KECCAK256 DUP2 SUB PUSH2 0x8F5 JUMPI PUSH1 0x40 MLOAD DUP1 PUSH1 0x40 ADD PUSH1 0x40 MSTORE DUP1 PUSH1 0x5 DUP2 MSTORE PUSH1 0x20 ADD PUSH32 0x4D696E6572000000000000000000000000000000000000000000000000000000 DUP2 MSTORE POP SWAP2 POP POP PUSH2 0xAF2 JUMP JUMPDEST PUSH2 0x933 PUSH1 0x40 MLOAD DUP1 PUSH1 0x40 ADD PUSH1 0x40 MSTORE DUP1 PUSH1 0xC DUP2 MSTORE PUSH1 0x20 ADD PUSH32 0x4D616E7566616374757265720000000000000000000000000000000000000000 DUP2 MSTORE POP PUSH2 0xD24 JUMP JUMPDEST PUSH1 0x40 MLOAD PUSH1 0x20 ADD PUSH2 0x943 SWAP2 SWAP1 PUSH2 0x1E04 JUMP JUMPDEST PUSH1 0x40 MLOAD PUSH1 0x20 DUP2 DUP4 SUB SUB DUP2 MSTORE SWAP1 PUSH1 0x40 MSTORE DUP1 MLOAD SWAP1 PUSH1 0x20 ADD KECCAK256 DUP2 SUB PUSH2 0x99D JUMPI PUSH1 0x40 MLOAD DUP1 PUSH1 0x40 ADD PUSH1 0x40 MSTORE DUP1 PUSH1 0xC DUP2 MSTORE PUSH1 0x20 ADD PUSH32 0x4D616E7566616374757265720000000000000000000000000000000000000000 DUP2 MSTORE POP SWAP2 POP POP PUSH2 0xAF2 JUMP JUMPDEST PUSH2 0x9DB PUSH1 0x40 MLOAD DUP1 PUSH1 0x40 ADD PUSH1 0x40 MSTORE DUP1 PUSH1 0x9 DUP2 MSTORE PUSH1 0x20 ADD PUSH32 0x4365727469666965720000000000000000000000000000000000000000000000 DUP2 MSTORE POP PUSH2 0xD24 JUMP JUMPDEST PUSH1 0x40 MLOAD PUSH1 0x20 ADD PUSH2 0x9EB SWAP2 SWAP1 PUSH2 0x1E04 JUMP JUMPDEST PUSH1 0x40 MLOAD PUSH1 0x20 DUP2 DUP4 SUB SUB DUP2 MSTORE SWAP1 PUSH1 0x40 MSTORE DUP1 MLOAD SWAP1 PUSH1 0x20 ADD KECCAK256 DUP2 SUB PUSH2 0xA45 JUMPI PUSH1 0x40 MLOAD DUP1 PUSH1 0x40 ADD PUSH1 0x40 MSTORE DUP1 PUSH1 0x9 DUP2 MSTORE PUSH1 0x20 ADD PUSH32 0x4365727469666965720000000000000000000000000000000000000000000000 DUP2 MSTORE POP SWAP2 POP POP PUSH2 0xAF2 JUMP JUMPDEST PUSH2 0xA83 PUSH1 0x40 MLOAD DUP1 PUSH1 0x40 ADD PUSH1 0x40 MSTORE DUP1 PUSH1 0x8 DUP2 MSTORE PUSH1 0x20 ADD PUSH32 0x52657461696C6572000000000000000000000000000000000000000000000000 DUP2 MSTORE POP PUSH2 0xD24 JUMP JUMPDEST PUSH1 0x40 MLOAD PUSH1 0x20 ADD PUSH2 0xA93 SWAP2 SWAP1 PUSH2 0x1E04 JUMP JUMPDEST PUSH1 0x40 MLOAD PUSH1 0x20 DUP2 DUP4 SUB SUB DUP2 MSTORE SWAP1 PUSH1 0x40 MSTORE DUP1 MLOAD SWAP1 PUSH1 0x20 ADD KECCAK256 DUP2 SUB PUSH2 0xAED JUMPI PUSH1 0x40 MLOAD DUP1 PUSH1 0x40 ADD PUSH1 0x40 MSTORE DUP1 PUSH1 0x8 DUP2 MSTORE PUSH1 0x20 ADD PUSH32 0x52657461696C6572000000000000000000000000000000000000000000000000 DUP2 MSTORE POP SWAP2 POP POP PUSH2 0xAF2 JUMP JUMPDEST DUP3 SWAP2 POP POP JUMPDEST SWAP2 SWAP1 POP JUMP JUMPDEST PUSH0 PUSH1 0x40 MLOAD DUP1 PUSH1 0x40 ADD PUSH1 0x40 MSTORE DUP1 PUSH1 0x5 DUP2 MSTORE PUSH1 0x20 ADD PUSH32 0x4D696E6572000000000000000000000000000000000000000000000000000000 DUP2 MSTORE POP PUSH1 0x40 MLOAD PUSH1 0x20 ADD PUSH2 0xB3E SWAP2 SWAP1 PUSH2 0x1E04 JUMP JUMPDEST PUSH1 0x40 MLOAD PUSH1 0x20 DUP2 DUP4 SUB SUB DUP2 MSTORE SWAP1 PUSH1 0x40 MSTORE DUP1 MLOAD SWAP1 PUSH1 0x20 ADD KECCAK256 DUP3 PUSH1 0x40 MLOAD PUSH1 0x20 ADD PUSH2 0xB65 SWAP2 SWAP1 PUSH2 0x1E04 JUMP JUMPDEST PUSH1 0x40 MLOAD PUSH1 0x20 DUP2 DUP4 SUB SUB DUP2 MSTORE SWAP1 PUSH1 0x40 MSTORE DUP1 MLOAD SWAP1 PUSH1 0x20 ADD KECCAK256 EQ DUP1 PUSH2 0xC07 JUMPI POP PUSH1 0x40 MLOAD DUP1 PUSH1 0x40 ADD PUSH1 0x40 MSTORE DUP1 PUSH1 0xC DUP2 MSTORE PUSH1 0x20 ADD PUSH32 0x4D616E7566616374757265720000000000000000000000000000000000000000 DUP2 MSTORE POP PUSH1 0x40 MLOAD PUSH1 0x20 ADD PUSH2 0xBC8 SWAP2 SWAP1 PUSH2 0x1E04 JUMP JUMPDEST PUSH1 0x40 MLOAD PUSH1 0x20 DUP2 DUP4 SUB SUB DUP2 MSTORE SWAP1 PUSH1 0x40 MSTORE DUP1 MLOAD SWAP1 PUSH1 0x20 ADD KECCAK256 DUP3 PUSH1 0x40 MLOAD PUSH1 0x20 ADD PUSH2 0xBEF SWAP2 SWAP1 PUSH2 0x1E04 JUMP JUMPDEST PUSH1 0x40 MLOAD PUSH1 0x20 DUP2 DUP4 SUB SUB DUP2 MSTORE SWAP1 PUSH1 0x40 MSTORE DUP1 MLOAD SWAP1 PUSH1 0x20 ADD KECCAK256 EQ JUMPDEST DUP1 PUSH2 0xC92 JUMPI POP PUSH1 0x40 MLOAD DUP1 PUSH1 0x40 ADD PUSH1 0x40 MSTORE DUP1 PUSH1 0x9 DUP2 MSTORE PUSH1 0x20 ADD PUSH32 0x4365727469666965720000000000000000000000000000000000000000000000 DUP2 MSTORE POP PUSH1 0x40 MLOAD PUSH1 0x20 ADD PUSH2 0xC53 SWAP2 SWAP1 PUSH2 0x1E04 JUMP JUMPDEST PUSH1 0x40 MLOAD PUSH1 0x20 DUP2 DUP4 SUB SUB DUP2 MSTORE SWAP1 PUSH1 0x40 MSTORE DUP1 MLOAD SWAP1 PUSH1 0x20 ADD KECCAK256 DUP3 PUSH1 0x40 MLOAD PUSH1 0x20 ADD PUSH2 0xC7A SWAP2 SWAP1 PUSH2 0x1E04 JUMP JUMPDEST PUSH1 0x40 MLOAD PUSH1 0x20 DUP2 DUP4 SUB SUB DUP2 MSTORE SWAP1 PUSH1 0x40 MSTORE DUP1 MLOAD SWAP1 PUSH1 0x20 ADD KECCAK256 EQ JUMPDEST DUP1 PUSH2 0xD1D JUMPI POP PUSH1 0x40 MLOAD DUP1 PUSH1 0x40 ADD PUSH1 0x40 MSTORE DUP1 PUSH1 0x8 DUP2 MSTORE PUSH1 0x20 ADD PUSH32 0x52657461696C6572000000000000000000000000000000000000000000000000 DUP2 MSTORE POP PUSH1 0x40 MLOAD PUSH1 0x20 ADD PUSH2 0xCDE SWAP2 SWAP1 PUSH2 0x1E04 JUMP JUMPDEST PUSH1 0x40 MLOAD PUSH1 0x20 DUP2 DUP4 SUB SUB DUP2 MSTORE SWAP1 PUSH1 0x40 MSTORE DUP1 MLOAD SWAP1 PUSH1 0x20 ADD KECCAK256 DUP3 PUSH1 0x40 MLOAD PUSH1 0x20 ADD PUSH2 0xD05 SWAP2 SWAP1 PUSH2 0x1E04 JUMP JUMPDEST PUSH1 0x40 MLOAD PUSH1 0x20 DUP2 DUP4 SUB SUB DUP2 MSTORE SWAP1 PUSH1 0x40 MSTORE DUP1 MLOAD SWAP1 PUSH1 0x20 ADD KECCAK256 EQ JUMPDEST SWAP1 POP SWAP2 SWAP1 POP JUMP JUMPDEST PUSH1 0x60 PUSH0 DUP3 SWAP1 POP PUSH0 DUP2 MLOAD PUSH8 0xFFFFFFFFFFFFFFFF DUP2 GT ISZERO PUSH2 0xD46 JUMPI PUSH2 0xD45 PUSH2 0x139C JUMP JUMPDEST JUMPDEST PUSH1 0x40 MLOAD SWAP1 DUP1 DUP3 MSTORE DUP1 PUSH1 0x1F ADD PUSH1 0x1F NOT AND PUSH1 0x20 ADD DUP3 ADD PUSH1 0x40 MSTORE DUP1 ISZERO PUSH2 0xD78 JUMPI DUP2 PUSH1 0x20 ADD PUSH1 0x1 DUP3 MUL DUP1 CALLDATASIZE DUP4 CALLDATACOPY DUP1 DUP3 ADD SWAP2 POP POP SWAP1 POP JUMPDEST POP SWAP1 POP PUSH0 JUMPDEST DUP3 MLOAD DUP2 LT ISZERO PUSH2 0xEC6 JUMPI PUSH1 0x41 DUP4 DUP3 DUP2 MLOAD DUP2 LT PUSH2 0xD9B JUMPI PUSH2 0xD9A PUSH2 0x198F JUMP JUMPDEST JUMPDEST PUSH1 0x20 ADD ADD MLOAD PUSH1 0xF8 SHR PUSH1 0xF8 SHL PUSH1 0xF8 SHR PUSH1 0xFF AND LT ISZERO DUP1 ISZERO PUSH2 0xDDE JUMPI POP PUSH1 0x5A DUP4 DUP3 DUP2 MLOAD DUP2 LT PUSH2 0xDCA JUMPI PUSH2 0xDC9 PUSH2 0x198F JUMP JUMPDEST JUMPDEST PUSH1 0x20 ADD ADD MLOAD PUSH1 0xF8 SHR PUSH1 0xF8 SHL PUSH1 0xF8 SHR PUSH1 0xFF AND GT ISZERO JUMPDEST ISZERO PUSH2 0xE59 JUMPI PUSH1 0x20 DUP4 DUP3 DUP2 MLOAD DUP2 LT PUSH2 0xDF8 JUMPI PUSH2 0xDF7 PUSH2 0x198F JUMP JUMPDEST JUMPDEST PUSH1 0x20 ADD ADD MLOAD PUSH1 0xF8 SHR PUSH1 0xF8 SHL PUSH1 0xF8 SHR PUSH2 0xE10 SWAP2 SWAP1 PUSH2 0x1E9D JUMP JUMPDEST PUSH1 0xF8 SHL DUP3 DUP3 DUP2 MLOAD DUP2 LT PUSH2 0xE26 JUMPI PUSH2 0xE25 PUSH2 0x198F JUMP JUMPDEST JUMPDEST PUSH1 0x20 ADD ADD SWAP1 PUSH31 0xFFFFFFFFFFFFFFFFFFFFFFFFFFFFFFFFFFFFFFFFFFFFFFFFFFFFFFFFFFFFFF NOT AND SWAP1 DUP2 PUSH0 BYTE SWAP1 MSTORE8 POP PUSH2 0xEB9 JUMP JUMPDEST DUP3 DUP2 DUP2 MLOAD DUP2 LT PUSH2 0xE6C JUMPI PUSH2 0xE6B PUSH2 0x198F JUMP JUMPDEST JUMPDEST PUSH1 0x20 ADD ADD MLOAD PUSH1 0xF8 SHR PUSH1 0xF8 SHL DUP3 DUP3 DUP2 MLOAD DUP2 LT PUSH2 0xE8A JUMPI PUSH2 0xE89 PUSH2 0x198F JUMP JUMPDEST JUMPDEST PUSH1 0x20 ADD ADD SWAP1 PUSH31 0xFFFFFFFFFFFFFFFFFFFFFFFFFFFFFFFFFFFFFFFFFFFFFFFFFFFFFFFFFFFFFF NOT AND SWAP1 DUP2 PUSH0 BYTE SWAP1 MSTORE8 POP JUMPDEST DUP1 DUP1 PUSH1 0x1 ADD SWAP2 POP POP PUSH2 0xD7D JUMP JUMPDEST POP DUP1 SWAP3 POP POP POP SWAP2 SWAP1 POP JUMP JUMPDEST PUSH0 DUP1 PUSH2 0xEDC DUP4 PUSH2 0xD24 JUMP JUMPDEST SWAP1 POP PUSH0 JUMPDEST PUSH0 DUP1 SLOAD SWAP1 POP DUP2 LT ISZERO PUSH2 0xFB4 JUMPI PUSH2 0xF97 DUP3 PUSH0 DUP4 DUP2 SLOAD DUP2 LT PUSH2 0xF03 JUMPI PUSH2 0xF02 PUSH2 0x198F JUMP JUMPDEST JUMPDEST SWAP1 PUSH0 MSTORE PUSH1 0x20 PUSH0 KECCAK256 ADD DUP1 SLOAD PUSH2 0xF16 SWAP1 PUSH2 0x1B5F JUMP JUMPDEST DUP1 PUSH1 0x1F ADD PUSH1 0x20 DUP1 SWAP2 DIV MUL PUSH1 0x20 ADD PUSH1 0x40 MLOAD SWAP1 DUP2 ADD PUSH1 0x40 MSTORE DUP1 SWAP3 SWAP2 SWAP1 DUP2 DUP2 MSTORE PUSH1 0x20 ADD DUP3 DUP1 SLOAD PUSH2 0xF42 SWAP1 PUSH2 0x1B5F JUMP JUMPDEST DUP1 ISZERO PUSH2 0xF8D JUMPI DUP1 PUSH1 0x1F LT PUSH2 0xF64 JUMPI PUSH2 0x100 DUP1 DUP4 SLOAD DIV MUL DUP4 MSTORE SWAP2 PUSH1 0x20 ADD SWAP2 PUSH2 0xF8D JUMP JUMPDEST DUP3 ADD SWAP2 SWAP1 PUSH0 MSTORE PUSH1 0x20 PUSH0 KECCAK256 SWAP1 JUMPDEST DUP2 SLOAD DUP2 MSTORE SWAP1 PUSH1 0x1 ADD SWAP1 PUSH1 0x20 ADD DUP1 DUP4 GT PUSH2 0xF70 JUMPI DUP3 SWAP1 SUB PUSH1 0x1F AND DUP3 ADD SWAP2 JUMPDEST POP POP POP POP POP PUSH2 0x1256 JUMP JUMPDEST ISZERO PUSH2 0xFA7 JUMPI PUSH1 0x1 SWAP3 POP POP POP PUSH2 0xFBA JUMP JUMPDEST DUP1 DUP1 PUSH1 0x1 ADD SWAP2 POP POP PUSH2 0xEE0 JUMP JUMPDEST POP PUSH0 SWAP2 POP POP JUMPDEST SWAP2 SWAP1 POP JUMP JUMPDEST PUSH0 DUP1 DUP3 PUSH1 0x40 MLOAD PUSH1 0x20 ADD PUSH2 0xFD2 SWAP2 SWAP1 PUSH2 0x1E04 JUMP JUMPDEST PUSH1 0x40 MLOAD PUSH1 0x20 DUP2 DUP4 SUB SUB DUP2 MSTORE SWAP1 PUSH1 0x40 MSTORE DUP1 MLOAD SWAP1 PUSH1 0x20 ADD KECCAK256 SWAP1 POP PUSH1 0x40 MLOAD DUP1 PUSH1 0x40 ADD PUSH1 0x40 MSTORE DUP1 PUSH1 0x5 DUP2 MSTORE PUSH1 0x20 ADD PUSH32 0x4D696E6572000000000000000000000000000000000000000000000000000000 DUP2 MSTORE POP PUSH1 0x40 MLOAD PUSH1 0x20 ADD PUSH2 0x1030 SWAP2 SWAP1 PUSH2 0x1E04 JUMP JUMPDEST PUSH1 0x40 MLOAD PUSH1 0x20 DUP2 DUP4 SUB SUB DUP2 MSTORE SWAP1 PUSH1 0x40 MSTORE DUP1 MLOAD SWAP1 PUSH1 0x20 ADD KECCAK256 DUP2 SUB PUSH2 0x1075 JUMPI PUSH32 0x6100000000000000000000000000000000000000000000000000000000000000 SWAP2 POP POP PUSH2 0x1251 JUMP JUMPDEST PUSH1 0x40 MLOAD DUP1 PUSH1 0x40 ADD PUSH1 0x40 MSTORE DUP1 PUSH1 0xC DUP2 MSTORE PUSH1 0x20 ADD PUSH32 0x4D616E7566616374757265720000000000000000000000000000000000000000 DUP2 MSTORE POP PUSH1 0x40 MLOAD PUSH1 0x20 ADD PUSH2 0x10BB SWAP2 SWAP1 PUSH2 0x1E04 JUMP JUMPDEST PUSH1 0x40 MLOAD PUSH1 0x20 DUP2 DUP4 SUB SUB DUP2 MSTORE SWAP1 PUSH1 0x40 MSTORE DUP1 MLOAD SWAP1 PUSH1 0x20 ADD KECCAK256 DUP2 SUB PUSH2 0x1100 JUMPI PUSH32 0x6200000000000000000000000000000000000000000000000000000000000000 SWAP2 POP POP PUSH2 0x1251 JUMP JUMPDEST PUSH1 0x40 MLOAD DUP1 PUSH1 0x40 ADD PUSH1 0x40 MSTORE DUP1 PUSH1 0x9 DUP2 MSTORE PUSH1 0x20 ADD PUSH32 0x4365727469666965720000000000000000000000000000000000000000000000 DUP2 MSTORE POP PUSH1 0x40 MLOAD PUSH1 0x20 ADD PUSH2 0x1146 SWAP2 SWAP1 PUSH2 0x1E04 JUMP JUMPDEST PUSH1 0x40 MLOAD PUSH1 0x20 DUP2 DUP4 SUB SUB DUP2 MSTORE SWAP1 PUSH1 0x40 MSTORE DUP1 MLOAD SWAP1 PUSH1 0x20 ADD KECCAK256 DUP2 SUB PUSH2 0x118B JUMPI PUSH32 0x6300000000000000000000000000000000000000000000000000000000000000 SWAP2 POP POP PUSH2 0x1251 JUMP JUMPDEST PUSH1 0x40 MLOAD DUP1 PUSH1 0x40 ADD PUSH1 0x40 MSTORE DUP1 PUSH1 0x8 DUP2 MSTORE PUSH1 0x20 ADD PUSH32 0x52657461696C6572000000000000000000000000000000000000000000000000 DUP2 MSTORE POP PUSH1 0x40 MLOAD PUSH1 0x20 ADD PUSH2 0x11D1 SWAP2 SWAP1 PUSH2 0x1E04 JUMP JUMPDEST PUSH1 0x40 MLOAD PUSH1 0x20 DUP2 DUP4 SUB SUB DUP2 MSTORE SWAP1 PUSH1 0x40 MSTORE DUP1 MLOAD SWAP1 PUSH1 0x20 ADD KECCAK256 DUP2 SUB PUSH2 0x1216 JUMPI PUSH32 0x6400000000000000000000000000000000000000000000000000000000000000 SWAP2 POP POP PUSH2 0x1251 JUMP JUMPDEST PUSH1 0x40 MLOAD PUSH32 0x8C379A000000000000000000000000000000000000000000000000000000000 DUP2 MSTORE PUSH1 0x4 ADD PUSH2 0x1248 SWAP1 PUSH2 0x1F1B JUMP JUMPDEST PUSH1 0x40 MLOAD DUP1 SWAP2 SUB SWAP1 REVERT JUMPDEST SWAP2 SWAP1 POP JUMP JUMPDEST PUSH0 DUP1 DUP4 SWAP1 POP PUSH0 DUP4 SWAP1 POP DUP2 MLOAD DUP2 MLOAD GT ISZERO PUSH2 0x1273 JUMPI PUSH0 SWAP3 POP POP POP PUSH2 0x136D JUMP JUMPDEST PUSH0 JUMPDEST DUP2 MLOAD DUP4 MLOAD PUSH2 0x1283 SWAP2 SWAP1 PUSH2 0x1F39 JUMP JUMPDEST DUP2 GT PUSH2 0x1366 JUMPI PUSH0 PUSH1 0x1 SWAP1 POP PUSH0 JUMPDEST DUP4 MLOAD DUP2 LT ISZERO PUSH2 0x133E JUMPI DUP4 DUP2 DUP2 MLOAD DUP2 LT PUSH2 0x12AC JUMPI PUSH2 0x12AB PUSH2 0x198F JUMP JUMPDEST JUMPDEST PUSH1 0x20 ADD ADD MLOAD PUSH1 0xF8 SHR PUSH1 0xF8 SHL PUSH31 0xFFFFFFFFFFFFFFFFFFFFFFFFFFFFFFFFFFFFFFFFFFFFFFFFFFFFFFFFFFFFFF NOT AND DUP6 DUP3 DUP6 PUSH2 0x12E6 SWAP2 SWAP1 PUSH2 0x1F6C JUMP JUMPDEST DUP2 MLOAD DUP2 LT PUSH2 0x12F7 JUMPI PUSH2 0x12F6 PUSH2 0x198F JUMP JUMPDEST JUMPDEST PUSH1 0x20 ADD ADD MLOAD PUSH1 0xF8 SHR PUSH1 0xF8 SHL PUSH31 0xFFFFFFFFFFFFFFFFFFFFFFFFFFFFFFFFFFFFFFFFFFFFFFFFFFFFFFFFFFFFFF NOT AND EQ PUSH2 0x1331 JUMPI PUSH0 SWAP2 POP PUSH2 0x133E JUMP JUMPDEST DUP1 DUP1 PUSH1 0x1 ADD SWAP2 POP POP PUSH2 0x1290 JUMP JUMPDEST POP DUP1 ISZERO PUSH2 0x1352 JUMPI PUSH1 0x1 SWAP5 POP POP POP POP POP PUSH2 0x136D JUMP JUMPDEST POP DUP1 DUP1 PUSH2 0x135E SWAP1 PUSH2 0x1F9F JUMP JUMPDEST SWAP2 POP POP PUSH2 0x1275 JUMP JUMPDEST POP PUSH0 SWAP3 POP POP POP JUMPDEST SWAP3 SWAP2 POP POP JUMP JUMPDEST PUSH0 PUSH1 0x40 MLOAD SWAP1 POP SWAP1 JUMP JUMPDEST PUSH0 DUP1 REVERT JUMPDEST PUSH0 DUP1 REVERT JUMPDEST PUSH0 DUP1 REVERT JUMPDEST PUSH0 DUP1 REVERT JUMPDEST PUSH0 PUSH1 0x1F NOT PUSH1 0x1F DUP4 ADD AND SWAP1 POP SWAP2 SWAP1 POP JUMP JUMPDEST PUSH32 0x4E487B7100000000000000000000000000000000000000000000000000000000 PUSH0 MSTORE PUSH1 0x41 PUSH1 0x4 MSTORE PUSH1 0x24 PUSH0 REVERT JUMPDEST PUSH2 0x13D2 DUP3 PUSH2 0x138C JUMP JUMPDEST DUP2 ADD DUP2 DUP2 LT PUSH8 0xFFFFFFFFFFFFFFFF DUP3 GT OR ISZERO PUSH2 0x13F1 JUMPI PUSH2 0x13F0 PUSH2 0x139C JUMP JUMPDEST JUMPDEST DUP1 PUSH1 0x40 MSTORE POP POP POP JUMP JUMPDEST PUSH0 PUSH2 0x1403 PUSH2 0x1373 JUMP JUMPDEST SWAP1 POP PUSH2 0x140F DUP3 DUP3 PUSH2 0x13C9 JUMP JUMPDEST SWAP2 SWAP1 POP JUMP JUMPDEST PUSH0 PUSH8 0xFFFFFFFFFFFFFFFF DUP3 GT ISZERO PUSH2 0x142E JUMPI PUSH2 0x142D PUSH2 0x139C JUMP JUMPDEST JUMPDEST PUSH2 0x1437 DUP3 PUSH2 0x138C JUMP JUMPDEST SWAP1 POP PUSH1 0x20 DUP2 ADD SWAP1 POP SWAP2 SWAP1 POP JUMP JUMPDEST DUP3 DUP2 DUP4 CALLDATACOPY PUSH0 DUP4 DUP4 ADD MSTORE POP POP POP JUMP JUMPDEST PUSH0 PUSH2 0x1464 PUSH2 0x145F DUP5 PUSH2 0x1414 JUMP JUMPDEST PUSH2 0x13FA JUMP JUMPDEST SWAP1 POP DUP3 DUP2 MSTORE PUSH1 0x20 DUP2 ADD DUP5 DUP5 DUP5 ADD GT ISZERO PUSH2 0x1480 JUMPI PUSH2 0x147F PUSH2 0x1388 JUMP JUMPDEST JUMPDEST PUSH2 0x148B DUP5 DUP3 DUP6 PUSH2 0x1444 JUMP JUMPDEST POP SWAP4 SWAP3 POP POP POP JUMP JUMPDEST PUSH0 DUP3 PUSH1 0x1F DUP4 ADD SLT PUSH2 0x14A7 JUMPI PUSH2 0x14A6 PUSH2 0x1384 JUMP JUMPDEST JUMPDEST DUP2 CALLDATALOAD PUSH2 0x14B7 DUP5 DUP3 PUSH1 0x20 DUP7 ADD PUSH2 0x1452 JUMP JUMPDEST SWAP2 POP POP SWAP3 SWAP2 POP POP JUMP JUMPDEST PUSH0 DUP1 PUSH0 DUP1 PUSH1 0x80 DUP6 DUP8 SUB SLT ISZERO PUSH2 0x14D8 JUMPI PUSH2 0x14D7 PUSH2 0x137C JUMP JUMPDEST JUMPDEST PUSH0 DUP6 ADD CALLDATALOAD PUSH8 0xFFFFFFFFFFFFFFFF DUP2 GT ISZERO PUSH2 0x14F5 JUMPI PUSH2 0x14F4 PUSH2 0x1380 JUMP JUMPDEST JUMPDEST PUSH2 0x1501 DUP8 DUP3 DUP9 ADD PUSH2 0x1493 JUMP JUMPDEST SWAP5 POP POP PUSH1 0x20 DUP6 ADD CALLDATALOAD PUSH8 0xFFFFFFFFFFFFFFFF DUP2 GT ISZERO PUSH2 0x1522 JUMPI PUSH2 0x1521 PUSH2 0x1380 JUMP JUMPDEST JUMPDEST PUSH2 0x152E DUP8 DUP3 DUP9 ADD PUSH2 0x1493 JUMP JUMPDEST SWAP4 POP POP PUSH1 0x40 DUP6 ADD CALLDATALOAD PUSH8 0xFFFFFFFFFFFFFFFF DUP2 GT ISZERO PUSH2 0x154F JUMPI PUSH2 0x154E PUSH2 0x1380 JUMP JUMPDEST JUMPDEST PUSH2 0x155B DUP8 DUP3 DUP9 ADD PUSH2 0x1493 JUMP JUMPDEST SWAP3 POP POP PUSH1 0x60 DUP6 ADD CALLDATALOAD PUSH8 0xFFFFFFFFFFFFFFFF DUP2 GT ISZERO PUSH2 0x157C JUMPI PUSH2 0x157B PUSH2 0x1380 JUMP JUMPDEST JUMPDEST PUSH2 0x1588 DUP8 DUP3 DUP9 ADD PUSH2 0x1493 JUMP JUMPDEST SWAP2 POP POP SWAP3 SWAP6 SWAP2 SWAP5 POP SWAP3 POP JUMP JUMPDEST PUSH0 PUSH20 0xFFFFFFFFFFFFFFFFFFFFFFFFFFFFFFFFFFFFFFFF DUP3 AND SWAP1 POP SWAP2 SWAP1 POP JUMP JUMPDEST PUSH0 PUSH2 0x15BD DUP3 PUSH2 0x1594 JUMP JUMPDEST SWAP1 POP SWAP2 SWAP1 POP JUMP JUMPDEST PUSH2 0x15CD DUP2 PUSH2 0x15B3 JUMP JUMPDEST DUP2 EQ PUSH2 0x15D7 JUMPI PUSH0 DUP1 REVERT JUMPDEST POP JUMP JUMPDEST PUSH0 DUP2 CALLDATALOAD SWAP1 POP PUSH2 0x15E8 DUP2 PUSH2 0x15C4 JUMP JUMPDEST SWAP3 SWAP2 POP POP JUMP JUMPDEST PUSH0 PUSH1 0x20 DUP3 DUP5 SUB SLT ISZERO PUSH2 0x1603 JUMPI PUSH2 0x1602 PUSH2 0x137C JUMP JUMPDEST JUMPDEST PUSH0 PUSH2 0x1610 DUP5 DUP3 DUP6 ADD PUSH2 0x15DA JUMP JUMPDEST SWAP2 POP POP SWAP3 SWAP2 POP POP JUMP JUMPDEST PUSH0 DUP2 MLOAD SWAP1 POP SWAP2 SWAP1 POP JUMP JUMPDEST PUSH0 DUP3 DUP3 MSTORE PUSH1 0x20 DUP3 ADD SWAP1 POP SWAP3 SWAP2 POP POP JUMP JUMPDEST DUP3 DUP2 DUP4 MCOPY PUSH0 DUP4 DUP4 ADD MSTORE POP POP POP JUMP JUMPDEST PUSH0 PUSH2 0x164B DUP3 PUSH2 0x1619 JUMP JUMPDEST PUSH2 0x1655 DUP2 DUP6 PUSH2 0x1623 JUMP JUMPDEST SWAP4 POP PUSH2 0x1665 DUP2 DUP6 PUSH1 0x20 DUP7 ADD PUSH2 0x1633 JUMP JUMPDEST PUSH2 0x166E DUP2 PUSH2 0x138C JUMP JUMPDEST DUP5 ADD SWAP2 POP POP SWAP3 SWAP2 POP POP JUMP JUMPDEST PUSH0 DUP2 ISZERO ISZERO SWAP1 POP SWAP2 SWAP1 POP JUMP JUMPDEST PUSH2 0x168D DUP2 PUSH2 0x1679 JUMP JUMPDEST DUP3 MSTORE POP POP JUMP JUMPDEST PUSH0 PUSH1 0xA0 DUP3 ADD SWAP1 POP DUP2 DUP2 SUB PUSH0 DUP4 ADD MSTORE PUSH2 0x16AB DUP2 DUP9 PUSH2 0x1641 JUMP JUMPDEST SWAP1 POP DUP2 DUP2 SUB PUSH1 0x20 DUP4 ADD MSTORE PUSH2 0x16BF DUP2 DUP8 PUSH2 0x1641 JUMP JUMPDEST SWAP1 POP PUSH2 0x16CE PUSH1 0x40 DUP4 ADD DUP7 PUSH2 0x1684 JUMP JUMPDEST DUP2 DUP2 SUB PUSH1 0x60 DUP4 ADD MSTORE PUSH2 0x16E0 DUP2 DUP6 PUSH2 0x1641 JUMP JUMPDEST SWAP1 POP DUP2 DUP2 SUB PUSH1 0x80 DUP4 ADD MSTORE PUSH2 0x16F4 DUP2 DUP5 PUSH2 0x1641 JUMP JUMPDEST SWAP1 POP SWAP7 SWAP6 POP POP POP POP POP POP JUMP JUMPDEST PUSH0 DUP1 PUSH1 0x40 DUP4 DUP6 SUB SLT ISZERO PUSH2 0x1716 JUMPI PUSH2 0x1715 PUSH2 0x137C JUMP JUMPDEST JUMPDEST PUSH0 PUSH2 0x1723 DUP6 DUP3 DUP7 ADD PUSH2 0x15DA JUMP JUMPDEST SWAP3 POP POP PUSH1 0x20 PUSH2 0x1734 DUP6 DUP3 DUP7 ADD PUSH2 0x15DA JUMP JUMPDEST SWAP2 POP POP SWAP3 POP SWAP3 SWAP1 POP JUMP JUMPDEST PUSH0 PUSH1 0x20 DUP3 ADD SWAP1 POP PUSH2 0x1751 PUSH0 DUP4 ADD DUP5 PUSH2 0x1684 JUMP JUMPDEST SWAP3 SWAP2 POP POP JUMP JUMPDEST PUSH32 0x496E76616C696420726F6C652E204D757374206265204D696E65722C204D616E PUSH0 DUP3 ADD MSTORE PUSH32 0x7566616374757265722C204365727469666965722C206F722052657461696C65 PUSH1 0x20 DUP3 ADD MSTORE PUSH32 0x7200000000000000000000000000000000000000000000000000000000000000 PUSH1 0x40 DUP3 ADD MSTORE POP JUMP JUMPDEST PUSH0 PUSH2 0x17D7 PUSH1 0x41 DUP4 PUSH2 0x1623 JUMP JUMPDEST SWAP2 POP PUSH2 0x17E2 DUP3 PUSH2 0x1757 JUMP JUMPDEST PUSH1 0x60 DUP3 ADD SWAP1 POP SWAP2 SWAP1 POP JUMP JUMPDEST PUSH0 PUSH1 0x20 DUP3 ADD SWAP1 POP DUP2 DUP2 SUB PUSH0 DUP4 ADD MSTORE PUSH2 0x1804 DUP2 PUSH2 0x17CB JUMP JUMPDEST SWAP1 POP SWAP2 SWAP1 POP JUMP JUMPDEST PUSH32 0x526567697374726174696F6E2072656A65637465643A204C6F636174696F6E20 PUSH0 DUP3 ADD MSTORE PUSH32 0x697320696E206120636F6E666C696374207A6F6E652062616E6E656420627920 PUSH1 0x20 DUP3 ADD MSTORE PUSH32 0x746865204B696D6265726C65792050726F636573730000000000000000000000 PUSH1 0x40 DUP3 ADD MSTORE POP JUMP JUMPDEST PUSH0 PUSH2 0x188B PUSH1 0x55 DUP4 PUSH2 0x1623 JUMP JUMPDEST SWAP2 POP PUSH2 0x1896 DUP3 PUSH2 0x180B JUMP JUMPDEST PUSH1 0x60 DUP3 ADD SWAP1 POP SWAP2 SWAP1 POP JUMP JUMPDEST PUSH0 PUSH1 0x20 DUP3 ADD SWAP1 POP DUP2 DUP2 SUB PUSH0 DUP4 ADD MSTORE PUSH2 0x18B8 DUP2 PUSH2 0x187F JUMP JUMPDEST SWAP1 POP SWAP2 SWAP1 POP JUMP JUMPDEST PUSH32 0x456E7469747920616C7265616479207265676973746572656400000000000000 PUSH0 DUP3 ADD MSTORE POP JUMP JUMPDEST PUSH0 PUSH2 0x18F3 PUSH1 0x19 DUP4 PUSH2 0x1623 JUMP JUMPDEST SWAP2 POP PUSH2 0x18FE DUP3 PUSH2 0x18BF JUMP JUMPDEST PUSH1 0x20 DUP3 ADD SWAP1 POP SWAP2 SWAP1 POP JUMP JUMPDEST PUSH0 PUSH1 0x20 DUP3 ADD SWAP1 POP DUP2 DUP2 SUB PUSH0 DUP4 ADD MSTORE PUSH2 0x1920 DUP2 PUSH2 0x18E7 JUMP JUMPDEST SWAP1 POP SWAP2 SWAP1 POP JUMP JUMPDEST PUSH32 0x4C6963656E7365206E756D6265722063616E6E6F7420626520656D7074790000 PUSH0 DUP3 ADD MSTORE POP JUMP JUMPDEST PUSH0 PUSH2 0x195B PUSH1 0x1E DUP4 PUSH2 0x1623 JUMP JUMPDEST SWAP2 POP PUSH2 0x1966 DUP3 PUSH2 0x1927 JUMP JUMPDEST PUSH1 0x20 DUP3 ADD SWAP1 POP SWAP2 SWAP1 POP JUMP JUMPDEST PUSH0 PUSH1 0x20 DUP3 ADD SWAP1 POP DUP2 DUP2 SUB PUSH0 DUP4 ADD MSTORE PUSH2 0x1988 DUP2 PUSH2 0x194F JUMP JUMPDEST SWAP1 POP SWAP2 SWAP1 POP JUMP JUMPDEST PUSH32 0x4E487B7100000000000000000000000000000000000000000000000000000000 PUSH0 MSTORE PUSH1 0x32 PUSH1 0x4 MSTORE PUSH1 0x24 PUSH0 REVERT JUMPDEST PUSH0 DUP2 SWAP1 POP SWAP3 SWAP2 POP POP JUMP JUMPDEST PUSH32 0x4C6963656E7365206D7573742073746172742077697468202700000000000000 PUSH0 DUP3 ADD MSTORE POP JUMP JUMPDEST PUSH0 PUSH2 0x19FA PUSH1 0x19 DUP4 PUSH2 0x19BC JUMP JUMPDEST SWAP2 POP PUSH2 0x1A05 DUP3 PUSH2 0x19C6 JUMP JUMPDEST PUSH1 0x19 DUP3 ADD SWAP1 POP SWAP2 SWAP1 POP JUMP JUMPDEST PUSH0 PUSH32 0xFF00000000000000000000000000000000000000000000000000000000000000 DUP3 AND SWAP1 POP SWAP2 SWAP1 POP JUMP JUMPDEST PUSH0 DUP2 SWAP1 POP SWAP2 SWAP1 POP JUMP JUMPDEST PUSH2 0x1A55 PUSH2 0x1A50 DUP3 PUSH2 0x1A10 JUMP JUMPDEST PUSH2 0x1A3B JUMP JUMPDEST DUP3 MSTORE POP POP JUMP JUMPDEST PUSH32 0x2720666F72200000000000000000000000000000000000000000000000000000 PUSH0 DUP3 ADD MSTORE POP JUMP JUMPDEST PUSH0 PUSH2 0x1A8F PUSH1 0x6 DUP4 PUSH2 0x19BC JUMP JUMPDEST SWAP2 POP PUSH2 0x1A9A DUP3 PUSH2 0x1A5B JUMP JUMPDEST PUSH1 0x6 DUP3 ADD SWAP1 POP SWAP2 SWAP1 POP JUMP JUMPDEST PUSH0 PUSH2 0x1AAF DUP3 PUSH2 0x1619 JUMP JUMPDEST PUSH2 0x1AB9 DUP2 DUP6 PUSH2 0x19BC JUMP JUMPDEST SWAP4 POP PUSH2 0x1AC9 DUP2 DUP6 PUSH1 0x20 DUP7 ADD PUSH2 0x1633 JUMP JUMPDEST DUP1 DUP5 ADD SWAP2 POP POP SWAP3 SWAP2 POP POP JUMP JUMPDEST PUSH0 PUSH2 0x1ADF DUP3 PUSH2 0x19EE JUMP JUMPDEST SWAP2 POP PUSH2 0x1AEB DUP3 DUP6 PUSH2 0x1A44 JUMP JUMPDEST PUSH1 0x1 DUP3 ADD SWAP2 POP PUSH2 0x1AFA DUP3 PUSH2 0x1A83 JUMP JUMPDEST SWAP2 POP PUSH2 0x1B06 DUP3 DUP5 PUSH2 0x1AA5 JUMP JUMPDEST SWAP2 POP DUP2 SWAP1 POP SWAP4 SWAP3 POP POP POP JUMP JUMPDEST PUSH0 PUSH1 0x20 DUP3 ADD SWAP1 POP DUP2 DUP2 SUB PUSH0 DUP4 ADD MSTORE PUSH2 0x1B2A DUP2 DUP5 PUSH2 0x1641 JUMP JUMPDEST SWAP1 POP SWAP3 SWAP2 POP POP JUMP JUMPDEST PUSH32 0x4E487B7100000000000000000000000000000000000000000000000000000000 PUSH0 MSTORE PUSH1 0x22 PUSH1 0x4 MSTORE PUSH1 0x24 PUSH0 REVERT JUMPDEST PUSH0 PUSH1 0x2 DUP3 DIV SWAP1 POP PUSH1 0x1 DUP3 AND DUP1 PUSH2 0x1B76 JUMPI PUSH1 0x7F DUP3 AND SWAP2 POP JUMPDEST PUSH1 0x20 DUP3 LT DUP2 SUB PUSH2 0x1B89 JUMPI PUSH2 0x1B88 PUSH2 0x1B32 JUMP JUMPDEST JUMPDEST POP SWAP2 SWAP1 POP JUMP JUMPDEST PUSH0 DUP2 SWAP1 POP DUP2 PUSH0 MSTORE PUSH1 0x20 PUSH0 KECCAK256 SWAP1 POP SWAP2 SWAP1 POP JUMP JUMPDEST PUSH0 PUSH1 0x20 PUSH1 0x1F DUP4 ADD DIV SWAP1 POP SWAP2 SWAP1 POP JUMP JUMPDEST PUSH0 DUP3 DUP3 SHL SWAP1 POP SWAP3 SWAP2 POP POP JUMP JUMPDEST PUSH0 PUSH1 0x8 DUP4 MUL PUSH2 0x1BEB PUSH32 0xFFFFFFFFFFFFFFFFFFFFFFFFFFFFFFFFFFFFFFFFFFFFFFFFFFFFFFFFFFFFFFFF DUP3 PUSH2 0x1BB0 JUMP JUMPDEST PUSH2 0x1BF5 DUP7 DUP4 PUSH2 0x1BB0 JUMP JUMPDEST SWAP6 POP DUP1 NOT DUP5 AND SWAP4 POP DUP1 DUP7 AND DUP5 OR SWAP3 POP POP POP SWAP4 SWAP3 POP POP POP JUMP JUMPDEST PUSH0 DUP2 SWAP1 POP SWAP2 SWAP1 POP JUMP JUMPDEST PUSH0 DUP2 SWAP1 POP SWAP2 SWAP1 POP JUMP JUMPDEST PUSH0 PUSH2 0x1C39 PUSH2 0x1C34 PUSH2 0x1C2F DUP5 PUSH2 0x1C0D JUMP JUMPDEST PUSH2 0x1C16 JUMP JUMPDEST PUSH2 0x1C0D JUMP JUMPDEST SWAP1 POP SWAP2 SWAP1 POP JUMP JUMPDEST PUSH0 DUP2 SWAP1 POP SWAP2 SWAP1 POP JUMP JUMPDEST PUSH2 0x1C52 DUP4 PUSH2 0x1C1F JUMP JUMPDEST PUSH2 0x1C66 PUSH2 0x1C5E DUP3 PUSH2 0x1C40 JUMP JUMPDEST DUP5 DUP5 SLOAD PUSH2 0x1BBC JUMP JUMPDEST DUP3 SSTORE POP POP POP POP JUMP JUMPDEST PUSH0 SWAP1 JUMP JUMPDEST PUSH2 0x1C7A PUSH2 0x1C6E JUMP JUMPDEST PUSH2 0x1C85 DUP2 DUP5 DUP5 PUSH2 0x1C49 JUMP JUMPDEST POP POP POP JUMP JUMPDEST JUMPDEST DUP2 DUP2 LT ISZERO PUSH2 0x1CA8 JUMPI PUSH2 0x1C9D PUSH0 DUP3 PUSH2 0x1C72 JUMP JUMPDEST PUSH1 0x1 DUP2 ADD SWAP1 POP PUSH2 0x1C8B JUMP JUMPDEST POP POP JUMP JUMPDEST PUSH1 0x1F DUP3 GT ISZERO PUSH2 0x1CED JUMPI PUSH2 0x1CBE DUP2 PUSH2 0x1B8F JUMP JUMPDEST PUSH2 0x1CC7 DUP5 PUSH2 0x1BA1 JUMP JUMPDEST DUP2 ADD PUSH1 0x20 DUP6 LT ISZERO PUSH2 0x1CD6 JUMPI DUP2 SWAP1 POP JUMPDEST PUSH2 0x1CEA PUSH2 0x1CE2 DUP6 PUSH2 0x1BA1 JUMP JUMPDEST DUP4 ADD DUP3 PUSH2 0x1C8A JUMP JUMPDEST POP POP JUMPDEST POP POP POP JUMP JUMPDEST PUSH0 DUP3 DUP3 SHR SWAP1 POP SWAP3 SWAP2 POP POP JUMP JUMPDEST PUSH0 PUSH2 0x1D0D PUSH0 NOT DUP5 PUSH1 0x8 MUL PUSH2 0x1CF2 JUMP JUMPDEST NOT DUP1 DUP4 AND SWAP2 POP POP SWAP3 SWAP2 POP POP JUMP JUMPDEST PUSH0 PUSH2 0x1D25 DUP4 DUP4 PUSH2 0x1CFE JUMP JUMPDEST SWAP2 POP DUP3 PUSH1 0x2 MUL DUP3 OR SWAP1 POP SWAP3 SWAP2 POP POP JUMP JUMPDEST PUSH2 0x1D3E DUP3 PUSH2 0x1619 JUMP JUMPDEST PUSH8 0xFFFFFFFFFFFFFFFF DUP2 GT ISZERO PUSH2 0x1D57 JUMPI PUSH2 0x1D56 PUSH2 0x139C JUMP JUMPDEST JUMPDEST PUSH2 0x1D61 DUP3 SLOAD PUSH2 0x1B5F JUMP JUMPDEST PUSH2 0x1D6C DUP3 DUP3 DUP6 PUSH2 0x1CAC JUMP JUMPDEST PUSH0 PUSH1 0x20 SWAP1 POP PUSH1 0x1F DUP4 GT PUSH1 0x1 DUP2 EQ PUSH2 0x1D9D JUMPI PUSH0 DUP5 ISZERO PUSH2 0x1D8B JUMPI DUP3 DUP8 ADD MLOAD SWAP1 POP JUMPDEST PUSH2 0x1D95 DUP6 DUP3 PUSH2 0x1D1A JUMP JUMPDEST DUP7 SSTORE POP PUSH2 0x1DFC JUMP JUMPDEST PUSH1 0x1F NOT DUP5 AND PUSH2 0x1DAB DUP7 PUSH2 0x1B8F JUMP JUMPDEST PUSH0 JUMPDEST DUP3 DUP2 LT ISZERO PUSH2 0x1DD2 JUMPI DUP5 DUP10 ADD MLOAD DUP3 SSTORE PUSH1 0x1 DUP3 ADD SWAP2 POP PUSH1 0x20 DUP6 ADD SWAP5 POP PUSH1 0x20 DUP2 ADD SWAP1 POP PUSH2 0x1DAD JUMP JUMPDEST DUP7 DUP4 LT ISZERO PUSH2 0x1DEF JUMPI DUP5 DUP10 ADD MLOAD PUSH2 0x1DEB PUSH1 0x1F DUP10 AND DUP3 PUSH2 0x1CFE JUMP JUMPDEST DUP4 SSTORE POP JUMPDEST PUSH1 0x1 PUSH1 0x2 DUP9 MUL ADD DUP9 SSTORE POP POP POP JUMPDEST POP POP POP POP POP POP JUMP JUMPDEST PUSH0 PUSH2 0x1E0F DUP3 DUP5 PUSH2 0x1AA5 JUMP JUMPDEST SWAP2 POP DUP2 SWAP1 POP SWAP3 SWAP2 POP POP JUMP JUMPDEST PUSH0 PUSH1 0x60 DUP3 ADD SWAP1 POP DUP2 DUP2 SUB PUSH0 DUP4 ADD MSTORE PUSH2 0x1E32 DUP2 DUP7 PUSH2 0x1641 JUMP JUMPDEST SWAP1 POP DUP2 DUP2 SUB PUSH1 0x20 DUP4 ADD MSTORE PUSH2 0x1E46 DUP2 DUP6 PUSH2 0x1641 JUMP JUMPDEST SWAP1 POP DUP2 DUP2 SUB PUSH1 0x40 DUP4 ADD MSTORE PUSH2 0x1E5A DUP2 DUP5 PUSH2 0x1641 JUMP JUMPDEST SWAP1 POP SWAP5 SWAP4 POP POP POP POP JUMP JUMPDEST PUSH0 PUSH1 0xFF DUP3 AND SWAP1 POP SWAP2 SWAP1 POP JUMP JUMPDEST PUSH32 0x4E487B7100000000000000000000000000000000000000000000000000000000 PUSH0 MSTORE PUSH1 0x11 PUSH1 0x4 MSTORE PUSH1 0x24 PUSH0 REVERT JUMPDEST PUSH0 PUSH2 0x1EA7 DUP3 PUSH2 0x1E64 JUMP JUMPDEST SWAP2 POP PUSH2 0x1EB2 DUP4 PUSH2 0x1E64 JUMP JUMPDEST SWAP3 POP DUP3 DUP3 ADD SWAP1 POP PUSH1 0xFF DUP2 GT ISZERO PUSH2 0x1ECB JUMPI PUSH2 0x1ECA PUSH2 0x1E70 JUMP JUMPDEST JUMPDEST SWAP3 SWAP2 POP POP JUMP JUMPDEST PUSH32 0x496E76616C696420726F6C650000000000000000000000000000000000000000 PUSH0 DUP3 ADD MSTORE POP JUMP JUMPDEST PUSH0 PUSH2 0x1F05 PUSH1 0xC DUP4 PUSH2 0x1623 JUMP JUMPDEST SWAP2 POP PUSH2 0x1F10 DUP3 PUSH2 0x1ED1 JUMP JUMPDEST PUSH1 0x20 DUP3 ADD SWAP1 POP SWAP2 SWAP1 POP JUMP JUMPDEST PUSH0 PUSH1 0x20 DUP3 ADD SWAP1 POP DUP2 DUP2 SUB PUSH0 DUP4 ADD MSTORE PUSH2 0x1F32 DUP2 PUSH2 0x1EF9 JUMP JUMPDEST SWAP1 POP SWAP2 SWAP1 POP JUMP JUMPDEST PUSH0 PUSH2 0x1F43 DUP3 PUSH2 0x1C0D JUMP JUMPDEST SWAP2 POP PUSH2 0x1F4E DUP4 PUSH2 0x1C0D JUMP JUMPDEST SWAP3 POP DUP3 DUP3 SUB SWAP1 POP DUP2 DUP2 GT ISZERO PUSH2 0x1F66 JUMPI PUSH2 0x1F65 PUSH2 0x1E70 JUMP JUMPDEST JUMPDEST SWAP3 SWAP2 POP POP JUMP JUMPDEST PUSH0 PUSH2 0x1F76 DUP3 PUSH2 0x1C0D JUMP JUMPDEST SWAP2 POP PUSH2 0x1F81 DUP4 PUSH2 0x1C0D JUMP JUMPDEST SWAP3 POP DUP3 DUP3 ADD SWAP1 POP DUP1 DUP3 GT ISZERO PUSH2 0x1F99 JUMPI PUSH2 0x1F98 PUSH2 0x1E70 JUMP JUMPDEST JUMPDEST SWAP3 SWAP2 POP POP JUMP JUMPDEST PUSH0 PUSH2 0x1FA9 DUP3 PUSH2 0x1C0D JUMP JUMPDEST SWAP2 POP PUSH32 0xFFFFFFFFFFFFFFFFFFFFFFFFFFFFFFFFFFFFFFFFFFFFFFFFFFFFFFFFFFFFFFFF DUP3 SUB PUSH2 0x1FDB JUMPI PUSH2 0x1FDA PUSH2 0x1E70 JUMP JUMPDEST JUMPDEST PUSH1 0x1 DUP3 ADD SWAP1 POP SWAP2 SWAP1 POP JUMP INVALID LOG2 PUSH5 0x6970667358 0x22 SLT KECCAK256 0xBA 0xB8 0xE1 PUSH22 0x7A2EECF25F38B635310488E284E5666DCCDAD71C4892 CALLDATALOAD PUSH16 0x3BFB1FEC64736F6C634300081A003300 "
				},
				"gasEstimates": {
					"creation": {
						"codeDepositCost": "1644000",
						"executionCost": "infinite",
						"totalCost": "infinite"
					},
					"external": {
						"getEntityInfo(address)": "infinite",
						"registerEntity(string,string,string,string)": "infinite",
						"validateTransfer(address,address)": "infinite"
					},
					"internal": {
						"_toLowerCase(string memory)": "infinite",
						"containsString(string memory,string memory)": "infinite",
						"getLicensePrefixForRole(string memory)": "infinite",
						"isLocationBlacklisted(string memory)": "infinite",
						"isValidRole(string memory)": "infinite",
						"normaliseRole(string memory)": "infinite"
					}
				},
				"methodIdentifiers": {
					"getEntityInfo(address)": "40f385ff",
					"registerEntity(string,string,string,string)": "3bd18a9e",
					"validateTransfer(address,address)": "6f475e7f"
				}
			},
			"storageLayout": {
				"storage": [
					{
						"astId": 23,
						"contract": "contracts/EntityContract.sol:EntityContract",
						"label": "blacklistedLocations",
						"offset": 0,
						"slot": "0",
						"type": "t_array(t_string_storage)dyn_storage"
					},
					{
						"astId": 39,
						"contract": "contracts/EntityContract.sol:EntityContract",
						"label": "entities",
						"offset": 0,
						"slot": "1",
						"type": "t_mapping(t_address,t_struct(Entity)34_storage)"
					},
					{
						"astId": 44,
						"contract": "contracts/EntityContract.sol:EntityContract",
						"label": "entitiesByRole",
						"offset": 0,
						"slot": "2",
						"type": "t_mapping(t_string_memory_ptr,t_array(t_address)dyn_storage)"
					}
				],
				"types": {
					"t_address": {
						"encoding": "inplace",
						"label": "address",
						"numberOfBytes": "20"
					},
					"t_array(t_address)dyn_storage": {
						"base": "t_address",
						"encoding": "dynamic_array",
						"label": "address[]",
						"numberOfBytes": "32"
					},
					"t_array(t_string_storage)dyn_storage": {
						"base": "t_string_storage",
						"encoding": "dynamic_array",
						"label": "string[]",
						"numberOfBytes": "32"
					},
					"t_bool": {
						"encoding": "inplace",
						"label": "bool",
						"numberOfBytes": "1"
					},
					"t_mapping(t_address,t_struct(Entity)34_storage)": {
						"encoding": "mapping",
						"key": "t_address",
						"label": "mapping(address => struct EntityContract.Entity)",
						"numberOfBytes": "32",
						"value": "t_struct(Entity)34_storage"
					},
					"t_mapping(t_string_memory_ptr,t_array(t_address)dyn_storage)": {
						"encoding": "mapping",
						"key": "t_string_memory_ptr",
						"label": "mapping(string => address[])",
						"numberOfBytes": "32",
						"value": "t_array(t_address)dyn_storage"
					},
					"t_string_memory_ptr": {
						"encoding": "bytes",
						"label": "string",
						"numberOfBytes": "32"
					},
					"t_string_storage": {
						"encoding": "bytes",
						"label": "string",
						"numberOfBytes": "32"
					},
					"t_struct(Entity)34_storage": {
						"encoding": "inplace",
						"label": "struct EntityContract.Entity",
						"members": [
							{
								"astId": 25,
								"contract": "contracts/EntityContract.sol:EntityContract",
								"label": "name",
								"offset": 0,
								"slot": "0",
								"type": "t_string_storage"
							},
							{
								"astId": 27,
								"contract": "contracts/EntityContract.sol:EntityContract",
								"label": "location",
								"offset": 0,
								"slot": "1",
								"type": "t_string_storage"
							},
							{
								"astId": 29,
								"contract": "contracts/EntityContract.sol:EntityContract",
								"label": "isRegistered",
								"offset": 0,
								"slot": "2",
								"type": "t_bool"
							},
							{
								"astId": 31,
								"contract": "contracts/EntityContract.sol:EntityContract",
								"label": "licenseNumber",
								"offset": 0,
								"slot": "3",
								"type": "t_string_storage"
							},
							{
								"astId": 33,
								"contract": "contracts/EntityContract.sol:EntityContract",
								"label": "role",
								"offset": 0,
								"slot": "4",
								"type": "t_string_storage"
							}
						],
						"numberOfBytes": "160"
					}
				}
			},
			"userdoc": {
				"kind": "user",
				"methods": {},
				"version": 1
			}
		}
	}
}